{
  "contractName": "CardItem",
  "abi": [
    {
      "inputs": [
        {
          "internalType": "string",
          "name": "_name",
          "type": "string"
        },
        {
          "internalType": "string",
          "name": "_symbol",
          "type": "string"
        },
        {
          "internalType": "uint256",
          "name": "_pricePerToken",
          "type": "uint256"
        }
      ],
      "stateMutability": "nonpayable",
      "type": "constructor"
    },
    {
      "anonymous": false,
      "inputs": [
        {
          "indexed": true,
          "internalType": "address",
          "name": "owner",
          "type": "address"
        },
        {
          "indexed": true,
          "internalType": "address",
          "name": "approved",
          "type": "address"
        },
        {
          "indexed": true,
          "internalType": "uint256",
          "name": "tokenId",
          "type": "uint256"
        }
      ],
      "name": "Approval",
      "type": "event"
    },
    {
      "anonymous": false,
      "inputs": [
        {
          "indexed": true,
          "internalType": "address",
          "name": "owner",
          "type": "address"
        },
        {
          "indexed": true,
          "internalType": "address",
          "name": "operator",
          "type": "address"
        },
        {
          "indexed": false,
          "internalType": "bool",
          "name": "approved",
          "type": "bool"
        }
      ],
      "name": "ApprovalForAll",
      "type": "event"
    },
    {
      "anonymous": false,
      "inputs": [
        {
          "indexed": false,
          "internalType": "address",
          "name": "owner",
          "type": "address"
        },
        {
          "indexed": false,
          "internalType": "uint256",
          "name": "tokenId",
          "type": "uint256"
        }
      ],
      "name": "ItemCreated",
      "type": "event"
    },
    {
      "anonymous": false,
      "inputs": [
        {
          "indexed": true,
          "internalType": "address",
          "name": "previousOwner",
          "type": "address"
        },
        {
          "indexed": true,
          "internalType": "address",
          "name": "newOwner",
          "type": "address"
        }
      ],
      "name": "OwnershipTransferred",
      "type": "event"
    },
    {
      "anonymous": false,
      "inputs": [
        {
          "indexed": true,
          "internalType": "address",
          "name": "from",
          "type": "address"
        },
        {
          "indexed": true,
          "internalType": "address",
          "name": "to",
          "type": "address"
        },
        {
          "indexed": true,
          "internalType": "uint256",
          "name": "tokenId",
          "type": "uint256"
        }
      ],
      "name": "Transfer",
      "type": "event"
    },
    {
      "inputs": [],
      "name": "_tokenIds",
      "outputs": [
        {
          "internalType": "uint256",
          "name": "_value",
          "type": "uint256"
        }
      ],
      "stateMutability": "view",
      "type": "function",
      "constant": true
    },
    {
      "inputs": [
        {
          "internalType": "address",
          "name": "to",
          "type": "address"
        },
        {
          "internalType": "uint256",
          "name": "tokenId",
          "type": "uint256"
        }
      ],
      "name": "approve",
      "outputs": [],
      "stateMutability": "nonpayable",
      "type": "function"
    },
    {
      "inputs": [
        {
          "internalType": "address",
          "name": "owner",
          "type": "address"
        }
      ],
      "name": "balanceOf",
      "outputs": [
        {
          "internalType": "uint256",
          "name": "",
          "type": "uint256"
        }
      ],
      "stateMutability": "view",
      "type": "function",
      "constant": true
    },
    {
      "inputs": [
        {
          "internalType": "uint256",
          "name": "tokenId",
          "type": "uint256"
        }
      ],
      "name": "getApproved",
      "outputs": [
        {
          "internalType": "address",
          "name": "",
          "type": "address"
        }
      ],
      "stateMutability": "view",
      "type": "function",
      "constant": true
    },
    {
      "inputs": [
        {
          "internalType": "string",
          "name": "",
          "type": "string"
        }
      ],
      "name": "ipfsHashToTokenId",
      "outputs": [
        {
          "internalType": "uint256",
          "name": "",
          "type": "uint256"
        }
      ],
      "stateMutability": "view",
      "type": "function",
      "constant": true
    },
    {
      "inputs": [
        {
          "internalType": "string",
          "name": "",
          "type": "string"
        }
      ],
      "name": "ipfsHashes",
      "outputs": [
        {
          "internalType": "bool",
          "name": "",
          "type": "bool"
        }
      ],
      "stateMutability": "view",
      "type": "function",
      "constant": true
    },
    {
      "inputs": [
        {
          "internalType": "address",
          "name": "owner",
          "type": "address"
        },
        {
          "internalType": "address",
          "name": "operator",
          "type": "address"
        }
      ],
      "name": "isApprovedForAll",
      "outputs": [
        {
          "internalType": "bool",
          "name": "",
          "type": "bool"
        }
      ],
      "stateMutability": "view",
      "type": "function",
      "constant": true
    },
    {
      "inputs": [],
      "name": "name",
      "outputs": [
        {
          "internalType": "string",
          "name": "",
          "type": "string"
        }
      ],
      "stateMutability": "view",
      "type": "function",
      "constant": true
    },
    {
      "inputs": [],
      "name": "owner",
      "outputs": [
        {
          "internalType": "address",
          "name": "",
          "type": "address"
        }
      ],
      "stateMutability": "view",
      "type": "function",
      "constant": true
    },
    {
      "inputs": [
        {
          "internalType": "uint256",
          "name": "tokenId",
          "type": "uint256"
        }
      ],
      "name": "ownerOf",
      "outputs": [
        {
          "internalType": "address",
          "name": "",
          "type": "address"
        }
      ],
      "stateMutability": "view",
      "type": "function",
      "constant": true
    },
    {
      "inputs": [],
      "name": "pricePerToken",
      "outputs": [
        {
          "internalType": "uint256",
          "name": "",
          "type": "uint256"
        }
      ],
      "stateMutability": "view",
      "type": "function",
      "constant": true
    },
    {
      "inputs": [],
      "name": "renounceOwnership",
      "outputs": [],
      "stateMutability": "nonpayable",
      "type": "function"
    },
    {
      "inputs": [
        {
          "internalType": "address",
          "name": "from",
          "type": "address"
        },
        {
          "internalType": "address",
          "name": "to",
          "type": "address"
        },
        {
          "internalType": "uint256",
          "name": "tokenId",
          "type": "uint256"
        }
      ],
      "name": "safeTransferFrom",
      "outputs": [],
      "stateMutability": "nonpayable",
      "type": "function"
    },
    {
      "inputs": [
        {
          "internalType": "address",
          "name": "from",
          "type": "address"
        },
        {
          "internalType": "address",
          "name": "to",
          "type": "address"
        },
        {
          "internalType": "uint256",
          "name": "tokenId",
          "type": "uint256"
        },
        {
          "internalType": "bytes",
          "name": "_data",
          "type": "bytes"
        }
      ],
      "name": "safeTransferFrom",
      "outputs": [],
      "stateMutability": "nonpayable",
      "type": "function"
    },
    {
      "inputs": [
        {
          "internalType": "address",
          "name": "operator",
          "type": "address"
        },
        {
          "internalType": "bool",
          "name": "approved",
          "type": "bool"
        }
      ],
      "name": "setApprovalForAll",
      "outputs": [],
      "stateMutability": "nonpayable",
      "type": "function"
    },
    {
      "inputs": [
        {
          "internalType": "bytes4",
          "name": "interfaceId",
          "type": "bytes4"
        }
      ],
      "name": "supportsInterface",
      "outputs": [
        {
          "internalType": "bool",
          "name": "",
          "type": "bool"
        }
      ],
      "stateMutability": "view",
      "type": "function",
      "constant": true
    },
    {
      "inputs": [],
      "name": "symbol",
      "outputs": [
        {
          "internalType": "string",
          "name": "",
          "type": "string"
        }
      ],
      "stateMutability": "view",
      "type": "function",
      "constant": true
    },
    {
      "inputs": [
        {
          "internalType": "uint256",
          "name": "",
          "type": "uint256"
        }
      ],
      "name": "tokenInfoMap",
      "outputs": [
        {
          "internalType": "address",
          "name": "owner",
          "type": "address"
        },
        {
          "internalType": "string",
          "name": "ipfsHash",
          "type": "string"
        }
      ],
      "stateMutability": "view",
      "type": "function",
      "constant": true
    },
    {
      "inputs": [
        {
          "internalType": "uint256",
          "name": "tokenId",
          "type": "uint256"
        }
      ],
      "name": "tokenURI",
      "outputs": [
        {
          "internalType": "string",
          "name": "",
          "type": "string"
        }
      ],
      "stateMutability": "view",
      "type": "function",
      "constant": true
    },
    {
      "inputs": [
        {
          "internalType": "address",
          "name": "from",
          "type": "address"
        },
        {
          "internalType": "address",
          "name": "to",
          "type": "address"
        },
        {
          "internalType": "uint256",
          "name": "tokenId",
          "type": "uint256"
        }
      ],
      "name": "transferFrom",
      "outputs": [],
      "stateMutability": "nonpayable",
      "type": "function"
    },
    {
      "inputs": [
        {
          "internalType": "address",
          "name": "newOwner",
          "type": "address"
        }
      ],
      "name": "transferOwnership",
      "outputs": [],
      "stateMutability": "nonpayable",
      "type": "function"
    },
    {
      "inputs": [
        {
          "internalType": "address",
          "name": "_owner",
          "type": "address"
        },
        {
          "internalType": "string",
          "name": "_tokenURI",
          "type": "string"
        }
      ],
      "name": "mintNFT",
      "outputs": [
        {
          "internalType": "uint256",
          "name": "",
          "type": "uint256"
        }
      ],
      "stateMutability": "nonpayable",
      "type": "function"
    }
  ],
  "bytecode": "0x60806040523480156200001157600080fd5b5060405162003a8038038062003a8083398181016040528101906200003791906200026f565b828281600090805190602001906200005192919062000136565b5080600190805190602001906200006a92919062000136565b50505060006200007f6200012e60201b60201c565b905080600760006101000a81548173ffffffffffffffffffffffffffffffffffffffff021916908373ffffffffffffffffffffffffffffffffffffffff1602179055508073ffffffffffffffffffffffffffffffffffffffff16600073ffffffffffffffffffffffffffffffffffffffff167f8be0079c531659141344cd1fd0a4f28419497f9722a3daafe3b4186f6b6457e060405160405180910390a350806009819055505050506200048b565b600033905090565b828054620001449062000396565b90600052602060002090601f016020900481019282620001685760008555620001b4565b82601f106200018357805160ff1916838001178555620001b4565b82800160010185558215620001b4579182015b82811115620001b357825182559160200191906001019062000196565b5b509050620001c39190620001c7565b5090565b5b80821115620001e2576000816000905550600101620001c8565b5090565b6000620001fd620001f78462000320565b620002f7565b9050828152602081018484840111156200021657600080fd5b6200022384828562000360565b509392505050565b600082601f8301126200023d57600080fd5b81516200024f848260208601620001e6565b91505092915050565b600081519050620002698162000471565b92915050565b6000806000606084860312156200028557600080fd5b600084015167ffffffffffffffff811115620002a057600080fd5b620002ae868287016200022b565b935050602084015167ffffffffffffffff811115620002cc57600080fd5b620002da868287016200022b565b9250506040620002ed8682870162000258565b9150509250925092565b60006200030362000316565b9050620003118282620003cc565b919050565b6000604051905090565b600067ffffffffffffffff8211156200033e576200033d62000431565b5b620003498262000460565b9050602081019050919050565b6000819050919050565b60005b838110156200038057808201518184015260208101905062000363565b8381111562000390576000848401525b50505050565b60006002820490506001821680620003af57607f821691505b60208210811415620003c657620003c562000402565b5b50919050565b620003d78262000460565b810181811067ffffffffffffffff82111715620003f957620003f862000431565b5b80604052505050565b7f4e487b7100000000000000000000000000000000000000000000000000000000600052602260045260246000fd5b7f4e487b7100000000000000000000000000000000000000000000000000000000600052604160045260246000fd5b6000601f19601f8301169050919050565b6200047c8162000356565b81146200048857600080fd5b50565b6135e5806200049b6000396000f3fe608060405234801561001057600080fd5b50600436106101425760003560e01c80638da5cb5b116100b8578063b88d4fde1161007c578063b88d4fde14610378578063bfc67d9a14610394578063c87b56dd146103c4578063e985e9c5146103f4578063eacabe1414610424578063f2fde38b1461045457610142565b80638da5cb5b146102d257806395d89b41146102f0578063a22cb4651461030e578063aa46a4001461032a578063b5b9cd951461034857610142565b806342842e0e1161010a57806342842e0e146101fd5780636352211e146102195780636fa700bf1461024957806370a082311461027a578063715018a6146102aa5780637b1b1de6146102b457610142565b806301ffc9a71461014757806306fdde0314610177578063081812fc14610195578063095ea7b3146101c557806323b872dd146101e1575b600080fd5b610161600480360381019061015c9190612477565b610470565b60405161016e9190612997565b60405180910390f35b61017f610552565b60405161018c91906129b2565b60405180910390f35b6101af60048036038101906101aa919061250a565b6105e4565b6040516101bc91906128d7565b60405180910390f35b6101df60048036038101906101da919061243b565b610669565b005b6101fb60048036038101906101f691906122e1565b610781565b005b610217600480360381019061021291906122e1565b6107e1565b005b610233600480360381019061022e919061250a565b610801565b60405161024091906128d7565b60405180910390f35b610263600480360381019061025e919061250a565b6108b3565b60405161027192919061293e565b60405180910390f35b610294600480360381019061028f919061227c565b61097f565b6040516102a19190612c34565b60405180910390f35b6102b2610a37565b005b6102bc610b74565b6040516102c99190612c34565b60405180910390f35b6102da610b7a565b6040516102e791906128d7565b60405180910390f35b6102f8610ba4565b60405161030591906129b2565b60405180910390f35b610328600480360381019061032391906123ab565b610c36565b005b610332610db7565b60405161033f9190612c34565b60405180910390f35b610362600480360381019061035d91906124c9565b610dc3565b60405161036f9190612997565b60405180910390f35b610392600480360381019061038d9190612330565b610df9565b005b6103ae60048036038101906103a991906124c9565b610e5b565b6040516103bb9190612c34565b60405180910390f35b6103de60048036038101906103d9919061250a565b610e89565b6040516103eb91906129b2565b60405180910390f35b61040e600480360381019061040991906122a5565b610fdb565b60405161041b9190612997565b60405180910390f35b61043e600480360381019061043991906123e7565b61106f565b60405161044b9190612c34565b60405180910390f35b61046e6004803603810190610469919061227c565b6112ce565b005b60007f80ac58cd000000000000000000000000000000000000000000000000000000007bffffffffffffffffffffffffffffffffffffffffffffffffffffffff1916827bffffffffffffffffffffffffffffffffffffffffffffffffffffffff1916148061053b57507f5b5e139f000000000000000000000000000000000000000000000000000000007bffffffffffffffffffffffffffffffffffffffffffffffffffffffff1916827bffffffffffffffffffffffffffffffffffffffffffffffffffffffff1916145b8061054b575061054a8261147a565b5b9050919050565b60606000805461056190612e8a565b80601f016020809104026020016040519081016040528092919081815260200182805461058d90612e8a565b80156105da5780601f106105af576101008083540402835291602001916105da565b820191906000526020600020905b8154815290600101906020018083116105bd57829003601f168201915b5050505050905090565b60006105ef826114e4565b61062e576040517f08c379a000000000000000000000000000000000000000000000000000000000815260040161062590612b74565b60405180910390fd5b6004600083815260200190815260200160002060009054906101000a900473ffffffffffffffffffffffffffffffffffffffff169050919050565b600061067482610801565b90508073ffffffffffffffffffffffffffffffffffffffff168373ffffffffffffffffffffffffffffffffffffffff1614156106e5576040517f08c379a00000000000000000000000000000000000000000000000000000000081526004016106dc90612bf4565b60405180910390fd5b8073ffffffffffffffffffffffffffffffffffffffff16610704611550565b73ffffffffffffffffffffffffffffffffffffffff16148061073357506107328161072d611550565b610fdb565b5b610772576040517f08c379a000000000000000000000000000000000000000000000000000000000815260040161076990612ab4565b60405180910390fd5b61077c8383611558565b505050565b61079261078c611550565b82611611565b6107d1576040517f08c379a00000000000000000000000000000000000000000000000000000000081526004016107c890612c14565b60405180910390fd5b6107dc8383836116ef565b505050565b6107fc83838360405180602001604052806000815250610df9565b505050565b6000806002600084815260200190815260200160002060009054906101000a900473ffffffffffffffffffffffffffffffffffffffff169050600073ffffffffffffffffffffffffffffffffffffffff168173ffffffffffffffffffffffffffffffffffffffff1614156108aa576040517f08c379a00000000000000000000000000000000000000000000000000000000081526004016108a190612af4565b60405180910390fd5b80915050919050565b600a6020528060005260406000206000915090508060000160009054906101000a900473ffffffffffffffffffffffffffffffffffffffff16908060010180546108fc90612e8a565b80601f016020809104026020016040519081016040528092919081815260200182805461092890612e8a565b80156109755780601f1061094a57610100808354040283529160200191610975565b820191906000526020600020905b81548152906001019060200180831161095857829003601f168201915b5050505050905082565b60008073ffffffffffffffffffffffffffffffffffffffff168273ffffffffffffffffffffffffffffffffffffffff1614156109f0576040517f08c379a00000000000000000000000000000000000000000000000000000000081526004016109e790612ad4565b60405180910390fd5b600360008373ffffffffffffffffffffffffffffffffffffffff1673ffffffffffffffffffffffffffffffffffffffff168152602001908152602001600020549050919050565b610a3f611550565b73ffffffffffffffffffffffffffffffffffffffff16610a5d610b7a565b73ffffffffffffffffffffffffffffffffffffffff1614610ab3576040517f08c379a0000000000000000000000000000000000000000000000000000000008152600401610aaa90612b94565b60405180910390fd5b600073ffffffffffffffffffffffffffffffffffffffff16600760009054906101000a900473ffffffffffffffffffffffffffffffffffffffff1673ffffffffffffffffffffffffffffffffffffffff167f8be0079c531659141344cd1fd0a4f28419497f9722a3daafe3b4186f6b6457e060405160405180910390a36000600760006101000a81548173ffffffffffffffffffffffffffffffffffffffff021916908373ffffffffffffffffffffffffffffffffffffffff160217905550565b60095481565b6000600760009054906101000a900473ffffffffffffffffffffffffffffffffffffffff16905090565b606060018054610bb390612e8a565b80601f0160208091040260200160405190810160405280929190818152602001828054610bdf90612e8a565b8015610c2c5780601f10610c0157610100808354040283529160200191610c2c565b820191906000526020600020905b815481529060010190602001808311610c0f57829003601f168201915b5050505050905090565b610c3e611550565b73ffffffffffffffffffffffffffffffffffffffff168273ffffffffffffffffffffffffffffffffffffffff161415610cac576040517f08c379a0000000000000000000000000000000000000000000000000000000008152600401610ca390612a54565b60405180910390fd5b8060056000610cb9611550565b73ffffffffffffffffffffffffffffffffffffffff1673ffffffffffffffffffffffffffffffffffffffff16815260200190815260200160002060008473ffffffffffffffffffffffffffffffffffffffff1673ffffffffffffffffffffffffffffffffffffffff16815260200190815260200160002060006101000a81548160ff0219169083151502179055508173ffffffffffffffffffffffffffffffffffffffff16610d66611550565b73ffffffffffffffffffffffffffffffffffffffff167f17307eab39ab6107e8899845ad3d59bd9653f200f220920489ca2b5937696c3183604051610dab9190612997565b60405180910390a35050565b60088060000154905081565b600b818051602081018201805184825260208301602085012081835280955050505050506000915054906101000a900460ff1681565b610e0a610e04611550565b83611611565b610e49576040517f08c379a0000000000000000000000000000000000000000000000000000000008152600401610e4090612c14565b60405180910390fd5b610e558484848461194b565b50505050565b600c818051602081018201805184825260208301602085012081835280955050505050506000915090505481565b6060610e94826114e4565b610ed3576040517f08c379a0000000000000000000000000000000000000000000000000000000008152600401610eca90612b54565b60405180910390fd5b6000600660008481526020019081526020016000208054610ef390612e8a565b80601f0160208091040260200160405190810160405280929190818152602001828054610f1f90612e8a565b8015610f6c5780601f10610f4157610100808354040283529160200191610f6c565b820191906000526020600020905b815481529060010190602001808311610f4f57829003601f168201915b505050505090506000610f7d6119a7565b9050600081511415610f93578192505050610fd6565b600082511115610fc8578082604051602001610fb09291906128b3565b60405160208183030381529060405292505050610fd6565b610fd1846119be565b925050505b919050565b6000600560008473ffffffffffffffffffffffffffffffffffffffff1673ffffffffffffffffffffffffffffffffffffffff16815260200190815260200160002060008373ffffffffffffffffffffffffffffffffffffffff1673ffffffffffffffffffffffffffffffffffffffff16815260200190815260200160002060009054906101000a900460ff16905092915050565b6000611079611550565b73ffffffffffffffffffffffffffffffffffffffff16611097610b7a565b73ffffffffffffffffffffffffffffffffffffffff16146110ed576040517f08c379a00000000000000000000000000000000000000000000000000000000081526004016110e490612b94565b60405180910390fd5b60011515600b83604051611101919061289c565b908152602001604051809103902060009054906101000a900460ff1615151415611160576040517f08c379a000000000000000000000000000000000000000000000000000000000815260040161115790612a74565b60405180910390fd5b61116a6008611a65565b60006111766008611a7b565b90506111828482611a89565b61118c8184611aa7565b6001600b8460405161119e919061289c565b908152602001604051809103902060006101000a81548160ff02191690831515021790555080600c846040516111d4919061289c565b90815260200160405180910390208190555060405180604001604052808573ffffffffffffffffffffffffffffffffffffffff16815260200184815250600a600083815260200190815260200160002060008201518160000160006101000a81548173ffffffffffffffffffffffffffffffffffffffff021916908373ffffffffffffffffffffffffffffffffffffffff16021790555060208201518160010190805190602001906112879291906120a0565b509050507fa9a8fc8429e9d4b8fe54b38fd34cb56aaa1a9bf6eb605f45b223b08b58b9761884826040516112bc92919061296e565b60405180910390a18091505092915050565b6112d6611550565b73ffffffffffffffffffffffffffffffffffffffff166112f4610b7a565b73ffffffffffffffffffffffffffffffffffffffff161461134a576040517f08c379a000000000000000000000000000000000000000000000000000000000815260040161134190612b94565b60405180910390fd5b600073ffffffffffffffffffffffffffffffffffffffff168173ffffffffffffffffffffffffffffffffffffffff1614156113ba576040517f08c379a00000000000000000000000000000000000000000000000000000000081526004016113b1906129f4565b60405180910390fd5b8073ffffffffffffffffffffffffffffffffffffffff16600760009054906101000a900473ffffffffffffffffffffffffffffffffffffffff1673ffffffffffffffffffffffffffffffffffffffff167f8be0079c531659141344cd1fd0a4f28419497f9722a3daafe3b4186f6b6457e060405160405180910390a380600760006101000a81548173ffffffffffffffffffffffffffffffffffffffff021916908373ffffffffffffffffffffffffffffffffffffffff16021790555050565b60007f01ffc9a7000000000000000000000000000000000000000000000000000000007bffffffffffffffffffffffffffffffffffffffffffffffffffffffff1916827bffffffffffffffffffffffffffffffffffffffffffffffffffffffff1916149050919050565b60008073ffffffffffffffffffffffffffffffffffffffff166002600084815260200190815260200160002060009054906101000a900473ffffffffffffffffffffffffffffffffffffffff1673ffffffffffffffffffffffffffffffffffffffff1614159050919050565b600033905090565b816004600083815260200190815260200160002060006101000a81548173ffffffffffffffffffffffffffffffffffffffff021916908373ffffffffffffffffffffffffffffffffffffffff160217905550808273ffffffffffffffffffffffffffffffffffffffff166115cb83610801565b73ffffffffffffffffffffffffffffffffffffffff167f8c5be1e5ebec7d5bd14f71427d1e84f3dd0314c0f7b2291e5b200ac8c7c3b92560405160405180910390a45050565b600061161c826114e4565b61165b576040517f08c379a000000000000000000000000000000000000000000000000000000000815260040161165290612a94565b60405180910390fd5b600061166683610801565b90508073ffffffffffffffffffffffffffffffffffffffff168473ffffffffffffffffffffffffffffffffffffffff1614806116d557508373ffffffffffffffffffffffffffffffffffffffff166116bd846105e4565b73ffffffffffffffffffffffffffffffffffffffff16145b806116e657506116e58185610fdb565b5b91505092915050565b8273ffffffffffffffffffffffffffffffffffffffff1661170f82610801565b73ffffffffffffffffffffffffffffffffffffffff1614611765576040517f08c379a000000000000000000000000000000000000000000000000000000000815260040161175c90612bb4565b60405180910390fd5b600073ffffffffffffffffffffffffffffffffffffffff168273ffffffffffffffffffffffffffffffffffffffff1614156117d5576040517f08c379a00000000000000000000000000000000000000000000000000000000081526004016117cc90612a34565b60405180910390fd5b6117e0838383611b1b565b6117eb600082611558565b6001600360008573ffffffffffffffffffffffffffffffffffffffff1673ffffffffffffffffffffffffffffffffffffffff168152602001908152602001600020600082825461183b9190612da0565b925050819055506001600360008473ffffffffffffffffffffffffffffffffffffffff1673ffffffffffffffffffffffffffffffffffffffff16815260200190815260200160002060008282546118929190612d19565b92505081905550816002600083815260200190815260200160002060006101000a81548173ffffffffffffffffffffffffffffffffffffffff021916908373ffffffffffffffffffffffffffffffffffffffff160217905550808273ffffffffffffffffffffffffffffffffffffffff168473ffffffffffffffffffffffffffffffffffffffff167fddf252ad1be2c89b69c2b068fc378daa952ba7f163c4a11628f55a4df523b3ef60405160405180910390a4505050565b6119568484846116ef565b61196284848484611b20565b6119a1576040517f08c379a0000000000000000000000000000000000000000000000000000000008152600401611998906129d4565b60405180910390fd5b50505050565b606060405180602001604052806000815250905090565b60606119c9826114e4565b611a08576040517f08c379a00000000000000000000000000000000000000000000000000000000081526004016119ff90612bd4565b60405180910390fd5b6000611a126119a7565b90506000815111611a325760405180602001604052806000815250611a5d565b80611a3c84611cb7565b604051602001611a4d9291906128b3565b6040516020818303038152906040525b915050919050565b6001816000016000828254019250508190555050565b600081600001549050919050565b611aa3828260405180602001604052806000815250611e64565b5050565b611ab0826114e4565b611aef576040517f08c379a0000000000000000000000000000000000000000000000000000000008152600401611ae690612b14565b60405180910390fd5b80600660008481526020019081526020016000209080519060200190611b169291906120a0565b505050565b505050565b6000611b418473ffffffffffffffffffffffffffffffffffffffff16611ebf565b15611caa578373ffffffffffffffffffffffffffffffffffffffff1663150b7a02611b6a611550565b8786866040518563ffffffff1660e01b8152600401611b8c94939291906128f2565b602060405180830381600087803b158015611ba657600080fd5b505af1925050508015611bd757506040513d601f19601f82011682018060405250810190611bd491906124a0565b60015b611c5a573d8060008114611c07576040519150601f19603f3d011682016040523d82523d6000602084013e611c0c565b606091505b50600081511415611c52576040517f08c379a0000000000000000000000000000000000000000000000000000000008152600401611c49906129d4565b60405180910390fd5b805181602001fd5b63150b7a0260e01b7bffffffffffffffffffffffffffffffffffffffffffffffffffffffff1916817bffffffffffffffffffffffffffffffffffffffffffffffffffffffff191614915050611caf565b600190505b949350505050565b60606000821415611cff576040518060400160405280600181526020017f30000000000000000000000000000000000000000000000000000000000000008152509050611e5f565b600082905060005b60008214611d31578080611d1a90612eed565b915050600a82611d2a9190612d6f565b9150611d07565b60008167ffffffffffffffff811115611d73577f4e487b7100000000000000000000000000000000000000000000000000000000600052604160045260246000fd5b6040519080825280601f01601f191660200182016040528015611da55781602001600182028036833780820191505090505b5090505b60008514611e5857600182611dbe9190612da0565b9150600a85611dcd9190612f36565b6030611dd99190612d19565b60f81b818381518110611e15577f4e487b7100000000000000000000000000000000000000000000000000000000600052603260045260246000fd5b60200101907effffffffffffffffffffffffffffffffffffffffffffffffffffffffffffff1916908160001a905350600a85611e519190612d6f565b9450611da9565b8093505050505b919050565b611e6e8383611ed2565b611e7b6000848484611b20565b611eba576040517f08c379a0000000000000000000000000000000000000000000000000000000008152600401611eb1906129d4565b60405180910390fd5b505050565b600080823b905060008111915050919050565b600073ffffffffffffffffffffffffffffffffffffffff168273ffffffffffffffffffffffffffffffffffffffff161415611f42576040517f08c379a0000000000000000000000000000000000000000000000000000000008152600401611f3990612b34565b60405180910390fd5b611f4b816114e4565b15611f8b576040517f08c379a0000000000000000000000000000000000000000000000000000000008152600401611f8290612a14565b60405180910390fd5b611f9760008383611b1b565b6001600360008473ffffffffffffffffffffffffffffffffffffffff1673ffffffffffffffffffffffffffffffffffffffff1681526020019081526020016000206000828254611fe79190612d19565b92505081905550816002600083815260200190815260200160002060006101000a81548173ffffffffffffffffffffffffffffffffffffffff021916908373ffffffffffffffffffffffffffffffffffffffff160217905550808273ffffffffffffffffffffffffffffffffffffffff16600073ffffffffffffffffffffffffffffffffffffffff167fddf252ad1be2c89b69c2b068fc378daa952ba7f163c4a11628f55a4df523b3ef60405160405180910390a45050565b8280546120ac90612e8a565b90600052602060002090601f0160209004810192826120ce5760008555612115565b82601f106120e757805160ff1916838001178555612115565b82800160010185558215612115579182015b828111156121145782518255916020019190600101906120f9565b5b5090506121229190612126565b5090565b5b8082111561213f576000816000905550600101612127565b5090565b600061215661215184612c74565b612c4f565b90508281526020810184848401111561216e57600080fd5b612179848285612e48565b509392505050565b600061219461218f84612ca5565b612c4f565b9050828152602081018484840111156121ac57600080fd5b6121b7848285612e48565b509392505050565b6000813590506121ce81613553565b92915050565b6000813590506121e38161356a565b92915050565b6000813590506121f881613581565b92915050565b60008151905061220d81613581565b92915050565b600082601f83011261222457600080fd5b8135612234848260208601612143565b91505092915050565b600082601f83011261224e57600080fd5b813561225e848260208601612181565b91505092915050565b60008135905061227681613598565b92915050565b60006020828403121561228e57600080fd5b600061229c848285016121bf565b91505092915050565b600080604083850312156122b857600080fd5b60006122c6858286016121bf565b92505060206122d7858286016121bf565b9150509250929050565b6000806000606084860312156122f657600080fd5b6000612304868287016121bf565b9350506020612315868287016121bf565b925050604061232686828701612267565b9150509250925092565b6000806000806080858703121561234657600080fd5b6000612354878288016121bf565b9450506020612365878288016121bf565b935050604061237687828801612267565b925050606085013567ffffffffffffffff81111561239357600080fd5b61239f87828801612213565b91505092959194509250565b600080604083850312156123be57600080fd5b60006123cc858286016121bf565b92505060206123dd858286016121d4565b9150509250929050565b600080604083850312156123fa57600080fd5b6000612408858286016121bf565b925050602083013567ffffffffffffffff81111561242557600080fd5b6124318582860161223d565b9150509250929050565b6000806040838503121561244e57600080fd5b600061245c858286016121bf565b925050602061246d85828601612267565b9150509250929050565b60006020828403121561248957600080fd5b6000612497848285016121e9565b91505092915050565b6000602082840312156124b257600080fd5b60006124c0848285016121fe565b91505092915050565b6000602082840312156124db57600080fd5b600082013567ffffffffffffffff8111156124f557600080fd5b6125018482850161223d565b91505092915050565b60006020828403121561251c57600080fd5b600061252a84828501612267565b91505092915050565b61253c81612dd4565b82525050565b61254b81612de6565b82525050565b600061255c82612cd6565b6125668185612cec565b9350612576818560208601612e57565b61257f81613023565b840191505092915050565b600061259582612ce1565b61259f8185612cfd565b93506125af818560208601612e57565b6125b881613023565b840191505092915050565b60006125ce82612ce1565b6125d88185612d0e565b93506125e8818560208601612e57565b80840191505092915050565b6000612601603283612cfd565b915061260c82613034565b604082019050919050565b6000612624602683612cfd565b915061262f82613083565b604082019050919050565b6000612647601c83612cfd565b9150612652826130d2565b602082019050919050565b600061266a602483612cfd565b9150612675826130fb565b604082019050919050565b600061268d601983612cfd565b91506126988261314a565b602082019050919050565b60006126b0601283612cfd565b91506126bb82613173565b602082019050919050565b60006126d3602c83612cfd565b91506126de8261319c565b604082019050919050565b60006126f6603883612cfd565b9150612701826131eb565b604082019050919050565b6000612719602a83612cfd565b91506127248261323a565b604082019050919050565b600061273c602983612cfd565b915061274782613289565b604082019050919050565b600061275f602e83612cfd565b915061276a826132d8565b604082019050919050565b6000612782602083612cfd565b915061278d82613327565b602082019050919050565b60006127a5603183612cfd565b91506127b082613350565b604082019050919050565b60006127c8602c83612cfd565b91506127d38261339f565b604082019050919050565b60006127eb602083612cfd565b91506127f6826133ee565b602082019050919050565b600061280e602983612cfd565b915061281982613417565b604082019050919050565b6000612831602f83612cfd565b915061283c82613466565b604082019050919050565b6000612854602183612cfd565b915061285f826134b5565b604082019050919050565b6000612877603183612cfd565b915061288282613504565b604082019050919050565b61289681612e3e565b82525050565b60006128a882846125c3565b915081905092915050565b60006128bf82856125c3565b91506128cb82846125c3565b91508190509392505050565b60006020820190506128ec6000830184612533565b92915050565b60006080820190506129076000830187612533565b6129146020830186612533565b612921604083018561288d565b81810360608301526129338184612551565b905095945050505050565b60006040820190506129536000830185612533565b8181036020830152612965818461258a565b90509392505050565b60006040820190506129836000830185612533565b612990602083018461288d565b9392505050565b60006020820190506129ac6000830184612542565b92915050565b600060208201905081810360008301526129cc818461258a565b905092915050565b600060208201905081810360008301526129ed816125f4565b9050919050565b60006020820190508181036000830152612a0d81612617565b9050919050565b60006020820190508181036000830152612a2d8161263a565b9050919050565b60006020820190508181036000830152612a4d8161265d565b9050919050565b60006020820190508181036000830152612a6d81612680565b9050919050565b60006020820190508181036000830152612a8d816126a3565b9050919050565b60006020820190508181036000830152612aad816126c6565b9050919050565b60006020820190508181036000830152612acd816126e9565b9050919050565b60006020820190508181036000830152612aed8161270c565b9050919050565b60006020820190508181036000830152612b0d8161272f565b9050919050565b60006020820190508181036000830152612b2d81612752565b9050919050565b60006020820190508181036000830152612b4d81612775565b9050919050565b60006020820190508181036000830152612b6d81612798565b9050919050565b60006020820190508181036000830152612b8d816127bb565b9050919050565b60006020820190508181036000830152612bad816127de565b9050919050565b60006020820190508181036000830152612bcd81612801565b9050919050565b60006020820190508181036000830152612bed81612824565b9050919050565b60006020820190508181036000830152612c0d81612847565b9050919050565b60006020820190508181036000830152612c2d8161286a565b9050919050565b6000602082019050612c49600083018461288d565b92915050565b6000612c59612c6a565b9050612c658282612ebc565b919050565b6000604051905090565b600067ffffffffffffffff821115612c8f57612c8e612ff4565b5b612c9882613023565b9050602081019050919050565b600067ffffffffffffffff821115612cc057612cbf612ff4565b5b612cc982613023565b9050602081019050919050565b600081519050919050565b600081519050919050565b600082825260208201905092915050565b600082825260208201905092915050565b600081905092915050565b6000612d2482612e3e565b9150612d2f83612e3e565b9250827fffffffffffffffffffffffffffffffffffffffffffffffffffffffffffffffff03821115612d6457612d63612f67565b5b828201905092915050565b6000612d7a82612e3e565b9150612d8583612e3e565b925082612d9557612d94612f96565b5b828204905092915050565b6000612dab82612e3e565b9150612db683612e3e565b925082821015612dc957612dc8612f67565b5b828203905092915050565b6000612ddf82612e1e565b9050919050565b60008115159050919050565b60007fffffffff0000000000000000000000000000000000000000000000000000000082169050919050565b600073ffffffffffffffffffffffffffffffffffffffff82169050919050565b6000819050919050565b82818337600083830152505050565b60005b83811015612e75578082015181840152602081019050612e5a565b83811115612e84576000848401525b50505050565b60006002820490506001821680612ea257607f821691505b60208210811415612eb657612eb5612fc5565b5b50919050565b612ec582613023565b810181811067ffffffffffffffff82111715612ee457612ee3612ff4565b5b80604052505050565b6000612ef882612e3e565b91507fffffffffffffffffffffffffffffffffffffffffffffffffffffffffffffffff821415612f2b57612f2a612f67565b5b600182019050919050565b6000612f4182612e3e565b9150612f4c83612e3e565b925082612f5c57612f5b612f96565b5b828206905092915050565b7f4e487b7100000000000000000000000000000000000000000000000000000000600052601160045260246000fd5b7f4e487b7100000000000000000000000000000000000000000000000000000000600052601260045260246000fd5b7f4e487b7100000000000000000000000000000000000000000000000000000000600052602260045260246000fd5b7f4e487b7100000000000000000000000000000000000000000000000000000000600052604160045260246000fd5b6000601f19601f8301169050919050565b7f4552433732313a207472616e7366657220746f206e6f6e20455243373231526560008201527f63656976657220696d706c656d656e7465720000000000000000000000000000602082015250565b7f4f776e61626c653a206e6577206f776e657220697320746865207a65726f206160008201527f6464726573730000000000000000000000000000000000000000000000000000602082015250565b7f4552433732313a20746f6b656e20616c7265616479206d696e74656400000000600082015250565b7f4552433732313a207472616e7366657220746f20746865207a65726f2061646460008201527f7265737300000000000000000000000000000000000000000000000000000000602082015250565b7f4552433732313a20617070726f766520746f2063616c6c657200000000000000600082015250565b7f416c726561647920726567697374657265640000000000000000000000000000600082015250565b7f4552433732313a206f70657261746f7220717565727920666f72206e6f6e657860008201527f697374656e7420746f6b656e0000000000000000000000000000000000000000602082015250565b7f4552433732313a20617070726f76652063616c6c6572206973206e6f74206f7760008201527f6e6572206e6f7220617070726f76656420666f7220616c6c0000000000000000602082015250565b7f4552433732313a2062616c616e636520717565727920666f7220746865207a6560008201527f726f206164647265737300000000000000000000000000000000000000000000602082015250565b7f4552433732313a206f776e657220717565727920666f72206e6f6e657869737460008201527f656e7420746f6b656e0000000000000000000000000000000000000000000000602082015250565b7f45524337323155524953746f726167653a2055524920736574206f66206e6f6e60008201527f6578697374656e7420746f6b656e000000000000000000000000000000000000602082015250565b7f4552433732313a206d696e7420746f20746865207a65726f2061646472657373600082015250565b7f45524337323155524953746f726167653a2055524920717565727920666f722060008201527f6e6f6e6578697374656e7420746f6b656e000000000000000000000000000000602082015250565b7f4552433732313a20617070726f76656420717565727920666f72206e6f6e657860008201527f697374656e7420746f6b656e0000000000000000000000000000000000000000602082015250565b7f4f776e61626c653a2063616c6c6572206973206e6f7420746865206f776e6572600082015250565b7f4552433732313a207472616e73666572206f6620746f6b656e2074686174206960008201527f73206e6f74206f776e0000000000000000000000000000000000000000000000602082015250565b7f4552433732314d657461646174613a2055524920717565727920666f72206e6f60008201527f6e6578697374656e7420746f6b656e0000000000000000000000000000000000602082015250565b7f4552433732313a20617070726f76616c20746f2063757272656e74206f776e6560008201527f7200000000000000000000000000000000000000000000000000000000000000602082015250565b7f4552433732313a207472616e736665722063616c6c6572206973206e6f74206f60008201527f776e6572206e6f7220617070726f766564000000000000000000000000000000602082015250565b61355c81612dd4565b811461356757600080fd5b50565b61357381612de6565b811461357e57600080fd5b50565b61358a81612df2565b811461359557600080fd5b50565b6135a181612e3e565b81146135ac57600080fd5b5056fea2646970667358221220e07066dedbe4a997b806c27b9ae2487a8286dd7f389f0db0af97a6db72afce1264736f6c63430008030033",
  "immutableReferences": {},
  "source": "// SPDX-License-Identifier: MIT\r\npragma solidity 0.8.3;\r\n\r\nimport \"@openzeppelin/contracts/token/ERC721/extensions/ERC721URIStorage.sol\";\r\nimport \"@openzeppelin/contracts/token/ERC721/ERC721.sol\";\r\nimport \"@openzeppelin/contracts/utils/Counters.sol\";\r\nimport '@openzeppelin/contracts/access/Ownable.sol';\r\n\r\ncontract CardItem is ERC721URIStorage, Ownable {\r\n    using Counters for Counters.Counter;\r\n    \r\n    Counters.Counter public _tokenIds;\r\n    \r\n    event ItemCreated(\r\n        address owner,\r\n        uint256 tokenId\r\n    );\r\n    \r\n    struct TokenInfo {\r\n        address owner;\r\n        string ipfsHash;\r\n    }\r\n    \r\n    uint256 public pricePerToken;\r\n\r\n    mapping (uint256 => TokenInfo) public tokenInfoMap;\r\n    mapping(string => bool) public ipfsHashes;\r\n    mapping(string => uint256) public ipfsHashToTokenId;\r\n\r\n    constructor (string memory _name, string memory _symbol, uint256 _pricePerToken) public ERC721(_name, _symbol) {\r\n          pricePerToken = _pricePerToken;\r\n    }\r\n\r\n    /** \r\n     * @dev Mint a new NFT  \r\n     * @param _owner - NFT owner\r\n     * @param _tokenURI - URL include ipfs hash\r\n     */\r\n    function mintNFT(address _owner, string memory _tokenURI) public onlyOwner returns (uint256) {\r\n        require(ipfsHashes[_tokenURI] != true, \"Already registered\");  \r\n        \r\n         _tokenIds.increment();\r\n        uint256 newItemId = _tokenIds.current();\r\n        \r\n        _safeMint(_owner, newItemId);\r\n        _setTokenURI(newItemId, _tokenURI);\r\n        \r\n        ipfsHashes[_tokenURI] = true;\r\n        ipfsHashToTokenId[_tokenURI] = newItemId;\r\n     \r\n        tokenInfoMap[newItemId] = TokenInfo({\r\n                owner: _owner,\r\n                ipfsHash: _tokenURI\r\n        });\r\n     \r\n        emit ItemCreated(_owner, newItemId);\r\n     \r\n        return newItemId;\r\n    }\r\n}\r\n",
  "sourcePath": "C:/work_store/blockchain_work/tatakai/contracts/CardItem.sol",
  "compiler": {
    "name": "solc",
    "version": "0.8.3+commit.8d00100c.Emscripten.clang"
  },
  "schemaVersion": "3.3.4",
  "updatedAt": "2021-04-06T14:03:00.532Z",
  "networkType": "ethereum",
  "devdoc": {
    "kind": "dev",
    "methods": {
      "approve(address,uint256)": {
        "details": "See {IERC721-approve}."
      },
      "balanceOf(address)": {
        "details": "See {IERC721-balanceOf}."
      },
      "getApproved(uint256)": {
        "details": "See {IERC721-getApproved}."
      },
      "isApprovedForAll(address,address)": {
        "details": "See {IERC721-isApprovedForAll}."
      },
      "mintNFT(address,string)": {
        "details": "Mint a new NFT  ",
        "params": {
          "_owner": "- NFT owner",
          "_tokenURI": "- URL include ipfs hash"
        }
      },
      "name()": {
        "details": "See {IERC721Metadata-name}."
      },
      "owner()": {
        "details": "Returns the address of the current owner."
      },
      "ownerOf(uint256)": {
        "details": "See {IERC721-ownerOf}."
      },
      "renounceOwnership()": {
        "details": "Leaves the contract without owner. It will not be possible to call `onlyOwner` functions anymore. Can only be called by the current owner. NOTE: Renouncing ownership will leave the contract without an owner, thereby removing any functionality that is only available to the owner."
      },
      "safeTransferFrom(address,address,uint256)": {
        "details": "See {IERC721-safeTransferFrom}."
      },
      "safeTransferFrom(address,address,uint256,bytes)": {
        "details": "See {IERC721-safeTransferFrom}."
      },
      "setApprovalForAll(address,bool)": {
        "details": "See {IERC721-setApprovalForAll}."
      },
      "supportsInterface(bytes4)": {
        "details": "See {IERC165-supportsInterface}."
      },
      "symbol()": {
        "details": "See {IERC721Metadata-symbol}."
      },
      "tokenURI(uint256)": {
        "details": "See {IERC721Metadata-tokenURI}."
      },
      "transferFrom(address,address,uint256)": {
        "details": "See {IERC721-transferFrom}."
      },
      "transferOwnership(address)": {
        "details": "Transfers ownership of the contract to a new account (`newOwner`). Can only be called by the current owner."
      }
    },
    "version": 1
  },
  "userdoc": {
    "kind": "user",
    "methods": {},
    "version": 1
  }
}