{
  "contractName": "CardItem",
  "abi": [
    {
      "inputs": [
        {
          "internalType": "string",
          "name": "_name",
          "type": "string"
        },
        {
          "internalType": "string",
          "name": "_symbol",
          "type": "string"
        },
        {
          "internalType": "address",
          "name": "_marketplace",
          "type": "address"
        }
      ],
      "stateMutability": "nonpayable",
      "type": "constructor"
    },
    {
      "anonymous": false,
      "inputs": [
        {
          "indexed": true,
          "internalType": "address",
          "name": "owner",
          "type": "address"
        },
        {
          "indexed": true,
          "internalType": "address",
          "name": "approved",
          "type": "address"
        },
        {
          "indexed": true,
          "internalType": "uint256",
          "name": "tokenId",
          "type": "uint256"
        }
      ],
      "name": "Approval",
      "type": "event"
    },
    {
      "anonymous": false,
      "inputs": [
        {
          "indexed": true,
          "internalType": "address",
          "name": "owner",
          "type": "address"
        },
        {
          "indexed": true,
          "internalType": "address",
          "name": "operator",
          "type": "address"
        },
        {
          "indexed": false,
          "internalType": "bool",
          "name": "approved",
          "type": "bool"
        }
      ],
      "name": "ApprovalForAll",
      "type": "event"
    },
    {
      "anonymous": false,
      "inputs": [
        {
          "indexed": false,
          "internalType": "address",
          "name": "owner",
          "type": "address"
        },
        {
          "indexed": false,
          "internalType": "uint256",
          "name": "tokenId",
          "type": "uint256"
        }
      ],
      "name": "ItemCreated",
      "type": "event"
    },
    {
      "anonymous": false,
      "inputs": [
        {
          "indexed": true,
          "internalType": "address",
          "name": "previousOwner",
          "type": "address"
        },
        {
          "indexed": true,
          "internalType": "address",
          "name": "newOwner",
          "type": "address"
        }
      ],
      "name": "OwnershipTransferred",
      "type": "event"
    },
    {
      "anonymous": false,
      "inputs": [
        {
          "indexed": false,
          "internalType": "address",
          "name": "account",
          "type": "address"
        }
      ],
      "name": "Paused",
      "type": "event"
    },
    {
      "anonymous": false,
      "inputs": [
        {
          "indexed": true,
          "internalType": "address",
          "name": "from",
          "type": "address"
        },
        {
          "indexed": true,
          "internalType": "address",
          "name": "to",
          "type": "address"
        },
        {
          "indexed": true,
          "internalType": "uint256",
          "name": "tokenId",
          "type": "uint256"
        }
      ],
      "name": "Transfer",
      "type": "event"
    },
    {
      "anonymous": false,
      "inputs": [
        {
          "indexed": false,
          "internalType": "address",
          "name": "account",
          "type": "address"
        }
      ],
      "name": "Unpaused",
      "type": "event"
    },
    {
      "inputs": [],
      "name": "_tokenIds",
      "outputs": [
        {
          "internalType": "uint256",
          "name": "_value",
          "type": "uint256"
        }
      ],
      "stateMutability": "view",
      "type": "function",
      "constant": true
    },
    {
      "inputs": [
        {
          "internalType": "address",
          "name": "to",
          "type": "address"
        },
        {
          "internalType": "uint256",
          "name": "tokenId",
          "type": "uint256"
        }
      ],
      "name": "approve",
      "outputs": [],
      "stateMutability": "nonpayable",
      "type": "function"
    },
    {
      "inputs": [
        {
          "internalType": "address",
          "name": "owner",
          "type": "address"
        }
      ],
      "name": "balanceOf",
      "outputs": [
        {
          "internalType": "uint256",
          "name": "",
          "type": "uint256"
        }
      ],
      "stateMutability": "view",
      "type": "function",
      "constant": true
    },
    {
      "inputs": [
        {
          "internalType": "uint256",
          "name": "tokenId",
          "type": "uint256"
        }
      ],
      "name": "getApproved",
      "outputs": [
        {
          "internalType": "address",
          "name": "",
          "type": "address"
        }
      ],
      "stateMutability": "view",
      "type": "function",
      "constant": true
    },
    {
      "inputs": [
        {
          "internalType": "string",
          "name": "",
          "type": "string"
        }
      ],
      "name": "ipfsHashes",
      "outputs": [
        {
          "internalType": "bool",
          "name": "",
          "type": "bool"
        }
      ],
      "stateMutability": "view",
      "type": "function",
      "constant": true
    },
    {
      "inputs": [
        {
          "internalType": "address",
          "name": "owner",
          "type": "address"
        },
        {
          "internalType": "address",
          "name": "operator",
          "type": "address"
        }
      ],
      "name": "isApprovedForAll",
      "outputs": [
        {
          "internalType": "bool",
          "name": "",
          "type": "bool"
        }
      ],
      "stateMutability": "view",
      "type": "function",
      "constant": true
    },
    {
      "inputs": [],
      "name": "name",
      "outputs": [
        {
          "internalType": "string",
          "name": "",
          "type": "string"
        }
      ],
      "stateMutability": "view",
      "type": "function",
      "constant": true
    },
    {
      "inputs": [],
      "name": "owner",
      "outputs": [
        {
          "internalType": "address",
          "name": "",
          "type": "address"
        }
      ],
      "stateMutability": "view",
      "type": "function",
      "constant": true
    },
    {
      "inputs": [
        {
          "internalType": "uint256",
          "name": "tokenId",
          "type": "uint256"
        }
      ],
      "name": "ownerOf",
      "outputs": [
        {
          "internalType": "address",
          "name": "",
          "type": "address"
        }
      ],
      "stateMutability": "view",
      "type": "function",
      "constant": true
    },
    {
      "inputs": [],
      "name": "paused",
      "outputs": [
        {
          "internalType": "bool",
          "name": "",
          "type": "bool"
        }
      ],
      "stateMutability": "view",
      "type": "function",
      "constant": true
    },
    {
      "inputs": [],
      "name": "renounceOwnership",
      "outputs": [],
      "stateMutability": "nonpayable",
      "type": "function"
    },
    {
      "inputs": [
        {
          "internalType": "address",
          "name": "from",
          "type": "address"
        },
        {
          "internalType": "address",
          "name": "to",
          "type": "address"
        },
        {
          "internalType": "uint256",
          "name": "tokenId",
          "type": "uint256"
        }
      ],
      "name": "safeTransferFrom",
      "outputs": [],
      "stateMutability": "nonpayable",
      "type": "function"
    },
    {
      "inputs": [
        {
          "internalType": "address",
          "name": "from",
          "type": "address"
        },
        {
          "internalType": "address",
          "name": "to",
          "type": "address"
        },
        {
          "internalType": "uint256",
          "name": "tokenId",
          "type": "uint256"
        },
        {
          "internalType": "bytes",
          "name": "_data",
          "type": "bytes"
        }
      ],
      "name": "safeTransferFrom",
      "outputs": [],
      "stateMutability": "nonpayable",
      "type": "function"
    },
    {
      "inputs": [
        {
          "internalType": "address",
          "name": "operator",
          "type": "address"
        },
        {
          "internalType": "bool",
          "name": "approved",
          "type": "bool"
        }
      ],
      "name": "setApprovalForAll",
      "outputs": [],
      "stateMutability": "nonpayable",
      "type": "function"
    },
    {
      "inputs": [
        {
          "internalType": "bytes4",
          "name": "interfaceId",
          "type": "bytes4"
        }
      ],
      "name": "supportsInterface",
      "outputs": [
        {
          "internalType": "bool",
          "name": "",
          "type": "bool"
        }
      ],
      "stateMutability": "view",
      "type": "function",
      "constant": true
    },
    {
      "inputs": [],
      "name": "symbol",
      "outputs": [
        {
          "internalType": "string",
          "name": "",
          "type": "string"
        }
      ],
      "stateMutability": "view",
      "type": "function",
      "constant": true
    },
    {
      "inputs": [
        {
          "internalType": "uint256",
          "name": "tokenId",
          "type": "uint256"
        }
      ],
      "name": "tokenURI",
      "outputs": [
        {
          "internalType": "string",
          "name": "",
          "type": "string"
        }
      ],
      "stateMutability": "view",
      "type": "function",
      "constant": true
    },
    {
      "inputs": [
        {
          "internalType": "uint256",
          "name": "",
          "type": "uint256"
        }
      ],
      "name": "tokens",
      "outputs": [
        {
          "internalType": "string",
          "name": "tokenURI",
          "type": "string"
        },
        {
          "internalType": "uint256",
          "name": "price",
          "type": "uint256"
        },
        {
          "internalType": "bool",
          "name": "isForSale",
          "type": "bool"
        }
      ],
      "stateMutability": "view",
      "type": "function",
      "constant": true
    },
    {
      "inputs": [
        {
          "internalType": "address",
          "name": "from",
          "type": "address"
        },
        {
          "internalType": "address",
          "name": "to",
          "type": "address"
        },
        {
          "internalType": "uint256",
          "name": "tokenId",
          "type": "uint256"
        }
      ],
      "name": "transferFrom",
      "outputs": [],
      "stateMutability": "nonpayable",
      "type": "function"
    },
    {
      "inputs": [
        {
          "internalType": "address",
          "name": "newOwner",
          "type": "address"
        }
      ],
      "name": "transferOwnership",
      "outputs": [],
      "stateMutability": "nonpayable",
      "type": "function"
    },
    {
      "inputs": [
        {
          "internalType": "uint256",
          "name": "_assetId",
          "type": "uint256"
        },
        {
          "internalType": "uint256",
          "name": "_amount",
          "type": "uint256"
        }
      ],
      "name": "setPrice",
      "outputs": [],
      "stateMutability": "nonpayable",
      "type": "function"
    },
    {
      "inputs": [
        {
          "internalType": "uint256",
          "name": "_assetId",
          "type": "uint256"
        },
        {
          "internalType": "bool",
          "name": "_status",
          "type": "bool"
        }
      ],
      "name": "updateOnSale",
      "outputs": [],
      "stateMutability": "nonpayable",
      "type": "function"
    },
    {
      "inputs": [
        {
          "internalType": "string",
          "name": "_tokenURI",
          "type": "string"
        },
        {
          "internalType": "uint256",
          "name": "_priceBase",
          "type": "uint256"
        }
      ],
      "name": "mintNFT",
      "outputs": [
        {
          "internalType": "uint256",
          "name": "assetId",
          "type": "uint256"
        }
      ],
      "stateMutability": "nonpayable",
      "type": "function"
    },
    {
      "inputs": [
        {
          "internalType": "uint256",
          "name": "_assetId",
          "type": "uint256"
        }
      ],
      "name": "getPrice",
      "outputs": [
        {
          "internalType": "uint256",
          "name": "price",
          "type": "uint256"
        }
      ],
      "stateMutability": "view",
      "type": "function",
      "constant": true
    },
    {
      "inputs": [
        {
          "internalType": "uint256",
          "name": "_assetId",
          "type": "uint256"
        }
      ],
      "name": "getOnSale",
      "outputs": [
        {
          "internalType": "bool",
          "name": "isForSale",
          "type": "bool"
        }
      ],
      "stateMutability": "view",
      "type": "function",
      "constant": true
    }
  ],
  "bytecode": "0x60806040523480156200001157600080fd5b506040516200410c3803806200410c8339818101604052810190620000379190620002ff565b8282816000908051906020019062000051929190620001c6565b5080600190805190602001906200006a929190620001c6565b50505060006200007f620001be60201b60201c565b905080600760006101000a81548173ffffffffffffffffffffffffffffffffffffffff021916908373ffffffffffffffffffffffffffffffffffffffff1602179055508073ffffffffffffffffffffffffffffffffffffffff16600073ffffffffffffffffffffffffffffffffffffffff167f8be0079c531659141344cd1fd0a4f28419497f9722a3daafe3b4186f6b6457e060405160405180910390a3506000600760146101000a81548160ff021916908315150217905550600073ffffffffffffffffffffffffffffffffffffffff168173ffffffffffffffffffffffffffffffffffffffff1614156200017457600080fd5b80600960006101000a81548173ffffffffffffffffffffffffffffffffffffffff021916908373ffffffffffffffffffffffffffffffffffffffff16021790555050505062000545565b600033905090565b828054620001d49062000450565b90600052602060002090601f016020900481019282620001f8576000855562000244565b82601f106200021357805160ff191683800117855562000244565b8280016001018555821562000244579182015b828111156200024357825182559160200191906001019062000226565b5b50905062000253919062000257565b5090565b5b808211156200027257600081600090555060010162000258565b5090565b60006200028d6200028784620003b0565b62000387565b905082815260208101848484011115620002a657600080fd5b620002b38482856200041a565b509392505050565b600081519050620002cc816200052b565b92915050565b600082601f830112620002e457600080fd5b8151620002f684826020860162000276565b91505092915050565b6000806000606084860312156200031557600080fd5b600084015167ffffffffffffffff8111156200033057600080fd5b6200033e86828701620002d2565b935050602084015167ffffffffffffffff8111156200035c57600080fd5b6200036a86828701620002d2565b92505060406200037d86828701620002bb565b9150509250925092565b600062000393620003a6565b9050620003a1828262000486565b919050565b6000604051905090565b600067ffffffffffffffff821115620003ce57620003cd620004eb565b5b620003d9826200051a565b9050602081019050919050565b6000620003f382620003fa565b9050919050565b600073ffffffffffffffffffffffffffffffffffffffff82169050919050565b60005b838110156200043a5780820151818401526020810190506200041d565b838111156200044a576000848401525b50505050565b600060028204905060018216806200046957607f821691505b6020821081141562000480576200047f620004bc565b5b50919050565b62000491826200051a565b810181811067ffffffffffffffff82111715620004b357620004b2620004eb565b5b80604052505050565b7f4e487b7100000000000000000000000000000000000000000000000000000000600052602260045260246000fd5b7f4e487b7100000000000000000000000000000000000000000000000000000000600052604160045260246000fd5b6000601f19601f8301169050919050565b6200053681620003e6565b81146200054257600080fd5b50565b613bb780620005556000396000f3fe608060405234801561001057600080fd5b50600436106101735760003560e01c8063715018a6116100de578063b88d4fde11610097578063e757223011610071578063e757223014610472578063e985e9c5146104a2578063f2fde38b146104d2578063f7d97577146104ee57610173565b8063b88d4fde146103f6578063b9e61c2014610412578063c87b56dd1461044257610173565b8063715018a6146103465780638da5cb5b1461035057806395d89b411461036e578063a22cb4651461038c578063aa46a400146103a8578063b5b9cd95146103c657610173565b806343d5bef71161013057806343d5bef71461024a5780634f64b2be146102665780635afa3a72146102985780635c975abb146102c85780636352211e146102e657806370a082311461031657610173565b806301ffc9a71461017857806306fdde03146101a8578063081812fc146101c6578063095ea7b3146101f657806323b872dd1461021257806342842e0e1461022e575b600080fd5b610192600480360381019061018d91906127bf565b61050a565b60405161019f9190612e07565b60405180910390f35b6101b06105ec565b6040516101bd9190612e22565b60405180910390f35b6101e060048036038101906101db91906128a6565b61067e565b6040516101ed9190612d77565b60405180910390f35b610210600480360381019061020b9190612783565b610703565b005b61022c6004803603810190610227919061267d565b61081b565b005b6102486004803603810190610243919061267d565b61087b565b005b610264600480360381019061025f91906128cf565b61089b565b005b610280600480360381019061027b91906128a6565b610a15565b60405161028f93929190612e44565b60405180910390f35b6102b260048036038101906102ad9190612852565b610ad4565b6040516102bf9190613162565b60405180910390f35b6102d0610d57565b6040516102dd9190612e07565b60405180910390f35b61030060048036038101906102fb91906128a6565b610d6e565b60405161030d9190612d77565b60405180910390f35b610330600480360381019061032b9190612618565b610e20565b60405161033d9190613162565b60405180910390f35b61034e610ed8565b005b610358611015565b6040516103659190612d77565b60405180910390f35b61037661103f565b6040516103839190612e22565b60405180910390f35b6103a660048036038101906103a19190612747565b6110d1565b005b6103b0611252565b6040516103bd9190613162565b60405180910390f35b6103e060048036038101906103db9190612811565b61125e565b6040516103ed9190612e07565b60405180910390f35b610410600480360381019061040b91906126cc565b611294565b005b61042c600480360381019061042791906128a6565b6112f6565b6040516104399190612e07565b60405180910390f35b61045c600480360381019061045791906128a6565b611323565b6040516104699190612e22565b60405180910390f35b61048c600480360381019061048791906128a6565b611475565b6040516104999190613162565b60405180910390f35b6104bc60048036038101906104b79190612641565b611495565b6040516104c99190612e07565b60405180910390f35b6104ec60048036038101906104e79190612618565b611529565b005b6105086004803603810190610503919061290b565b6116d5565b005b60007f80ac58cd000000000000000000000000000000000000000000000000000000007bffffffffffffffffffffffffffffffffffffffffffffffffffffffff1916827bffffffffffffffffffffffffffffffffffffffffffffffffffffffff191614806105d557507f5b5e139f000000000000000000000000000000000000000000000000000000007bffffffffffffffffffffffffffffffffffffffffffffffffffffffff1916827bffffffffffffffffffffffffffffffffffffffffffffffffffffffff1916145b806105e557506105e482611816565b5b9050919050565b6060600080546105fb906133b8565b80601f0160208091040260200160405190810160405280929190818152602001828054610627906133b8565b80156106745780601f1061064957610100808354040283529160200191610674565b820191906000526020600020905b81548152906001019060200180831161065757829003601f168201915b5050505050905090565b600061068982611880565b6106c8576040517f08c379a00000000000000000000000000000000000000000000000000000000081526004016106bf90613082565b60405180910390fd5b6004600083815260200190815260200160002060009054906101000a900473ffffffffffffffffffffffffffffffffffffffff169050919050565b600061070e82610d6e565b90508073ffffffffffffffffffffffffffffffffffffffff168373ffffffffffffffffffffffffffffffffffffffff16141561077f576040517f08c379a000000000000000000000000000000000000000000000000000000000815260040161077690613102565b60405180910390fd5b8073ffffffffffffffffffffffffffffffffffffffff1661079e6118ec565b73ffffffffffffffffffffffffffffffffffffffff1614806107cd57506107cc816107c76118ec565b611495565b5b61080c576040517f08c379a000000000000000000000000000000000000000000000000000000000815260040161080390612fa2565b60405180910390fd5b61081683836118f4565b505050565b61082c6108266118ec565b826119ad565b61086b576040517f08c379a000000000000000000000000000000000000000000000000000000000815260040161086290613122565b60405180910390fd5b610876838383611a8b565b505050565b61089683838360405180602001604052806000815250611294565b505050565b6108a3610d57565b156108e3576040517f08c379a00000000000000000000000000000000000000000000000000000000081526004016108da90612f82565b60405180910390fd5b600960009054906101000a900473ffffffffffffffffffffffffffffffffffffffff1673ffffffffffffffffffffffffffffffffffffffff163373ffffffffffffffffffffffffffffffffffffffff1614610973576040517f08c379a000000000000000000000000000000000000000000000000000000000815260040161096a90613142565b60405180910390fd5b80151515600b600084815260200190815260200160002060020160009054906101000a900460ff161515146109dd576040517f08c379a00000000000000000000000000000000000000000000000000000000081526004016109d490612fc2565b60405180910390fd5b6000600b60008481526020019081526020016000209050818160020160006101000a81548160ff021916908315150217905550505050565b600b602052806000526040600020600091509050806000018054610a38906133b8565b80601f0160208091040260200160405190810160405280929190818152602001828054610a64906133b8565b8015610ab15780601f10610a8657610100808354040283529160200191610ab1565b820191906000526020600020905b815481529060010190602001808311610a9457829003601f168201915b5050505050908060010154908060020160009054906101000a900460ff16905083565b6000610ade610d57565b15610b1e576040517f08c379a0000000000000000000000000000000000000000000000000000000008152600401610b1590612f82565b60405180910390fd5b610b266118ec565b73ffffffffffffffffffffffffffffffffffffffff16610b44611015565b73ffffffffffffffffffffffffffffffffffffffff1614610b9a576040517f08c379a0000000000000000000000000000000000000000000000000000000008152600401610b91906130a2565b60405180910390fd5b60011515600a84604051610bae9190612d3c565b908152602001604051809103902060009054906101000a900460ff1615151415610c0d576040517f08c379a0000000000000000000000000000000000000000000000000000000008152600401610c0490612f22565b60405180910390fd5b610c176008611ce7565b6000610c236008611cfd565b9050610c36610c30611015565b82611d0b565b610c408185611d29565b6001600a85604051610c529190612d3c565b908152602001604051809103902060006101000a81548160ff021916908315150217905550604051806060016040528085815260200184815260200160011515815250600b60008381526020019081526020016000206000820151816000019080519060200190610cc492919061243c565b506020820151816001015560408201518160020160006101000a81548160ff0219169083151502179055509050507fa9a8fc8429e9d4b8fe54b38fd34cb56aaa1a9bf6eb605f45b223b08b58b97618600960009054906101000a900473ffffffffffffffffffffffffffffffffffffffff1682604051610d45929190612dde565b60405180910390a18091505092915050565b6000600760149054906101000a900460ff16905090565b6000806002600084815260200190815260200160002060009054906101000a900473ffffffffffffffffffffffffffffffffffffffff169050600073ffffffffffffffffffffffffffffffffffffffff168173ffffffffffffffffffffffffffffffffffffffff161415610e17576040517f08c379a0000000000000000000000000000000000000000000000000000000008152600401610e0e90613002565b60405180910390fd5b80915050919050565b60008073ffffffffffffffffffffffffffffffffffffffff168273ffffffffffffffffffffffffffffffffffffffff161415610e91576040517f08c379a0000000000000000000000000000000000000000000000000000000008152600401610e8890612fe2565b60405180910390fd5b600360008373ffffffffffffffffffffffffffffffffffffffff1673ffffffffffffffffffffffffffffffffffffffff168152602001908152602001600020549050919050565b610ee06118ec565b73ffffffffffffffffffffffffffffffffffffffff16610efe611015565b73ffffffffffffffffffffffffffffffffffffffff1614610f54576040517f08c379a0000000000000000000000000000000000000000000000000000000008152600401610f4b906130a2565b60405180910390fd5b600073ffffffffffffffffffffffffffffffffffffffff16600760009054906101000a900473ffffffffffffffffffffffffffffffffffffffff1673ffffffffffffffffffffffffffffffffffffffff167f8be0079c531659141344cd1fd0a4f28419497f9722a3daafe3b4186f6b6457e060405160405180910390a36000600760006101000a81548173ffffffffffffffffffffffffffffffffffffffff021916908373ffffffffffffffffffffffffffffffffffffffff160217905550565b6000600760009054906101000a900473ffffffffffffffffffffffffffffffffffffffff16905090565b60606001805461104e906133b8565b80601f016020809104026020016040519081016040528092919081815260200182805461107a906133b8565b80156110c75780601f1061109c576101008083540402835291602001916110c7565b820191906000526020600020905b8154815290600101906020018083116110aa57829003601f168201915b5050505050905090565b6110d96118ec565b73ffffffffffffffffffffffffffffffffffffffff168273ffffffffffffffffffffffffffffffffffffffff161415611147576040517f08c379a000000000000000000000000000000000000000000000000000000000815260040161113e90612f02565b60405180910390fd5b80600560006111546118ec565b73ffffffffffffffffffffffffffffffffffffffff1673ffffffffffffffffffffffffffffffffffffffff16815260200190815260200160002060008473ffffffffffffffffffffffffffffffffffffffff1673ffffffffffffffffffffffffffffffffffffffff16815260200190815260200160002060006101000a81548160ff0219169083151502179055508173ffffffffffffffffffffffffffffffffffffffff166112016118ec565b73ffffffffffffffffffffffffffffffffffffffff167f17307eab39ab6107e8899845ad3d59bd9653f200f220920489ca2b5937696c31836040516112469190612e07565b60405180910390a35050565b60088060000154905081565b600a818051602081018201805184825260208301602085012081835280955050505050506000915054906101000a900460ff1681565b6112a561129f6118ec565b836119ad565b6112e4576040517f08c379a00000000000000000000000000000000000000000000000000000000081526004016112db90613122565b60405180910390fd5b6112f084848484611d9d565b50505050565b6000600b600083815260200190815260200160002060020160009054906101000a900460ff169050919050565b606061132e82611880565b61136d576040517f08c379a000000000000000000000000000000000000000000000000000000000815260040161136490613062565b60405180910390fd5b600060066000848152602001908152602001600020805461138d906133b8565b80601f01602080910402602001604051908101604052809291908181526020018280546113b9906133b8565b80156114065780601f106113db57610100808354040283529160200191611406565b820191906000526020600020905b8154815290600101906020018083116113e957829003601f168201915b505050505090506000611417611df9565b905060008151141561142d578192505050611470565b60008251111561146257808260405160200161144a929190612d53565b60405160208183030381529060405292505050611470565b61146b84611e10565b925050505b919050565b6000600b6000838152602001908152602001600020600101549050919050565b6000600560008473ffffffffffffffffffffffffffffffffffffffff1673ffffffffffffffffffffffffffffffffffffffff16815260200190815260200160002060008373ffffffffffffffffffffffffffffffffffffffff1673ffffffffffffffffffffffffffffffffffffffff16815260200190815260200160002060009054906101000a900460ff16905092915050565b6115316118ec565b73ffffffffffffffffffffffffffffffffffffffff1661154f611015565b73ffffffffffffffffffffffffffffffffffffffff16146115a5576040517f08c379a000000000000000000000000000000000000000000000000000000000815260040161159c906130a2565b60405180910390fd5b600073ffffffffffffffffffffffffffffffffffffffff168173ffffffffffffffffffffffffffffffffffffffff161415611615576040517f08c379a000000000000000000000000000000000000000000000000000000000815260040161160c90612ea2565b60405180910390fd5b8073ffffffffffffffffffffffffffffffffffffffff16600760009054906101000a900473ffffffffffffffffffffffffffffffffffffffff1673ffffffffffffffffffffffffffffffffffffffff167f8be0079c531659141344cd1fd0a4f28419497f9722a3daafe3b4186f6b6457e060405160405180910390a380600760006101000a81548173ffffffffffffffffffffffffffffffffffffffff021916908373ffffffffffffffffffffffffffffffffffffffff16021790555050565b6116dd610d57565b1561171d576040517f08c379a000000000000000000000000000000000000000000000000000000000815260040161171490612f82565b60405180910390fd5b600960009054906101000a900473ffffffffffffffffffffffffffffffffffffffff1673ffffffffffffffffffffffffffffffffffffffff163373ffffffffffffffffffffffffffffffffffffffff16146117ad576040517f08c379a00000000000000000000000000000000000000000000000000000000081526004016117a490613142565b60405180910390fd5b60008110156117f1576040517f08c379a00000000000000000000000000000000000000000000000000000000081526004016117e890612f62565b60405180910390fd5b6000600b60008481526020019081526020016000209050818160010181905550505050565b60007f01ffc9a7000000000000000000000000000000000000000000000000000000007bffffffffffffffffffffffffffffffffffffffffffffffffffffffff1916827bffffffffffffffffffffffffffffffffffffffffffffffffffffffff1916149050919050565b60008073ffffffffffffffffffffffffffffffffffffffff166002600084815260200190815260200160002060009054906101000a900473ffffffffffffffffffffffffffffffffffffffff1673ffffffffffffffffffffffffffffffffffffffff1614159050919050565b600033905090565b816004600083815260200190815260200160002060006101000a81548173ffffffffffffffffffffffffffffffffffffffff021916908373ffffffffffffffffffffffffffffffffffffffff160217905550808273ffffffffffffffffffffffffffffffffffffffff1661196783610d6e565b73ffffffffffffffffffffffffffffffffffffffff167f8c5be1e5ebec7d5bd14f71427d1e84f3dd0314c0f7b2291e5b200ac8c7c3b92560405160405180910390a45050565b60006119b882611880565b6119f7576040517f08c379a00000000000000000000000000000000000000000000000000000000081526004016119ee90612f42565b60405180910390fd5b6000611a0283610d6e565b90508073ffffffffffffffffffffffffffffffffffffffff168473ffffffffffffffffffffffffffffffffffffffff161480611a7157508373ffffffffffffffffffffffffffffffffffffffff16611a598461067e565b73ffffffffffffffffffffffffffffffffffffffff16145b80611a825750611a818185611495565b5b91505092915050565b8273ffffffffffffffffffffffffffffffffffffffff16611aab82610d6e565b73ffffffffffffffffffffffffffffffffffffffff1614611b01576040517f08c379a0000000000000000000000000000000000000000000000000000000008152600401611af8906130c2565b60405180910390fd5b600073ffffffffffffffffffffffffffffffffffffffff168273ffffffffffffffffffffffffffffffffffffffff161415611b71576040517f08c379a0000000000000000000000000000000000000000000000000000000008152600401611b6890612ee2565b60405180910390fd5b611b7c838383611eb7565b611b876000826118f4565b6001600360008573ffffffffffffffffffffffffffffffffffffffff1673ffffffffffffffffffffffffffffffffffffffff1681526020019081526020016000206000828254611bd791906132ce565b925050819055506001600360008473ffffffffffffffffffffffffffffffffffffffff1673ffffffffffffffffffffffffffffffffffffffff1681526020019081526020016000206000828254611c2e9190613247565b92505081905550816002600083815260200190815260200160002060006101000a81548173ffffffffffffffffffffffffffffffffffffffff021916908373ffffffffffffffffffffffffffffffffffffffff160217905550808273ffffffffffffffffffffffffffffffffffffffff168473ffffffffffffffffffffffffffffffffffffffff167fddf252ad1be2c89b69c2b068fc378daa952ba7f163c4a11628f55a4df523b3ef60405160405180910390a4505050565b6001816000016000828254019250508190555050565b600081600001549050919050565b611d25828260405180602001604052806000815250611ebc565b5050565b611d3282611880565b611d71576040517f08c379a0000000000000000000000000000000000000000000000000000000008152600401611d6890613022565b60405180910390fd5b80600660008481526020019081526020016000209080519060200190611d9892919061243c565b505050565b611da8848484611a8b565b611db484848484611f17565b611df3576040517f08c379a0000000000000000000000000000000000000000000000000000000008152600401611dea90612e82565b60405180910390fd5b50505050565b606060405180602001604052806000815250905090565b6060611e1b82611880565b611e5a576040517f08c379a0000000000000000000000000000000000000000000000000000000008152600401611e51906130e2565b60405180910390fd5b6000611e64611df9565b90506000815111611e845760405180602001604052806000815250611eaf565b80611e8e846120ae565b604051602001611e9f929190612d53565b6040516020818303038152906040525b915050919050565b505050565b611ec6838361225b565b611ed36000848484611f17565b611f12576040517f08c379a0000000000000000000000000000000000000000000000000000000008152600401611f0990612e82565b60405180910390fd5b505050565b6000611f388473ffffffffffffffffffffffffffffffffffffffff16612429565b156120a1578373ffffffffffffffffffffffffffffffffffffffff1663150b7a02611f616118ec565b8786866040518563ffffffff1660e01b8152600401611f839493929190612d92565b602060405180830381600087803b158015611f9d57600080fd5b505af1925050508015611fce57506040513d601f19601f82011682018060405250810190611fcb91906127e8565b60015b612051573d8060008114611ffe576040519150601f19603f3d011682016040523d82523d6000602084013e612003565b606091505b50600081511415612049576040517f08c379a000000000000000000000000000000000000000000000000000000000815260040161204090612e82565b60405180910390fd5b805181602001fd5b63150b7a0260e01b7bffffffffffffffffffffffffffffffffffffffffffffffffffffffff1916817bffffffffffffffffffffffffffffffffffffffffffffffffffffffff1916149150506120a6565b600190505b949350505050565b606060008214156120f6576040518060400160405280600181526020017f30000000000000000000000000000000000000000000000000000000000000008152509050612256565b600082905060005b600082146121285780806121119061341b565b915050600a82612121919061329d565b91506120fe565b60008167ffffffffffffffff81111561216a577f4e487b7100000000000000000000000000000000000000000000000000000000600052604160045260246000fd5b6040519080825280601f01601f19166020018201604052801561219c5781602001600182028036833780820191505090505b5090505b6000851461224f576001826121b591906132ce565b9150600a856121c49190613464565b60306121d09190613247565b60f81b81838151811061220c577f4e487b7100000000000000000000000000000000000000000000000000000000600052603260045260246000fd5b60200101907effffffffffffffffffffffffffffffffffffffffffffffffffffffffffffff1916908160001a905350600a85612248919061329d565b94506121a0565b8093505050505b919050565b600073ffffffffffffffffffffffffffffffffffffffff168273ffffffffffffffffffffffffffffffffffffffff1614156122cb576040517f08c379a00000000000000000000000000000000000000000000000000000000081526004016122c290613042565b60405180910390fd5b6122d481611880565b15612314576040517f08c379a000000000000000000000000000000000000000000000000000000000815260040161230b90612ec2565b60405180910390fd5b61232060008383611eb7565b6001600360008473ffffffffffffffffffffffffffffffffffffffff1673ffffffffffffffffffffffffffffffffffffffff16815260200190815260200160002060008282546123709190613247565b92505081905550816002600083815260200190815260200160002060006101000a81548173ffffffffffffffffffffffffffffffffffffffff021916908373ffffffffffffffffffffffffffffffffffffffff160217905550808273ffffffffffffffffffffffffffffffffffffffff16600073ffffffffffffffffffffffffffffffffffffffff167fddf252ad1be2c89b69c2b068fc378daa952ba7f163c4a11628f55a4df523b3ef60405160405180910390a45050565b600080823b905060008111915050919050565b828054612448906133b8565b90600052602060002090601f01602090048101928261246a57600085556124b1565b82601f1061248357805160ff19168380011785556124b1565b828001600101855582156124b1579182015b828111156124b0578251825591602001919060010190612495565b5b5090506124be91906124c2565b5090565b5b808211156124db5760008160009055506001016124c3565b5090565b60006124f26124ed846131a2565b61317d565b90508281526020810184848401111561250a57600080fd5b612515848285613376565b509392505050565b600061253061252b846131d3565b61317d565b90508281526020810184848401111561254857600080fd5b612553848285613376565b509392505050565b60008135905061256a81613b25565b92915050565b60008135905061257f81613b3c565b92915050565b60008135905061259481613b53565b92915050565b6000815190506125a981613b53565b92915050565b600082601f8301126125c057600080fd5b81356125d08482602086016124df565b91505092915050565b600082601f8301126125ea57600080fd5b81356125fa84826020860161251d565b91505092915050565b60008135905061261281613b6a565b92915050565b60006020828403121561262a57600080fd5b60006126388482850161255b565b91505092915050565b6000806040838503121561265457600080fd5b60006126628582860161255b565b92505060206126738582860161255b565b9150509250929050565b60008060006060848603121561269257600080fd5b60006126a08682870161255b565b93505060206126b18682870161255b565b92505060406126c286828701612603565b9150509250925092565b600080600080608085870312156126e257600080fd5b60006126f08782880161255b565b94505060206127018782880161255b565b935050604061271287828801612603565b925050606085013567ffffffffffffffff81111561272f57600080fd5b61273b878288016125af565b91505092959194509250565b6000806040838503121561275a57600080fd5b60006127688582860161255b565b925050602061277985828601612570565b9150509250929050565b6000806040838503121561279657600080fd5b60006127a48582860161255b565b92505060206127b585828601612603565b9150509250929050565b6000602082840312156127d157600080fd5b60006127df84828501612585565b91505092915050565b6000602082840312156127fa57600080fd5b60006128088482850161259a565b91505092915050565b60006020828403121561282357600080fd5b600082013567ffffffffffffffff81111561283d57600080fd5b612849848285016125d9565b91505092915050565b6000806040838503121561286557600080fd5b600083013567ffffffffffffffff81111561287f57600080fd5b61288b858286016125d9565b925050602061289c85828601612603565b9150509250929050565b6000602082840312156128b857600080fd5b60006128c684828501612603565b91505092915050565b600080604083850312156128e257600080fd5b60006128f085828601612603565b925050602061290185828601612570565b9150509250929050565b6000806040838503121561291e57600080fd5b600061292c85828601612603565b925050602061293d85828601612603565b9150509250929050565b61295081613302565b82525050565b61295f81613314565b82525050565b600061297082613204565b61297a818561321a565b935061298a818560208601613385565b61299381613551565b840191505092915050565b60006129a98261320f565b6129b3818561322b565b93506129c3818560208601613385565b6129cc81613551565b840191505092915050565b60006129e28261320f565b6129ec818561323c565b93506129fc818560208601613385565b80840191505092915050565b6000612a1560328361322b565b9150612a2082613562565b604082019050919050565b6000612a3860268361322b565b9150612a43826135b1565b604082019050919050565b6000612a5b601c8361322b565b9150612a6682613600565b602082019050919050565b6000612a7e60248361322b565b9150612a8982613629565b604082019050919050565b6000612aa160198361322b565b9150612aac82613678565b602082019050919050565b6000612ac460128361322b565b9150612acf826136a1565b602082019050919050565b6000612ae7602c8361322b565b9150612af2826136ca565b604082019050919050565b6000612b0a601f8361322b565b9150612b1582613719565b602082019050919050565b6000612b2d60108361322b565b9150612b3882613742565b602082019050919050565b6000612b5060388361322b565b9150612b5b8261376b565b604082019050919050565b6000612b73600f8361322b565b9150612b7e826137ba565b602082019050919050565b6000612b96602a8361322b565b9150612ba1826137e3565b604082019050919050565b6000612bb960298361322b565b9150612bc482613832565b604082019050919050565b6000612bdc602e8361322b565b9150612be782613881565b604082019050919050565b6000612bff60208361322b565b9150612c0a826138d0565b602082019050919050565b6000612c2260318361322b565b9150612c2d826138f9565b604082019050919050565b6000612c45602c8361322b565b9150612c5082613948565b604082019050919050565b6000612c6860208361322b565b9150612c7382613997565b602082019050919050565b6000612c8b60298361322b565b9150612c96826139c0565b604082019050919050565b6000612cae602f8361322b565b9150612cb982613a0f565b604082019050919050565b6000612cd160218361322b565b9150612cdc82613a5e565b604082019050919050565b6000612cf460318361322b565b9150612cff82613aad565b604082019050919050565b6000612d1760198361322b565b9150612d2282613afc565b602082019050919050565b612d368161336c565b82525050565b6000612d4882846129d7565b915081905092915050565b6000612d5f82856129d7565b9150612d6b82846129d7565b91508190509392505050565b6000602082019050612d8c6000830184612947565b92915050565b6000608082019050612da76000830187612947565b612db46020830186612947565b612dc16040830185612d2d565b8181036060830152612dd38184612965565b905095945050505050565b6000604082019050612df36000830185612947565b612e006020830184612d2d565b9392505050565b6000602082019050612e1c6000830184612956565b92915050565b60006020820190508181036000830152612e3c818461299e565b905092915050565b60006060820190508181036000830152612e5e818661299e565b9050612e6d6020830185612d2d565b612e7a6040830184612956565b949350505050565b60006020820190508181036000830152612e9b81612a08565b9050919050565b60006020820190508181036000830152612ebb81612a2b565b9050919050565b60006020820190508181036000830152612edb81612a4e565b9050919050565b60006020820190508181036000830152612efb81612a71565b9050919050565b60006020820190508181036000830152612f1b81612a94565b9050919050565b60006020820190508181036000830152612f3b81612ab7565b9050919050565b60006020820190508181036000830152612f5b81612ada565b9050919050565b60006020820190508181036000830152612f7b81612afd565b9050919050565b60006020820190508181036000830152612f9b81612b20565b9050919050565b60006020820190508181036000830152612fbb81612b43565b9050919050565b60006020820190508181036000830152612fdb81612b66565b9050919050565b60006020820190508181036000830152612ffb81612b89565b9050919050565b6000602082019050818103600083015261301b81612bac565b9050919050565b6000602082019050818103600083015261303b81612bcf565b9050919050565b6000602082019050818103600083015261305b81612bf2565b9050919050565b6000602082019050818103600083015261307b81612c15565b9050919050565b6000602082019050818103600083015261309b81612c38565b9050919050565b600060208201905081810360008301526130bb81612c5b565b9050919050565b600060208201905081810360008301526130db81612c7e565b9050919050565b600060208201905081810360008301526130fb81612ca1565b9050919050565b6000602082019050818103600083015261311b81612cc4565b9050919050565b6000602082019050818103600083015261313b81612ce7565b9050919050565b6000602082019050818103600083015261315b81612d0a565b9050919050565b60006020820190506131776000830184612d2d565b92915050565b6000613187613198565b905061319382826133ea565b919050565b6000604051905090565b600067ffffffffffffffff8211156131bd576131bc613522565b5b6131c682613551565b9050602081019050919050565b600067ffffffffffffffff8211156131ee576131ed613522565b5b6131f782613551565b9050602081019050919050565b600081519050919050565b600081519050919050565b600082825260208201905092915050565b600082825260208201905092915050565b600081905092915050565b60006132528261336c565b915061325d8361336c565b9250827fffffffffffffffffffffffffffffffffffffffffffffffffffffffffffffffff0382111561329257613291613495565b5b828201905092915050565b60006132a88261336c565b91506132b38361336c565b9250826132c3576132c26134c4565b5b828204905092915050565b60006132d98261336c565b91506132e48361336c565b9250828210156132f7576132f6613495565b5b828203905092915050565b600061330d8261334c565b9050919050565b60008115159050919050565b60007fffffffff0000000000000000000000000000000000000000000000000000000082169050919050565b600073ffffffffffffffffffffffffffffffffffffffff82169050919050565b6000819050919050565b82818337600083830152505050565b60005b838110156133a3578082015181840152602081019050613388565b838111156133b2576000848401525b50505050565b600060028204905060018216806133d057607f821691505b602082108114156133e4576133e36134f3565b5b50919050565b6133f382613551565b810181811067ffffffffffffffff8211171561341257613411613522565b5b80604052505050565b60006134268261336c565b91507fffffffffffffffffffffffffffffffffffffffffffffffffffffffffffffffff82141561345957613458613495565b5b600182019050919050565b600061346f8261336c565b915061347a8361336c565b92508261348a576134896134c4565b5b828206905092915050565b7f4e487b7100000000000000000000000000000000000000000000000000000000600052601160045260246000fd5b7f4e487b7100000000000000000000000000000000000000000000000000000000600052601260045260246000fd5b7f4e487b7100000000000000000000000000000000000000000000000000000000600052602260045260246000fd5b7f4e487b7100000000000000000000000000000000000000000000000000000000600052604160045260246000fd5b6000601f19601f8301169050919050565b7f4552433732313a207472616e7366657220746f206e6f6e20455243373231526560008201527f63656976657220696d706c656d656e7465720000000000000000000000000000602082015250565b7f4f776e61626c653a206e6577206f776e657220697320746865207a65726f206160008201527f6464726573730000000000000000000000000000000000000000000000000000602082015250565b7f4552433732313a20746f6b656e20616c7265616479206d696e74656400000000600082015250565b7f4552433732313a207472616e7366657220746f20746865207a65726f2061646460008201527f7265737300000000000000000000000000000000000000000000000000000000602082015250565b7f4552433732313a20617070726f766520746f2063616c6c657200000000000000600082015250565b7f416c726561647920726567697374657265640000000000000000000000000000600082015250565b7f4552433732313a206f70657261746f7220717565727920666f72206e6f6e657860008201527f697374656e7420746f6b656e0000000000000000000000000000000000000000602082015250565b7f5072696365206d75737420626520686967686572206f7220657175616c203000600082015250565b7f5061757361626c653a2070617573656400000000000000000000000000000000600082015250565b7f4552433732313a20617070726f76652063616c6c6572206973206e6f74206f7760008201527f6e6572206e6f7220617070726f76656420666f7220616c6c0000000000000000602082015250565b7f416c726561647920736574207570210000000000000000000000000000000000600082015250565b7f4552433732313a2062616c616e636520717565727920666f7220746865207a6560008201527f726f206164647265737300000000000000000000000000000000000000000000602082015250565b7f4552433732313a206f776e657220717565727920666f72206e6f6e657869737460008201527f656e7420746f6b656e0000000000000000000000000000000000000000000000602082015250565b7f45524337323155524953746f726167653a2055524920736574206f66206e6f6e60008201527f6578697374656e7420746f6b656e000000000000000000000000000000000000602082015250565b7f4552433732313a206d696e7420746f20746865207a65726f2061646472657373600082015250565b7f45524337323155524953746f726167653a2055524920717565727920666f722060008201527f6e6f6e6578697374656e7420746f6b656e000000000000000000000000000000602082015250565b7f4552433732313a20617070726f76656420717565727920666f72206e6f6e657860008201527f697374656e7420746f6b656e0000000000000000000000000000000000000000602082015250565b7f4f776e61626c653a2063616c6c6572206973206e6f7420746865206f776e6572600082015250565b7f4552433732313a207472616e73666572206f6620746f6b656e2074686174206960008201527f73206e6f74206f776e0000000000000000000000000000000000000000000000602082015250565b7f4552433732314d657461646174613a2055524920717565727920666f72206e6f60008201527f6e6578697374656e7420746f6b656e0000000000000000000000000000000000602082015250565b7f4552433732313a20617070726f76616c20746f2063757272656e74206f776e6560008201527f7200000000000000000000000000000000000000000000000000000000000000602082015250565b7f4552433732313a207472616e736665722063616c6c6572206973206e6f74206f60008201527f776e6572206e6f7220617070726f766564000000000000000000000000000000602082015250565b7f43616c6c6572206973206e6f74206d61726b6574706c61636500000000000000600082015250565b613b2e81613302565b8114613b3957600080fd5b50565b613b4581613314565b8114613b5057600080fd5b50565b613b5c81613320565b8114613b6757600080fd5b50565b613b738161336c565b8114613b7e57600080fd5b5056fea2646970667358221220047ee672e98b915c01a2eb88d66b76e5f80cdc69e0a60711ce807eb1cc9ddc7264736f6c63430008030033",
  "immutableReferences": {},
  "source": "// SPDX-License-Identifier: MIT\r\npragma solidity 0.8.3;\r\n\r\nimport \"@openzeppelin/contracts/token/ERC721/extensions/ERC721URIStorage.sol\";\r\nimport \"@openzeppelin/contracts/token/ERC721/ERC721.sol\";\r\nimport \"@openzeppelin/contracts/utils/Counters.sol\";\r\nimport '@openzeppelin/contracts/access/Ownable.sol';\r\nimport '@openzeppelin/contracts/security/Pausable.sol';\r\nimport '@openzeppelin/contracts/utils/math/SafeMath.sol';\r\n\r\n/// @title NFT Contract\r\n/// @dev This contract manages everything related to NFT\r\ncontract CardItem is ERC721URIStorage, Ownable, Pausable {\r\n    using Counters for Counters.Counter;\r\n    using SafeMath for uint256;\r\n    \r\n    Counters.Counter public _tokenIds;\r\n    address private marketplace;\r\n    \r\n    struct TokenInfo {\r\n        string tokenURI;\r\n        uint256 price;\r\n        bool isForSale;\r\n    }\r\n    \r\n    mapping(string => bool) public ipfsHashes;\r\n    mapping(uint256 => TokenInfo) public tokens;\r\n    \r\n    /**\r\n     * @dev Emitted when NFT is minted.\r\n     */\r\n    event ItemCreated(\r\n        address owner,\r\n        uint256 tokenId\r\n    ); \r\n     \r\n    /** \r\n     * @dev Throws if called by any account other than the marketplace.\r\n     */\r\n    modifier onlyMarketplace() {\r\n        require(msg.sender == marketplace, \"Caller is not marketplace\");\r\n        _;\r\n    }\r\n     \r\n    /** \r\n     * @dev Initializes the contract by setting a `name`, a `symbol` and the `marketplace` address that will manage the token collection.\r\n     * @param _name - token collection name\r\n     * @param _symbol - token collection symbol\r\n     * @param _marketplace - token collection address\r\n     */\r\n    constructor (string memory _name, string memory _symbol, address _marketplace) ERC721(_name, _symbol) {\r\n        require(_marketplace != address(0));\r\n        marketplace = _marketplace;\r\n    }\r\n\r\n    /** \r\n     * @dev Set a NFT price \r\n     * @param _assetId - NFT id\r\n     * @param _amount - NFT price\r\n     */\r\n    function setPrice(uint256 _assetId, uint256 _amount) external whenNotPaused onlyMarketplace {\r\n        require(_amount >= 0, \"Price must be higher or equal 0\");\r\n        TokenInfo storage token = tokens[_assetId];\r\n        token.price = _amount;\r\n    }\r\n    \r\n    /** \r\n     * @dev Update status NFT on sale\r\n     * @param _assetId - NFT id\r\n     * @param _status - NFT status (isForSale)\r\n     */\r\n    function updateOnSale(uint256 _assetId, bool _status) external whenNotPaused onlyMarketplace {\r\n        require(tokens[_assetId].isForSale == !_status, \"Already set up!\");\r\n        TokenInfo storage token = tokens[_assetId];\r\n        token.isForSale = _status;\r\n    }\r\n\r\n    /** \r\n     * @dev Mint a new NFT  \r\n     * @param _tokenURI - URL include ipfs hash\r\n     * @param _priceBase - return nft id\r\n     * @return assetId - NFT id\r\n     */\r\n    function mintNFT(string memory _tokenURI, uint256 _priceBase) public whenNotPaused onlyOwner returns (uint256 assetId) {\r\n        require(ipfsHashes[_tokenURI] != true, \"Already registered\");  \r\n        \r\n         _tokenIds.increment();\r\n        uint256 newItemId = _tokenIds.current();\r\n        \r\n        _safeMint(owner(), newItemId);\r\n        _setTokenURI(newItemId, _tokenURI);\r\n        \r\n        ipfsHashes[_tokenURI] = true;\r\n        \r\n        tokens[newItemId] = TokenInfo(\r\n            _tokenURI,\r\n            _priceBase,\r\n            true\r\n        );\r\n     \r\n        emit ItemCreated(marketplace, newItemId);\r\n        \r\n        return newItemId;\r\n    }\r\n    \r\n    /** \r\n     * @dev Get a NFT price\r\n     * @param _assetId - NFT id\r\n     * @return price - return nft price \r\n     */\r\n    function getPrice(uint256 _assetId) public view returns(uint256 price) {\r\n        return tokens[_assetId].price; \r\n    }\r\n\r\n    /** \r\n     * @dev Get a status NFT on sale \r\n     * @param _assetId - NFT id\r\n     * @return isForSale - true if nft is for sale or false if nft is out of sale\r\n     */\r\n    function getOnSale(uint256 _assetId) public view returns(bool isForSale) {\r\n        return tokens[_assetId].isForSale; \r\n    }\r\n\r\n}\r\n",
  "sourcePath": "C:/work_store/blockchain_work/tatakai/contracts/CardItem.sol",
  "compiler": {
    "name": "solc",
    "version": "0.8.3+commit.8d00100c.Emscripten.clang"
  },
  "schemaVersion": "3.3.4",
  "updatedAt": "2021-05-04T20:32:35.532Z",
  "networkType": "ethereum",
  "devdoc": {
    "details": "This contract manages everything related to NFT",
    "events": {
      "ItemCreated(address,uint256)": {
        "details": "Emitted when NFT is minted."
      }
    },
    "kind": "dev",
    "methods": {
      "approve(address,uint256)": {
        "details": "See {IERC721-approve}."
      },
      "balanceOf(address)": {
        "details": "See {IERC721-balanceOf}."
      },
      "constructor": {
        "details": "Initializes the contract by setting a `name`, a `symbol` and the `marketplace` address that will manage the token collection.",
        "params": {
          "_marketplace": "- token collection address",
          "_name": "- token collection name",
          "_symbol": "- token collection symbol"
        }
      },
      "getApproved(uint256)": {
        "details": "See {IERC721-getApproved}."
      },
      "getOnSale(uint256)": {
        "details": "Get a status NFT on sale ",
        "params": {
          "_assetId": "- NFT id"
        },
        "returns": {
          "isForSale": "- true if nft is for sale or false if nft is out of sale"
        }
      },
      "getPrice(uint256)": {
        "details": "Get a NFT price",
        "params": {
          "_assetId": "- NFT id"
        },
        "returns": {
          "price": "- return nft price "
        }
      },
      "isApprovedForAll(address,address)": {
        "details": "See {IERC721-isApprovedForAll}."
      },
      "mintNFT(string,uint256)": {
        "details": "Mint a new NFT  ",
        "params": {
          "_priceBase": "- return nft id",
          "_tokenURI": "- URL include ipfs hash"
        },
        "returns": {
          "assetId": "- NFT id"
        }
      },
      "name()": {
        "details": "See {IERC721Metadata-name}."
      },
      "owner()": {
        "details": "Returns the address of the current owner."
      },
      "ownerOf(uint256)": {
        "details": "See {IERC721-ownerOf}."
      },
      "paused()": {
        "details": "Returns true if the contract is paused, and false otherwise."
      },
      "renounceOwnership()": {
        "details": "Leaves the contract without owner. It will not be possible to call `onlyOwner` functions anymore. Can only be called by the current owner. NOTE: Renouncing ownership will leave the contract without an owner, thereby removing any functionality that is only available to the owner."
      },
      "safeTransferFrom(address,address,uint256)": {
        "details": "See {IERC721-safeTransferFrom}."
      },
      "safeTransferFrom(address,address,uint256,bytes)": {
        "details": "See {IERC721-safeTransferFrom}."
      },
      "setApprovalForAll(address,bool)": {
        "details": "See {IERC721-setApprovalForAll}."
      },
      "setPrice(uint256,uint256)": {
        "details": "Set a NFT price ",
        "params": {
          "_amount": "- NFT price",
          "_assetId": "- NFT id"
        }
      },
      "supportsInterface(bytes4)": {
        "details": "See {IERC165-supportsInterface}."
      },
      "symbol()": {
        "details": "See {IERC721Metadata-symbol}."
      },
      "tokenURI(uint256)": {
        "details": "See {IERC721Metadata-tokenURI}."
      },
      "transferFrom(address,address,uint256)": {
        "details": "See {IERC721-transferFrom}."
      },
      "transferOwnership(address)": {
        "details": "Transfers ownership of the contract to a new account (`newOwner`). Can only be called by the current owner."
      },
      "updateOnSale(uint256,bool)": {
        "details": "Update status NFT on sale",
        "params": {
          "_assetId": "- NFT id",
          "_status": "- NFT status (isForSale)"
        }
      }
    },
    "title": "NFT Contract",
    "version": 1
  },
  "userdoc": {
    "kind": "user",
    "methods": {},
    "version": 1
  }
}