{
  "contractName": "CardItem",
  "abi": [
    {
      "inputs": [
        {
          "internalType": "string",
          "name": "_name",
          "type": "string"
        },
        {
          "internalType": "string",
          "name": "_symbol",
          "type": "string"
        },
        {
          "internalType": "address",
          "name": "_marketplace",
          "type": "address"
        }
      ],
      "stateMutability": "nonpayable",
      "type": "constructor"
    },
    {
      "anonymous": false,
      "inputs": [
        {
          "indexed": true,
          "internalType": "address",
          "name": "owner",
          "type": "address"
        },
        {
          "indexed": true,
          "internalType": "address",
          "name": "approved",
          "type": "address"
        },
        {
          "indexed": true,
          "internalType": "uint256",
          "name": "tokenId",
          "type": "uint256"
        }
      ],
      "name": "Approval",
      "type": "event"
    },
    {
      "anonymous": false,
      "inputs": [
        {
          "indexed": true,
          "internalType": "address",
          "name": "owner",
          "type": "address"
        },
        {
          "indexed": true,
          "internalType": "address",
          "name": "operator",
          "type": "address"
        },
        {
          "indexed": false,
          "internalType": "bool",
          "name": "approved",
          "type": "bool"
        }
      ],
      "name": "ApprovalForAll",
      "type": "event"
    },
    {
      "anonymous": false,
      "inputs": [
        {
          "indexed": false,
          "internalType": "address",
          "name": "owner",
          "type": "address"
        },
        {
          "indexed": false,
          "internalType": "uint256",
          "name": "tokenId",
          "type": "uint256"
        }
      ],
      "name": "ItemCreated",
      "type": "event"
    },
    {
      "anonymous": false,
      "inputs": [
        {
          "indexed": true,
          "internalType": "address",
          "name": "previousOwner",
          "type": "address"
        },
        {
          "indexed": true,
          "internalType": "address",
          "name": "newOwner",
          "type": "address"
        }
      ],
      "name": "OwnershipTransferred",
      "type": "event"
    },
    {
      "anonymous": false,
      "inputs": [
        {
          "indexed": true,
          "internalType": "address",
          "name": "from",
          "type": "address"
        },
        {
          "indexed": true,
          "internalType": "address",
          "name": "to",
          "type": "address"
        },
        {
          "indexed": true,
          "internalType": "uint256",
          "name": "tokenId",
          "type": "uint256"
        }
      ],
      "name": "Transfer",
      "type": "event"
    },
    {
      "inputs": [],
      "name": "_tokenIds",
      "outputs": [
        {
          "internalType": "uint256",
          "name": "_value",
          "type": "uint256"
        }
      ],
      "stateMutability": "view",
      "type": "function",
      "constant": true
    },
    {
      "inputs": [
        {
          "internalType": "address",
          "name": "to",
          "type": "address"
        },
        {
          "internalType": "uint256",
          "name": "tokenId",
          "type": "uint256"
        }
      ],
      "name": "approve",
      "outputs": [],
      "stateMutability": "nonpayable",
      "type": "function"
    },
    {
      "inputs": [
        {
          "internalType": "address",
          "name": "owner",
          "type": "address"
        }
      ],
      "name": "balanceOf",
      "outputs": [
        {
          "internalType": "uint256",
          "name": "",
          "type": "uint256"
        }
      ],
      "stateMutability": "view",
      "type": "function",
      "constant": true
    },
    {
      "inputs": [
        {
          "internalType": "uint256",
          "name": "tokenId",
          "type": "uint256"
        }
      ],
      "name": "getApproved",
      "outputs": [
        {
          "internalType": "address",
          "name": "",
          "type": "address"
        }
      ],
      "stateMutability": "view",
      "type": "function",
      "constant": true
    },
    {
      "inputs": [
        {
          "internalType": "string",
          "name": "",
          "type": "string"
        }
      ],
      "name": "ipfsHashes",
      "outputs": [
        {
          "internalType": "bool",
          "name": "",
          "type": "bool"
        }
      ],
      "stateMutability": "view",
      "type": "function",
      "constant": true
    },
    {
      "inputs": [
        {
          "internalType": "address",
          "name": "owner",
          "type": "address"
        },
        {
          "internalType": "address",
          "name": "operator",
          "type": "address"
        }
      ],
      "name": "isApprovedForAll",
      "outputs": [
        {
          "internalType": "bool",
          "name": "",
          "type": "bool"
        }
      ],
      "stateMutability": "view",
      "type": "function",
      "constant": true
    },
    {
      "inputs": [],
      "name": "marketplace",
      "outputs": [
        {
          "internalType": "address",
          "name": "",
          "type": "address"
        }
      ],
      "stateMutability": "view",
      "type": "function",
      "constant": true
    },
    {
      "inputs": [],
      "name": "name",
      "outputs": [
        {
          "internalType": "string",
          "name": "",
          "type": "string"
        }
      ],
      "stateMutability": "view",
      "type": "function",
      "constant": true
    },
    {
      "inputs": [],
      "name": "owner",
      "outputs": [
        {
          "internalType": "address",
          "name": "",
          "type": "address"
        }
      ],
      "stateMutability": "view",
      "type": "function",
      "constant": true
    },
    {
      "inputs": [
        {
          "internalType": "uint256",
          "name": "tokenId",
          "type": "uint256"
        }
      ],
      "name": "ownerOf",
      "outputs": [
        {
          "internalType": "address",
          "name": "",
          "type": "address"
        }
      ],
      "stateMutability": "view",
      "type": "function",
      "constant": true
    },
    {
      "inputs": [],
      "name": "renounceOwnership",
      "outputs": [],
      "stateMutability": "nonpayable",
      "type": "function"
    },
    {
      "inputs": [
        {
          "internalType": "address",
          "name": "from",
          "type": "address"
        },
        {
          "internalType": "address",
          "name": "to",
          "type": "address"
        },
        {
          "internalType": "uint256",
          "name": "tokenId",
          "type": "uint256"
        }
      ],
      "name": "safeTransferFrom",
      "outputs": [],
      "stateMutability": "nonpayable",
      "type": "function"
    },
    {
      "inputs": [
        {
          "internalType": "address",
          "name": "from",
          "type": "address"
        },
        {
          "internalType": "address",
          "name": "to",
          "type": "address"
        },
        {
          "internalType": "uint256",
          "name": "tokenId",
          "type": "uint256"
        },
        {
          "internalType": "bytes",
          "name": "_data",
          "type": "bytes"
        }
      ],
      "name": "safeTransferFrom",
      "outputs": [],
      "stateMutability": "nonpayable",
      "type": "function"
    },
    {
      "inputs": [
        {
          "internalType": "address",
          "name": "operator",
          "type": "address"
        },
        {
          "internalType": "bool",
          "name": "approved",
          "type": "bool"
        }
      ],
      "name": "setApprovalForAll",
      "outputs": [],
      "stateMutability": "nonpayable",
      "type": "function"
    },
    {
      "inputs": [
        {
          "internalType": "bytes4",
          "name": "interfaceId",
          "type": "bytes4"
        }
      ],
      "name": "supportsInterface",
      "outputs": [
        {
          "internalType": "bool",
          "name": "",
          "type": "bool"
        }
      ],
      "stateMutability": "view",
      "type": "function",
      "constant": true
    },
    {
      "inputs": [],
      "name": "symbol",
      "outputs": [
        {
          "internalType": "string",
          "name": "",
          "type": "string"
        }
      ],
      "stateMutability": "view",
      "type": "function",
      "constant": true
    },
    {
      "inputs": [
        {
          "internalType": "uint256",
          "name": "",
          "type": "uint256"
        }
      ],
      "name": "tokenInfoMap",
      "outputs": [
        {
          "internalType": "address",
          "name": "owner",
          "type": "address"
        },
        {
          "internalType": "string",
          "name": "ipfsHash",
          "type": "string"
        }
      ],
      "stateMutability": "view",
      "type": "function",
      "constant": true
    },
    {
      "inputs": [
        {
          "internalType": "uint256",
          "name": "tokenId",
          "type": "uint256"
        }
      ],
      "name": "tokenURI",
      "outputs": [
        {
          "internalType": "string",
          "name": "",
          "type": "string"
        }
      ],
      "stateMutability": "view",
      "type": "function",
      "constant": true
    },
    {
      "inputs": [
        {
          "internalType": "address",
          "name": "from",
          "type": "address"
        },
        {
          "internalType": "address",
          "name": "to",
          "type": "address"
        },
        {
          "internalType": "uint256",
          "name": "tokenId",
          "type": "uint256"
        }
      ],
      "name": "transferFrom",
      "outputs": [],
      "stateMutability": "nonpayable",
      "type": "function"
    },
    {
      "inputs": [
        {
          "internalType": "address",
          "name": "newOwner",
          "type": "address"
        }
      ],
      "name": "transferOwnership",
      "outputs": [],
      "stateMutability": "nonpayable",
      "type": "function"
    },
    {
      "inputs": [
        {
          "internalType": "string",
          "name": "_tokenURI",
          "type": "string"
        }
      ],
      "name": "mintNFT",
      "outputs": [
        {
          "internalType": "uint256",
          "name": "",
          "type": "uint256"
        }
      ],
      "stateMutability": "nonpayable",
      "type": "function"
    }
  ],
  "bytecode": "0x60806040523480156200001157600080fd5b5060405162003a8938038062003a898339818101604052810190620000379190620002a9565b828281600090805190602001906200005192919062000170565b5080600190805190602001906200006a92919062000170565b50505060006200007f6200016860201b60201c565b905080600760006101000a81548173ffffffffffffffffffffffffffffffffffffffff021916908373ffffffffffffffffffffffffffffffffffffffff1602179055508073ffffffffffffffffffffffffffffffffffffffff16600073ffffffffffffffffffffffffffffffffffffffff167f8be0079c531659141344cd1fd0a4f28419497f9722a3daafe3b4186f6b6457e060405160405180910390a35080600960006101000a81548173ffffffffffffffffffffffffffffffffffffffff021916908373ffffffffffffffffffffffffffffffffffffffff160217905550505050620004ef565b600033905090565b8280546200017e90620003fa565b90600052602060002090601f016020900481019282620001a25760008555620001ee565b82601f10620001bd57805160ff1916838001178555620001ee565b82800160010185558215620001ee579182015b82811115620001ed578251825591602001919060010190620001d0565b5b509050620001fd919062000201565b5090565b5b808211156200021c57600081600090555060010162000202565b5090565b60006200023762000231846200035a565b62000331565b9050828152602081018484840111156200025057600080fd5b6200025d848285620003c4565b509392505050565b6000815190506200027681620004d5565b92915050565b600082601f8301126200028e57600080fd5b8151620002a084826020860162000220565b91505092915050565b600080600060608486031215620002bf57600080fd5b600084015167ffffffffffffffff811115620002da57600080fd5b620002e8868287016200027c565b935050602084015167ffffffffffffffff8111156200030657600080fd5b62000314868287016200027c565b9250506040620003278682870162000265565b9150509250925092565b60006200033d62000350565b90506200034b828262000430565b919050565b6000604051905090565b600067ffffffffffffffff82111562000378576200037762000495565b5b6200038382620004c4565b9050602081019050919050565b60006200039d82620003a4565b9050919050565b600073ffffffffffffffffffffffffffffffffffffffff82169050919050565b60005b83811015620003e4578082015181840152602081019050620003c7565b83811115620003f4576000848401525b50505050565b600060028204905060018216806200041357607f821691505b602082108114156200042a576200042962000466565b5b50919050565b6200043b82620004c4565b810181811067ffffffffffffffff821117156200045d576200045c62000495565b5b80604052505050565b7f4e487b7100000000000000000000000000000000000000000000000000000000600052602260045260246000fd5b7f4e487b7100000000000000000000000000000000000000000000000000000000600052604160045260246000fd5b6000601f19601f8301169050919050565b620004e08162000390565b8114620004ec57600080fd5b50565b61358a80620004ff6000396000f3fe608060405234801561001057600080fd5b50600436106101375760003560e01c80638da5cb5b116100b8578063b5b9cd951161007c578063b5b9cd951461033d578063b88d4fde1461036d578063c87b56dd14610389578063e985e9c5146103b9578063f2fde38b146103e9578063fb37e8831461040557610137565b80638da5cb5b146102a957806395d89b41146102c7578063a22cb465146102e5578063aa46a40014610301578063abc8c7af1461031f57610137565b806342842e0e116100ff57806342842e0e146101f25780636352211e1461020e5780636fa700bf1461023e57806370a082311461026f578063715018a61461029f57610137565b806301ffc9a71461013c57806306fdde031461016c578063081812fc1461018a578063095ea7b3146101ba57806323b872dd146101d6575b600080fd5b6101566004803603810190610151919061241c565b610435565b604051610163919061293c565b60405180910390f35b610174610517565b6040516101819190612957565b60405180910390f35b6101a4600480360381019061019f91906124af565b6105a9565b6040516101b1919061287c565b60405180910390f35b6101d460048036038101906101cf91906123e0565b61062e565b005b6101f060048036038101906101eb91906122da565b610746565b005b61020c600480360381019061020791906122da565b6107a6565b005b610228600480360381019061022391906124af565b6107c6565b604051610235919061287c565b60405180910390f35b610258600480360381019061025391906124af565b610878565b6040516102669291906128e3565b60405180910390f35b61028960048036038101906102849190612275565b610944565b6040516102969190612bd9565b60405180910390f35b6102a76109fc565b005b6102b1610b39565b6040516102be919061287c565b60405180910390f35b6102cf610b63565b6040516102dc9190612957565b60405180910390f35b6102ff60048036038101906102fa91906123a4565b610bf5565b005b610309610d76565b6040516103169190612bd9565b60405180910390f35b610327610d82565b604051610334919061287c565b60405180910390f35b6103576004803603810190610352919061246e565b610da8565b604051610364919061293c565b60405180910390f35b61038760048036038101906103829190612329565b610dde565b005b6103a3600480360381019061039e91906124af565b610e40565b6040516103b09190612957565b60405180910390f35b6103d360048036038101906103ce919061229e565b610f92565b6040516103e0919061293c565b60405180910390f35b61040360048036038101906103fe9190612275565b611026565b005b61041f600480360381019061041a919061246e565b6111d2565b60405161042c9190612bd9565b60405180910390f35b60007f80ac58cd000000000000000000000000000000000000000000000000000000007bffffffffffffffffffffffffffffffffffffffffffffffffffffffff1916827bffffffffffffffffffffffffffffffffffffffffffffffffffffffff1916148061050057507f5b5e139f000000000000000000000000000000000000000000000000000000007bffffffffffffffffffffffffffffffffffffffffffffffffffffffff1916827bffffffffffffffffffffffffffffffffffffffffffffffffffffffff1916145b80610510575061050f82611473565b5b9050919050565b60606000805461052690612e2f565b80601f016020809104026020016040519081016040528092919081815260200182805461055290612e2f565b801561059f5780601f106105745761010080835404028352916020019161059f565b820191906000526020600020905b81548152906001019060200180831161058257829003601f168201915b5050505050905090565b60006105b4826114dd565b6105f3576040517f08c379a00000000000000000000000000000000000000000000000000000000081526004016105ea90612b19565b60405180910390fd5b6004600083815260200190815260200160002060009054906101000a900473ffffffffffffffffffffffffffffffffffffffff169050919050565b6000610639826107c6565b90508073ffffffffffffffffffffffffffffffffffffffff168373ffffffffffffffffffffffffffffffffffffffff1614156106aa576040517f08c379a00000000000000000000000000000000000000000000000000000000081526004016106a190612b99565b60405180910390fd5b8073ffffffffffffffffffffffffffffffffffffffff166106c9611549565b73ffffffffffffffffffffffffffffffffffffffff1614806106f857506106f7816106f2611549565b610f92565b5b610737576040517f08c379a000000000000000000000000000000000000000000000000000000000815260040161072e90612a59565b60405180910390fd5b6107418383611551565b505050565b610757610751611549565b8261160a565b610796576040517f08c379a000000000000000000000000000000000000000000000000000000000815260040161078d90612bb9565b60405180910390fd5b6107a18383836116e8565b505050565b6107c183838360405180602001604052806000815250610dde565b505050565b6000806002600084815260200190815260200160002060009054906101000a900473ffffffffffffffffffffffffffffffffffffffff169050600073ffffffffffffffffffffffffffffffffffffffff168173ffffffffffffffffffffffffffffffffffffffff16141561086f576040517f08c379a000000000000000000000000000000000000000000000000000000000815260040161086690612a99565b60405180910390fd5b80915050919050565b600a6020528060005260406000206000915090508060000160009054906101000a900473ffffffffffffffffffffffffffffffffffffffff16908060010180546108c190612e2f565b80601f01602080910402602001604051908101604052809291908181526020018280546108ed90612e2f565b801561093a5780601f1061090f5761010080835404028352916020019161093a565b820191906000526020600020905b81548152906001019060200180831161091d57829003601f168201915b5050505050905082565b60008073ffffffffffffffffffffffffffffffffffffffff168273ffffffffffffffffffffffffffffffffffffffff1614156109b5576040517f08c379a00000000000000000000000000000000000000000000000000000000081526004016109ac90612a79565b60405180910390fd5b600360008373ffffffffffffffffffffffffffffffffffffffff1673ffffffffffffffffffffffffffffffffffffffff168152602001908152602001600020549050919050565b610a04611549565b73ffffffffffffffffffffffffffffffffffffffff16610a22610b39565b73ffffffffffffffffffffffffffffffffffffffff1614610a78576040517f08c379a0000000000000000000000000000000000000000000000000000000008152600401610a6f90612b39565b60405180910390fd5b600073ffffffffffffffffffffffffffffffffffffffff16600760009054906101000a900473ffffffffffffffffffffffffffffffffffffffff1673ffffffffffffffffffffffffffffffffffffffff167f8be0079c531659141344cd1fd0a4f28419497f9722a3daafe3b4186f6b6457e060405160405180910390a36000600760006101000a81548173ffffffffffffffffffffffffffffffffffffffff021916908373ffffffffffffffffffffffffffffffffffffffff160217905550565b6000600760009054906101000a900473ffffffffffffffffffffffffffffffffffffffff16905090565b606060018054610b7290612e2f565b80601f0160208091040260200160405190810160405280929190818152602001828054610b9e90612e2f565b8015610beb5780601f10610bc057610100808354040283529160200191610beb565b820191906000526020600020905b815481529060010190602001808311610bce57829003601f168201915b5050505050905090565b610bfd611549565b73ffffffffffffffffffffffffffffffffffffffff168273ffffffffffffffffffffffffffffffffffffffff161415610c6b576040517f08c379a0000000000000000000000000000000000000000000000000000000008152600401610c62906129f9565b60405180910390fd5b8060056000610c78611549565b73ffffffffffffffffffffffffffffffffffffffff1673ffffffffffffffffffffffffffffffffffffffff16815260200190815260200160002060008473ffffffffffffffffffffffffffffffffffffffff1673ffffffffffffffffffffffffffffffffffffffff16815260200190815260200160002060006101000a81548160ff0219169083151502179055508173ffffffffffffffffffffffffffffffffffffffff16610d25611549565b73ffffffffffffffffffffffffffffffffffffffff167f17307eab39ab6107e8899845ad3d59bd9653f200f220920489ca2b5937696c3183604051610d6a919061293c565b60405180910390a35050565b60088060000154905081565b600960009054906101000a900473ffffffffffffffffffffffffffffffffffffffff1681565b600b818051602081018201805184825260208301602085012081835280955050505050506000915054906101000a900460ff1681565b610def610de9611549565b8361160a565b610e2e576040517f08c379a0000000000000000000000000000000000000000000000000000000008152600401610e2590612bb9565b60405180910390fd5b610e3a84848484611944565b50505050565b6060610e4b826114dd565b610e8a576040517f08c379a0000000000000000000000000000000000000000000000000000000008152600401610e8190612af9565b60405180910390fd5b6000600660008481526020019081526020016000208054610eaa90612e2f565b80601f0160208091040260200160405190810160405280929190818152602001828054610ed690612e2f565b8015610f235780601f10610ef857610100808354040283529160200191610f23565b820191906000526020600020905b815481529060010190602001808311610f0657829003601f168201915b505050505090506000610f346119a0565b9050600081511415610f4a578192505050610f8d565b600082511115610f7f578082604051602001610f67929190612858565b60405160208183030381529060405292505050610f8d565b610f88846119b7565b925050505b919050565b6000600560008473ffffffffffffffffffffffffffffffffffffffff1673ffffffffffffffffffffffffffffffffffffffff16815260200190815260200160002060008373ffffffffffffffffffffffffffffffffffffffff1673ffffffffffffffffffffffffffffffffffffffff16815260200190815260200160002060009054906101000a900460ff16905092915050565b61102e611549565b73ffffffffffffffffffffffffffffffffffffffff1661104c610b39565b73ffffffffffffffffffffffffffffffffffffffff16146110a2576040517f08c379a000000000000000000000000000000000000000000000000000000000815260040161109990612b39565b60405180910390fd5b600073ffffffffffffffffffffffffffffffffffffffff168173ffffffffffffffffffffffffffffffffffffffff161415611112576040517f08c379a000000000000000000000000000000000000000000000000000000000815260040161110990612999565b60405180910390fd5b8073ffffffffffffffffffffffffffffffffffffffff16600760009054906101000a900473ffffffffffffffffffffffffffffffffffffffff1673ffffffffffffffffffffffffffffffffffffffff167f8be0079c531659141344cd1fd0a4f28419497f9722a3daafe3b4186f6b6457e060405160405180910390a380600760006101000a81548173ffffffffffffffffffffffffffffffffffffffff021916908373ffffffffffffffffffffffffffffffffffffffff16021790555050565b60006111dc611549565b73ffffffffffffffffffffffffffffffffffffffff166111fa610b39565b73ffffffffffffffffffffffffffffffffffffffff1614611250576040517f08c379a000000000000000000000000000000000000000000000000000000000815260040161124790612b39565b60405180910390fd5b60011515600b836040516112649190612841565b908152602001604051809103902060009054906101000a900460ff16151514156112c3576040517f08c379a00000000000000000000000000000000000000000000000000000000081526004016112ba90612a19565b60405180910390fd5b6112cd6008611a5e565b60006112d96008611a74565b9050611307600960009054906101000a900473ffffffffffffffffffffffffffffffffffffffff1682611a82565b6113118184611aa0565b6001600b846040516113239190612841565b908152602001604051809103902060006101000a81548160ff0219169083151502179055506040518060400160405280600960009054906101000a900473ffffffffffffffffffffffffffffffffffffffff1673ffffffffffffffffffffffffffffffffffffffff16815260200184815250600a600083815260200190815260200160002060008201518160000160006101000a81548173ffffffffffffffffffffffffffffffffffffffff021916908373ffffffffffffffffffffffffffffffffffffffff160217905550602082015181600101908051906020019061140b929190612099565b509050507fa9a8fc8429e9d4b8fe54b38fd34cb56aaa1a9bf6eb605f45b223b08b58b97618600960009054906101000a900473ffffffffffffffffffffffffffffffffffffffff1682604051611462929190612913565b60405180910390a180915050919050565b60007f01ffc9a7000000000000000000000000000000000000000000000000000000007bffffffffffffffffffffffffffffffffffffffffffffffffffffffff1916827bffffffffffffffffffffffffffffffffffffffffffffffffffffffff1916149050919050565b60008073ffffffffffffffffffffffffffffffffffffffff166002600084815260200190815260200160002060009054906101000a900473ffffffffffffffffffffffffffffffffffffffff1673ffffffffffffffffffffffffffffffffffffffff1614159050919050565b600033905090565b816004600083815260200190815260200160002060006101000a81548173ffffffffffffffffffffffffffffffffffffffff021916908373ffffffffffffffffffffffffffffffffffffffff160217905550808273ffffffffffffffffffffffffffffffffffffffff166115c4836107c6565b73ffffffffffffffffffffffffffffffffffffffff167f8c5be1e5ebec7d5bd14f71427d1e84f3dd0314c0f7b2291e5b200ac8c7c3b92560405160405180910390a45050565b6000611615826114dd565b611654576040517f08c379a000000000000000000000000000000000000000000000000000000000815260040161164b90612a39565b60405180910390fd5b600061165f836107c6565b90508073ffffffffffffffffffffffffffffffffffffffff168473ffffffffffffffffffffffffffffffffffffffff1614806116ce57508373ffffffffffffffffffffffffffffffffffffffff166116b6846105a9565b73ffffffffffffffffffffffffffffffffffffffff16145b806116df57506116de8185610f92565b5b91505092915050565b8273ffffffffffffffffffffffffffffffffffffffff16611708826107c6565b73ffffffffffffffffffffffffffffffffffffffff161461175e576040517f08c379a000000000000000000000000000000000000000000000000000000000815260040161175590612b59565b60405180910390fd5b600073ffffffffffffffffffffffffffffffffffffffff168273ffffffffffffffffffffffffffffffffffffffff1614156117ce576040517f08c379a00000000000000000000000000000000000000000000000000000000081526004016117c5906129d9565b60405180910390fd5b6117d9838383611b14565b6117e4600082611551565b6001600360008573ffffffffffffffffffffffffffffffffffffffff1673ffffffffffffffffffffffffffffffffffffffff16815260200190815260200160002060008282546118349190612d45565b925050819055506001600360008473ffffffffffffffffffffffffffffffffffffffff1673ffffffffffffffffffffffffffffffffffffffff168152602001908152602001600020600082825461188b9190612cbe565b92505081905550816002600083815260200190815260200160002060006101000a81548173ffffffffffffffffffffffffffffffffffffffff021916908373ffffffffffffffffffffffffffffffffffffffff160217905550808273ffffffffffffffffffffffffffffffffffffffff168473ffffffffffffffffffffffffffffffffffffffff167fddf252ad1be2c89b69c2b068fc378daa952ba7f163c4a11628f55a4df523b3ef60405160405180910390a4505050565b61194f8484846116e8565b61195b84848484611b19565b61199a576040517f08c379a000000000000000000000000000000000000000000000000000000000815260040161199190612979565b60405180910390fd5b50505050565b606060405180602001604052806000815250905090565b60606119c2826114dd565b611a01576040517f08c379a00000000000000000000000000000000000000000000000000000000081526004016119f890612b79565b60405180910390fd5b6000611a0b6119a0565b90506000815111611a2b5760405180602001604052806000815250611a56565b80611a3584611cb0565b604051602001611a46929190612858565b6040516020818303038152906040525b915050919050565b6001816000016000828254019250508190555050565b600081600001549050919050565b611a9c828260405180602001604052806000815250611e5d565b5050565b611aa9826114dd565b611ae8576040517f08c379a0000000000000000000000000000000000000000000000000000000008152600401611adf90612ab9565b60405180910390fd5b80600660008481526020019081526020016000209080519060200190611b0f929190612099565b505050565b505050565b6000611b3a8473ffffffffffffffffffffffffffffffffffffffff16611eb8565b15611ca3578373ffffffffffffffffffffffffffffffffffffffff1663150b7a02611b63611549565b8786866040518563ffffffff1660e01b8152600401611b859493929190612897565b602060405180830381600087803b158015611b9f57600080fd5b505af1925050508015611bd057506040513d601f19601f82011682018060405250810190611bcd9190612445565b60015b611c53573d8060008114611c00576040519150601f19603f3d011682016040523d82523d6000602084013e611c05565b606091505b50600081511415611c4b576040517f08c379a0000000000000000000000000000000000000000000000000000000008152600401611c4290612979565b60405180910390fd5b805181602001fd5b63150b7a0260e01b7bffffffffffffffffffffffffffffffffffffffffffffffffffffffff1916817bffffffffffffffffffffffffffffffffffffffffffffffffffffffff191614915050611ca8565b600190505b949350505050565b60606000821415611cf8576040518060400160405280600181526020017f30000000000000000000000000000000000000000000000000000000000000008152509050611e58565b600082905060005b60008214611d2a578080611d1390612e92565b915050600a82611d239190612d14565b9150611d00565b60008167ffffffffffffffff811115611d6c577f4e487b7100000000000000000000000000000000000000000000000000000000600052604160045260246000fd5b6040519080825280601f01601f191660200182016040528015611d9e5781602001600182028036833780820191505090505b5090505b60008514611e5157600182611db79190612d45565b9150600a85611dc69190612edb565b6030611dd29190612cbe565b60f81b818381518110611e0e577f4e487b7100000000000000000000000000000000000000000000000000000000600052603260045260246000fd5b60200101907effffffffffffffffffffffffffffffffffffffffffffffffffffffffffffff1916908160001a905350600a85611e4a9190612d14565b9450611da2565b8093505050505b919050565b611e678383611ecb565b611e746000848484611b19565b611eb3576040517f08c379a0000000000000000000000000000000000000000000000000000000008152600401611eaa90612979565b60405180910390fd5b505050565b600080823b905060008111915050919050565b600073ffffffffffffffffffffffffffffffffffffffff168273ffffffffffffffffffffffffffffffffffffffff161415611f3b576040517f08c379a0000000000000000000000000000000000000000000000000000000008152600401611f3290612ad9565b60405180910390fd5b611f44816114dd565b15611f84576040517f08c379a0000000000000000000000000000000000000000000000000000000008152600401611f7b906129b9565b60405180910390fd5b611f9060008383611b14565b6001600360008473ffffffffffffffffffffffffffffffffffffffff1673ffffffffffffffffffffffffffffffffffffffff1681526020019081526020016000206000828254611fe09190612cbe565b92505081905550816002600083815260200190815260200160002060006101000a81548173ffffffffffffffffffffffffffffffffffffffff021916908373ffffffffffffffffffffffffffffffffffffffff160217905550808273ffffffffffffffffffffffffffffffffffffffff16600073ffffffffffffffffffffffffffffffffffffffff167fddf252ad1be2c89b69c2b068fc378daa952ba7f163c4a11628f55a4df523b3ef60405160405180910390a45050565b8280546120a590612e2f565b90600052602060002090601f0160209004810192826120c7576000855561210e565b82601f106120e057805160ff191683800117855561210e565b8280016001018555821561210e579182015b8281111561210d5782518255916020019190600101906120f2565b5b50905061211b919061211f565b5090565b5b80821115612138576000816000905550600101612120565b5090565b600061214f61214a84612c19565b612bf4565b90508281526020810184848401111561216757600080fd5b612172848285612ded565b509392505050565b600061218d61218884612c4a565b612bf4565b9050828152602081018484840111156121a557600080fd5b6121b0848285612ded565b509392505050565b6000813590506121c7816134f8565b92915050565b6000813590506121dc8161350f565b92915050565b6000813590506121f181613526565b92915050565b60008151905061220681613526565b92915050565b600082601f83011261221d57600080fd5b813561222d84826020860161213c565b91505092915050565b600082601f83011261224757600080fd5b813561225784826020860161217a565b91505092915050565b60008135905061226f8161353d565b92915050565b60006020828403121561228757600080fd5b6000612295848285016121b8565b91505092915050565b600080604083850312156122b157600080fd5b60006122bf858286016121b8565b92505060206122d0858286016121b8565b9150509250929050565b6000806000606084860312156122ef57600080fd5b60006122fd868287016121b8565b935050602061230e868287016121b8565b925050604061231f86828701612260565b9150509250925092565b6000806000806080858703121561233f57600080fd5b600061234d878288016121b8565b945050602061235e878288016121b8565b935050604061236f87828801612260565b925050606085013567ffffffffffffffff81111561238c57600080fd5b6123988782880161220c565b91505092959194509250565b600080604083850312156123b757600080fd5b60006123c5858286016121b8565b92505060206123d6858286016121cd565b9150509250929050565b600080604083850312156123f357600080fd5b6000612401858286016121b8565b925050602061241285828601612260565b9150509250929050565b60006020828403121561242e57600080fd5b600061243c848285016121e2565b91505092915050565b60006020828403121561245757600080fd5b6000612465848285016121f7565b91505092915050565b60006020828403121561248057600080fd5b600082013567ffffffffffffffff81111561249a57600080fd5b6124a684828501612236565b91505092915050565b6000602082840312156124c157600080fd5b60006124cf84828501612260565b91505092915050565b6124e181612d79565b82525050565b6124f081612d8b565b82525050565b600061250182612c7b565b61250b8185612c91565b935061251b818560208601612dfc565b61252481612fc8565b840191505092915050565b600061253a82612c86565b6125448185612ca2565b9350612554818560208601612dfc565b61255d81612fc8565b840191505092915050565b600061257382612c86565b61257d8185612cb3565b935061258d818560208601612dfc565b80840191505092915050565b60006125a6603283612ca2565b91506125b182612fd9565b604082019050919050565b60006125c9602683612ca2565b91506125d482613028565b604082019050919050565b60006125ec601c83612ca2565b91506125f782613077565b602082019050919050565b600061260f602483612ca2565b915061261a826130a0565b604082019050919050565b6000612632601983612ca2565b915061263d826130ef565b602082019050919050565b6000612655601283612ca2565b915061266082613118565b602082019050919050565b6000612678602c83612ca2565b915061268382613141565b604082019050919050565b600061269b603883612ca2565b91506126a682613190565b604082019050919050565b60006126be602a83612ca2565b91506126c9826131df565b604082019050919050565b60006126e1602983612ca2565b91506126ec8261322e565b604082019050919050565b6000612704602e83612ca2565b915061270f8261327d565b604082019050919050565b6000612727602083612ca2565b9150612732826132cc565b602082019050919050565b600061274a603183612ca2565b9150612755826132f5565b604082019050919050565b600061276d602c83612ca2565b915061277882613344565b604082019050919050565b6000612790602083612ca2565b915061279b82613393565b602082019050919050565b60006127b3602983612ca2565b91506127be826133bc565b604082019050919050565b60006127d6602f83612ca2565b91506127e18261340b565b604082019050919050565b60006127f9602183612ca2565b91506128048261345a565b604082019050919050565b600061281c603183612ca2565b9150612827826134a9565b604082019050919050565b61283b81612de3565b82525050565b600061284d8284612568565b915081905092915050565b60006128648285612568565b91506128708284612568565b91508190509392505050565b600060208201905061289160008301846124d8565b92915050565b60006080820190506128ac60008301876124d8565b6128b960208301866124d8565b6128c66040830185612832565b81810360608301526128d881846124f6565b905095945050505050565b60006040820190506128f860008301856124d8565b818103602083015261290a818461252f565b90509392505050565b600060408201905061292860008301856124d8565b6129356020830184612832565b9392505050565b600060208201905061295160008301846124e7565b92915050565b60006020820190508181036000830152612971818461252f565b905092915050565b6000602082019050818103600083015261299281612599565b9050919050565b600060208201905081810360008301526129b2816125bc565b9050919050565b600060208201905081810360008301526129d2816125df565b9050919050565b600060208201905081810360008301526129f281612602565b9050919050565b60006020820190508181036000830152612a1281612625565b9050919050565b60006020820190508181036000830152612a3281612648565b9050919050565b60006020820190508181036000830152612a528161266b565b9050919050565b60006020820190508181036000830152612a728161268e565b9050919050565b60006020820190508181036000830152612a92816126b1565b9050919050565b60006020820190508181036000830152612ab2816126d4565b9050919050565b60006020820190508181036000830152612ad2816126f7565b9050919050565b60006020820190508181036000830152612af28161271a565b9050919050565b60006020820190508181036000830152612b128161273d565b9050919050565b60006020820190508181036000830152612b3281612760565b9050919050565b60006020820190508181036000830152612b5281612783565b9050919050565b60006020820190508181036000830152612b72816127a6565b9050919050565b60006020820190508181036000830152612b92816127c9565b9050919050565b60006020820190508181036000830152612bb2816127ec565b9050919050565b60006020820190508181036000830152612bd28161280f565b9050919050565b6000602082019050612bee6000830184612832565b92915050565b6000612bfe612c0f565b9050612c0a8282612e61565b919050565b6000604051905090565b600067ffffffffffffffff821115612c3457612c33612f99565b5b612c3d82612fc8565b9050602081019050919050565b600067ffffffffffffffff821115612c6557612c64612f99565b5b612c6e82612fc8565b9050602081019050919050565b600081519050919050565b600081519050919050565b600082825260208201905092915050565b600082825260208201905092915050565b600081905092915050565b6000612cc982612de3565b9150612cd483612de3565b9250827fffffffffffffffffffffffffffffffffffffffffffffffffffffffffffffffff03821115612d0957612d08612f0c565b5b828201905092915050565b6000612d1f82612de3565b9150612d2a83612de3565b925082612d3a57612d39612f3b565b5b828204905092915050565b6000612d5082612de3565b9150612d5b83612de3565b925082821015612d6e57612d6d612f0c565b5b828203905092915050565b6000612d8482612dc3565b9050919050565b60008115159050919050565b60007fffffffff0000000000000000000000000000000000000000000000000000000082169050919050565b600073ffffffffffffffffffffffffffffffffffffffff82169050919050565b6000819050919050565b82818337600083830152505050565b60005b83811015612e1a578082015181840152602081019050612dff565b83811115612e29576000848401525b50505050565b60006002820490506001821680612e4757607f821691505b60208210811415612e5b57612e5a612f6a565b5b50919050565b612e6a82612fc8565b810181811067ffffffffffffffff82111715612e8957612e88612f99565b5b80604052505050565b6000612e9d82612de3565b91507fffffffffffffffffffffffffffffffffffffffffffffffffffffffffffffffff821415612ed057612ecf612f0c565b5b600182019050919050565b6000612ee682612de3565b9150612ef183612de3565b925082612f0157612f00612f3b565b5b828206905092915050565b7f4e487b7100000000000000000000000000000000000000000000000000000000600052601160045260246000fd5b7f4e487b7100000000000000000000000000000000000000000000000000000000600052601260045260246000fd5b7f4e487b7100000000000000000000000000000000000000000000000000000000600052602260045260246000fd5b7f4e487b7100000000000000000000000000000000000000000000000000000000600052604160045260246000fd5b6000601f19601f8301169050919050565b7f4552433732313a207472616e7366657220746f206e6f6e20455243373231526560008201527f63656976657220696d706c656d656e7465720000000000000000000000000000602082015250565b7f4f776e61626c653a206e6577206f776e657220697320746865207a65726f206160008201527f6464726573730000000000000000000000000000000000000000000000000000602082015250565b7f4552433732313a20746f6b656e20616c7265616479206d696e74656400000000600082015250565b7f4552433732313a207472616e7366657220746f20746865207a65726f2061646460008201527f7265737300000000000000000000000000000000000000000000000000000000602082015250565b7f4552433732313a20617070726f766520746f2063616c6c657200000000000000600082015250565b7f416c726561647920726567697374657265640000000000000000000000000000600082015250565b7f4552433732313a206f70657261746f7220717565727920666f72206e6f6e657860008201527f697374656e7420746f6b656e0000000000000000000000000000000000000000602082015250565b7f4552433732313a20617070726f76652063616c6c6572206973206e6f74206f7760008201527f6e6572206e6f7220617070726f76656420666f7220616c6c0000000000000000602082015250565b7f4552433732313a2062616c616e636520717565727920666f7220746865207a6560008201527f726f206164647265737300000000000000000000000000000000000000000000602082015250565b7f4552433732313a206f776e657220717565727920666f72206e6f6e657869737460008201527f656e7420746f6b656e0000000000000000000000000000000000000000000000602082015250565b7f45524337323155524953746f726167653a2055524920736574206f66206e6f6e60008201527f6578697374656e7420746f6b656e000000000000000000000000000000000000602082015250565b7f4552433732313a206d696e7420746f20746865207a65726f2061646472657373600082015250565b7f45524337323155524953746f726167653a2055524920717565727920666f722060008201527f6e6f6e6578697374656e7420746f6b656e000000000000000000000000000000602082015250565b7f4552433732313a20617070726f76656420717565727920666f72206e6f6e657860008201527f697374656e7420746f6b656e0000000000000000000000000000000000000000602082015250565b7f4f776e61626c653a2063616c6c6572206973206e6f7420746865206f776e6572600082015250565b7f4552433732313a207472616e73666572206f6620746f6b656e2074686174206960008201527f73206e6f74206f776e0000000000000000000000000000000000000000000000602082015250565b7f4552433732314d657461646174613a2055524920717565727920666f72206e6f60008201527f6e6578697374656e7420746f6b656e0000000000000000000000000000000000602082015250565b7f4552433732313a20617070726f76616c20746f2063757272656e74206f776e6560008201527f7200000000000000000000000000000000000000000000000000000000000000602082015250565b7f4552433732313a207472616e736665722063616c6c6572206973206e6f74206f60008201527f776e6572206e6f7220617070726f766564000000000000000000000000000000602082015250565b61350181612d79565b811461350c57600080fd5b50565b61351881612d8b565b811461352357600080fd5b50565b61352f81612d97565b811461353a57600080fd5b50565b61354681612de3565b811461355157600080fd5b5056fea2646970667358221220d54a24190a8b6aff4b0f775565d2ebe25b563794c6322d8810e6a333582b57d164736f6c63430008030033",
  "immutableReferences": {},
  "source": "// SPDX-License-Identifier: MIT\r\npragma solidity 0.8.3;\r\n\r\nimport \"@openzeppelin/contracts/token/ERC721/extensions/ERC721URIStorage.sol\";\r\nimport \"@openzeppelin/contracts/token/ERC721/ERC721.sol\";\r\nimport \"@openzeppelin/contracts/utils/Counters.sol\";\r\nimport '@openzeppelin/contracts/access/Ownable.sol';\r\n\r\ncontract CardItem is ERC721URIStorage, Ownable {\r\n    using Counters for Counters.Counter;\r\n    \r\n    struct TokenInfo {\r\n        address owner;\r\n        string ipfsHash;\r\n    }\r\n\r\n    Counters.Counter public _tokenIds;\r\n    address public marketplace;\r\n\r\n    mapping (uint256 => TokenInfo) public tokenInfoMap;\r\n    mapping(string => bool) public ipfsHashes;\r\n        \r\n    event ItemCreated(\r\n        address owner,\r\n        uint256 tokenId\r\n    );\r\n\r\n    constructor (string memory _name, string memory _symbol, address _marketplace) public ERC721(_name, _symbol) {\r\n          marketplace = _marketplace;\r\n    }\r\n\r\n    /** \r\n     * @dev Mint a new NFT  \r\n     * @param _tokenURI - URL include ipfs hash\r\n     */\r\n    function mintNFT(string memory _tokenURI) public onlyOwner returns (uint256) {\r\n        require(ipfsHashes[_tokenURI] != true, \"Already registered\");  \r\n        \r\n         _tokenIds.increment();\r\n        uint256 newItemId = _tokenIds.current();\r\n        \r\n        _safeMint(marketplace, newItemId);\r\n        _setTokenURI(newItemId, _tokenURI);\r\n        \r\n        ipfsHashes[_tokenURI] = true;\r\n        tokenInfoMap[newItemId] = TokenInfo({\r\n            owner: marketplace,\r\n            ipfsHash: _tokenURI\r\n        });\r\n     \r\n        emit ItemCreated(marketplace, newItemId);\r\n     \r\n        return newItemId;\r\n    }\r\n}\r\n",
  "sourcePath": "C:/work_store/blockchain_work/tatakai/contracts/CardItem.sol",
  "compiler": {
    "name": "solc",
    "version": "0.8.3+commit.8d00100c.Emscripten.clang"
  },
  "schemaVersion": "3.3.4",
  "updatedAt": "2021-04-15T12:31:29.072Z",
  "networkType": "ethereum",
  "devdoc": {
    "kind": "dev",
    "methods": {
      "approve(address,uint256)": {
        "details": "See {IERC721-approve}."
      },
      "balanceOf(address)": {
        "details": "See {IERC721-balanceOf}."
      },
      "getApproved(uint256)": {
        "details": "See {IERC721-getApproved}."
      },
      "isApprovedForAll(address,address)": {
        "details": "See {IERC721-isApprovedForAll}."
      },
      "mintNFT(string)": {
        "details": "Mint a new NFT  ",
        "params": {
          "_tokenURI": "- URL include ipfs hash"
        }
      },
      "name()": {
        "details": "See {IERC721Metadata-name}."
      },
      "owner()": {
        "details": "Returns the address of the current owner."
      },
      "ownerOf(uint256)": {
        "details": "See {IERC721-ownerOf}."
      },
      "renounceOwnership()": {
        "details": "Leaves the contract without owner. It will not be possible to call `onlyOwner` functions anymore. Can only be called by the current owner. NOTE: Renouncing ownership will leave the contract without an owner, thereby removing any functionality that is only available to the owner."
      },
      "safeTransferFrom(address,address,uint256)": {
        "details": "See {IERC721-safeTransferFrom}."
      },
      "safeTransferFrom(address,address,uint256,bytes)": {
        "details": "See {IERC721-safeTransferFrom}."
      },
      "setApprovalForAll(address,bool)": {
        "details": "See {IERC721-setApprovalForAll}."
      },
      "supportsInterface(bytes4)": {
        "details": "See {IERC165-supportsInterface}."
      },
      "symbol()": {
        "details": "See {IERC721Metadata-symbol}."
      },
      "tokenURI(uint256)": {
        "details": "See {IERC721Metadata-tokenURI}."
      },
      "transferFrom(address,address,uint256)": {
        "details": "See {IERC721-transferFrom}."
      },
      "transferOwnership(address)": {
        "details": "Transfers ownership of the contract to a new account (`newOwner`). Can only be called by the current owner."
      }
    },
    "version": 1
  },
  "userdoc": {
    "kind": "user",
    "methods": {},
    "version": 1
  }
}