{
  "contractName": "CardItem",
  "abi": [
    {
      "inputs": [
        {
          "internalType": "string",
          "name": "_name",
          "type": "string"
        },
        {
          "internalType": "string",
          "name": "_symbol",
          "type": "string"
        },
        {
          "internalType": "string",
          "name": "_baseUri",
          "type": "string"
        }
      ],
      "stateMutability": "nonpayable",
      "type": "constructor"
    },
    {
      "anonymous": false,
      "inputs": [
        {
          "indexed": true,
          "internalType": "address",
          "name": "owner",
          "type": "address"
        },
        {
          "indexed": true,
          "internalType": "address",
          "name": "approved",
          "type": "address"
        },
        {
          "indexed": true,
          "internalType": "uint256",
          "name": "tokenId",
          "type": "uint256"
        }
      ],
      "name": "Approval",
      "type": "event"
    },
    {
      "anonymous": false,
      "inputs": [
        {
          "indexed": true,
          "internalType": "address",
          "name": "owner",
          "type": "address"
        },
        {
          "indexed": true,
          "internalType": "address",
          "name": "operator",
          "type": "address"
        },
        {
          "indexed": false,
          "internalType": "bool",
          "name": "approved",
          "type": "bool"
        }
      ],
      "name": "ApprovalForAll",
      "type": "event"
    },
    {
      "anonymous": false,
      "inputs": [
        {
          "indexed": true,
          "internalType": "address",
          "name": "from",
          "type": "address"
        },
        {
          "indexed": true,
          "internalType": "address",
          "name": "to",
          "type": "address"
        },
        {
          "indexed": true,
          "internalType": "uint256",
          "name": "tokenId",
          "type": "uint256"
        }
      ],
      "name": "Transfer",
      "type": "event"
    },
    {
      "inputs": [
        {
          "internalType": "address",
          "name": "to",
          "type": "address"
        },
        {
          "internalType": "uint256",
          "name": "tokenId",
          "type": "uint256"
        }
      ],
      "name": "approve",
      "outputs": [],
      "stateMutability": "nonpayable",
      "type": "function"
    },
    {
      "inputs": [
        {
          "internalType": "address",
          "name": "owner",
          "type": "address"
        }
      ],
      "name": "balanceOf",
      "outputs": [
        {
          "internalType": "uint256",
          "name": "",
          "type": "uint256"
        }
      ],
      "stateMutability": "view",
      "type": "function"
    },
    {
      "inputs": [
        {
          "internalType": "uint256",
          "name": "tokenId",
          "type": "uint256"
        }
      ],
      "name": "getApproved",
      "outputs": [
        {
          "internalType": "address",
          "name": "",
          "type": "address"
        }
      ],
      "stateMutability": "view",
      "type": "function"
    },
    {
      "inputs": [
        {
          "internalType": "address",
          "name": "owner",
          "type": "address"
        },
        {
          "internalType": "address",
          "name": "operator",
          "type": "address"
        }
      ],
      "name": "isApprovedForAll",
      "outputs": [
        {
          "internalType": "bool",
          "name": "",
          "type": "bool"
        }
      ],
      "stateMutability": "view",
      "type": "function"
    },
    {
      "inputs": [],
      "name": "name",
      "outputs": [
        {
          "internalType": "string",
          "name": "",
          "type": "string"
        }
      ],
      "stateMutability": "view",
      "type": "function"
    },
    {
      "inputs": [
        {
          "internalType": "uint256",
          "name": "tokenId",
          "type": "uint256"
        }
      ],
      "name": "ownerOf",
      "outputs": [
        {
          "internalType": "address",
          "name": "",
          "type": "address"
        }
      ],
      "stateMutability": "view",
      "type": "function"
    },
    {
      "inputs": [
        {
          "internalType": "address",
          "name": "from",
          "type": "address"
        },
        {
          "internalType": "address",
          "name": "to",
          "type": "address"
        },
        {
          "internalType": "uint256",
          "name": "tokenId",
          "type": "uint256"
        }
      ],
      "name": "safeTransferFrom",
      "outputs": [],
      "stateMutability": "nonpayable",
      "type": "function"
    },
    {
      "inputs": [
        {
          "internalType": "address",
          "name": "from",
          "type": "address"
        },
        {
          "internalType": "address",
          "name": "to",
          "type": "address"
        },
        {
          "internalType": "uint256",
          "name": "tokenId",
          "type": "uint256"
        },
        {
          "internalType": "bytes",
          "name": "_data",
          "type": "bytes"
        }
      ],
      "name": "safeTransferFrom",
      "outputs": [],
      "stateMutability": "nonpayable",
      "type": "function"
    },
    {
      "inputs": [
        {
          "internalType": "address",
          "name": "operator",
          "type": "address"
        },
        {
          "internalType": "bool",
          "name": "approved",
          "type": "bool"
        }
      ],
      "name": "setApprovalForAll",
      "outputs": [],
      "stateMutability": "nonpayable",
      "type": "function"
    },
    {
      "inputs": [
        {
          "internalType": "bytes4",
          "name": "interfaceId",
          "type": "bytes4"
        }
      ],
      "name": "supportsInterface",
      "outputs": [
        {
          "internalType": "bool",
          "name": "",
          "type": "bool"
        }
      ],
      "stateMutability": "view",
      "type": "function"
    },
    {
      "inputs": [],
      "name": "symbol",
      "outputs": [
        {
          "internalType": "string",
          "name": "",
          "type": "string"
        }
      ],
      "stateMutability": "view",
      "type": "function"
    },
    {
      "inputs": [],
      "name": "tokenCounter",
      "outputs": [
        {
          "internalType": "uint256",
          "name": "",
          "type": "uint256"
        }
      ],
      "stateMutability": "view",
      "type": "function"
    },
    {
      "inputs": [
        {
          "internalType": "uint256",
          "name": "",
          "type": "uint256"
        }
      ],
      "name": "tokenInfoMap",
      "outputs": [
        {
          "internalType": "string",
          "name": "metaDataHash",
          "type": "string"
        },
        {
          "internalType": "string",
          "name": "metaData",
          "type": "string"
        },
        {
          "internalType": "uint256",
          "name": "count",
          "type": "uint256"
        }
      ],
      "stateMutability": "view",
      "type": "function"
    },
    {
      "inputs": [
        {
          "internalType": "uint256",
          "name": "tokenId",
          "type": "uint256"
        }
      ],
      "name": "tokenURI",
      "outputs": [
        {
          "internalType": "string",
          "name": "",
          "type": "string"
        }
      ],
      "stateMutability": "view",
      "type": "function"
    },
    {
      "inputs": [
        {
          "internalType": "address",
          "name": "from",
          "type": "address"
        },
        {
          "internalType": "address",
          "name": "to",
          "type": "address"
        },
        {
          "internalType": "uint256",
          "name": "tokenId",
          "type": "uint256"
        }
      ],
      "name": "transferFrom",
      "outputs": [],
      "stateMutability": "nonpayable",
      "type": "function"
    },
    {
      "inputs": [
        {
          "internalType": "address",
          "name": "_marketplace",
          "type": "address"
        },
        {
          "internalType": "string",
          "name": "hash",
          "type": "string"
        },
        {
          "internalType": "string",
          "name": "metadata",
          "type": "string"
        }
      ],
      "name": "mintNFT",
      "outputs": [
        {
          "internalType": "uint256",
          "name": "",
          "type": "uint256"
        }
      ],
      "stateMutability": "nonpayable",
      "type": "function"
    }
  ],
  "bytecode": "0x60806040523480156200001157600080fd5b506040516200325b3803806200325b8339818101604052810190620000379190620001a0565b82828160009080519060200190620000519291906200007e565b5080600190805190602001906200006a9291906200007e565b5050506000600881905550505050620003b1565b8280546200008c90620002d6565b90600052602060002090601f016020900481019282620000b05760008555620000fc565b82601f10620000cb57805160ff1916838001178555620000fc565b82800160010185558215620000fc579182015b82811115620000fb578251825591602001919060010190620000de565b5b5090506200010b91906200010f565b5090565b5b808211156200012a57600081600090555060010162000110565b5090565b6000620001456200013f846200026a565b62000241565b9050828152602081018484840111156200015e57600080fd5b6200016b848285620002a0565b509392505050565b600082601f8301126200018557600080fd5b8151620001978482602086016200012e565b91505092915050565b600080600060608486031215620001b657600080fd5b600084015167ffffffffffffffff811115620001d157600080fd5b620001df8682870162000173565b935050602084015167ffffffffffffffff811115620001fd57600080fd5b6200020b8682870162000173565b925050604084015167ffffffffffffffff8111156200022957600080fd5b620002378682870162000173565b9150509250925092565b60006200024d62000260565b90506200025b82826200030c565b919050565b6000604051905090565b600067ffffffffffffffff82111562000288576200028762000371565b5b6200029382620003a0565b9050602081019050919050565b60005b83811015620002c0578082015181840152602081019050620002a3565b83811115620002d0576000848401525b50505050565b60006002820490506001821680620002ef57607f821691505b6020821081141562000306576200030562000342565b5b50919050565b6200031782620003a0565b810181811067ffffffffffffffff8211171562000339576200033862000371565b5b80604052505050565b7f4e487b7100000000000000000000000000000000000000000000000000000000600052602260045260246000fd5b7f4e487b7100000000000000000000000000000000000000000000000000000000600052604160045260246000fd5b6000601f19601f8301169050919050565b612e9a80620003c16000396000f3fe608060405234801561001057600080fd5b50600436106101005760003560e01c806370a0823111610097578063b88d4fde11610066578063b88d4fde146102d3578063c87b56dd146102ef578063d082e3811461031f578063e985e9c51461033d57610100565b806370a082311461023957806395d89b4114610269578063a22cb46514610287578063a3ee38ae146102a357610100565b806323b872dd116100d357806323b872dd1461019f57806342842e0e146101bb5780636352211e146101d75780636fa700bf1461020757610100565b806301ffc9a71461010557806306fdde0314610135578063081812fc14610153578063095ea7b314610183575b600080fd5b61011f600480360381019061011a9190611eeb565b61036d565b60405161012c9190612308565b60405180910390f35b61013d61044f565b60405161014a9190612323565b60405180910390f35b61016d60048036038101906101689190611f3d565b6104e1565b60405161017a91906122a1565b60405180910390f35b61019d60048036038101906101989190611eaf565b610566565b005b6101b960048036038101906101b49190611d2a565b61067e565b005b6101d560048036038101906101d09190611d2a565b6106de565b005b6101f160048036038101906101ec9190611f3d565b6106fe565b6040516101fe91906122a1565b60405180910390f35b610221600480360381019061021c9190611f3d565b6107b0565b60405161023093929190612345565b60405180910390f35b610253600480360381019061024e9190611cc5565b6108ea565b604051610260919061258a565b60405180910390f35b6102716109a2565b60405161027e9190612323565b60405180910390f35b6102a1600480360381019061029c9190611df4565b610a34565b005b6102bd60048036038101906102b89190611e30565b610bb5565b6040516102ca919061258a565b60405180910390f35b6102ed60048036038101906102e89190611d79565b610cee565b005b61030960048036038101906103049190611f3d565b610d50565b6040516103169190612323565b60405180910390f35b610327610ea2565b604051610334919061258a565b60405180910390f35b61035760048036038101906103529190611cee565b610ea8565b6040516103649190612308565b60405180910390f35b60007f80ac58cd000000000000000000000000000000000000000000000000000000007bffffffffffffffffffffffffffffffffffffffffffffffffffffffff1916827bffffffffffffffffffffffffffffffffffffffffffffffffffffffff1916148061043857507f5b5e139f000000000000000000000000000000000000000000000000000000007bffffffffffffffffffffffffffffffffffffffffffffffffffffffff1916827bffffffffffffffffffffffffffffffffffffffffffffffffffffffff1916145b80610448575061044782610f3c565b5b9050919050565b60606000805461045e906127e0565b80601f016020809104026020016040519081016040528092919081815260200182805461048a906127e0565b80156104d75780601f106104ac576101008083540402835291602001916104d7565b820191906000526020600020905b8154815290600101906020018083116104ba57829003601f168201915b5050505050905090565b60006104ec82610fa6565b61052b576040517f08c379a0000000000000000000000000000000000000000000000000000000008152600401610522906124ea565b60405180910390fd5b6004600083815260200190815260200160002060009054906101000a900473ffffffffffffffffffffffffffffffffffffffff169050919050565b6000610571826106fe565b90508073ffffffffffffffffffffffffffffffffffffffff168373ffffffffffffffffffffffffffffffffffffffff1614156105e2576040517f08c379a00000000000000000000000000000000000000000000000000000000081526004016105d99061254a565b60405180910390fd5b8073ffffffffffffffffffffffffffffffffffffffff16610601611012565b73ffffffffffffffffffffffffffffffffffffffff161480610630575061062f8161062a611012565b610ea8565b5b61066f576040517f08c379a00000000000000000000000000000000000000000000000000000000081526004016106669061242a565b60405180910390fd5b610679838361101a565b505050565b61068f610689611012565b826110d3565b6106ce576040517f08c379a00000000000000000000000000000000000000000000000000000000081526004016106c59061256a565b60405180910390fd5b6106d98383836111b1565b505050565b6106f983838360405180602001604052806000815250610cee565b505050565b6000806002600084815260200190815260200160002060009054906101000a900473ffffffffffffffffffffffffffffffffffffffff169050600073ffffffffffffffffffffffffffffffffffffffff168173ffffffffffffffffffffffffffffffffffffffff1614156107a7576040517f08c379a000000000000000000000000000000000000000000000000000000000815260040161079e9061246a565b60405180910390fd5b80915050919050565b60096020528060005260406000206000915090508060000180546107d3906127e0565b80601f01602080910402602001604051908101604052809291908181526020018280546107ff906127e0565b801561084c5780601f106108215761010080835404028352916020019161084c565b820191906000526020600020905b81548152906001019060200180831161082f57829003601f168201915b505050505090806001018054610861906127e0565b80601f016020809104026020016040519081016040528092919081815260200182805461088d906127e0565b80156108da5780601f106108af576101008083540402835291602001916108da565b820191906000526020600020905b8154815290600101906020018083116108bd57829003601f168201915b5050505050908060020154905083565b60008073ffffffffffffffffffffffffffffffffffffffff168273ffffffffffffffffffffffffffffffffffffffff16141561095b576040517f08c379a00000000000000000000000000000000000000000000000000000000081526004016109529061244a565b60405180910390fd5b600360008373ffffffffffffffffffffffffffffffffffffffff1673ffffffffffffffffffffffffffffffffffffffff168152602001908152602001600020549050919050565b6060600180546109b1906127e0565b80601f01602080910402602001604051908101604052809291908181526020018280546109dd906127e0565b8015610a2a5780601f106109ff57610100808354040283529160200191610a2a565b820191906000526020600020905b815481529060010190602001808311610a0d57829003601f168201915b5050505050905090565b610a3c611012565b73ffffffffffffffffffffffffffffffffffffffff168273ffffffffffffffffffffffffffffffffffffffff161415610aaa576040517f08c379a0000000000000000000000000000000000000000000000000000000008152600401610aa1906123ea565b60405180910390fd5b8060056000610ab7611012565b73ffffffffffffffffffffffffffffffffffffffff1673ffffffffffffffffffffffffffffffffffffffff16815260200190815260200160002060008473ffffffffffffffffffffffffffffffffffffffff1673ffffffffffffffffffffffffffffffffffffffff16815260200190815260200160002060006101000a81548160ff0219169083151502179055508173ffffffffffffffffffffffffffffffffffffffff16610b64611012565b73ffffffffffffffffffffffffffffffffffffffff167f17307eab39ab6107e8899845ad3d59bd9653f200f220920489ca2b5937696c3183604051610ba99190612308565b60405180910390a35050565b60006001600a84604051610bc99190612266565b908152602001604051809103902060009054906101000a900460ff1660ff161415610bf357600080fd5b6001600a84604051610c059190612266565b908152602001604051809103902060006101000a81548160ff021916908360ff160217905550610c35600761140d565b6000610c416007611423565b9050610c4d8582611431565b610c5781846115ff565b6001600854610c66919061266f565b6008819055506040518060600160405280858152602001848152602001600854815250600960008381526020019081526020016000206000820151816000019080519060200190610cb8929190611ae9565b506020820151816001019080519060200190610cd5929190611ae9565b5060408201518160020155905050809150509392505050565b610cff610cf9611012565b836110d3565b610d3e576040517f08c379a0000000000000000000000000000000000000000000000000000000008152600401610d359061256a565b60405180910390fd5b610d4a84848484611673565b50505050565b6060610d5b82610fa6565b610d9a576040517f08c379a0000000000000000000000000000000000000000000000000000000008152600401610d91906124ca565b60405180910390fd5b6000600660008481526020019081526020016000208054610dba906127e0565b80601f0160208091040260200160405190810160405280929190818152602001828054610de6906127e0565b8015610e335780601f10610e0857610100808354040283529160200191610e33565b820191906000526020600020905b815481529060010190602001808311610e1657829003601f168201915b505050505090506000610e446116cf565b9050600081511415610e5a578192505050610e9d565b600082511115610e8f578082604051602001610e7792919061227d565b60405160208183030381529060405292505050610e9d565b610e98846116e6565b925050505b919050565b60085481565b6000600560008473ffffffffffffffffffffffffffffffffffffffff1673ffffffffffffffffffffffffffffffffffffffff16815260200190815260200160002060008373ffffffffffffffffffffffffffffffffffffffff1673ffffffffffffffffffffffffffffffffffffffff16815260200190815260200160002060009054906101000a900460ff16905092915050565b60007f01ffc9a7000000000000000000000000000000000000000000000000000000007bffffffffffffffffffffffffffffffffffffffffffffffffffffffff1916827bffffffffffffffffffffffffffffffffffffffffffffffffffffffff1916149050919050565b60008073ffffffffffffffffffffffffffffffffffffffff166002600084815260200190815260200160002060009054906101000a900473ffffffffffffffffffffffffffffffffffffffff1673ffffffffffffffffffffffffffffffffffffffff1614159050919050565b600033905090565b816004600083815260200190815260200160002060006101000a81548173ffffffffffffffffffffffffffffffffffffffff021916908373ffffffffffffffffffffffffffffffffffffffff160217905550808273ffffffffffffffffffffffffffffffffffffffff1661108d836106fe565b73ffffffffffffffffffffffffffffffffffffffff167f8c5be1e5ebec7d5bd14f71427d1e84f3dd0314c0f7b2291e5b200ac8c7c3b92560405160405180910390a45050565b60006110de82610fa6565b61111d576040517f08c379a00000000000000000000000000000000000000000000000000000000081526004016111149061240a565b60405180910390fd5b6000611128836106fe565b90508073ffffffffffffffffffffffffffffffffffffffff168473ffffffffffffffffffffffffffffffffffffffff16148061119757508373ffffffffffffffffffffffffffffffffffffffff1661117f846104e1565b73ffffffffffffffffffffffffffffffffffffffff16145b806111a857506111a78185610ea8565b5b91505092915050565b8273ffffffffffffffffffffffffffffffffffffffff166111d1826106fe565b73ffffffffffffffffffffffffffffffffffffffff1614611227576040517f08c379a000000000000000000000000000000000000000000000000000000000815260040161121e9061250a565b60405180910390fd5b600073ffffffffffffffffffffffffffffffffffffffff168273ffffffffffffffffffffffffffffffffffffffff161415611297576040517f08c379a000000000000000000000000000000000000000000000000000000000815260040161128e906123ca565b60405180910390fd5b6112a283838361178d565b6112ad60008261101a565b6001600360008573ffffffffffffffffffffffffffffffffffffffff1673ffffffffffffffffffffffffffffffffffffffff16815260200190815260200160002060008282546112fd91906126f6565b925050819055506001600360008473ffffffffffffffffffffffffffffffffffffffff1673ffffffffffffffffffffffffffffffffffffffff1681526020019081526020016000206000828254611354919061266f565b92505081905550816002600083815260200190815260200160002060006101000a81548173ffffffffffffffffffffffffffffffffffffffff021916908373ffffffffffffffffffffffffffffffffffffffff160217905550808273ffffffffffffffffffffffffffffffffffffffff168473ffffffffffffffffffffffffffffffffffffffff167fddf252ad1be2c89b69c2b068fc378daa952ba7f163c4a11628f55a4df523b3ef60405160405180910390a4505050565b6001816000016000828254019250508190555050565b600081600001549050919050565b600073ffffffffffffffffffffffffffffffffffffffff168273ffffffffffffffffffffffffffffffffffffffff1614156114a1576040517f08c379a0000000000000000000000000000000000000000000000000000000008152600401611498906124aa565b60405180910390fd5b6114aa81610fa6565b156114ea576040517f08c379a00000000000000000000000000000000000000000000000000000000081526004016114e1906123aa565b60405180910390fd5b6114f66000838361178d565b6001600360008473ffffffffffffffffffffffffffffffffffffffff1673ffffffffffffffffffffffffffffffffffffffff1681526020019081526020016000206000828254611546919061266f565b92505081905550816002600083815260200190815260200160002060006101000a81548173ffffffffffffffffffffffffffffffffffffffff021916908373ffffffffffffffffffffffffffffffffffffffff160217905550808273ffffffffffffffffffffffffffffffffffffffff16600073ffffffffffffffffffffffffffffffffffffffff167fddf252ad1be2c89b69c2b068fc378daa952ba7f163c4a11628f55a4df523b3ef60405160405180910390a45050565b61160882610fa6565b611647576040517f08c379a000000000000000000000000000000000000000000000000000000000815260040161163e9061248a565b60405180910390fd5b8060066000848152602001908152602001600020908051906020019061166e929190611ae9565b505050565b61167e8484846111b1565b61168a84848484611792565b6116c9576040517f08c379a00000000000000000000000000000000000000000000000000000000081526004016116c09061238a565b60405180910390fd5b50505050565b606060405180602001604052806000815250905090565b60606116f182610fa6565b611730576040517f08c379a00000000000000000000000000000000000000000000000000000000081526004016117279061252a565b60405180910390fd5b600061173a6116cf565b9050600081511161175a5760405180602001604052806000815250611785565b8061176484611929565b60405160200161177592919061227d565b6040516020818303038152906040525b915050919050565b505050565b60006117b38473ffffffffffffffffffffffffffffffffffffffff16611ad6565b1561191c578373ffffffffffffffffffffffffffffffffffffffff1663150b7a026117dc611012565b8786866040518563ffffffff1660e01b81526004016117fe94939291906122bc565b602060405180830381600087803b15801561181857600080fd5b505af192505050801561184957506040513d601f19601f820116820180604052508101906118469190611f14565b60015b6118cc573d8060008114611879576040519150601f19603f3d011682016040523d82523d6000602084013e61187e565b606091505b506000815114156118c4576040517f08c379a00000000000000000000000000000000000000000000000000000000081526004016118bb9061238a565b60405180910390fd5b805181602001fd5b63150b7a0260e01b7bffffffffffffffffffffffffffffffffffffffffffffffffffffffff1916817bffffffffffffffffffffffffffffffffffffffffffffffffffffffff191614915050611921565b600190505b949350505050565b60606000821415611971576040518060400160405280600181526020017f30000000000000000000000000000000000000000000000000000000000000008152509050611ad1565b600082905060005b600082146119a357808061198c90612843565b915050600a8261199c91906126c5565b9150611979565b60008167ffffffffffffffff8111156119e5577f4e487b7100000000000000000000000000000000000000000000000000000000600052604160045260246000fd5b6040519080825280601f01601f191660200182016040528015611a175781602001600182028036833780820191505090505b5090505b60008514611aca57600182611a3091906126f6565b9150600a85611a3f919061288c565b6030611a4b919061266f565b60f81b818381518110611a87577f4e487b7100000000000000000000000000000000000000000000000000000000600052603260045260246000fd5b60200101907effffffffffffffffffffffffffffffffffffffffffffffffffffffffffffff1916908160001a905350600a85611ac391906126c5565b9450611a1b565b8093505050505b919050565b600080823b905060008111915050919050565b828054611af5906127e0565b90600052602060002090601f016020900481019282611b175760008555611b5e565b82601f10611b3057805160ff1916838001178555611b5e565b82800160010185558215611b5e579182015b82811115611b5d578251825591602001919060010190611b42565b5b509050611b6b9190611b6f565b5090565b5b80821115611b88576000816000905550600101611b70565b5090565b6000611b9f611b9a846125ca565b6125a5565b905082815260208101848484011115611bb757600080fd5b611bc284828561279e565b509392505050565b6000611bdd611bd8846125fb565b6125a5565b905082815260208101848484011115611bf557600080fd5b611c0084828561279e565b509392505050565b600081359050611c1781612e08565b92915050565b600081359050611c2c81612e1f565b92915050565b600081359050611c4181612e36565b92915050565b600081519050611c5681612e36565b92915050565b600082601f830112611c6d57600080fd5b8135611c7d848260208601611b8c565b91505092915050565b600082601f830112611c9757600080fd5b8135611ca7848260208601611bca565b91505092915050565b600081359050611cbf81612e4d565b92915050565b600060208284031215611cd757600080fd5b6000611ce584828501611c08565b91505092915050565b60008060408385031215611d0157600080fd5b6000611d0f85828601611c08565b9250506020611d2085828601611c08565b9150509250929050565b600080600060608486031215611d3f57600080fd5b6000611d4d86828701611c08565b9350506020611d5e86828701611c08565b9250506040611d6f86828701611cb0565b9150509250925092565b60008060008060808587031215611d8f57600080fd5b6000611d9d87828801611c08565b9450506020611dae87828801611c08565b9350506040611dbf87828801611cb0565b925050606085013567ffffffffffffffff811115611ddc57600080fd5b611de887828801611c5c565b91505092959194509250565b60008060408385031215611e0757600080fd5b6000611e1585828601611c08565b9250506020611e2685828601611c1d565b9150509250929050565b600080600060608486031215611e4557600080fd5b6000611e5386828701611c08565b935050602084013567ffffffffffffffff811115611e7057600080fd5b611e7c86828701611c86565b925050604084013567ffffffffffffffff811115611e9957600080fd5b611ea586828701611c86565b9150509250925092565b60008060408385031215611ec257600080fd5b6000611ed085828601611c08565b9250506020611ee185828601611cb0565b9150509250929050565b600060208284031215611efd57600080fd5b6000611f0b84828501611c32565b91505092915050565b600060208284031215611f2657600080fd5b6000611f3484828501611c47565b91505092915050565b600060208284031215611f4f57600080fd5b6000611f5d84828501611cb0565b91505092915050565b611f6f8161272a565b82525050565b611f7e8161273c565b82525050565b6000611f8f8261262c565b611f998185612642565b9350611fa98185602086016127ad565b611fb281612979565b840191505092915050565b6000611fc882612637565b611fd28185612653565b9350611fe28185602086016127ad565b611feb81612979565b840191505092915050565b600061200182612637565b61200b8185612664565b935061201b8185602086016127ad565b80840191505092915050565b6000612034603283612653565b915061203f8261298a565b604082019050919050565b6000612057601c83612653565b9150612062826129d9565b602082019050919050565b600061207a602483612653565b915061208582612a02565b604082019050919050565b600061209d601983612653565b91506120a882612a51565b602082019050919050565b60006120c0602c83612653565b91506120cb82612a7a565b604082019050919050565b60006120e3603883612653565b91506120ee82612ac9565b604082019050919050565b6000612106602a83612653565b915061211182612b18565b604082019050919050565b6000612129602983612653565b915061213482612b67565b604082019050919050565b600061214c602e83612653565b915061215782612bb6565b604082019050919050565b600061216f602083612653565b915061217a82612c05565b602082019050919050565b6000612192603183612653565b915061219d82612c2e565b604082019050919050565b60006121b5602c83612653565b91506121c082612c7d565b604082019050919050565b60006121d8602983612653565b91506121e382612ccc565b604082019050919050565b60006121fb602f83612653565b915061220682612d1b565b604082019050919050565b600061221e602183612653565b915061222982612d6a565b604082019050919050565b6000612241603183612653565b915061224c82612db9565b604082019050919050565b61226081612794565b82525050565b60006122728284611ff6565b915081905092915050565b60006122898285611ff6565b91506122958284611ff6565b91508190509392505050565b60006020820190506122b66000830184611f66565b92915050565b60006080820190506122d16000830187611f66565b6122de6020830186611f66565b6122eb6040830185612257565b81810360608301526122fd8184611f84565b905095945050505050565b600060208201905061231d6000830184611f75565b92915050565b6000602082019050818103600083015261233d8184611fbd565b905092915050565b6000606082019050818103600083015261235f8186611fbd565b905081810360208301526123738185611fbd565b90506123826040830184612257565b949350505050565b600060208201905081810360008301526123a381612027565b9050919050565b600060208201905081810360008301526123c38161204a565b9050919050565b600060208201905081810360008301526123e38161206d565b9050919050565b6000602082019050818103600083015261240381612090565b9050919050565b60006020820190508181036000830152612423816120b3565b9050919050565b60006020820190508181036000830152612443816120d6565b9050919050565b60006020820190508181036000830152612463816120f9565b9050919050565b600060208201905081810360008301526124838161211c565b9050919050565b600060208201905081810360008301526124a38161213f565b9050919050565b600060208201905081810360008301526124c381612162565b9050919050565b600060208201905081810360008301526124e381612185565b9050919050565b60006020820190508181036000830152612503816121a8565b9050919050565b60006020820190508181036000830152612523816121cb565b9050919050565b60006020820190508181036000830152612543816121ee565b9050919050565b6000602082019050818103600083015261256381612211565b9050919050565b6000602082019050818103600083015261258381612234565b9050919050565b600060208201905061259f6000830184612257565b92915050565b60006125af6125c0565b90506125bb8282612812565b919050565b6000604051905090565b600067ffffffffffffffff8211156125e5576125e461294a565b5b6125ee82612979565b9050602081019050919050565b600067ffffffffffffffff8211156126165761261561294a565b5b61261f82612979565b9050602081019050919050565b600081519050919050565b600081519050919050565b600082825260208201905092915050565b600082825260208201905092915050565b600081905092915050565b600061267a82612794565b915061268583612794565b9250827fffffffffffffffffffffffffffffffffffffffffffffffffffffffffffffffff038211156126ba576126b96128bd565b5b828201905092915050565b60006126d082612794565b91506126db83612794565b9250826126eb576126ea6128ec565b5b828204905092915050565b600061270182612794565b915061270c83612794565b92508282101561271f5761271e6128bd565b5b828203905092915050565b600061273582612774565b9050919050565b60008115159050919050565b60007fffffffff0000000000000000000000000000000000000000000000000000000082169050919050565b600073ffffffffffffffffffffffffffffffffffffffff82169050919050565b6000819050919050565b82818337600083830152505050565b60005b838110156127cb5780820151818401526020810190506127b0565b838111156127da576000848401525b50505050565b600060028204905060018216806127f857607f821691505b6020821081141561280c5761280b61291b565b5b50919050565b61281b82612979565b810181811067ffffffffffffffff8211171561283a5761283961294a565b5b80604052505050565b600061284e82612794565b91507fffffffffffffffffffffffffffffffffffffffffffffffffffffffffffffffff821415612881576128806128bd565b5b600182019050919050565b600061289782612794565b91506128a283612794565b9250826128b2576128b16128ec565b5b828206905092915050565b7f4e487b7100000000000000000000000000000000000000000000000000000000600052601160045260246000fd5b7f4e487b7100000000000000000000000000000000000000000000000000000000600052601260045260246000fd5b7f4e487b7100000000000000000000000000000000000000000000000000000000600052602260045260246000fd5b7f4e487b7100000000000000000000000000000000000000000000000000000000600052604160045260246000fd5b6000601f19601f8301169050919050565b7f4552433732313a207472616e7366657220746f206e6f6e20455243373231526560008201527f63656976657220696d706c656d656e7465720000000000000000000000000000602082015250565b7f4552433732313a20746f6b656e20616c7265616479206d696e74656400000000600082015250565b7f4552433732313a207472616e7366657220746f20746865207a65726f2061646460008201527f7265737300000000000000000000000000000000000000000000000000000000602082015250565b7f4552433732313a20617070726f766520746f2063616c6c657200000000000000600082015250565b7f4552433732313a206f70657261746f7220717565727920666f72206e6f6e657860008201527f697374656e7420746f6b656e0000000000000000000000000000000000000000602082015250565b7f4552433732313a20617070726f76652063616c6c6572206973206e6f74206f7760008201527f6e6572206e6f7220617070726f76656420666f7220616c6c0000000000000000602082015250565b7f4552433732313a2062616c616e636520717565727920666f7220746865207a6560008201527f726f206164647265737300000000000000000000000000000000000000000000602082015250565b7f4552433732313a206f776e657220717565727920666f72206e6f6e657869737460008201527f656e7420746f6b656e0000000000000000000000000000000000000000000000602082015250565b7f45524337323155524953746f726167653a2055524920736574206f66206e6f6e60008201527f6578697374656e7420746f6b656e000000000000000000000000000000000000602082015250565b7f4552433732313a206d696e7420746f20746865207a65726f2061646472657373600082015250565b7f45524337323155524953746f726167653a2055524920717565727920666f722060008201527f6e6f6e6578697374656e7420746f6b656e000000000000000000000000000000602082015250565b7f4552433732313a20617070726f76656420717565727920666f72206e6f6e657860008201527f697374656e7420746f6b656e0000000000000000000000000000000000000000602082015250565b7f4552433732313a207472616e73666572206f6620746f6b656e2074686174206960008201527f73206e6f74206f776e0000000000000000000000000000000000000000000000602082015250565b7f4552433732314d657461646174613a2055524920717565727920666f72206e6f60008201527f6e6578697374656e7420746f6b656e0000000000000000000000000000000000602082015250565b7f4552433732313a20617070726f76616c20746f2063757272656e74206f776e6560008201527f7200000000000000000000000000000000000000000000000000000000000000602082015250565b7f4552433732313a207472616e736665722063616c6c6572206973206e6f74206f60008201527f776e6572206e6f7220617070726f766564000000000000000000000000000000602082015250565b612e118161272a565b8114612e1c57600080fd5b50565b612e288161273c565b8114612e3357600080fd5b50565b612e3f81612748565b8114612e4a57600080fd5b50565b612e5681612794565b8114612e6157600080fd5b5056fea26469706673582212209b94c65d85fdcd31f9a69ccd722ff3cdf48bb77bd16e819987ec6584a2f378ea64736f6c63430008030033",
  "immutableReferences": {},
  "source": "// SPDX-License-Identifier: MIT\npragma solidity 0.8.3;\n\nimport \"@openzeppelin/contracts/token/ERC721/extensions/ERC721URIStorage.sol\";\nimport \"@openzeppelin/contracts/token/ERC721/ERC721.sol\";\nimport \"@openzeppelin/contracts/utils/Counters.sol\";\n\ncontract CardItem is ERC721URIStorage {\n    using Counters for Counters.Counter;\n    Counters.Counter private _tokenIds;\n\n    uint256 public tokenCounter;\n\n    struct TokenInfo {\n        string metaDataHash;\n        string metaData;\n        uint256 count;\n    }\n\n    mapping (uint256 => TokenInfo) public tokenInfoMap;\n    mapping(string => uint8) hashes;\n\n    constructor (string memory _name, string memory _symbol, string memory _baseUri) public ERC721(_name, _symbol) {\n         tokenCounter = 0;\n    }\n\n    function mintNFT(address _marketplace, string memory hash, string memory metadata) public returns (uint256) {\n        require(hashes[hash] != 1);\n        hashes[hash] = 1;\n        \n        _tokenIds.increment();\n        uint256 newItemId = _tokenIds.current();\n        _mint(_marketplace, newItemId);\n        _setTokenURI(newItemId, metadata);\n        \n        tokenCounter = tokenCounter + 1;\n        \n        tokenInfoMap[newItemId] = TokenInfo({\n            metaDataHash: hash,\n            metaData: metadata,\n            count : tokenCounter\n        });\n     \n        return newItemId;\n    }\n}\n",
  "sourcePath": "/Users/sandyinstructor/Documents/BLOCKCHAIN/Alyra/PROJET/tatakai/contracts/CardItem.sol",
  "compiler": {
    "name": "solc",
    "version": "0.8.3+commit.8d00100c.Emscripten.clang"
  },
  "schemaVersion": "3.3.4",
  "updatedAt": "2021-04-02T12:31:57.419Z",
  "devdoc": {
    "kind": "dev",
    "methods": {
      "approve(address,uint256)": {
        "details": "See {IERC721-approve}."
      },
      "balanceOf(address)": {
        "details": "See {IERC721-balanceOf}."
      },
      "getApproved(uint256)": {
        "details": "See {IERC721-getApproved}."
      },
      "isApprovedForAll(address,address)": {
        "details": "See {IERC721-isApprovedForAll}."
      },
      "name()": {
        "details": "See {IERC721Metadata-name}."
      },
      "ownerOf(uint256)": {
        "details": "See {IERC721-ownerOf}."
      },
      "safeTransferFrom(address,address,uint256)": {
        "details": "See {IERC721-safeTransferFrom}."
      },
      "safeTransferFrom(address,address,uint256,bytes)": {
        "details": "See {IERC721-safeTransferFrom}."
      },
      "setApprovalForAll(address,bool)": {
        "details": "See {IERC721-setApprovalForAll}."
      },
      "supportsInterface(bytes4)": {
        "details": "See {IERC165-supportsInterface}."
      },
      "symbol()": {
        "details": "See {IERC721Metadata-symbol}."
      },
      "tokenURI(uint256)": {
        "details": "See {IERC721Metadata-tokenURI}."
      },
      "transferFrom(address,address,uint256)": {
        "details": "See {IERC721-transferFrom}."
      }
    },
    "version": 1
  },
  "userdoc": {
    "kind": "user",
    "methods": {},
    "version": 1
  }
}