{
  "contractName": "CardItem",
  "abi": [
    {
      "inputs": [
        {
          "internalType": "string",
          "name": "_name",
          "type": "string"
        },
        {
          "internalType": "string",
          "name": "_symbol",
          "type": "string"
        },
        {
          "internalType": "address",
          "name": "_marketplace",
          "type": "address"
        }
      ],
      "stateMutability": "nonpayable",
      "type": "constructor"
    },
    {
      "anonymous": false,
      "inputs": [
        {
          "indexed": true,
          "internalType": "address",
          "name": "owner",
          "type": "address"
        },
        {
          "indexed": true,
          "internalType": "address",
          "name": "approved",
          "type": "address"
        },
        {
          "indexed": true,
          "internalType": "uint256",
          "name": "tokenId",
          "type": "uint256"
        }
      ],
      "name": "Approval",
      "type": "event"
    },
    {
      "anonymous": false,
      "inputs": [
        {
          "indexed": true,
          "internalType": "address",
          "name": "owner",
          "type": "address"
        },
        {
          "indexed": true,
          "internalType": "address",
          "name": "operator",
          "type": "address"
        },
        {
          "indexed": false,
          "internalType": "bool",
          "name": "approved",
          "type": "bool"
        }
      ],
      "name": "ApprovalForAll",
      "type": "event"
    },
    {
      "anonymous": false,
      "inputs": [
        {
          "indexed": false,
          "internalType": "address",
          "name": "owner",
          "type": "address"
        },
        {
          "indexed": false,
          "internalType": "uint256",
          "name": "tokenId",
          "type": "uint256"
        }
      ],
      "name": "ItemCreated",
      "type": "event"
    },
    {
      "anonymous": false,
      "inputs": [
        {
          "indexed": true,
          "internalType": "address",
          "name": "previousOwner",
          "type": "address"
        },
        {
          "indexed": true,
          "internalType": "address",
          "name": "newOwner",
          "type": "address"
        }
      ],
      "name": "OwnershipTransferred",
      "type": "event"
    },
    {
      "anonymous": false,
      "inputs": [
        {
          "indexed": true,
          "internalType": "address",
          "name": "from",
          "type": "address"
        },
        {
          "indexed": true,
          "internalType": "address",
          "name": "to",
          "type": "address"
        },
        {
          "indexed": true,
          "internalType": "uint256",
          "name": "tokenId",
          "type": "uint256"
        }
      ],
      "name": "Transfer",
      "type": "event"
    },
    {
      "inputs": [],
      "name": "_tokenIds",
      "outputs": [
        {
          "internalType": "uint256",
          "name": "_value",
          "type": "uint256"
        }
      ],
      "stateMutability": "view",
      "type": "function",
      "constant": true
    },
    {
      "inputs": [
        {
          "internalType": "address",
          "name": "to",
          "type": "address"
        },
        {
          "internalType": "uint256",
          "name": "tokenId",
          "type": "uint256"
        }
      ],
      "name": "approve",
      "outputs": [],
      "stateMutability": "nonpayable",
      "type": "function"
    },
    {
      "inputs": [
        {
          "internalType": "address",
          "name": "owner",
          "type": "address"
        }
      ],
      "name": "balanceOf",
      "outputs": [
        {
          "internalType": "uint256",
          "name": "",
          "type": "uint256"
        }
      ],
      "stateMutability": "view",
      "type": "function",
      "constant": true
    },
    {
      "inputs": [
        {
          "internalType": "uint256",
          "name": "tokenId",
          "type": "uint256"
        }
      ],
      "name": "getApproved",
      "outputs": [
        {
          "internalType": "address",
          "name": "",
          "type": "address"
        }
      ],
      "stateMutability": "view",
      "type": "function",
      "constant": true
    },
    {
      "inputs": [
        {
          "internalType": "string",
          "name": "",
          "type": "string"
        }
      ],
      "name": "ipfsHashToTokenId",
      "outputs": [
        {
          "internalType": "uint256",
          "name": "",
          "type": "uint256"
        }
      ],
      "stateMutability": "view",
      "type": "function",
      "constant": true
    },
    {
      "inputs": [
        {
          "internalType": "string",
          "name": "",
          "type": "string"
        }
      ],
      "name": "ipfsHashes",
      "outputs": [
        {
          "internalType": "bool",
          "name": "",
          "type": "bool"
        }
      ],
      "stateMutability": "view",
      "type": "function",
      "constant": true
    },
    {
      "inputs": [
        {
          "internalType": "address",
          "name": "owner",
          "type": "address"
        },
        {
          "internalType": "address",
          "name": "operator",
          "type": "address"
        }
      ],
      "name": "isApprovedForAll",
      "outputs": [
        {
          "internalType": "bool",
          "name": "",
          "type": "bool"
        }
      ],
      "stateMutability": "view",
      "type": "function",
      "constant": true
    },
    {
      "inputs": [],
      "name": "marketplace",
      "outputs": [
        {
          "internalType": "address",
          "name": "",
          "type": "address"
        }
      ],
      "stateMutability": "view",
      "type": "function",
      "constant": true
    },
    {
      "inputs": [],
      "name": "name",
      "outputs": [
        {
          "internalType": "string",
          "name": "",
          "type": "string"
        }
      ],
      "stateMutability": "view",
      "type": "function",
      "constant": true
    },
    {
      "inputs": [],
      "name": "owner",
      "outputs": [
        {
          "internalType": "address",
          "name": "",
          "type": "address"
        }
      ],
      "stateMutability": "view",
      "type": "function",
      "constant": true
    },
    {
      "inputs": [
        {
          "internalType": "uint256",
          "name": "tokenId",
          "type": "uint256"
        }
      ],
      "name": "ownerOf",
      "outputs": [
        {
          "internalType": "address",
          "name": "",
          "type": "address"
        }
      ],
      "stateMutability": "view",
      "type": "function",
      "constant": true
    },
    {
      "inputs": [],
      "name": "renounceOwnership",
      "outputs": [],
      "stateMutability": "nonpayable",
      "type": "function"
    },
    {
      "inputs": [
        {
          "internalType": "address",
          "name": "from",
          "type": "address"
        },
        {
          "internalType": "address",
          "name": "to",
          "type": "address"
        },
        {
          "internalType": "uint256",
          "name": "tokenId",
          "type": "uint256"
        }
      ],
      "name": "safeTransferFrom",
      "outputs": [],
      "stateMutability": "nonpayable",
      "type": "function"
    },
    {
      "inputs": [
        {
          "internalType": "address",
          "name": "from",
          "type": "address"
        },
        {
          "internalType": "address",
          "name": "to",
          "type": "address"
        },
        {
          "internalType": "uint256",
          "name": "tokenId",
          "type": "uint256"
        },
        {
          "internalType": "bytes",
          "name": "_data",
          "type": "bytes"
        }
      ],
      "name": "safeTransferFrom",
      "outputs": [],
      "stateMutability": "nonpayable",
      "type": "function"
    },
    {
      "inputs": [
        {
          "internalType": "address",
          "name": "operator",
          "type": "address"
        },
        {
          "internalType": "bool",
          "name": "approved",
          "type": "bool"
        }
      ],
      "name": "setApprovalForAll",
      "outputs": [],
      "stateMutability": "nonpayable",
      "type": "function"
    },
    {
      "inputs": [
        {
          "internalType": "bytes4",
          "name": "interfaceId",
          "type": "bytes4"
        }
      ],
      "name": "supportsInterface",
      "outputs": [
        {
          "internalType": "bool",
          "name": "",
          "type": "bool"
        }
      ],
      "stateMutability": "view",
      "type": "function",
      "constant": true
    },
    {
      "inputs": [],
      "name": "symbol",
      "outputs": [
        {
          "internalType": "string",
          "name": "",
          "type": "string"
        }
      ],
      "stateMutability": "view",
      "type": "function",
      "constant": true
    },
    {
      "inputs": [
        {
          "internalType": "uint256",
          "name": "",
          "type": "uint256"
        }
      ],
      "name": "tokenInfoMap",
      "outputs": [
        {
          "internalType": "address",
          "name": "owner",
          "type": "address"
        },
        {
          "internalType": "string",
          "name": "ipfsHash",
          "type": "string"
        }
      ],
      "stateMutability": "view",
      "type": "function",
      "constant": true
    },
    {
      "inputs": [
        {
          "internalType": "uint256",
          "name": "tokenId",
          "type": "uint256"
        }
      ],
      "name": "tokenURI",
      "outputs": [
        {
          "internalType": "string",
          "name": "",
          "type": "string"
        }
      ],
      "stateMutability": "view",
      "type": "function",
      "constant": true
    },
    {
      "inputs": [
        {
          "internalType": "address",
          "name": "from",
          "type": "address"
        },
        {
          "internalType": "address",
          "name": "to",
          "type": "address"
        },
        {
          "internalType": "uint256",
          "name": "tokenId",
          "type": "uint256"
        }
      ],
      "name": "transferFrom",
      "outputs": [],
      "stateMutability": "nonpayable",
      "type": "function"
    },
    {
      "inputs": [
        {
          "internalType": "address",
          "name": "newOwner",
          "type": "address"
        }
      ],
      "name": "transferOwnership",
      "outputs": [],
      "stateMutability": "nonpayable",
      "type": "function"
    },
    {
      "inputs": [
        {
          "internalType": "string",
          "name": "_tokenURI",
          "type": "string"
        }
      ],
      "name": "mintNFT",
      "outputs": [
        {
          "internalType": "uint256",
          "name": "",
          "type": "uint256"
        }
      ],
      "stateMutability": "nonpayable",
      "type": "function"
    }
  ],
  "bytecode": "0x60806040523480156200001157600080fd5b5060405162003b1538038062003b158339818101604052810190620000379190620002a9565b828281600090805190602001906200005192919062000170565b5080600190805190602001906200006a92919062000170565b50505060006200007f6200016860201b60201c565b905080600760006101000a81548173ffffffffffffffffffffffffffffffffffffffff021916908373ffffffffffffffffffffffffffffffffffffffff1602179055508073ffffffffffffffffffffffffffffffffffffffff16600073ffffffffffffffffffffffffffffffffffffffff167f8be0079c531659141344cd1fd0a4f28419497f9722a3daafe3b4186f6b6457e060405160405180910390a35080600960006101000a81548173ffffffffffffffffffffffffffffffffffffffff021916908373ffffffffffffffffffffffffffffffffffffffff160217905550505050620004ef565b600033905090565b8280546200017e90620003fa565b90600052602060002090601f016020900481019282620001a25760008555620001ee565b82601f10620001bd57805160ff1916838001178555620001ee565b82800160010185558215620001ee579182015b82811115620001ed578251825591602001919060010190620001d0565b5b509050620001fd919062000201565b5090565b5b808211156200021c57600081600090555060010162000202565b5090565b60006200023762000231846200035a565b62000331565b9050828152602081018484840111156200025057600080fd5b6200025d848285620003c4565b509392505050565b6000815190506200027681620004d5565b92915050565b600082601f8301126200028e57600080fd5b8151620002a084826020860162000220565b91505092915050565b600080600060608486031215620002bf57600080fd5b600084015167ffffffffffffffff811115620002da57600080fd5b620002e8868287016200027c565b935050602084015167ffffffffffffffff8111156200030657600080fd5b62000314868287016200027c565b9250506040620003278682870162000265565b9150509250925092565b60006200033d62000350565b90506200034b828262000430565b919050565b6000604051905090565b600067ffffffffffffffff82111562000378576200037762000495565b5b6200038382620004c4565b9050602081019050919050565b60006200039d82620003a4565b9050919050565b600073ffffffffffffffffffffffffffffffffffffffff82169050919050565b60005b83811015620003e4578082015181840152602081019050620003c7565b83811115620003f4576000848401525b50505050565b600060028204905060018216806200041357607f821691505b602082108114156200042a576200042962000466565b5b50919050565b6200043b82620004c4565b810181811067ffffffffffffffff821117156200045d576200045c62000495565b5b80604052505050565b7f4e487b7100000000000000000000000000000000000000000000000000000000600052602260045260246000fd5b7f4e487b7100000000000000000000000000000000000000000000000000000000600052604160045260246000fd5b6000601f19601f8301169050919050565b620004e08162000390565b8114620004ec57600080fd5b50565b61361680620004ff6000396000f3fe608060405234801561001057600080fd5b50600436106101425760003560e01c806395d89b41116100b8578063b88d4fde1161007c578063b88d4fde14610378578063bfc67d9a14610394578063c87b56dd146103c4578063e985e9c5146103f4578063f2fde38b14610424578063fb37e8831461044057610142565b806395d89b41146102d2578063a22cb465146102f0578063aa46a4001461030c578063abc8c7af1461032a578063b5b9cd951461034857610142565b806342842e0e1161010a57806342842e0e146101fd5780636352211e146102195780636fa700bf1461024957806370a082311461027a578063715018a6146102aa5780638da5cb5b146102b457610142565b806301ffc9a71461014757806306fdde0314610177578063081812fc14610195578063095ea7b3146101c557806323b872dd146101e1575b600080fd5b610161600480360381019061015c91906124a8565b610470565b60405161016e91906129c8565b60405180910390f35b61017f610552565b60405161018c91906129e3565b60405180910390f35b6101af60048036038101906101aa919061253b565b6105e4565b6040516101bc9190612908565b60405180910390f35b6101df60048036038101906101da919061246c565b610669565b005b6101fb60048036038101906101f69190612366565b610781565b005b61021760048036038101906102129190612366565b6107e1565b005b610233600480360381019061022e919061253b565b610801565b6040516102409190612908565b60405180910390f35b610263600480360381019061025e919061253b565b6108b3565b60405161027192919061296f565b60405180910390f35b610294600480360381019061028f9190612301565b61097f565b6040516102a19190612c65565b60405180910390f35b6102b2610a37565b005b6102bc610b74565b6040516102c99190612908565b60405180910390f35b6102da610b9e565b6040516102e791906129e3565b60405180910390f35b61030a60048036038101906103059190612430565b610c30565b005b610314610db1565b6040516103219190612c65565b60405180910390f35b610332610dbd565b60405161033f9190612908565b60405180910390f35b610362600480360381019061035d91906124fa565b610de3565b60405161036f91906129c8565b60405180910390f35b610392600480360381019061038d91906123b5565b610e19565b005b6103ae60048036038101906103a991906124fa565b610e7b565b6040516103bb9190612c65565b60405180910390f35b6103de60048036038101906103d9919061253b565b610ea9565b6040516103eb91906129e3565b60405180910390f35b61040e6004803603810190610409919061232a565b610ffb565b60405161041b91906129c8565b60405180910390f35b61043e60048036038101906104399190612301565b61108f565b005b61045a600480360381019061045591906124fa565b61123b565b6040516104679190612c65565b60405180910390f35b60007f80ac58cd000000000000000000000000000000000000000000000000000000007bffffffffffffffffffffffffffffffffffffffffffffffffffffffff1916827bffffffffffffffffffffffffffffffffffffffffffffffffffffffff1916148061053b57507f5b5e139f000000000000000000000000000000000000000000000000000000007bffffffffffffffffffffffffffffffffffffffffffffffffffffffff1916827bffffffffffffffffffffffffffffffffffffffffffffffffffffffff1916145b8061054b575061054a826114ff565b5b9050919050565b60606000805461056190612ebb565b80601f016020809104026020016040519081016040528092919081815260200182805461058d90612ebb565b80156105da5780601f106105af576101008083540402835291602001916105da565b820191906000526020600020905b8154815290600101906020018083116105bd57829003601f168201915b5050505050905090565b60006105ef82611569565b61062e576040517f08c379a000000000000000000000000000000000000000000000000000000000815260040161062590612ba5565b60405180910390fd5b6004600083815260200190815260200160002060009054906101000a900473ffffffffffffffffffffffffffffffffffffffff169050919050565b600061067482610801565b90508073ffffffffffffffffffffffffffffffffffffffff168373ffffffffffffffffffffffffffffffffffffffff1614156106e5576040517f08c379a00000000000000000000000000000000000000000000000000000000081526004016106dc90612c25565b60405180910390fd5b8073ffffffffffffffffffffffffffffffffffffffff166107046115d5565b73ffffffffffffffffffffffffffffffffffffffff16148061073357506107328161072d6115d5565b610ffb565b5b610772576040517f08c379a000000000000000000000000000000000000000000000000000000000815260040161076990612ae5565b60405180910390fd5b61077c83836115dd565b505050565b61079261078c6115d5565b82611696565b6107d1576040517f08c379a00000000000000000000000000000000000000000000000000000000081526004016107c890612c45565b60405180910390fd5b6107dc838383611774565b505050565b6107fc83838360405180602001604052806000815250610e19565b505050565b6000806002600084815260200190815260200160002060009054906101000a900473ffffffffffffffffffffffffffffffffffffffff169050600073ffffffffffffffffffffffffffffffffffffffff168173ffffffffffffffffffffffffffffffffffffffff1614156108aa576040517f08c379a00000000000000000000000000000000000000000000000000000000081526004016108a190612b25565b60405180910390fd5b80915050919050565b600a6020528060005260406000206000915090508060000160009054906101000a900473ffffffffffffffffffffffffffffffffffffffff16908060010180546108fc90612ebb565b80601f016020809104026020016040519081016040528092919081815260200182805461092890612ebb565b80156109755780601f1061094a57610100808354040283529160200191610975565b820191906000526020600020905b81548152906001019060200180831161095857829003601f168201915b5050505050905082565b60008073ffffffffffffffffffffffffffffffffffffffff168273ffffffffffffffffffffffffffffffffffffffff1614156109f0576040517f08c379a00000000000000000000000000000000000000000000000000000000081526004016109e790612b05565b60405180910390fd5b600360008373ffffffffffffffffffffffffffffffffffffffff1673ffffffffffffffffffffffffffffffffffffffff168152602001908152602001600020549050919050565b610a3f6115d5565b73ffffffffffffffffffffffffffffffffffffffff16610a5d610b74565b73ffffffffffffffffffffffffffffffffffffffff1614610ab3576040517f08c379a0000000000000000000000000000000000000000000000000000000008152600401610aaa90612bc5565b60405180910390fd5b600073ffffffffffffffffffffffffffffffffffffffff16600760009054906101000a900473ffffffffffffffffffffffffffffffffffffffff1673ffffffffffffffffffffffffffffffffffffffff167f8be0079c531659141344cd1fd0a4f28419497f9722a3daafe3b4186f6b6457e060405160405180910390a36000600760006101000a81548173ffffffffffffffffffffffffffffffffffffffff021916908373ffffffffffffffffffffffffffffffffffffffff160217905550565b6000600760009054906101000a900473ffffffffffffffffffffffffffffffffffffffff16905090565b606060018054610bad90612ebb565b80601f0160208091040260200160405190810160405280929190818152602001828054610bd990612ebb565b8015610c265780601f10610bfb57610100808354040283529160200191610c26565b820191906000526020600020905b815481529060010190602001808311610c0957829003601f168201915b5050505050905090565b610c386115d5565b73ffffffffffffffffffffffffffffffffffffffff168273ffffffffffffffffffffffffffffffffffffffff161415610ca6576040517f08c379a0000000000000000000000000000000000000000000000000000000008152600401610c9d90612a85565b60405180910390fd5b8060056000610cb36115d5565b73ffffffffffffffffffffffffffffffffffffffff1673ffffffffffffffffffffffffffffffffffffffff16815260200190815260200160002060008473ffffffffffffffffffffffffffffffffffffffff1673ffffffffffffffffffffffffffffffffffffffff16815260200190815260200160002060006101000a81548160ff0219169083151502179055508173ffffffffffffffffffffffffffffffffffffffff16610d606115d5565b73ffffffffffffffffffffffffffffffffffffffff167f17307eab39ab6107e8899845ad3d59bd9653f200f220920489ca2b5937696c3183604051610da591906129c8565b60405180910390a35050565b60088060000154905081565b600960009054906101000a900473ffffffffffffffffffffffffffffffffffffffff1681565b600b818051602081018201805184825260208301602085012081835280955050505050506000915054906101000a900460ff1681565b610e2a610e246115d5565b83611696565b610e69576040517f08c379a0000000000000000000000000000000000000000000000000000000008152600401610e6090612c45565b60405180910390fd5b610e75848484846119d0565b50505050565b600c818051602081018201805184825260208301602085012081835280955050505050506000915090505481565b6060610eb482611569565b610ef3576040517f08c379a0000000000000000000000000000000000000000000000000000000008152600401610eea90612b85565b60405180910390fd5b6000600660008481526020019081526020016000208054610f1390612ebb565b80601f0160208091040260200160405190810160405280929190818152602001828054610f3f90612ebb565b8015610f8c5780601f10610f6157610100808354040283529160200191610f8c565b820191906000526020600020905b815481529060010190602001808311610f6f57829003601f168201915b505050505090506000610f9d611a2c565b9050600081511415610fb3578192505050610ff6565b600082511115610fe8578082604051602001610fd09291906128e4565b60405160208183030381529060405292505050610ff6565b610ff184611a43565b925050505b919050565b6000600560008473ffffffffffffffffffffffffffffffffffffffff1673ffffffffffffffffffffffffffffffffffffffff16815260200190815260200160002060008373ffffffffffffffffffffffffffffffffffffffff1673ffffffffffffffffffffffffffffffffffffffff16815260200190815260200160002060009054906101000a900460ff16905092915050565b6110976115d5565b73ffffffffffffffffffffffffffffffffffffffff166110b5610b74565b73ffffffffffffffffffffffffffffffffffffffff161461110b576040517f08c379a000000000000000000000000000000000000000000000000000000000815260040161110290612bc5565b60405180910390fd5b600073ffffffffffffffffffffffffffffffffffffffff168173ffffffffffffffffffffffffffffffffffffffff16141561117b576040517f08c379a000000000000000000000000000000000000000000000000000000000815260040161117290612a25565b60405180910390fd5b8073ffffffffffffffffffffffffffffffffffffffff16600760009054906101000a900473ffffffffffffffffffffffffffffffffffffffff1673ffffffffffffffffffffffffffffffffffffffff167f8be0079c531659141344cd1fd0a4f28419497f9722a3daafe3b4186f6b6457e060405160405180910390a380600760006101000a81548173ffffffffffffffffffffffffffffffffffffffff021916908373ffffffffffffffffffffffffffffffffffffffff16021790555050565b60006112456115d5565b73ffffffffffffffffffffffffffffffffffffffff16611263610b74565b73ffffffffffffffffffffffffffffffffffffffff16146112b9576040517f08c379a00000000000000000000000000000000000000000000000000000000081526004016112b090612bc5565b60405180910390fd5b60011515600b836040516112cd91906128cd565b908152602001604051809103902060009054906101000a900460ff161515141561132c576040517f08c379a000000000000000000000000000000000000000000000000000000000815260040161132390612aa5565b60405180910390fd5b6113366008611aea565b60006113426008611b00565b9050611370600960009054906101000a900473ffffffffffffffffffffffffffffffffffffffff1682611b0e565b61137a8184611b2c565b6001600b8460405161138c91906128cd565b908152602001604051809103902060006101000a81548160ff02191690831515021790555080600c846040516113c291906128cd565b9081526020016040518091039020819055506040518060400160405280600960009054906101000a900473ffffffffffffffffffffffffffffffffffffffff1673ffffffffffffffffffffffffffffffffffffffff16815260200184815250600a600083815260200190815260200160002060008201518160000160006101000a81548173ffffffffffffffffffffffffffffffffffffffff021916908373ffffffffffffffffffffffffffffffffffffffff1602179055506020820151816001019080519060200190611497929190612125565b509050507fa9a8fc8429e9d4b8fe54b38fd34cb56aaa1a9bf6eb605f45b223b08b58b97618600960009054906101000a900473ffffffffffffffffffffffffffffffffffffffff16826040516114ee92919061299f565b60405180910390a180915050919050565b60007f01ffc9a7000000000000000000000000000000000000000000000000000000007bffffffffffffffffffffffffffffffffffffffffffffffffffffffff1916827bffffffffffffffffffffffffffffffffffffffffffffffffffffffff1916149050919050565b60008073ffffffffffffffffffffffffffffffffffffffff166002600084815260200190815260200160002060009054906101000a900473ffffffffffffffffffffffffffffffffffffffff1673ffffffffffffffffffffffffffffffffffffffff1614159050919050565b600033905090565b816004600083815260200190815260200160002060006101000a81548173ffffffffffffffffffffffffffffffffffffffff021916908373ffffffffffffffffffffffffffffffffffffffff160217905550808273ffffffffffffffffffffffffffffffffffffffff1661165083610801565b73ffffffffffffffffffffffffffffffffffffffff167f8c5be1e5ebec7d5bd14f71427d1e84f3dd0314c0f7b2291e5b200ac8c7c3b92560405160405180910390a45050565b60006116a182611569565b6116e0576040517f08c379a00000000000000000000000000000000000000000000000000000000081526004016116d790612ac5565b60405180910390fd5b60006116eb83610801565b90508073ffffffffffffffffffffffffffffffffffffffff168473ffffffffffffffffffffffffffffffffffffffff16148061175a57508373ffffffffffffffffffffffffffffffffffffffff16611742846105e4565b73ffffffffffffffffffffffffffffffffffffffff16145b8061176b575061176a8185610ffb565b5b91505092915050565b8273ffffffffffffffffffffffffffffffffffffffff1661179482610801565b73ffffffffffffffffffffffffffffffffffffffff16146117ea576040517f08c379a00000000000000000000000000000000000000000000000000000000081526004016117e190612be5565b60405180910390fd5b600073ffffffffffffffffffffffffffffffffffffffff168273ffffffffffffffffffffffffffffffffffffffff16141561185a576040517f08c379a000000000000000000000000000000000000000000000000000000000815260040161185190612a65565b60405180910390fd5b611865838383611ba0565b6118706000826115dd565b6001600360008573ffffffffffffffffffffffffffffffffffffffff1673ffffffffffffffffffffffffffffffffffffffff16815260200190815260200160002060008282546118c09190612dd1565b925050819055506001600360008473ffffffffffffffffffffffffffffffffffffffff1673ffffffffffffffffffffffffffffffffffffffff16815260200190815260200160002060008282546119179190612d4a565b92505081905550816002600083815260200190815260200160002060006101000a81548173ffffffffffffffffffffffffffffffffffffffff021916908373ffffffffffffffffffffffffffffffffffffffff160217905550808273ffffffffffffffffffffffffffffffffffffffff168473ffffffffffffffffffffffffffffffffffffffff167fddf252ad1be2c89b69c2b068fc378daa952ba7f163c4a11628f55a4df523b3ef60405160405180910390a4505050565b6119db848484611774565b6119e784848484611ba5565b611a26576040517f08c379a0000000000000000000000000000000000000000000000000000000008152600401611a1d90612a05565b60405180910390fd5b50505050565b606060405180602001604052806000815250905090565b6060611a4e82611569565b611a8d576040517f08c379a0000000000000000000000000000000000000000000000000000000008152600401611a8490612c05565b60405180910390fd5b6000611a97611a2c565b90506000815111611ab75760405180602001604052806000815250611ae2565b80611ac184611d3c565b604051602001611ad29291906128e4565b6040516020818303038152906040525b915050919050565b6001816000016000828254019250508190555050565b600081600001549050919050565b611b28828260405180602001604052806000815250611ee9565b5050565b611b3582611569565b611b74576040517f08c379a0000000000000000000000000000000000000000000000000000000008152600401611b6b90612b45565b60405180910390fd5b80600660008481526020019081526020016000209080519060200190611b9b929190612125565b505050565b505050565b6000611bc68473ffffffffffffffffffffffffffffffffffffffff16611f44565b15611d2f578373ffffffffffffffffffffffffffffffffffffffff1663150b7a02611bef6115d5565b8786866040518563ffffffff1660e01b8152600401611c119493929190612923565b602060405180830381600087803b158015611c2b57600080fd5b505af1925050508015611c5c57506040513d601f19601f82011682018060405250810190611c5991906124d1565b60015b611cdf573d8060008114611c8c576040519150601f19603f3d011682016040523d82523d6000602084013e611c91565b606091505b50600081511415611cd7576040517f08c379a0000000000000000000000000000000000000000000000000000000008152600401611cce90612a05565b60405180910390fd5b805181602001fd5b63150b7a0260e01b7bffffffffffffffffffffffffffffffffffffffffffffffffffffffff1916817bffffffffffffffffffffffffffffffffffffffffffffffffffffffff191614915050611d34565b600190505b949350505050565b60606000821415611d84576040518060400160405280600181526020017f30000000000000000000000000000000000000000000000000000000000000008152509050611ee4565b600082905060005b60008214611db6578080611d9f90612f1e565b915050600a82611daf9190612da0565b9150611d8c565b60008167ffffffffffffffff811115611df8577f4e487b7100000000000000000000000000000000000000000000000000000000600052604160045260246000fd5b6040519080825280601f01601f191660200182016040528015611e2a5781602001600182028036833780820191505090505b5090505b60008514611edd57600182611e439190612dd1565b9150600a85611e529190612f67565b6030611e5e9190612d4a565b60f81b818381518110611e9a577f4e487b7100000000000000000000000000000000000000000000000000000000600052603260045260246000fd5b60200101907effffffffffffffffffffffffffffffffffffffffffffffffffffffffffffff1916908160001a905350600a85611ed69190612da0565b9450611e2e565b8093505050505b919050565b611ef38383611f57565b611f006000848484611ba5565b611f3f576040517f08c379a0000000000000000000000000000000000000000000000000000000008152600401611f3690612a05565b60405180910390fd5b505050565b600080823b905060008111915050919050565b600073ffffffffffffffffffffffffffffffffffffffff168273ffffffffffffffffffffffffffffffffffffffff161415611fc7576040517f08c379a0000000000000000000000000000000000000000000000000000000008152600401611fbe90612b65565b60405180910390fd5b611fd081611569565b15612010576040517f08c379a000000000000000000000000000000000000000000000000000000000815260040161200790612a45565b60405180910390fd5b61201c60008383611ba0565b6001600360008473ffffffffffffffffffffffffffffffffffffffff1673ffffffffffffffffffffffffffffffffffffffff168152602001908152602001600020600082825461206c9190612d4a565b92505081905550816002600083815260200190815260200160002060006101000a81548173ffffffffffffffffffffffffffffffffffffffff021916908373ffffffffffffffffffffffffffffffffffffffff160217905550808273ffffffffffffffffffffffffffffffffffffffff16600073ffffffffffffffffffffffffffffffffffffffff167fddf252ad1be2c89b69c2b068fc378daa952ba7f163c4a11628f55a4df523b3ef60405160405180910390a45050565b82805461213190612ebb565b90600052602060002090601f016020900481019282612153576000855561219a565b82601f1061216c57805160ff191683800117855561219a565b8280016001018555821561219a579182015b8281111561219957825182559160200191906001019061217e565b5b5090506121a791906121ab565b5090565b5b808211156121c45760008160009055506001016121ac565b5090565b60006121db6121d684612ca5565b612c80565b9050828152602081018484840111156121f357600080fd5b6121fe848285612e79565b509392505050565b600061221961221484612cd6565b612c80565b90508281526020810184848401111561223157600080fd5b61223c848285612e79565b509392505050565b60008135905061225381613584565b92915050565b6000813590506122688161359b565b92915050565b60008135905061227d816135b2565b92915050565b600081519050612292816135b2565b92915050565b600082601f8301126122a957600080fd5b81356122b98482602086016121c8565b91505092915050565b600082601f8301126122d357600080fd5b81356122e3848260208601612206565b91505092915050565b6000813590506122fb816135c9565b92915050565b60006020828403121561231357600080fd5b600061232184828501612244565b91505092915050565b6000806040838503121561233d57600080fd5b600061234b85828601612244565b925050602061235c85828601612244565b9150509250929050565b60008060006060848603121561237b57600080fd5b600061238986828701612244565b935050602061239a86828701612244565b92505060406123ab868287016122ec565b9150509250925092565b600080600080608085870312156123cb57600080fd5b60006123d987828801612244565b94505060206123ea87828801612244565b93505060406123fb878288016122ec565b925050606085013567ffffffffffffffff81111561241857600080fd5b61242487828801612298565b91505092959194509250565b6000806040838503121561244357600080fd5b600061245185828601612244565b925050602061246285828601612259565b9150509250929050565b6000806040838503121561247f57600080fd5b600061248d85828601612244565b925050602061249e858286016122ec565b9150509250929050565b6000602082840312156124ba57600080fd5b60006124c88482850161226e565b91505092915050565b6000602082840312156124e357600080fd5b60006124f184828501612283565b91505092915050565b60006020828403121561250c57600080fd5b600082013567ffffffffffffffff81111561252657600080fd5b612532848285016122c2565b91505092915050565b60006020828403121561254d57600080fd5b600061255b848285016122ec565b91505092915050565b61256d81612e05565b82525050565b61257c81612e17565b82525050565b600061258d82612d07565b6125978185612d1d565b93506125a7818560208601612e88565b6125b081613054565b840191505092915050565b60006125c682612d12565b6125d08185612d2e565b93506125e0818560208601612e88565b6125e981613054565b840191505092915050565b60006125ff82612d12565b6126098185612d3f565b9350612619818560208601612e88565b80840191505092915050565b6000612632603283612d2e565b915061263d82613065565b604082019050919050565b6000612655602683612d2e565b9150612660826130b4565b604082019050919050565b6000612678601c83612d2e565b915061268382613103565b602082019050919050565b600061269b602483612d2e565b91506126a68261312c565b604082019050919050565b60006126be601983612d2e565b91506126c98261317b565b602082019050919050565b60006126e1601283612d2e565b91506126ec826131a4565b602082019050919050565b6000612704602c83612d2e565b915061270f826131cd565b604082019050919050565b6000612727603883612d2e565b91506127328261321c565b604082019050919050565b600061274a602a83612d2e565b91506127558261326b565b604082019050919050565b600061276d602983612d2e565b9150612778826132ba565b604082019050919050565b6000612790602e83612d2e565b915061279b82613309565b604082019050919050565b60006127b3602083612d2e565b91506127be82613358565b602082019050919050565b60006127d6603183612d2e565b91506127e182613381565b604082019050919050565b60006127f9602c83612d2e565b9150612804826133d0565b604082019050919050565b600061281c602083612d2e565b91506128278261341f565b602082019050919050565b600061283f602983612d2e565b915061284a82613448565b604082019050919050565b6000612862602f83612d2e565b915061286d82613497565b604082019050919050565b6000612885602183612d2e565b9150612890826134e6565b604082019050919050565b60006128a8603183612d2e565b91506128b382613535565b604082019050919050565b6128c781612e6f565b82525050565b60006128d982846125f4565b915081905092915050565b60006128f082856125f4565b91506128fc82846125f4565b91508190509392505050565b600060208201905061291d6000830184612564565b92915050565b60006080820190506129386000830187612564565b6129456020830186612564565b61295260408301856128be565b81810360608301526129648184612582565b905095945050505050565b60006040820190506129846000830185612564565b818103602083015261299681846125bb565b90509392505050565b60006040820190506129b46000830185612564565b6129c160208301846128be565b9392505050565b60006020820190506129dd6000830184612573565b92915050565b600060208201905081810360008301526129fd81846125bb565b905092915050565b60006020820190508181036000830152612a1e81612625565b9050919050565b60006020820190508181036000830152612a3e81612648565b9050919050565b60006020820190508181036000830152612a5e8161266b565b9050919050565b60006020820190508181036000830152612a7e8161268e565b9050919050565b60006020820190508181036000830152612a9e816126b1565b9050919050565b60006020820190508181036000830152612abe816126d4565b9050919050565b60006020820190508181036000830152612ade816126f7565b9050919050565b60006020820190508181036000830152612afe8161271a565b9050919050565b60006020820190508181036000830152612b1e8161273d565b9050919050565b60006020820190508181036000830152612b3e81612760565b9050919050565b60006020820190508181036000830152612b5e81612783565b9050919050565b60006020820190508181036000830152612b7e816127a6565b9050919050565b60006020820190508181036000830152612b9e816127c9565b9050919050565b60006020820190508181036000830152612bbe816127ec565b9050919050565b60006020820190508181036000830152612bde8161280f565b9050919050565b60006020820190508181036000830152612bfe81612832565b9050919050565b60006020820190508181036000830152612c1e81612855565b9050919050565b60006020820190508181036000830152612c3e81612878565b9050919050565b60006020820190508181036000830152612c5e8161289b565b9050919050565b6000602082019050612c7a60008301846128be565b92915050565b6000612c8a612c9b565b9050612c968282612eed565b919050565b6000604051905090565b600067ffffffffffffffff821115612cc057612cbf613025565b5b612cc982613054565b9050602081019050919050565b600067ffffffffffffffff821115612cf157612cf0613025565b5b612cfa82613054565b9050602081019050919050565b600081519050919050565b600081519050919050565b600082825260208201905092915050565b600082825260208201905092915050565b600081905092915050565b6000612d5582612e6f565b9150612d6083612e6f565b9250827fffffffffffffffffffffffffffffffffffffffffffffffffffffffffffffffff03821115612d9557612d94612f98565b5b828201905092915050565b6000612dab82612e6f565b9150612db683612e6f565b925082612dc657612dc5612fc7565b5b828204905092915050565b6000612ddc82612e6f565b9150612de783612e6f565b925082821015612dfa57612df9612f98565b5b828203905092915050565b6000612e1082612e4f565b9050919050565b60008115159050919050565b60007fffffffff0000000000000000000000000000000000000000000000000000000082169050919050565b600073ffffffffffffffffffffffffffffffffffffffff82169050919050565b6000819050919050565b82818337600083830152505050565b60005b83811015612ea6578082015181840152602081019050612e8b565b83811115612eb5576000848401525b50505050565b60006002820490506001821680612ed357607f821691505b60208210811415612ee757612ee6612ff6565b5b50919050565b612ef682613054565b810181811067ffffffffffffffff82111715612f1557612f14613025565b5b80604052505050565b6000612f2982612e6f565b91507fffffffffffffffffffffffffffffffffffffffffffffffffffffffffffffffff821415612f5c57612f5b612f98565b5b600182019050919050565b6000612f7282612e6f565b9150612f7d83612e6f565b925082612f8d57612f8c612fc7565b5b828206905092915050565b7f4e487b7100000000000000000000000000000000000000000000000000000000600052601160045260246000fd5b7f4e487b7100000000000000000000000000000000000000000000000000000000600052601260045260246000fd5b7f4e487b7100000000000000000000000000000000000000000000000000000000600052602260045260246000fd5b7f4e487b7100000000000000000000000000000000000000000000000000000000600052604160045260246000fd5b6000601f19601f8301169050919050565b7f4552433732313a207472616e7366657220746f206e6f6e20455243373231526560008201527f63656976657220696d706c656d656e7465720000000000000000000000000000602082015250565b7f4f776e61626c653a206e6577206f776e657220697320746865207a65726f206160008201527f6464726573730000000000000000000000000000000000000000000000000000602082015250565b7f4552433732313a20746f6b656e20616c7265616479206d696e74656400000000600082015250565b7f4552433732313a207472616e7366657220746f20746865207a65726f2061646460008201527f7265737300000000000000000000000000000000000000000000000000000000602082015250565b7f4552433732313a20617070726f766520746f2063616c6c657200000000000000600082015250565b7f416c726561647920726567697374657265640000000000000000000000000000600082015250565b7f4552433732313a206f70657261746f7220717565727920666f72206e6f6e657860008201527f697374656e7420746f6b656e0000000000000000000000000000000000000000602082015250565b7f4552433732313a20617070726f76652063616c6c6572206973206e6f74206f7760008201527f6e6572206e6f7220617070726f76656420666f7220616c6c0000000000000000602082015250565b7f4552433732313a2062616c616e636520717565727920666f7220746865207a6560008201527f726f206164647265737300000000000000000000000000000000000000000000602082015250565b7f4552433732313a206f776e657220717565727920666f72206e6f6e657869737460008201527f656e7420746f6b656e0000000000000000000000000000000000000000000000602082015250565b7f45524337323155524953746f726167653a2055524920736574206f66206e6f6e60008201527f6578697374656e7420746f6b656e000000000000000000000000000000000000602082015250565b7f4552433732313a206d696e7420746f20746865207a65726f2061646472657373600082015250565b7f45524337323155524953746f726167653a2055524920717565727920666f722060008201527f6e6f6e6578697374656e7420746f6b656e000000000000000000000000000000602082015250565b7f4552433732313a20617070726f76656420717565727920666f72206e6f6e657860008201527f697374656e7420746f6b656e0000000000000000000000000000000000000000602082015250565b7f4f776e61626c653a2063616c6c6572206973206e6f7420746865206f776e6572600082015250565b7f4552433732313a207472616e73666572206f6620746f6b656e2074686174206960008201527f73206e6f74206f776e0000000000000000000000000000000000000000000000602082015250565b7f4552433732314d657461646174613a2055524920717565727920666f72206e6f60008201527f6e6578697374656e7420746f6b656e0000000000000000000000000000000000602082015250565b7f4552433732313a20617070726f76616c20746f2063757272656e74206f776e6560008201527f7200000000000000000000000000000000000000000000000000000000000000602082015250565b7f4552433732313a207472616e736665722063616c6c6572206973206e6f74206f60008201527f776e6572206e6f7220617070726f766564000000000000000000000000000000602082015250565b61358d81612e05565b811461359857600080fd5b50565b6135a481612e17565b81146135af57600080fd5b50565b6135bb81612e23565b81146135c657600080fd5b50565b6135d281612e6f565b81146135dd57600080fd5b5056fea2646970667358221220367402e99ceaf3b9d64b8df35d380cb9dbf7e6ccc4b6d9863043b903a57446a464736f6c63430008030033",
  "immutableReferences": {},
  "source": "// SPDX-License-Identifier: MIT\npragma solidity 0.8.3;\n\nimport \"@openzeppelin/contracts/token/ERC721/extensions/ERC721URIStorage.sol\";\nimport \"@openzeppelin/contracts/token/ERC721/ERC721.sol\";\nimport \"@openzeppelin/contracts/utils/Counters.sol\";\nimport '@openzeppelin/contracts/access/Ownable.sol';\n\ncontract CardItem is ERC721URIStorage, Ownable {\n    using Counters for Counters.Counter;\n    \n    Counters.Counter public _tokenIds;\n    \n    event ItemCreated(\n        address owner,\n        uint256 tokenId\n    );\n    \n    struct TokenInfo {\n        address owner;\n        string ipfsHash;\n    }\n    \n    address public marketplace;\n\n    mapping (uint256 => TokenInfo) public tokenInfoMap;\n    mapping(string => bool) public ipfsHashes;\n    mapping(string => uint256) public ipfsHashToTokenId;\n\n    constructor (string memory _name, string memory _symbol, address _marketplace) public ERC721(_name, _symbol) {\n          marketplace = _marketplace;\n    }\n\n    /** \n     * @dev Mint a new NFT  \n     * @param _tokenURI - URL include ipfs hash\n     */\n    function mintNFT(string memory _tokenURI) public onlyOwner returns (uint256) {\n        require(ipfsHashes[_tokenURI] != true, \"Already registered\");  \n        \n         _tokenIds.increment();\n        uint256 newItemId = _tokenIds.current();\n        \n        _safeMint(marketplace, newItemId);\n        _setTokenURI(newItemId, _tokenURI);\n        \n        ipfsHashes[_tokenURI] = true;\n        ipfsHashToTokenId[_tokenURI] = newItemId;\n     \n        tokenInfoMap[newItemId] = TokenInfo({\n                owner: marketplace,\n                ipfsHash: _tokenURI\n        });\n        \n     \n        emit ItemCreated(marketplace, newItemId);\n     \n        return newItemId;\n    }\n}\n",
  "sourcePath": "/Users/sandyinstructor/Documents/BLOCKCHAIN/Alyra/PROJET/tatakai/contracts/CardItem.sol",
  "compiler": {
    "name": "solc",
    "version": "0.8.3+commit.8d00100c.Emscripten.clang"
  },
  "schemaVersion": "3.3.4",
  "updatedAt": "2021-04-08T16:16:22.531Z",
  "networkType": "ethereum",
  "devdoc": {
    "kind": "dev",
    "methods": {
      "approve(address,uint256)": {
        "details": "See {IERC721-approve}."
      },
      "balanceOf(address)": {
        "details": "See {IERC721-balanceOf}."
      },
      "getApproved(uint256)": {
        "details": "See {IERC721-getApproved}."
      },
      "isApprovedForAll(address,address)": {
        "details": "See {IERC721-isApprovedForAll}."
      },
      "mintNFT(string)": {
        "details": "Mint a new NFT  ",
        "params": {
          "_tokenURI": "- URL include ipfs hash"
        }
      },
      "name()": {
        "details": "See {IERC721Metadata-name}."
      },
      "owner()": {
        "details": "Returns the address of the current owner."
      },
      "ownerOf(uint256)": {
        "details": "See {IERC721-ownerOf}."
      },
      "renounceOwnership()": {
        "details": "Leaves the contract without owner. It will not be possible to call `onlyOwner` functions anymore. Can only be called by the current owner. NOTE: Renouncing ownership will leave the contract without an owner, thereby removing any functionality that is only available to the owner."
      },
      "safeTransferFrom(address,address,uint256)": {
        "details": "See {IERC721-safeTransferFrom}."
      },
      "safeTransferFrom(address,address,uint256,bytes)": {
        "details": "See {IERC721-safeTransferFrom}."
      },
      "setApprovalForAll(address,bool)": {
        "details": "See {IERC721-setApprovalForAll}."
      },
      "supportsInterface(bytes4)": {
        "details": "See {IERC165-supportsInterface}."
      },
      "symbol()": {
        "details": "See {IERC721Metadata-symbol}."
      },
      "tokenURI(uint256)": {
        "details": "See {IERC721Metadata-tokenURI}."
      },
      "transferFrom(address,address,uint256)": {
        "details": "See {IERC721-transferFrom}."
      },
      "transferOwnership(address)": {
        "details": "Transfers ownership of the contract to a new account (`newOwner`). Can only be called by the current owner."
      }
    },
    "version": 1
  },
  "userdoc": {
    "kind": "user",
    "methods": {},
    "version": 1
  }
}