{
  "contractName": "CardItem",
  "abi": [
    {
      "inputs": [
        {
          "internalType": "string",
          "name": "_name",
          "type": "string"
        },
        {
          "internalType": "string",
          "name": "_symbol",
          "type": "string"
        },
        {
          "internalType": "address",
          "name": "_marketplace",
          "type": "address"
        }
      ],
      "stateMutability": "nonpayable",
      "type": "constructor"
    },
    {
      "anonymous": false,
      "inputs": [
        {
          "indexed": true,
          "internalType": "address",
          "name": "owner",
          "type": "address"
        },
        {
          "indexed": true,
          "internalType": "address",
          "name": "approved",
          "type": "address"
        },
        {
          "indexed": true,
          "internalType": "uint256",
          "name": "tokenId",
          "type": "uint256"
        }
      ],
      "name": "Approval",
      "type": "event"
    },
    {
      "anonymous": false,
      "inputs": [
        {
          "indexed": true,
          "internalType": "address",
          "name": "owner",
          "type": "address"
        },
        {
          "indexed": true,
          "internalType": "address",
          "name": "operator",
          "type": "address"
        },
        {
          "indexed": false,
          "internalType": "bool",
          "name": "approved",
          "type": "bool"
        }
      ],
      "name": "ApprovalForAll",
      "type": "event"
    },
    {
      "anonymous": false,
      "inputs": [
        {
          "indexed": false,
          "internalType": "address",
          "name": "owner",
          "type": "address"
        },
        {
          "indexed": false,
          "internalType": "uint256",
          "name": "tokenId",
          "type": "uint256"
        }
      ],
      "name": "ItemCreated",
      "type": "event"
    },
    {
      "anonymous": false,
      "inputs": [
        {
          "indexed": true,
          "internalType": "address",
          "name": "previousOwner",
          "type": "address"
        },
        {
          "indexed": true,
          "internalType": "address",
          "name": "newOwner",
          "type": "address"
        }
      ],
      "name": "OwnershipTransferred",
      "type": "event"
    },
    {
      "anonymous": false,
      "inputs": [
        {
          "indexed": true,
          "internalType": "address",
          "name": "from",
          "type": "address"
        },
        {
          "indexed": true,
          "internalType": "address",
          "name": "to",
          "type": "address"
        },
        {
          "indexed": true,
          "internalType": "uint256",
          "name": "tokenId",
          "type": "uint256"
        }
      ],
      "name": "Transfer",
      "type": "event"
    },
    {
      "inputs": [],
      "name": "_tokenIds",
      "outputs": [
        {
          "internalType": "uint256",
          "name": "_value",
          "type": "uint256"
        }
      ],
      "stateMutability": "view",
      "type": "function",
      "constant": true
    },
    {
      "inputs": [
        {
          "internalType": "address",
          "name": "to",
          "type": "address"
        },
        {
          "internalType": "uint256",
          "name": "tokenId",
          "type": "uint256"
        }
      ],
      "name": "approve",
      "outputs": [],
      "stateMutability": "nonpayable",
      "type": "function"
    },
    {
      "inputs": [
        {
          "internalType": "address",
          "name": "owner",
          "type": "address"
        }
      ],
      "name": "balanceOf",
      "outputs": [
        {
          "internalType": "uint256",
          "name": "",
          "type": "uint256"
        }
      ],
      "stateMutability": "view",
      "type": "function",
      "constant": true
    },
    {
      "inputs": [
        {
          "internalType": "uint256",
          "name": "tokenId",
          "type": "uint256"
        }
      ],
      "name": "getApproved",
      "outputs": [
        {
          "internalType": "address",
          "name": "",
          "type": "address"
        }
      ],
      "stateMutability": "view",
      "type": "function",
      "constant": true
    },
    {
      "inputs": [
        {
          "internalType": "string",
          "name": "",
          "type": "string"
        }
      ],
      "name": "ipfsHashes",
      "outputs": [
        {
          "internalType": "bool",
          "name": "",
          "type": "bool"
        }
      ],
      "stateMutability": "view",
      "type": "function",
      "constant": true
    },
    {
      "inputs": [
        {
          "internalType": "address",
          "name": "owner",
          "type": "address"
        },
        {
          "internalType": "address",
          "name": "operator",
          "type": "address"
        }
      ],
      "name": "isApprovedForAll",
      "outputs": [
        {
          "internalType": "bool",
          "name": "",
          "type": "bool"
        }
      ],
      "stateMutability": "view",
      "type": "function",
      "constant": true
    },
    {
      "inputs": [],
      "name": "marketplace",
      "outputs": [
        {
          "internalType": "address",
          "name": "",
          "type": "address"
        }
      ],
      "stateMutability": "view",
      "type": "function",
      "constant": true
    },
    {
      "inputs": [],
      "name": "name",
      "outputs": [
        {
          "internalType": "string",
          "name": "",
          "type": "string"
        }
      ],
      "stateMutability": "view",
      "type": "function",
      "constant": true
    },
    {
      "inputs": [],
      "name": "owner",
      "outputs": [
        {
          "internalType": "address",
          "name": "",
          "type": "address"
        }
      ],
      "stateMutability": "view",
      "type": "function",
      "constant": true
    },
    {
      "inputs": [
        {
          "internalType": "uint256",
          "name": "tokenId",
          "type": "uint256"
        }
      ],
      "name": "ownerOf",
      "outputs": [
        {
          "internalType": "address",
          "name": "",
          "type": "address"
        }
      ],
      "stateMutability": "view",
      "type": "function",
      "constant": true
    },
    {
      "inputs": [],
      "name": "renounceOwnership",
      "outputs": [],
      "stateMutability": "nonpayable",
      "type": "function"
    },
    {
      "inputs": [
        {
          "internalType": "address",
          "name": "from",
          "type": "address"
        },
        {
          "internalType": "address",
          "name": "to",
          "type": "address"
        },
        {
          "internalType": "uint256",
          "name": "tokenId",
          "type": "uint256"
        }
      ],
      "name": "safeTransferFrom",
      "outputs": [],
      "stateMutability": "nonpayable",
      "type": "function"
    },
    {
      "inputs": [
        {
          "internalType": "address",
          "name": "from",
          "type": "address"
        },
        {
          "internalType": "address",
          "name": "to",
          "type": "address"
        },
        {
          "internalType": "uint256",
          "name": "tokenId",
          "type": "uint256"
        },
        {
          "internalType": "bytes",
          "name": "_data",
          "type": "bytes"
        }
      ],
      "name": "safeTransferFrom",
      "outputs": [],
      "stateMutability": "nonpayable",
      "type": "function"
    },
    {
      "inputs": [
        {
          "internalType": "address",
          "name": "operator",
          "type": "address"
        },
        {
          "internalType": "bool",
          "name": "approved",
          "type": "bool"
        }
      ],
      "name": "setApprovalForAll",
      "outputs": [],
      "stateMutability": "nonpayable",
      "type": "function"
    },
    {
      "inputs": [
        {
          "internalType": "bytes4",
          "name": "interfaceId",
          "type": "bytes4"
        }
      ],
      "name": "supportsInterface",
      "outputs": [
        {
          "internalType": "bool",
          "name": "",
          "type": "bool"
        }
      ],
      "stateMutability": "view",
      "type": "function",
      "constant": true
    },
    {
      "inputs": [],
      "name": "symbol",
      "outputs": [
        {
          "internalType": "string",
          "name": "",
          "type": "string"
        }
      ],
      "stateMutability": "view",
      "type": "function",
      "constant": true
    },
    {
      "inputs": [
        {
          "internalType": "uint256",
          "name": "tokenId",
          "type": "uint256"
        }
      ],
      "name": "tokenURI",
      "outputs": [
        {
          "internalType": "string",
          "name": "",
          "type": "string"
        }
      ],
      "stateMutability": "view",
      "type": "function",
      "constant": true
    },
    {
      "inputs": [
        {
          "internalType": "address",
          "name": "from",
          "type": "address"
        },
        {
          "internalType": "address",
          "name": "to",
          "type": "address"
        },
        {
          "internalType": "uint256",
          "name": "tokenId",
          "type": "uint256"
        }
      ],
      "name": "transferFrom",
      "outputs": [],
      "stateMutability": "nonpayable",
      "type": "function"
    },
    {
      "inputs": [
        {
          "internalType": "address",
          "name": "newOwner",
          "type": "address"
        }
      ],
      "name": "transferOwnership",
      "outputs": [],
      "stateMutability": "nonpayable",
      "type": "function"
    },
    {
      "inputs": [
        {
          "internalType": "string",
          "name": "_tokenURI",
          "type": "string"
        }
      ],
      "name": "mintNFT",
      "outputs": [
        {
          "internalType": "uint256",
          "name": "",
          "type": "uint256"
        }
      ],
      "stateMutability": "nonpayable",
      "type": "function"
    }
  ],
  "bytecode": "0x60806040523480156200001157600080fd5b506040516200388a3803806200388a8339818101604052810190620000379190620002a9565b828281600090805190602001906200005192919062000170565b5080600190805190602001906200006a92919062000170565b50505060006200007f6200016860201b60201c565b905080600760006101000a81548173ffffffffffffffffffffffffffffffffffffffff021916908373ffffffffffffffffffffffffffffffffffffffff1602179055508073ffffffffffffffffffffffffffffffffffffffff16600073ffffffffffffffffffffffffffffffffffffffff167f8be0079c531659141344cd1fd0a4f28419497f9722a3daafe3b4186f6b6457e060405160405180910390a35080600960006101000a81548173ffffffffffffffffffffffffffffffffffffffff021916908373ffffffffffffffffffffffffffffffffffffffff160217905550505050620004ef565b600033905090565b8280546200017e90620003fa565b90600052602060002090601f016020900481019282620001a25760008555620001ee565b82601f10620001bd57805160ff1916838001178555620001ee565b82800160010185558215620001ee579182015b82811115620001ed578251825591602001919060010190620001d0565b5b509050620001fd919062000201565b5090565b5b808211156200021c57600081600090555060010162000202565b5090565b60006200023762000231846200035a565b62000331565b9050828152602081018484840111156200025057600080fd5b6200025d848285620003c4565b509392505050565b6000815190506200027681620004d5565b92915050565b600082601f8301126200028e57600080fd5b8151620002a084826020860162000220565b91505092915050565b600080600060608486031215620002bf57600080fd5b600084015167ffffffffffffffff811115620002da57600080fd5b620002e8868287016200027c565b935050602084015167ffffffffffffffff8111156200030657600080fd5b62000314868287016200027c565b9250506040620003278682870162000265565b9150509250925092565b60006200033d62000350565b90506200034b828262000430565b919050565b6000604051905090565b600067ffffffffffffffff82111562000378576200037762000495565b5b6200038382620004c4565b9050602081019050919050565b60006200039d82620003a4565b9050919050565b600073ffffffffffffffffffffffffffffffffffffffff82169050919050565b60005b83811015620003e4578082015181840152602081019050620003c7565b83811115620003f4576000848401525b50505050565b600060028204905060018216806200041357607f821691505b602082108114156200042a576200042962000466565b5b50919050565b6200043b82620004c4565b810181811067ffffffffffffffff821117156200045d576200045c62000495565b5b80604052505050565b7f4e487b7100000000000000000000000000000000000000000000000000000000600052602260045260246000fd5b7f4e487b7100000000000000000000000000000000000000000000000000000000600052604160045260246000fd5b6000601f19601f8301169050919050565b620004e08162000390565b8114620004ec57600080fd5b50565b61338b80620004ff6000396000f3fe608060405234801561001057600080fd5b506004361061012c5760003560e01c806395d89b41116100ad578063b88d4fde11610071578063b88d4fde14610331578063c87b56dd1461034d578063e985e9c51461037d578063f2fde38b146103ad578063fb37e883146103c95761012c565b806395d89b411461028b578063a22cb465146102a9578063aa46a400146102c5578063abc8c7af146102e3578063b5b9cd95146103015761012c565b806342842e0e116100f457806342842e0e146101e75780636352211e1461020357806370a0823114610233578063715018a6146102635780638da5cb5b1461026d5761012c565b806301ffc9a71461013157806306fdde0314610161578063081812fc1461017f578063095ea7b3146101af57806323b872dd146101cb575b600080fd5b61014b6004803603810190610146919061224d565b6103f9565b604051610158919061273d565b60405180910390f35b6101696104db565b6040516101769190612758565b60405180910390f35b610199600480360381019061019491906122e0565b61056d565b6040516101a691906126ad565b60405180910390f35b6101c960048036038101906101c49190612211565b6105f2565b005b6101e560048036038101906101e0919061210b565b61070a565b005b61020160048036038101906101fc919061210b565b61076a565b005b61021d600480360381019061021891906122e0565b61078a565b60405161022a91906126ad565b60405180910390f35b61024d600480360381019061024891906120a6565b61083c565b60405161025a91906129da565b60405180910390f35b61026b6108f4565b005b610275610a31565b60405161028291906126ad565b60405180910390f35b610293610a5b565b6040516102a09190612758565b60405180910390f35b6102c360048036038101906102be91906121d5565b610aed565b005b6102cd610c6e565b6040516102da91906129da565b60405180910390f35b6102eb610c7a565b6040516102f891906126ad565b60405180910390f35b61031b6004803603810190610316919061229f565b610ca0565b604051610328919061273d565b60405180910390f35b61034b6004803603810190610346919061215a565b610cd6565b005b610367600480360381019061036291906122e0565b610d38565b6040516103749190612758565b60405180910390f35b610397600480360381019061039291906120cf565b610e8a565b6040516103a4919061273d565b60405180910390f35b6103c760048036038101906103c291906120a6565b610f1e565b005b6103e360048036038101906103de919061229f565b6110ca565b6040516103f091906129da565b60405180910390f35b60007f80ac58cd000000000000000000000000000000000000000000000000000000007bffffffffffffffffffffffffffffffffffffffffffffffffffffffff1916827bffffffffffffffffffffffffffffffffffffffffffffffffffffffff191614806104c457507f5b5e139f000000000000000000000000000000000000000000000000000000007bffffffffffffffffffffffffffffffffffffffffffffffffffffffff1916827bffffffffffffffffffffffffffffffffffffffffffffffffffffffff1916145b806104d457506104d3826112a4565b5b9050919050565b6060600080546104ea90612c30565b80601f016020809104026020016040519081016040528092919081815260200182805461051690612c30565b80156105635780601f1061053857610100808354040283529160200191610563565b820191906000526020600020905b81548152906001019060200180831161054657829003601f168201915b5050505050905090565b60006105788261130e565b6105b7576040517f08c379a00000000000000000000000000000000000000000000000000000000081526004016105ae9061291a565b60405180910390fd5b6004600083815260200190815260200160002060009054906101000a900473ffffffffffffffffffffffffffffffffffffffff169050919050565b60006105fd8261078a565b90508073ffffffffffffffffffffffffffffffffffffffff168373ffffffffffffffffffffffffffffffffffffffff16141561066e576040517f08c379a00000000000000000000000000000000000000000000000000000000081526004016106659061299a565b60405180910390fd5b8073ffffffffffffffffffffffffffffffffffffffff1661068d61137a565b73ffffffffffffffffffffffffffffffffffffffff1614806106bc57506106bb816106b661137a565b610e8a565b5b6106fb576040517f08c379a00000000000000000000000000000000000000000000000000000000081526004016106f29061285a565b60405180910390fd5b6107058383611382565b505050565b61071b61071561137a565b8261143b565b61075a576040517f08c379a0000000000000000000000000000000000000000000000000000000008152600401610751906129ba565b60405180910390fd5b610765838383611519565b505050565b61078583838360405180602001604052806000815250610cd6565b505050565b6000806002600084815260200190815260200160002060009054906101000a900473ffffffffffffffffffffffffffffffffffffffff169050600073ffffffffffffffffffffffffffffffffffffffff168173ffffffffffffffffffffffffffffffffffffffff161415610833576040517f08c379a000000000000000000000000000000000000000000000000000000000815260040161082a9061289a565b60405180910390fd5b80915050919050565b60008073ffffffffffffffffffffffffffffffffffffffff168273ffffffffffffffffffffffffffffffffffffffff1614156108ad576040517f08c379a00000000000000000000000000000000000000000000000000000000081526004016108a49061287a565b60405180910390fd5b600360008373ffffffffffffffffffffffffffffffffffffffff1673ffffffffffffffffffffffffffffffffffffffff168152602001908152602001600020549050919050565b6108fc61137a565b73ffffffffffffffffffffffffffffffffffffffff1661091a610a31565b73ffffffffffffffffffffffffffffffffffffffff1614610970576040517f08c379a00000000000000000000000000000000000000000000000000000000081526004016109679061293a565b60405180910390fd5b600073ffffffffffffffffffffffffffffffffffffffff16600760009054906101000a900473ffffffffffffffffffffffffffffffffffffffff1673ffffffffffffffffffffffffffffffffffffffff167f8be0079c531659141344cd1fd0a4f28419497f9722a3daafe3b4186f6b6457e060405160405180910390a36000600760006101000a81548173ffffffffffffffffffffffffffffffffffffffff021916908373ffffffffffffffffffffffffffffffffffffffff160217905550565b6000600760009054906101000a900473ffffffffffffffffffffffffffffffffffffffff16905090565b606060018054610a6a90612c30565b80601f0160208091040260200160405190810160405280929190818152602001828054610a9690612c30565b8015610ae35780601f10610ab857610100808354040283529160200191610ae3565b820191906000526020600020905b815481529060010190602001808311610ac657829003601f168201915b5050505050905090565b610af561137a565b73ffffffffffffffffffffffffffffffffffffffff168273ffffffffffffffffffffffffffffffffffffffff161415610b63576040517f08c379a0000000000000000000000000000000000000000000000000000000008152600401610b5a906127fa565b60405180910390fd5b8060056000610b7061137a565b73ffffffffffffffffffffffffffffffffffffffff1673ffffffffffffffffffffffffffffffffffffffff16815260200190815260200160002060008473ffffffffffffffffffffffffffffffffffffffff1673ffffffffffffffffffffffffffffffffffffffff16815260200190815260200160002060006101000a81548160ff0219169083151502179055508173ffffffffffffffffffffffffffffffffffffffff16610c1d61137a565b73ffffffffffffffffffffffffffffffffffffffff167f17307eab39ab6107e8899845ad3d59bd9653f200f220920489ca2b5937696c3183604051610c62919061273d565b60405180910390a35050565b60088060000154905081565b600960009054906101000a900473ffffffffffffffffffffffffffffffffffffffff1681565b600a818051602081018201805184825260208301602085012081835280955050505050506000915054906101000a900460ff1681565b610ce7610ce161137a565b8361143b565b610d26576040517f08c379a0000000000000000000000000000000000000000000000000000000008152600401610d1d906129ba565b60405180910390fd5b610d3284848484611775565b50505050565b6060610d438261130e565b610d82576040517f08c379a0000000000000000000000000000000000000000000000000000000008152600401610d79906128fa565b60405180910390fd5b6000600660008481526020019081526020016000208054610da290612c30565b80601f0160208091040260200160405190810160405280929190818152602001828054610dce90612c30565b8015610e1b5780601f10610df057610100808354040283529160200191610e1b565b820191906000526020600020905b815481529060010190602001808311610dfe57829003601f168201915b505050505090506000610e2c6117d1565b9050600081511415610e42578192505050610e85565b600082511115610e77578082604051602001610e5f929190612689565b60405160208183030381529060405292505050610e85565b610e80846117e8565b925050505b919050565b6000600560008473ffffffffffffffffffffffffffffffffffffffff1673ffffffffffffffffffffffffffffffffffffffff16815260200190815260200160002060008373ffffffffffffffffffffffffffffffffffffffff1673ffffffffffffffffffffffffffffffffffffffff16815260200190815260200160002060009054906101000a900460ff16905092915050565b610f2661137a565b73ffffffffffffffffffffffffffffffffffffffff16610f44610a31565b73ffffffffffffffffffffffffffffffffffffffff1614610f9a576040517f08c379a0000000000000000000000000000000000000000000000000000000008152600401610f919061293a565b60405180910390fd5b600073ffffffffffffffffffffffffffffffffffffffff168173ffffffffffffffffffffffffffffffffffffffff16141561100a576040517f08c379a00000000000000000000000000000000000000000000000000000000081526004016110019061279a565b60405180910390fd5b8073ffffffffffffffffffffffffffffffffffffffff16600760009054906101000a900473ffffffffffffffffffffffffffffffffffffffff1673ffffffffffffffffffffffffffffffffffffffff167f8be0079c531659141344cd1fd0a4f28419497f9722a3daafe3b4186f6b6457e060405160405180910390a380600760006101000a81548173ffffffffffffffffffffffffffffffffffffffff021916908373ffffffffffffffffffffffffffffffffffffffff16021790555050565b60006110d461137a565b73ffffffffffffffffffffffffffffffffffffffff166110f2610a31565b73ffffffffffffffffffffffffffffffffffffffff1614611148576040517f08c379a000000000000000000000000000000000000000000000000000000000815260040161113f9061293a565b60405180910390fd5b60011515600a8360405161115c9190612672565b908152602001604051809103902060009054906101000a900460ff16151514156111bb576040517f08c379a00000000000000000000000000000000000000000000000000000000081526004016111b29061281a565b60405180910390fd5b6111c5600861188f565b60006111d160086118a5565b90506111ff600960009054906101000a900473ffffffffffffffffffffffffffffffffffffffff16826118b3565b61120981846118d1565b6001600a8460405161121b9190612672565b908152602001604051809103902060006101000a81548160ff0219169083151502179055507fa9a8fc8429e9d4b8fe54b38fd34cb56aaa1a9bf6eb605f45b223b08b58b97618600960009054906101000a900473ffffffffffffffffffffffffffffffffffffffff1682604051611293929190612714565b60405180910390a180915050919050565b60007f01ffc9a7000000000000000000000000000000000000000000000000000000007bffffffffffffffffffffffffffffffffffffffffffffffffffffffff1916827bffffffffffffffffffffffffffffffffffffffffffffffffffffffff1916149050919050565b60008073ffffffffffffffffffffffffffffffffffffffff166002600084815260200190815260200160002060009054906101000a900473ffffffffffffffffffffffffffffffffffffffff1673ffffffffffffffffffffffffffffffffffffffff1614159050919050565b600033905090565b816004600083815260200190815260200160002060006101000a81548173ffffffffffffffffffffffffffffffffffffffff021916908373ffffffffffffffffffffffffffffffffffffffff160217905550808273ffffffffffffffffffffffffffffffffffffffff166113f58361078a565b73ffffffffffffffffffffffffffffffffffffffff167f8c5be1e5ebec7d5bd14f71427d1e84f3dd0314c0f7b2291e5b200ac8c7c3b92560405160405180910390a45050565b60006114468261130e565b611485576040517f08c379a000000000000000000000000000000000000000000000000000000000815260040161147c9061283a565b60405180910390fd5b60006114908361078a565b90508073ffffffffffffffffffffffffffffffffffffffff168473ffffffffffffffffffffffffffffffffffffffff1614806114ff57508373ffffffffffffffffffffffffffffffffffffffff166114e78461056d565b73ffffffffffffffffffffffffffffffffffffffff16145b80611510575061150f8185610e8a565b5b91505092915050565b8273ffffffffffffffffffffffffffffffffffffffff166115398261078a565b73ffffffffffffffffffffffffffffffffffffffff161461158f576040517f08c379a00000000000000000000000000000000000000000000000000000000081526004016115869061295a565b60405180910390fd5b600073ffffffffffffffffffffffffffffffffffffffff168273ffffffffffffffffffffffffffffffffffffffff1614156115ff576040517f08c379a00000000000000000000000000000000000000000000000000000000081526004016115f6906127da565b60405180910390fd5b61160a838383611945565b611615600082611382565b6001600360008573ffffffffffffffffffffffffffffffffffffffff1673ffffffffffffffffffffffffffffffffffffffff16815260200190815260200160002060008282546116659190612b46565b925050819055506001600360008473ffffffffffffffffffffffffffffffffffffffff1673ffffffffffffffffffffffffffffffffffffffff16815260200190815260200160002060008282546116bc9190612abf565b92505081905550816002600083815260200190815260200160002060006101000a81548173ffffffffffffffffffffffffffffffffffffffff021916908373ffffffffffffffffffffffffffffffffffffffff160217905550808273ffffffffffffffffffffffffffffffffffffffff168473ffffffffffffffffffffffffffffffffffffffff167fddf252ad1be2c89b69c2b068fc378daa952ba7f163c4a11628f55a4df523b3ef60405160405180910390a4505050565b611780848484611519565b61178c8484848461194a565b6117cb576040517f08c379a00000000000000000000000000000000000000000000000000000000081526004016117c29061277a565b60405180910390fd5b50505050565b606060405180602001604052806000815250905090565b60606117f38261130e565b611832576040517f08c379a00000000000000000000000000000000000000000000000000000000081526004016118299061297a565b60405180910390fd5b600061183c6117d1565b9050600081511161185c5760405180602001604052806000815250611887565b8061186684611ae1565b604051602001611877929190612689565b6040516020818303038152906040525b915050919050565b6001816000016000828254019250508190555050565b600081600001549050919050565b6118cd828260405180602001604052806000815250611c8e565b5050565b6118da8261130e565b611919576040517f08c379a0000000000000000000000000000000000000000000000000000000008152600401611910906128ba565b60405180910390fd5b80600660008481526020019081526020016000209080519060200190611940929190611eca565b505050565b505050565b600061196b8473ffffffffffffffffffffffffffffffffffffffff16611ce9565b15611ad4578373ffffffffffffffffffffffffffffffffffffffff1663150b7a0261199461137a565b8786866040518563ffffffff1660e01b81526004016119b694939291906126c8565b602060405180830381600087803b1580156119d057600080fd5b505af1925050508015611a0157506040513d601f19601f820116820180604052508101906119fe9190612276565b60015b611a84573d8060008114611a31576040519150601f19603f3d011682016040523d82523d6000602084013e611a36565b606091505b50600081511415611a7c576040517f08c379a0000000000000000000000000000000000000000000000000000000008152600401611a739061277a565b60405180910390fd5b805181602001fd5b63150b7a0260e01b7bffffffffffffffffffffffffffffffffffffffffffffffffffffffff1916817bffffffffffffffffffffffffffffffffffffffffffffffffffffffff191614915050611ad9565b600190505b949350505050565b60606000821415611b29576040518060400160405280600181526020017f30000000000000000000000000000000000000000000000000000000000000008152509050611c89565b600082905060005b60008214611b5b578080611b4490612c93565b915050600a82611b549190612b15565b9150611b31565b60008167ffffffffffffffff811115611b9d577f4e487b7100000000000000000000000000000000000000000000000000000000600052604160045260246000fd5b6040519080825280601f01601f191660200182016040528015611bcf5781602001600182028036833780820191505090505b5090505b60008514611c8257600182611be89190612b46565b9150600a85611bf79190612cdc565b6030611c039190612abf565b60f81b818381518110611c3f577f4e487b7100000000000000000000000000000000000000000000000000000000600052603260045260246000fd5b60200101907effffffffffffffffffffffffffffffffffffffffffffffffffffffffffffff1916908160001a905350600a85611c7b9190612b15565b9450611bd3565b8093505050505b919050565b611c988383611cfc565b611ca5600084848461194a565b611ce4576040517f08c379a0000000000000000000000000000000000000000000000000000000008152600401611cdb9061277a565b60405180910390fd5b505050565b600080823b905060008111915050919050565b600073ffffffffffffffffffffffffffffffffffffffff168273ffffffffffffffffffffffffffffffffffffffff161415611d6c576040517f08c379a0000000000000000000000000000000000000000000000000000000008152600401611d63906128da565b60405180910390fd5b611d758161130e565b15611db5576040517f08c379a0000000000000000000000000000000000000000000000000000000008152600401611dac906127ba565b60405180910390fd5b611dc160008383611945565b6001600360008473ffffffffffffffffffffffffffffffffffffffff1673ffffffffffffffffffffffffffffffffffffffff1681526020019081526020016000206000828254611e119190612abf565b92505081905550816002600083815260200190815260200160002060006101000a81548173ffffffffffffffffffffffffffffffffffffffff021916908373ffffffffffffffffffffffffffffffffffffffff160217905550808273ffffffffffffffffffffffffffffffffffffffff16600073ffffffffffffffffffffffffffffffffffffffff167fddf252ad1be2c89b69c2b068fc378daa952ba7f163c4a11628f55a4df523b3ef60405160405180910390a45050565b828054611ed690612c30565b90600052602060002090601f016020900481019282611ef85760008555611f3f565b82601f10611f1157805160ff1916838001178555611f3f565b82800160010185558215611f3f579182015b82811115611f3e578251825591602001919060010190611f23565b5b509050611f4c9190611f50565b5090565b5b80821115611f69576000816000905550600101611f51565b5090565b6000611f80611f7b84612a1a565b6129f5565b905082815260208101848484011115611f9857600080fd5b611fa3848285612bee565b509392505050565b6000611fbe611fb984612a4b565b6129f5565b905082815260208101848484011115611fd657600080fd5b611fe1848285612bee565b509392505050565b600081359050611ff8816132f9565b92915050565b60008135905061200d81613310565b92915050565b60008135905061202281613327565b92915050565b60008151905061203781613327565b92915050565b600082601f83011261204e57600080fd5b813561205e848260208601611f6d565b91505092915050565b600082601f83011261207857600080fd5b8135612088848260208601611fab565b91505092915050565b6000813590506120a08161333e565b92915050565b6000602082840312156120b857600080fd5b60006120c684828501611fe9565b91505092915050565b600080604083850312156120e257600080fd5b60006120f085828601611fe9565b925050602061210185828601611fe9565b9150509250929050565b60008060006060848603121561212057600080fd5b600061212e86828701611fe9565b935050602061213f86828701611fe9565b925050604061215086828701612091565b9150509250925092565b6000806000806080858703121561217057600080fd5b600061217e87828801611fe9565b945050602061218f87828801611fe9565b93505060406121a087828801612091565b925050606085013567ffffffffffffffff8111156121bd57600080fd5b6121c98782880161203d565b91505092959194509250565b600080604083850312156121e857600080fd5b60006121f685828601611fe9565b925050602061220785828601611ffe565b9150509250929050565b6000806040838503121561222457600080fd5b600061223285828601611fe9565b925050602061224385828601612091565b9150509250929050565b60006020828403121561225f57600080fd5b600061226d84828501612013565b91505092915050565b60006020828403121561228857600080fd5b600061229684828501612028565b91505092915050565b6000602082840312156122b157600080fd5b600082013567ffffffffffffffff8111156122cb57600080fd5b6122d784828501612067565b91505092915050565b6000602082840312156122f257600080fd5b600061230084828501612091565b91505092915050565b61231281612b7a565b82525050565b61232181612b8c565b82525050565b600061233282612a7c565b61233c8185612a92565b935061234c818560208601612bfd565b61235581612dc9565b840191505092915050565b600061236b82612a87565b6123758185612aa3565b9350612385818560208601612bfd565b61238e81612dc9565b840191505092915050565b60006123a482612a87565b6123ae8185612ab4565b93506123be818560208601612bfd565b80840191505092915050565b60006123d7603283612aa3565b91506123e282612dda565b604082019050919050565b60006123fa602683612aa3565b915061240582612e29565b604082019050919050565b600061241d601c83612aa3565b915061242882612e78565b602082019050919050565b6000612440602483612aa3565b915061244b82612ea1565b604082019050919050565b6000612463601983612aa3565b915061246e82612ef0565b602082019050919050565b6000612486601283612aa3565b915061249182612f19565b602082019050919050565b60006124a9602c83612aa3565b91506124b482612f42565b604082019050919050565b60006124cc603883612aa3565b91506124d782612f91565b604082019050919050565b60006124ef602a83612aa3565b91506124fa82612fe0565b604082019050919050565b6000612512602983612aa3565b915061251d8261302f565b604082019050919050565b6000612535602e83612aa3565b91506125408261307e565b604082019050919050565b6000612558602083612aa3565b9150612563826130cd565b602082019050919050565b600061257b603183612aa3565b9150612586826130f6565b604082019050919050565b600061259e602c83612aa3565b91506125a982613145565b604082019050919050565b60006125c1602083612aa3565b91506125cc82613194565b602082019050919050565b60006125e4602983612aa3565b91506125ef826131bd565b604082019050919050565b6000612607602f83612aa3565b91506126128261320c565b604082019050919050565b600061262a602183612aa3565b91506126358261325b565b604082019050919050565b600061264d603183612aa3565b9150612658826132aa565b604082019050919050565b61266c81612be4565b82525050565b600061267e8284612399565b915081905092915050565b60006126958285612399565b91506126a18284612399565b91508190509392505050565b60006020820190506126c26000830184612309565b92915050565b60006080820190506126dd6000830187612309565b6126ea6020830186612309565b6126f76040830185612663565b81810360608301526127098184612327565b905095945050505050565b60006040820190506127296000830185612309565b6127366020830184612663565b9392505050565b60006020820190506127526000830184612318565b92915050565b600060208201905081810360008301526127728184612360565b905092915050565b60006020820190508181036000830152612793816123ca565b9050919050565b600060208201905081810360008301526127b3816123ed565b9050919050565b600060208201905081810360008301526127d381612410565b9050919050565b600060208201905081810360008301526127f381612433565b9050919050565b6000602082019050818103600083015261281381612456565b9050919050565b6000602082019050818103600083015261283381612479565b9050919050565b600060208201905081810360008301526128538161249c565b9050919050565b60006020820190508181036000830152612873816124bf565b9050919050565b60006020820190508181036000830152612893816124e2565b9050919050565b600060208201905081810360008301526128b381612505565b9050919050565b600060208201905081810360008301526128d381612528565b9050919050565b600060208201905081810360008301526128f38161254b565b9050919050565b600060208201905081810360008301526129138161256e565b9050919050565b6000602082019050818103600083015261293381612591565b9050919050565b60006020820190508181036000830152612953816125b4565b9050919050565b60006020820190508181036000830152612973816125d7565b9050919050565b60006020820190508181036000830152612993816125fa565b9050919050565b600060208201905081810360008301526129b38161261d565b9050919050565b600060208201905081810360008301526129d381612640565b9050919050565b60006020820190506129ef6000830184612663565b92915050565b60006129ff612a10565b9050612a0b8282612c62565b919050565b6000604051905090565b600067ffffffffffffffff821115612a3557612a34612d9a565b5b612a3e82612dc9565b9050602081019050919050565b600067ffffffffffffffff821115612a6657612a65612d9a565b5b612a6f82612dc9565b9050602081019050919050565b600081519050919050565b600081519050919050565b600082825260208201905092915050565b600082825260208201905092915050565b600081905092915050565b6000612aca82612be4565b9150612ad583612be4565b9250827fffffffffffffffffffffffffffffffffffffffffffffffffffffffffffffffff03821115612b0a57612b09612d0d565b5b828201905092915050565b6000612b2082612be4565b9150612b2b83612be4565b925082612b3b57612b3a612d3c565b5b828204905092915050565b6000612b5182612be4565b9150612b5c83612be4565b925082821015612b6f57612b6e612d0d565b5b828203905092915050565b6000612b8582612bc4565b9050919050565b60008115159050919050565b60007fffffffff0000000000000000000000000000000000000000000000000000000082169050919050565b600073ffffffffffffffffffffffffffffffffffffffff82169050919050565b6000819050919050565b82818337600083830152505050565b60005b83811015612c1b578082015181840152602081019050612c00565b83811115612c2a576000848401525b50505050565b60006002820490506001821680612c4857607f821691505b60208210811415612c5c57612c5b612d6b565b5b50919050565b612c6b82612dc9565b810181811067ffffffffffffffff82111715612c8a57612c89612d9a565b5b80604052505050565b6000612c9e82612be4565b91507fffffffffffffffffffffffffffffffffffffffffffffffffffffffffffffffff821415612cd157612cd0612d0d565b5b600182019050919050565b6000612ce782612be4565b9150612cf283612be4565b925082612d0257612d01612d3c565b5b828206905092915050565b7f4e487b7100000000000000000000000000000000000000000000000000000000600052601160045260246000fd5b7f4e487b7100000000000000000000000000000000000000000000000000000000600052601260045260246000fd5b7f4e487b7100000000000000000000000000000000000000000000000000000000600052602260045260246000fd5b7f4e487b7100000000000000000000000000000000000000000000000000000000600052604160045260246000fd5b6000601f19601f8301169050919050565b7f4552433732313a207472616e7366657220746f206e6f6e20455243373231526560008201527f63656976657220696d706c656d656e7465720000000000000000000000000000602082015250565b7f4f776e61626c653a206e6577206f776e657220697320746865207a65726f206160008201527f6464726573730000000000000000000000000000000000000000000000000000602082015250565b7f4552433732313a20746f6b656e20616c7265616479206d696e74656400000000600082015250565b7f4552433732313a207472616e7366657220746f20746865207a65726f2061646460008201527f7265737300000000000000000000000000000000000000000000000000000000602082015250565b7f4552433732313a20617070726f766520746f2063616c6c657200000000000000600082015250565b7f416c726561647920726567697374657265640000000000000000000000000000600082015250565b7f4552433732313a206f70657261746f7220717565727920666f72206e6f6e657860008201527f697374656e7420746f6b656e0000000000000000000000000000000000000000602082015250565b7f4552433732313a20617070726f76652063616c6c6572206973206e6f74206f7760008201527f6e6572206e6f7220617070726f76656420666f7220616c6c0000000000000000602082015250565b7f4552433732313a2062616c616e636520717565727920666f7220746865207a6560008201527f726f206164647265737300000000000000000000000000000000000000000000602082015250565b7f4552433732313a206f776e657220717565727920666f72206e6f6e657869737460008201527f656e7420746f6b656e0000000000000000000000000000000000000000000000602082015250565b7f45524337323155524953746f726167653a2055524920736574206f66206e6f6e60008201527f6578697374656e7420746f6b656e000000000000000000000000000000000000602082015250565b7f4552433732313a206d696e7420746f20746865207a65726f2061646472657373600082015250565b7f45524337323155524953746f726167653a2055524920717565727920666f722060008201527f6e6f6e6578697374656e7420746f6b656e000000000000000000000000000000602082015250565b7f4552433732313a20617070726f76656420717565727920666f72206e6f6e657860008201527f697374656e7420746f6b656e0000000000000000000000000000000000000000602082015250565b7f4f776e61626c653a2063616c6c6572206973206e6f7420746865206f776e6572600082015250565b7f4552433732313a207472616e73666572206f6620746f6b656e2074686174206960008201527f73206e6f74206f776e0000000000000000000000000000000000000000000000602082015250565b7f4552433732314d657461646174613a2055524920717565727920666f72206e6f60008201527f6e6578697374656e7420746f6b656e0000000000000000000000000000000000602082015250565b7f4552433732313a20617070726f76616c20746f2063757272656e74206f776e6560008201527f7200000000000000000000000000000000000000000000000000000000000000602082015250565b7f4552433732313a207472616e736665722063616c6c6572206973206e6f74206f60008201527f776e6572206e6f7220617070726f766564000000000000000000000000000000602082015250565b61330281612b7a565b811461330d57600080fd5b50565b61331981612b8c565b811461332457600080fd5b50565b61333081612b98565b811461333b57600080fd5b50565b61334781612be4565b811461335257600080fd5b5056fea2646970667358221220841432af9a692686e82116f4d8fed0e83d87666285e7f97bf64d10c0002ecbd064736f6c63430008030033",
  "immutableReferences": {},
  "source": "// SPDX-License-Identifier: MIT\r\npragma solidity 0.8.3;\r\n\r\nimport \"@openzeppelin/contracts/token/ERC721/extensions/ERC721URIStorage.sol\";\r\nimport \"@openzeppelin/contracts/token/ERC721/ERC721.sol\";\r\nimport \"@openzeppelin/contracts/utils/Counters.sol\";\r\nimport '@openzeppelin/contracts/access/Ownable.sol';\r\n\r\ncontract CardItem is ERC721URIStorage, Ownable {\r\n    using Counters for Counters.Counter;\r\n    \r\n    Counters.Counter public _tokenIds;\r\n    address public marketplace;\r\n    \r\n    mapping(string => bool) public ipfsHashes;\r\n    \r\n    event ItemCreated(\r\n        address owner,\r\n        uint256 tokenId\r\n    );\r\n\r\n    constructor (string memory _name, string memory _symbol, address _marketplace) public ERC721(_name, _symbol) {\r\n          marketplace = _marketplace;\r\n    }\r\n\r\n    /** \r\n     * @dev Mint a new NFT  \r\n     * @param _tokenURI - URL include ipfs hash\r\n     * @return uint256 - return nft id\r\n     */\r\n    function mintNFT(string memory _tokenURI) public onlyOwner returns (uint256) {\r\n        require(ipfsHashes[_tokenURI] != true, \"Already registered\");  \r\n        \r\n         _tokenIds.increment();\r\n        uint256 newItemId = _tokenIds.current();\r\n        \r\n        _safeMint(marketplace, newItemId);\r\n        _setTokenURI(newItemId, _tokenURI);\r\n        \r\n        ipfsHashes[_tokenURI] = true;\r\n     \r\n        emit ItemCreated(marketplace, newItemId);\r\n        return newItemId;\r\n    }\r\n}\r\n",
  "sourcePath": "C:/work_store/blockchain_work/tatakai/contracts/CardItem.sol",
  "compiler": {
    "name": "solc",
    "version": "0.8.3+commit.8d00100c.Emscripten.clang"
  },
  "schemaVersion": "3.3.4",
  "updatedAt": "2021-04-19T21:21:24.941Z",
  "networkType": "ethereum",
  "devdoc": {
    "kind": "dev",
    "methods": {
      "approve(address,uint256)": {
        "details": "See {IERC721-approve}."
      },
      "balanceOf(address)": {
        "details": "See {IERC721-balanceOf}."
      },
      "getApproved(uint256)": {
        "details": "See {IERC721-getApproved}."
      },
      "isApprovedForAll(address,address)": {
        "details": "See {IERC721-isApprovedForAll}."
      },
      "mintNFT(string)": {
        "details": "Mint a new NFT  ",
        "params": {
          "_tokenURI": "- URL include ipfs hash"
        },
        "returns": {
          "_0": "uint256 - return nft id"
        }
      },
      "name()": {
        "details": "See {IERC721Metadata-name}."
      },
      "owner()": {
        "details": "Returns the address of the current owner."
      },
      "ownerOf(uint256)": {
        "details": "See {IERC721-ownerOf}."
      },
      "renounceOwnership()": {
        "details": "Leaves the contract without owner. It will not be possible to call `onlyOwner` functions anymore. Can only be called by the current owner. NOTE: Renouncing ownership will leave the contract without an owner, thereby removing any functionality that is only available to the owner."
      },
      "safeTransferFrom(address,address,uint256)": {
        "details": "See {IERC721-safeTransferFrom}."
      },
      "safeTransferFrom(address,address,uint256,bytes)": {
        "details": "See {IERC721-safeTransferFrom}."
      },
      "setApprovalForAll(address,bool)": {
        "details": "See {IERC721-setApprovalForAll}."
      },
      "supportsInterface(bytes4)": {
        "details": "See {IERC165-supportsInterface}."
      },
      "symbol()": {
        "details": "See {IERC721Metadata-symbol}."
      },
      "tokenURI(uint256)": {
        "details": "See {IERC721Metadata-tokenURI}."
      },
      "transferFrom(address,address,uint256)": {
        "details": "See {IERC721-transferFrom}."
      },
      "transferOwnership(address)": {
        "details": "Transfers ownership of the contract to a new account (`newOwner`). Can only be called by the current owner."
      }
    },
    "version": 1
  },
  "userdoc": {
    "kind": "user",
    "methods": {},
    "version": 1
  }
}