{
  "contractName": "Faucet",
  "abi": [
    {
      "inputs": [
        {
          "internalType": "address",
          "name": "_tokenInstance",
          "type": "address"
        },
        {
          "internalType": "address",
          "name": "_marketplace",
          "type": "address"
        }
      ],
      "stateMutability": "nonpayable",
      "type": "constructor"
    },
    {
      "anonymous": false,
      "inputs": [
        {
          "indexed": true,
          "internalType": "address",
          "name": "previousOwner",
          "type": "address"
        },
        {
          "indexed": true,
          "internalType": "address",
          "name": "newOwner",
          "type": "address"
        }
      ],
      "name": "OwnershipTransferred",
      "type": "event"
    },
    {
      "anonymous": false,
      "inputs": [
        {
          "indexed": true,
          "internalType": "address",
          "name": "to",
          "type": "address"
        }
      ],
      "name": "Withdrawal",
      "type": "event"
    },
    {
      "inputs": [],
      "name": "marketplace",
      "outputs": [
        {
          "internalType": "address",
          "name": "",
          "type": "address"
        }
      ],
      "stateMutability": "view",
      "type": "function",
      "constant": true
    },
    {
      "inputs": [],
      "name": "owner",
      "outputs": [
        {
          "internalType": "address",
          "name": "",
          "type": "address"
        }
      ],
      "stateMutability": "view",
      "type": "function",
      "constant": true
    },
    {
      "inputs": [],
      "name": "renounceOwnership",
      "outputs": [],
      "stateMutability": "nonpayable",
      "type": "function"
    },
    {
      "inputs": [],
      "name": "tokenInstance",
      "outputs": [
        {
          "internalType": "contract IERC20",
          "name": "",
          "type": "address"
        }
      ],
      "stateMutability": "view",
      "type": "function",
      "constant": true
    },
    {
      "inputs": [
        {
          "internalType": "address",
          "name": "newOwner",
          "type": "address"
        }
      ],
      "name": "transferOwnership",
      "outputs": [],
      "stateMutability": "nonpayable",
      "type": "function"
    },
    {
      "inputs": [],
      "name": "waitTime",
      "outputs": [
        {
          "internalType": "uint256",
          "name": "",
          "type": "uint256"
        }
      ],
      "stateMutability": "view",
      "type": "function",
      "constant": true
    },
    {
      "inputs": [
        {
          "internalType": "uint256",
          "name": "tokenAmount",
          "type": "uint256"
        }
      ],
      "name": "requestTokens",
      "outputs": [],
      "stateMutability": "nonpayable",
      "type": "function"
    }
  ],
  "bytecode": "0x60806040523480156200001157600080fd5b5060405162000f4138038062000f41833981810160405281019062000037919062000206565b600062000049620001e760201b60201c565b9050806000806101000a81548173ffffffffffffffffffffffffffffffffffffffff021916908373ffffffffffffffffffffffffffffffffffffffff1602179055508073ffffffffffffffffffffffffffffffffffffffff16600073ffffffffffffffffffffffffffffffffffffffff167f8be0079c531659141344cd1fd0a4f28419497f9722a3daafe3b4186f6b6457e060405160405180910390a350600073ffffffffffffffffffffffffffffffffffffffff168273ffffffffffffffffffffffffffffffffffffffff1614156200012257600080fd5b600073ffffffffffffffffffffffffffffffffffffffff168173ffffffffffffffffffffffffffffffffffffffff1614156200015d57600080fd5b81600160006101000a81548173ffffffffffffffffffffffffffffffffffffffff021916908373ffffffffffffffffffffffffffffffffffffffff16021790555080600260006101000a81548173ffffffffffffffffffffffffffffffffffffffff021916908373ffffffffffffffffffffffffffffffffffffffff160217905550505062000295565b600033905090565b60008151905062000200816200027b565b92915050565b600080604083850312156200021a57600080fd5b60006200022a85828601620001ef565b92505060206200023d85828601620001ef565b9150509250929050565b600062000254826200025b565b9050919050565b600073ffffffffffffffffffffffffffffffffffffffff82169050919050565b620002868162000247565b81146200029257600080fd5b50565b610c9c80620002a56000396000f3fe608060405234801561001057600080fd5b506004361061007d5760003560e01c8063abc8c7af1161005b578063abc8c7af146100c8578063ccca123b146100e6578063eef9c27c14610104578063f2fde38b146101205761007d565b8063658030b314610082578063715018a6146100a05780638da5cb5b146100aa575b600080fd5b61008a61013c565b604051610097919061099f565b60405180910390f35b6100a8610162565b005b6100b261029c565b6040516100bf919061095b565b60405180910390f35b6100d06102c5565b6040516100dd919061095b565b60405180910390f35b6100ee6102eb565b6040516100fb9190610a3a565b60405180910390f35b61011e60048036038101906101199190610879565b6102f1565b005b61013a60048036038101906101359190610827565b61058c565b005b600160009054906101000a900473ffffffffffffffffffffffffffffffffffffffff1681565b61016a610735565b73ffffffffffffffffffffffffffffffffffffffff1661018861029c565b73ffffffffffffffffffffffffffffffffffffffff16146101de576040517f08c379a00000000000000000000000000000000000000000000000000000000081526004016101d5906109fa565b60405180910390fd5b600073ffffffffffffffffffffffffffffffffffffffff1660008054906101000a900473ffffffffffffffffffffffffffffffffffffffff1673ffffffffffffffffffffffffffffffffffffffff167f8be0079c531659141344cd1fd0a4f28419497f9722a3daafe3b4186f6b6457e060405160405180910390a360008060006101000a81548173ffffffffffffffffffffffffffffffffffffffff021916908373ffffffffffffffffffffffffffffffffffffffff160217905550565b60008060009054906101000a900473ffffffffffffffffffffffffffffffffffffffff16905090565b600260009054906101000a900473ffffffffffffffffffffffffffffffffffffffff1681565b61070881565b6102f9610735565b73ffffffffffffffffffffffffffffffffffffffff1661031761029c565b73ffffffffffffffffffffffffffffffffffffffff161461036d576040517f08c379a0000000000000000000000000000000000000000000000000000000008152600401610364906109fa565b60405180910390fd5b600260009054906101000a900473ffffffffffffffffffffffffffffffffffffffff1673ffffffffffffffffffffffffffffffffffffffff163373ffffffffffffffffffffffffffffffffffffffff16146103fd576040517f08c379a00000000000000000000000000000000000000000000000000000000081526004016103f4906109da565b60405180910390fd5b6104063361073d565b610445576040517f08c379a000000000000000000000000000000000000000000000000000000000815260040161043c90610a1a565b60405180910390fd5b600160009054906101000a900473ffffffffffffffffffffffffffffffffffffffff1673ffffffffffffffffffffffffffffffffffffffff1663a9059cbb33836040518363ffffffff1660e01b81526004016104a2929190610976565b602060405180830381600087803b1580156104bc57600080fd5b505af11580156104d0573d6000803e3d6000fd5b505050506040513d601f19601f820116820180604052508101906104f49190610850565b50610708426105039190610a66565b600360003373ffffffffffffffffffffffffffffffffffffffff1673ffffffffffffffffffffffffffffffffffffffff168152602001908152602001600020819055503373ffffffffffffffffffffffffffffffffffffffff167fe19ed71156e31b3c9e18ac7ad8d1b79f0a0feb3be18d23dae612e52040aada4b60405160405180910390a250565b610594610735565b73ffffffffffffffffffffffffffffffffffffffff166105b261029c565b73ffffffffffffffffffffffffffffffffffffffff1614610608576040517f08c379a00000000000000000000000000000000000000000000000000000000081526004016105ff906109fa565b60405180910390fd5b600073ffffffffffffffffffffffffffffffffffffffff168173ffffffffffffffffffffffffffffffffffffffff161415610678576040517f08c379a000000000000000000000000000000000000000000000000000000000815260040161066f906109ba565b60405180910390fd5b8073ffffffffffffffffffffffffffffffffffffffff1660008054906101000a900473ffffffffffffffffffffffffffffffffffffffff1673ffffffffffffffffffffffffffffffffffffffff167f8be0079c531659141344cd1fd0a4f28419497f9722a3daafe3b4186f6b6457e060405160405180910390a3806000806101000a81548173ffffffffffffffffffffffffffffffffffffffff021916908373ffffffffffffffffffffffffffffffffffffffff16021790555050565b600033905090565b600080600360008473ffffffffffffffffffffffffffffffffffffffff1673ffffffffffffffffffffffffffffffffffffffff16815260200190815260200160002054141561078f57600190506107e3565b600360008373ffffffffffffffffffffffffffffffffffffffff1673ffffffffffffffffffffffffffffffffffffffff1681526020019081526020016000205442106107de57600190506107e3565b600090505b919050565b6000813590506107f781610c21565b92915050565b60008151905061080c81610c38565b92915050565b60008135905061082181610c4f565b92915050565b60006020828403121561083957600080fd5b6000610847848285016107e8565b91505092915050565b60006020828403121561086257600080fd5b6000610870848285016107fd565b91505092915050565b60006020828403121561088b57600080fd5b600061089984828501610812565b91505092915050565b6108ab81610abc565b82525050565b6108ba81610b04565b82525050565b60006108cd602683610a55565b91506108d882610b57565b604082019050919050565b60006108f0601c83610a55565b91506108fb82610ba6565b602082019050919050565b6000610913602083610a55565b915061091e82610bcf565b602082019050919050565b6000610936601c83610a55565b915061094182610bf8565b602082019050919050565b61095581610afa565b82525050565b600060208201905061097060008301846108a2565b92915050565b600060408201905061098b60008301856108a2565b610998602083018461094c565b9392505050565b60006020820190506109b460008301846108b1565b92915050565b600060208201905081810360008301526109d3816108c0565b9050919050565b600060208201905081810360008301526109f3816108e3565b9050919050565b60006020820190508181036000830152610a1381610906565b9050919050565b60006020820190508181036000830152610a3381610929565b9050919050565b6000602082019050610a4f600083018461094c565b92915050565b600082825260208201905092915050565b6000610a7182610afa565b9150610a7c83610afa565b9250827fffffffffffffffffffffffffffffffffffffffffffffffffffffffffffffffff03821115610ab157610ab0610b28565b5b828201905092915050565b6000610ac782610ada565b9050919050565b60008115159050919050565b600073ffffffffffffffffffffffffffffffffffffffff82169050919050565b6000819050919050565b6000610b0f82610b16565b9050919050565b6000610b2182610ada565b9050919050565b7f4e487b7100000000000000000000000000000000000000000000000000000000600052601160045260246000fd5b7f4f776e61626c653a206e6577206f776e657220697320746865207a65726f206160008201527f6464726573730000000000000000000000000000000000000000000000000000602082015250565b7f43616c6c65722073686f756c64206265204d61726b6574706c61636500000000600082015250565b7f4f776e61626c653a2063616c6c6572206973206e6f7420746865206f776e6572600082015250565b7f596f75206861766520746f2077616974203330206d696e757465732100000000600082015250565b610c2a81610abc565b8114610c3557600080fd5b50565b610c4181610ace565b8114610c4c57600080fd5b50565b610c5881610afa565b8114610c6357600080fd5b5056fea26469706673582212208407a68cc90c18df3c4cb00a17d3652b836a5a7d1b428273c19c95afcf0ac9bf64736f6c63430008030033",
  "immutableReferences": {},
  "source": "// SPDX-License-Identifier: MIT\r\npragma solidity 0.8.3;\r\n\r\nimport \"@openzeppelin/contracts/token/ERC20/utils/SafeERC20.sol\";\r\nimport '@openzeppelin/contracts/access/Ownable.sol';\r\n\r\ncontract Faucet is Ownable {\r\n    uint256 constant public waitTime = 30 minutes;\r\n\r\n    IERC20 public tokenInstance;\r\n    address public marketplace;\r\n    \r\n    mapping(address => uint256) lastAccessTime;\r\n\r\n    event Withdrawal(address indexed to);\r\n\r\n    constructor(address _tokenInstance, address _marketplace) public {\r\n        require(_tokenInstance != address(0));\r\n        require(_marketplace != address(0));\r\n        tokenInstance = IERC20(_tokenInstance);\r\n        marketplace = _marketplace;\r\n    }\r\n    \r\n    modifier onlyMarketplace() {\r\n        require(msg.sender == marketplace, \"Caller should be Marketplace\");\r\n        _;\r\n    }\r\n\r\n    function requestTokens(uint256 tokenAmount) public onlyOwner onlyMarketplace {\r\n        require(allowedToWithdraw(msg.sender), \"You have to wait 30 minutes!\");\r\n        tokenInstance.transfer(msg.sender, tokenAmount);\r\n        lastAccessTime[msg.sender] = block.timestamp + waitTime;\r\n        emit Withdrawal(msg.sender);\r\n    }\r\n\r\n    function allowedToWithdraw(address _address) internal view returns (bool) {\r\n        if(lastAccessTime[_address] == 0) {\r\n            return true;\r\n        } else if(block.timestamp >= lastAccessTime[_address]) {\r\n            return true;\r\n        }\r\n        return false;\r\n    }\r\n}",
  "sourcePath": "C:/work_store/blockchain_work/tatakai/contracts/Faucet.sol",
  "compiler": {
    "name": "solc",
    "version": "0.8.3+commit.8d00100c.Emscripten.clang"
  },
  "schemaVersion": "3.3.4",
  "updatedAt": "2021-04-20T13:11:56.437Z",
  "networkType": "ethereum",
  "devdoc": {
    "kind": "dev",
    "methods": {
      "owner()": {
        "details": "Returns the address of the current owner."
      },
      "renounceOwnership()": {
        "details": "Leaves the contract without owner. It will not be possible to call `onlyOwner` functions anymore. Can only be called by the current owner. NOTE: Renouncing ownership will leave the contract without an owner, thereby removing any functionality that is only available to the owner."
      },
      "transferOwnership(address)": {
        "details": "Transfers ownership of the contract to a new account (`newOwner`). Can only be called by the current owner."
      }
    },
    "version": 1
  },
  "userdoc": {
    "kind": "user",
    "methods": {},
    "version": 1
  }
}