{
  "contractName": "Faucet",
  "abi": [
    {
      "inputs": [
        {
          "internalType": "address",
          "name": "_tokenInstance",
          "type": "address"
        }
      ],
      "stateMutability": "nonpayable",
      "type": "constructor"
    },
    {
      "anonymous": false,
      "inputs": [
        {
          "indexed": true,
          "internalType": "address",
          "name": "to",
          "type": "address"
        }
      ],
      "name": "Withdrawal",
      "type": "event"
    },
    {
      "inputs": [],
      "name": "tokenAmount",
      "outputs": [
        {
          "internalType": "uint256",
          "name": "",
          "type": "uint256"
        }
      ],
      "stateMutability": "view",
      "type": "function",
      "constant": true
    },
    {
      "inputs": [],
      "name": "tokenInstance",
      "outputs": [
        {
          "internalType": "contract IERC20",
          "name": "",
          "type": "address"
        }
      ],
      "stateMutability": "view",
      "type": "function",
      "constant": true
    },
    {
      "inputs": [],
      "name": "waitTime",
      "outputs": [
        {
          "internalType": "uint256",
          "name": "",
          "type": "uint256"
        }
      ],
      "stateMutability": "view",
      "type": "function",
      "constant": true
    },
    {
      "inputs": [],
      "name": "requestTokens",
      "outputs": [],
      "stateMutability": "nonpayable",
      "type": "function"
    },
    {
      "inputs": [
        {
          "internalType": "address",
          "name": "_address",
          "type": "address"
        }
      ],
      "name": "allowedToWithdraw",
      "outputs": [
        {
          "internalType": "bool",
          "name": "",
          "type": "bool"
        }
      ],
      "stateMutability": "view",
      "type": "function",
      "constant": true
    }
  ],
  "bytecode": "0x608060405234801561001057600080fd5b506040516107a53803806107a5833981810160405281019061003291906100c7565b600073ffffffffffffffffffffffffffffffffffffffff168173ffffffffffffffffffffffffffffffffffffffff16141561006c57600080fd5b806000806101000a81548173ffffffffffffffffffffffffffffffffffffffff021916908373ffffffffffffffffffffffffffffffffffffffff16021790555050610139565b6000815190506100c181610122565b92915050565b6000602082840312156100d957600080fd5b60006100e7848285016100b2565b91505092915050565b60006100fb82610102565b9050919050565b600073ffffffffffffffffffffffffffffffffffffffff82169050919050565b61012b816100f0565b811461013657600080fd5b50565b61065d806101486000396000f3fe608060405234801561001057600080fd5b50600436106100575760003560e01c80632d291cad1461005c578063359cf2b71461008c578063658030b314610096578063ccca123b146100b4578063eec7faa1146100d2575b600080fd5b61007660048036038101906100719190610383565b6100f0565b604051610083919061045d565b60405180910390f35b61009461019b565b005b61009e610329565b6040516100ab9190610478565b60405180910390f35b6100bc61034d565b6040516100c991906104b3565b60405180910390f35b6100da610353565b6040516100e791906104b3565b60405180910390f35b600080600160008473ffffffffffffffffffffffffffffffffffffffff1673ffffffffffffffffffffffffffffffffffffffff1681526020019081526020016000205414156101425760019050610196565b600160008373ffffffffffffffffffffffffffffffffffffffff1673ffffffffffffffffffffffffffffffffffffffff1681526020019081526020016000205442106101915760019050610196565b600090505b919050565b6101a4336100f0565b6101e3576040517f08c379a00000000000000000000000000000000000000000000000000000000081526004016101da90610493565b60405180910390fd5b60008054906101000a900473ffffffffffffffffffffffffffffffffffffffff1673ffffffffffffffffffffffffffffffffffffffff1663a9059cbb336127106040518363ffffffff1660e01b8152600401610240929190610434565b602060405180830381600087803b15801561025a57600080fd5b505af115801561026e573d6000803e3d6000fd5b505050506040513d601f19601f8201168201806040525081019061029291906103ac565b50610708426102a191906104df565b600160003373ffffffffffffffffffffffffffffffffffffffff1673ffffffffffffffffffffffffffffffffffffffff168152602001908152602001600020819055503373ffffffffffffffffffffffffffffffffffffffff167fe19ed71156e31b3c9e18ac7ad8d1b79f0a0feb3be18d23dae612e52040aada4b60405160405180910390a2565b60008054906101000a900473ffffffffffffffffffffffffffffffffffffffff1681565b61070881565b61271081565b600081359050610368816105f9565b92915050565b60008151905061037d81610610565b92915050565b60006020828403121561039557600080fd5b60006103a384828501610359565b91505092915050565b6000602082840312156103be57600080fd5b60006103cc8482850161036e565b91505092915050565b6103de81610535565b82525050565b6103ed81610547565b82525050565b6103fc8161057d565b82525050565b600061040f601c836104ce565b915061041a826105d0565b602082019050919050565b61042e81610573565b82525050565b600060408201905061044960008301856103d5565b6104566020830184610425565b9392505050565b600060208201905061047260008301846103e4565b92915050565b600060208201905061048d60008301846103f3565b92915050565b600060208201905081810360008301526104ac81610402565b9050919050565b60006020820190506104c86000830184610425565b92915050565b600082825260208201905092915050565b60006104ea82610573565b91506104f583610573565b9250827fffffffffffffffffffffffffffffffffffffffffffffffffffffffffffffffff0382111561052a576105296105a1565b5b828201905092915050565b600061054082610553565b9050919050565b60008115159050919050565b600073ffffffffffffffffffffffffffffffffffffffff82169050919050565b6000819050919050565b60006105888261058f565b9050919050565b600061059a82610553565b9050919050565b7f4e487b7100000000000000000000000000000000000000000000000000000000600052601160045260246000fd5b7f596f75206861766520746f2077616974203330206d696e757465732100000000600082015250565b61060281610535565b811461060d57600080fd5b50565b61061981610547565b811461062457600080fd5b5056fea264697066735822122091bca5696718a3f595933536f91876325e567f3e15a1fd2f0eff4554834cde1e64736f6c63430008030033",
  "immutableReferences": {},
  "source": "// SPDX-License-Identifier: MIT\npragma solidity 0.8.3;\n\nimport \"@openzeppelin/contracts/token/ERC20/utils/SafeERC20.sol\";\n\ncontract Faucet {\n    uint256 constant public tokenAmount = 10000;\n    uint256 constant public waitTime = 30 minutes;\n\n    IERC20 public tokenInstance;\n    \n    mapping(address => uint256) lastAccessTime;\n\n    event Withdrawal(address indexed to);\n\n    constructor(address _tokenInstance) public {\n        require(_tokenInstance != address(0));\n        tokenInstance = IERC20(_tokenInstance);\n    }\n\n    function requestTokens() public {\n        require(allowedToWithdraw(msg.sender), \"You have to wait 30 minutes!\");\n        tokenInstance.transfer(msg.sender, tokenAmount);\n        lastAccessTime[msg.sender] = block.timestamp + waitTime;\n        emit Withdrawal(msg.sender);\n    }\n\n    function allowedToWithdraw(address _address) public view returns (bool) {\n        if(lastAccessTime[_address] == 0) {\n            return true;\n        } else if(block.timestamp >= lastAccessTime[_address]) {\n            return true;\n        }\n        return false;\n    }\n}",
  "sourcePath": "/Users/sandyinstructor/Documents/BLOCKCHAIN/Alyra/PROJET/tatakai/contracts/Faucet.sol",
  "compiler": {
    "name": "solc",
    "version": "0.8.3+commit.8d00100c.Emscripten.clang"
  },
  "schemaVersion": "3.3.4",
  "updatedAt": "2021-04-08T16:16:22.542Z",
  "networkType": "ethereum",
  "devdoc": {
    "kind": "dev",
    "methods": {},
    "version": 1
  },
  "userdoc": {
    "kind": "user",
    "methods": {},
    "version": 1
  }
}