{
  "contractName": "Faucet",
  "abi": [
    {
      "inputs": [
        {
          "internalType": "address",
          "name": "_tokenInstance",
          "type": "address"
        }
      ],
      "stateMutability": "nonpayable",
      "type": "constructor"
    },
    {
      "anonymous": false,
      "inputs": [
        {
          "indexed": true,
          "internalType": "address",
          "name": "to",
          "type": "address"
        }
      ],
      "name": "Withdrawal",
      "type": "event"
    },
    {
      "inputs": [],
      "name": "tokenAmount",
      "outputs": [
        {
          "internalType": "uint256",
          "name": "",
          "type": "uint256"
        }
      ],
      "stateMutability": "view",
      "type": "function",
      "constant": true
    },
    {
      "inputs": [],
      "name": "tokenInstance",
      "outputs": [
        {
          "internalType": "contract IERC20",
          "name": "",
          "type": "address"
        }
      ],
      "stateMutability": "view",
      "type": "function",
      "constant": true
    },
    {
      "inputs": [],
      "name": "waitTime",
      "outputs": [
        {
          "internalType": "uint256",
          "name": "",
          "type": "uint256"
        }
      ],
      "stateMutability": "view",
      "type": "function",
      "constant": true
    },
    {
      "inputs": [],
      "name": "requestTokens",
      "outputs": [],
      "stateMutability": "nonpayable",
      "type": "function"
    }
  ],
  "bytecode": "0x608060405234801561001057600080fd5b506040516104a53803806104a5833981810160405281019061003291906100c7565b600073ffffffffffffffffffffffffffffffffffffffff168173ffffffffffffffffffffffffffffffffffffffff16141561006c57600080fd5b806000806101000a81548173ffffffffffffffffffffffffffffffffffffffff021916908373ffffffffffffffffffffffffffffffffffffffff16021790555050610139565b6000815190506100c181610122565b92915050565b6000602082840312156100d957600080fd5b60006100e7848285016100b2565b91505092915050565b60006100fb82610102565b9050919050565b600073ffffffffffffffffffffffffffffffffffffffff82169050919050565b61012b816100f0565b811461013657600080fd5b50565b61035d806101486000396000f3fe608060405234801561001057600080fd5b506004361061004c5760003560e01c8063359cf2b714610051578063658030b31461005b578063ccca123b14610079578063eec7faa114610097575b600080fd5b6100596100b5565b005b6100636101aa565b604051610070919061026e565b60405180910390f35b6100816101ce565b60405161008e9190610289565b60405180910390f35b61009f6101d4565b6040516100ac9190610289565b60405180910390f35b60008054906101000a900473ffffffffffffffffffffffffffffffffffffffff1673ffffffffffffffffffffffffffffffffffffffff1663a9059cbb336127106040518363ffffffff1660e01b8152600401610112929190610245565b602060405180830381600087803b15801561012c57600080fd5b505af1158015610140573d6000803e3d6000fd5b505050506040513d601f19601f8201168201806040525081019061016491906101ef565b503373ffffffffffffffffffffffffffffffffffffffff167fe19ed71156e31b3c9e18ac7ad8d1b79f0a0feb3be18d23dae612e52040aada4b60405160405180910390a2565b60008054906101000a900473ffffffffffffffffffffffffffffffffffffffff1681565b61070881565b61271081565b6000815190506101e981610310565b92915050565b60006020828403121561020157600080fd5b600061020f848285016101da565b91505092915050565b610221816102a4565b82525050565b610230816102ec565b82525050565b61023f816102e2565b82525050565b600060408201905061025a6000830185610218565b6102676020830184610236565b9392505050565b60006020820190506102836000830184610227565b92915050565b600060208201905061029e6000830184610236565b92915050565b60006102af826102c2565b9050919050565b60008115159050919050565b600073ffffffffffffffffffffffffffffffffffffffff82169050919050565b6000819050919050565b60006102f7826102fe565b9050919050565b6000610309826102c2565b9050919050565b610319816102b6565b811461032457600080fd5b5056fea26469706673582212202656f6437fe9484c5d4565a11af96149de267a3f0462e0842afac9b834d9de8864736f6c63430008030033",
  "immutableReferences": {},
  "source": "// SPDX-License-Identifier: MIT\r\npragma solidity 0.8.3;\r\n\r\nimport \"@openzeppelin/contracts/token/ERC20/utils/SafeERC20.sol\";\r\n\r\ncontract Faucet {\r\n    uint256 constant public tokenAmount = 10000;\r\n    uint256 constant public waitTime = 30 minutes;\r\n\r\n    IERC20 public tokenInstance;\r\n    \r\n    mapping(address => uint256) lastAccessTime;\r\n\r\n    event Withdrawal(address indexed to);\r\n\r\n    constructor(address _tokenInstance) public {\r\n        require(_tokenInstance != address(0));\r\n        tokenInstance = IERC20(_tokenInstance);\r\n    }\r\n\r\n    function requestTokens() public {\r\n        // require(allowedToWithdraw(msg.sender), \"You have to wait 30 minutes!\");\r\n        tokenInstance.transfer(msg.sender, tokenAmount);\r\n        // lastAccessTime[msg.sender] = block.timestamp + waitTime;\r\n        emit Withdrawal(msg.sender);\r\n    }\r\n\r\n    // function allowedToWithdraw(address _address) public view returns (bool) {\r\n    //     if(lastAccessTime[_address] == 0) {\r\n    //         return true;\r\n    //     } else if(block.timestamp >= lastAccessTime[_address]) {\r\n    //         return true;\r\n    //     }\r\n    //     return false;\r\n    // }\r\n}",
  "sourcePath": "C:/work_store/blockchain_work/tatakai/contracts/Faucet.sol",
  "compiler": {
    "name": "solc",
    "version": "0.8.3+commit.8d00100c.Emscripten.clang"
  },
  "schemaVersion": "3.3.4",
  "updatedAt": "2021-04-12T19:21:04.879Z",
  "networkType": "ethereum",
  "devdoc": {
    "kind": "dev",
    "methods": {},
    "version": 1
  },
  "userdoc": {
    "kind": "user",
    "methods": {},
    "version": 1
  }
}