{
  "contractName": "Faucet",
  "abi": [
    {
      "inputs": [
        {
          "internalType": "address",
          "name": "_tokenInstance",
          "type": "address"
        }
      ],
      "stateMutability": "nonpayable",
      "type": "constructor"
    },
    {
      "anonymous": false,
      "inputs": [
        {
          "indexed": true,
          "internalType": "address",
          "name": "previousOwner",
          "type": "address"
        },
        {
          "indexed": true,
          "internalType": "address",
          "name": "newOwner",
          "type": "address"
        }
      ],
      "name": "OwnershipTransferred",
      "type": "event"
    },
    {
      "anonymous": false,
      "inputs": [
        {
          "indexed": false,
          "internalType": "address",
          "name": "account",
          "type": "address"
        }
      ],
      "name": "Paused",
      "type": "event"
    },
    {
      "anonymous": false,
      "inputs": [
        {
          "indexed": false,
          "internalType": "address",
          "name": "account",
          "type": "address"
        }
      ],
      "name": "Unpaused",
      "type": "event"
    },
    {
      "anonymous": false,
      "inputs": [
        {
          "indexed": false,
          "internalType": "address",
          "name": "to",
          "type": "address"
        }
      ],
      "name": "Withdrawal",
      "type": "event"
    },
    {
      "inputs": [],
      "name": "owner",
      "outputs": [
        {
          "internalType": "address",
          "name": "",
          "type": "address"
        }
      ],
      "stateMutability": "view",
      "type": "function",
      "constant": true
    },
    {
      "inputs": [],
      "name": "paused",
      "outputs": [
        {
          "internalType": "bool",
          "name": "",
          "type": "bool"
        }
      ],
      "stateMutability": "view",
      "type": "function",
      "constant": true
    },
    {
      "inputs": [],
      "name": "renounceOwnership",
      "outputs": [],
      "stateMutability": "nonpayable",
      "type": "function"
    },
    {
      "inputs": [],
      "name": "tokenAmount",
      "outputs": [
        {
          "internalType": "uint256",
          "name": "",
          "type": "uint256"
        }
      ],
      "stateMutability": "view",
      "type": "function",
      "constant": true
    },
    {
      "inputs": [],
      "name": "tokenInstance",
      "outputs": [
        {
          "internalType": "contract IERC20",
          "name": "",
          "type": "address"
        }
      ],
      "stateMutability": "view",
      "type": "function",
      "constant": true
    },
    {
      "inputs": [
        {
          "internalType": "address",
          "name": "newOwner",
          "type": "address"
        }
      ],
      "name": "transferOwnership",
      "outputs": [],
      "stateMutability": "nonpayable",
      "type": "function"
    },
    {
      "inputs": [],
      "name": "waitTime",
      "outputs": [
        {
          "internalType": "uint256",
          "name": "",
          "type": "uint256"
        }
      ],
      "stateMutability": "view",
      "type": "function",
      "constant": true
    },
    {
      "inputs": [],
      "name": "requestTokens",
      "outputs": [],
      "stateMutability": "nonpayable",
      "type": "function"
    }
  ],
  "bytecode": "0x608060405234801561001057600080fd5b50604051610e44380380610e4483398181016040528101906100329190610198565b600061004261017b60201b60201c565b9050806000806101000a81548173ffffffffffffffffffffffffffffffffffffffff021916908373ffffffffffffffffffffffffffffffffffffffff1602179055508073ffffffffffffffffffffffffffffffffffffffff16600073ffffffffffffffffffffffffffffffffffffffff167f8be0079c531659141344cd1fd0a4f28419497f9722a3daafe3b4186f6b6457e060405160405180910390a35060008060146101000a81548160ff021916908315150217905550600073ffffffffffffffffffffffffffffffffffffffff168173ffffffffffffffffffffffffffffffffffffffff16141561013457600080fd5b80600160006101000a81548173ffffffffffffffffffffffffffffffffffffffff021916908373ffffffffffffffffffffffffffffffffffffffff1602179055505061020a565b600033905090565b600081519050610192816101f3565b92915050565b6000602082840312156101aa57600080fd5b60006101b884828501610183565b91505092915050565b60006101cc826101d3565b9050919050565b600073ffffffffffffffffffffffffffffffffffffffff82169050919050565b6101fc816101c1565b811461020757600080fd5b50565b610c2b806102196000396000f3fe608060405234801561001057600080fd5b50600436106100885760003560e01c80638da5cb5b1161005b5780638da5cb5b146100dd578063ccca123b146100fb578063eec7faa114610119578063f2fde38b1461013757610088565b8063359cf2b71461008d5780635c975abb14610097578063658030b3146100b5578063715018a6146100d3575b600080fd5b610095610153565b005b61009f61039b565b6040516100ac919061092a565b60405180910390f35b6100bd6103b1565b6040516100ca9190610945565b60405180910390f35b6100db6103d7565b005b6100e5610511565b6040516100f291906108e6565b60405180910390f35b61010361053a565b60405161011091906109e0565b60405180910390f35b610121610540565b60405161012e91906109e0565b60405180910390f35b610151600480360381019061014c91906107cc565b610546565b005b61015b61039b565b1561019b576040517f08c379a000000000000000000000000000000000000000000000000000000000815260040161019290610980565b60405180910390fd5b6101a36106ef565b73ffffffffffffffffffffffffffffffffffffffff166101c1610511565b73ffffffffffffffffffffffffffffffffffffffff1614610217576040517f08c379a000000000000000000000000000000000000000000000000000000000815260040161020e906109a0565b60405180910390fd5b610220336106f7565b61025f576040517f08c379a0000000000000000000000000000000000000000000000000000000008152600401610256906109c0565b60405180910390fd5b600160009054906101000a900473ffffffffffffffffffffffffffffffffffffffff1673ffffffffffffffffffffffffffffffffffffffff1663a9059cbb336127106040518363ffffffff1660e01b81526004016102be929190610901565b602060405180830381600087803b1580156102d857600080fd5b505af11580156102ec573d6000803e3d6000fd5b505050506040513d601f19601f8201168201806040525081019061031091906107f5565b506107084261031f9190610a0c565b600260003373ffffffffffffffffffffffffffffffffffffffff1673ffffffffffffffffffffffffffffffffffffffff168152602001908152602001600020819055507fe19ed71156e31b3c9e18ac7ad8d1b79f0a0feb3be18d23dae612e52040aada4b3360405161039191906108e6565b60405180910390a1565b60008060149054906101000a900460ff16905090565b600160009054906101000a900473ffffffffffffffffffffffffffffffffffffffff1681565b6103df6106ef565b73ffffffffffffffffffffffffffffffffffffffff166103fd610511565b73ffffffffffffffffffffffffffffffffffffffff1614610453576040517f08c379a000000000000000000000000000000000000000000000000000000000815260040161044a906109a0565b60405180910390fd5b600073ffffffffffffffffffffffffffffffffffffffff1660008054906101000a900473ffffffffffffffffffffffffffffffffffffffff1673ffffffffffffffffffffffffffffffffffffffff167f8be0079c531659141344cd1fd0a4f28419497f9722a3daafe3b4186f6b6457e060405160405180910390a360008060006101000a81548173ffffffffffffffffffffffffffffffffffffffff021916908373ffffffffffffffffffffffffffffffffffffffff160217905550565b60008060009054906101000a900473ffffffffffffffffffffffffffffffffffffffff16905090565b61070881565b61271081565b61054e6106ef565b73ffffffffffffffffffffffffffffffffffffffff1661056c610511565b73ffffffffffffffffffffffffffffffffffffffff16146105c2576040517f08c379a00000000000000000000000000000000000000000000000000000000081526004016105b9906109a0565b60405180910390fd5b600073ffffffffffffffffffffffffffffffffffffffff168173ffffffffffffffffffffffffffffffffffffffff161415610632576040517f08c379a000000000000000000000000000000000000000000000000000000000815260040161062990610960565b60405180910390fd5b8073ffffffffffffffffffffffffffffffffffffffff1660008054906101000a900473ffffffffffffffffffffffffffffffffffffffff1673ffffffffffffffffffffffffffffffffffffffff167f8be0079c531659141344cd1fd0a4f28419497f9722a3daafe3b4186f6b6457e060405160405180910390a3806000806101000a81548173ffffffffffffffffffffffffffffffffffffffff021916908373ffffffffffffffffffffffffffffffffffffffff16021790555050565b600033905090565b600080600260008473ffffffffffffffffffffffffffffffffffffffff1673ffffffffffffffffffffffffffffffffffffffff168152602001908152602001600020541415610749576001905061079d565b600260008373ffffffffffffffffffffffffffffffffffffffff1673ffffffffffffffffffffffffffffffffffffffff168152602001908152602001600020544210610798576001905061079d565b600090505b919050565b6000813590506107b181610bc7565b92915050565b6000815190506107c681610bde565b92915050565b6000602082840312156107de57600080fd5b60006107ec848285016107a2565b91505092915050565b60006020828403121561080757600080fd5b6000610815848285016107b7565b91505092915050565b61082781610a62565b82525050565b61083681610a74565b82525050565b61084581610aaa565b82525050565b60006108586026836109fb565b915061086382610afd565b604082019050919050565b600061087b6010836109fb565b915061088682610b4c565b602082019050919050565b600061089e6020836109fb565b91506108a982610b75565b602082019050919050565b60006108c1601c836109fb565b91506108cc82610b9e565b602082019050919050565b6108e081610aa0565b82525050565b60006020820190506108fb600083018461081e565b92915050565b6000604082019050610916600083018561081e565b61092360208301846108d7565b9392505050565b600060208201905061093f600083018461082d565b92915050565b600060208201905061095a600083018461083c565b92915050565b600060208201905081810360008301526109798161084b565b9050919050565b600060208201905081810360008301526109998161086e565b9050919050565b600060208201905081810360008301526109b981610891565b9050919050565b600060208201905081810360008301526109d9816108b4565b9050919050565b60006020820190506109f560008301846108d7565b92915050565b600082825260208201905092915050565b6000610a1782610aa0565b9150610a2283610aa0565b9250827fffffffffffffffffffffffffffffffffffffffffffffffffffffffffffffffff03821115610a5757610a56610ace565b5b828201905092915050565b6000610a6d82610a80565b9050919050565b60008115159050919050565b600073ffffffffffffffffffffffffffffffffffffffff82169050919050565b6000819050919050565b6000610ab582610abc565b9050919050565b6000610ac782610a80565b9050919050565b7f4e487b7100000000000000000000000000000000000000000000000000000000600052601160045260246000fd5b7f4f776e61626c653a206e6577206f776e657220697320746865207a65726f206160008201527f6464726573730000000000000000000000000000000000000000000000000000602082015250565b7f5061757361626c653a2070617573656400000000000000000000000000000000600082015250565b7f4f776e61626c653a2063616c6c6572206973206e6f7420746865206f776e6572600082015250565b7f596f75206861766520746f2077616974203330206d696e757465732100000000600082015250565b610bd081610a62565b8114610bdb57600080fd5b50565b610be781610a74565b8114610bf257600080fd5b5056fea2646970667358221220d8971363859ed854c5d85f6328134c0d3ed0820b86385bf8f22e93d3f80bbd2464736f6c63430008030033",
  "immutableReferences": {},
  "source": "// SPDX-License-Identifier: MIT\r\npragma solidity 0.8.3;\r\n\r\nimport \"@openzeppelin/contracts/token/ERC20/utils/SafeERC20.sol\";\r\nimport '@openzeppelin/contracts/access/Ownable.sol';\r\nimport '@openzeppelin/contracts/security/Pausable.sol';\r\nimport '@openzeppelin/contracts/utils/math/SafeMath.sol';\r\n\r\n/// @title Faucet Contract\r\n/// @dev This contract manages everything related to Faucet\r\ncontract Faucet is Ownable, Pausable {\r\n    using SafeMath for uint256;\r\n\r\n    uint256 constant public tokenAmount = 10000;\r\n    uint256 constant public waitTime = 30 minutes;\r\n    IERC20 public tokenInstance;\r\n    \r\n    mapping(address => uint256) lastAccessTime;\r\n    \r\n    /**\r\n     * @dev Emitted when owner request tokens.\r\n     */\r\n    event Withdrawal(\r\n        address to\r\n    );\r\n    \r\n    /** \r\n     * @dev Initializes the contract by setting a ERC20 token instance.\r\n     * @param _tokenInstance - ERC20 token instance.\r\n     */\r\n    constructor(address _tokenInstance) {\r\n        require(_tokenInstance != address(0));\r\n        tokenInstance = IERC20(_tokenInstance);\r\n    }\r\n\r\n    /** \r\n     * @dev Request faucet token\r\n     */\r\n    function requestTokens() public whenNotPaused onlyOwner {\r\n        require(allowedToWithdraw(msg.sender), \"You have to wait 30 minutes!\");\r\n        tokenInstance.transfer(msg.sender, tokenAmount);\r\n        lastAccessTime[msg.sender] = block.timestamp + waitTime;\r\n        emit Withdrawal(msg.sender);\r\n    }\r\n\r\n    /** \r\n     * @dev Check if account allowed to withdraw\r\n     * @param _address - requestor address \r\n     * @return bool - true if allowed, false if not allowed\r\n     */\r\n    function allowedToWithdraw(address _address) internal view returns (bool) {\r\n        if(lastAccessTime[_address] == 0) {\r\n            return true;\r\n        } else if(block.timestamp >= lastAccessTime[_address]) {\r\n            return true;\r\n        }\r\n        return false;\r\n    }\r\n}",
  "sourcePath": "C:/work_store/blockchain_work/tatakai/contracts/Faucet.sol",
  "compiler": {
    "name": "solc",
    "version": "0.8.3+commit.8d00100c.Emscripten.clang"
  },
  "schemaVersion": "3.3.4",
  "updatedAt": "2021-04-26T22:57:37.703Z",
  "networkType": "ethereum",
  "devdoc": {
    "details": "This contract manages everything related to Faucet",
    "events": {
      "Withdrawal(address)": {
        "details": "Emitted when owner request tokens."
      }
    },
    "kind": "dev",
    "methods": {
      "constructor": {
        "details": "Initializes the contract by setting a ERC20 token instance.",
        "params": {
          "_tokenInstance": "- ERC20 token instance."
        }
      },
      "owner()": {
        "details": "Returns the address of the current owner."
      },
      "paused()": {
        "details": "Returns true if the contract is paused, and false otherwise."
      },
      "renounceOwnership()": {
        "details": "Leaves the contract without owner. It will not be possible to call `onlyOwner` functions anymore. Can only be called by the current owner. NOTE: Renouncing ownership will leave the contract without an owner, thereby removing any functionality that is only available to the owner."
      },
      "requestTokens()": {
        "details": "Request faucet token"
      },
      "transferOwnership(address)": {
        "details": "Transfers ownership of the contract to a new account (`newOwner`). Can only be called by the current owner."
      }
    },
    "title": "Faucet Contract",
    "version": 1
  },
  "userdoc": {
    "kind": "user",
    "methods": {},
    "version": 1
  }
}