{
  "contractName": "Faucet",
  "abi": [
    {
      "inputs": [
        {
          "internalType": "address",
          "name": "_tokenInstance",
          "type": "address"
        },
        {
          "internalType": "address",
          "name": "_marketplace",
          "type": "address"
        }
      ],
      "stateMutability": "nonpayable",
      "type": "constructor"
    },
    {
      "anonymous": false,
      "inputs": [
        {
          "indexed": true,
          "internalType": "address",
          "name": "previousOwner",
          "type": "address"
        },
        {
          "indexed": true,
          "internalType": "address",
          "name": "newOwner",
          "type": "address"
        }
      ],
      "name": "OwnershipTransferred",
      "type": "event"
    },
    {
      "anonymous": false,
      "inputs": [
        {
          "indexed": true,
          "internalType": "address",
          "name": "to",
          "type": "address"
        }
      ],
      "name": "Withdrawal",
      "type": "event"
    },
    {
      "inputs": [],
      "name": "marketplace",
      "outputs": [
        {
          "internalType": "address",
          "name": "",
          "type": "address"
        }
      ],
      "stateMutability": "view",
      "type": "function",
      "constant": true
    },
    {
      "inputs": [],
      "name": "owner",
      "outputs": [
        {
          "internalType": "address",
          "name": "",
          "type": "address"
        }
      ],
      "stateMutability": "view",
      "type": "function",
      "constant": true
    },
    {
      "inputs": [],
      "name": "renounceOwnership",
      "outputs": [],
      "stateMutability": "nonpayable",
      "type": "function"
    },
    {
      "inputs": [],
      "name": "tokenAmount",
      "outputs": [
        {
          "internalType": "uint256",
          "name": "",
          "type": "uint256"
        }
      ],
      "stateMutability": "view",
      "type": "function",
      "constant": true
    },
    {
      "inputs": [],
      "name": "tokenInstance",
      "outputs": [
        {
          "internalType": "contract IERC20",
          "name": "",
          "type": "address"
        }
      ],
      "stateMutability": "view",
      "type": "function",
      "constant": true
    },
    {
      "inputs": [
        {
          "internalType": "address",
          "name": "newOwner",
          "type": "address"
        }
      ],
      "name": "transferOwnership",
      "outputs": [],
      "stateMutability": "nonpayable",
      "type": "function"
    },
    {
      "inputs": [],
      "name": "waitTime",
      "outputs": [
        {
          "internalType": "uint256",
          "name": "",
          "type": "uint256"
        }
      ],
      "stateMutability": "view",
      "type": "function",
      "constant": true
    },
    {
      "inputs": [],
      "name": "requestTokens",
      "outputs": [],
      "stateMutability": "nonpayable",
      "type": "function"
    }
  ],
  "bytecode": "0x608060405234801561001057600080fd5b50604051610df7380380610df7833981810160405281019061003291906101fa565b60006100426101dd60201b60201c565b9050806000806101000a81548173ffffffffffffffffffffffffffffffffffffffff021916908373ffffffffffffffffffffffffffffffffffffffff1602179055508073ffffffffffffffffffffffffffffffffffffffff16600073ffffffffffffffffffffffffffffffffffffffff167f8be0079c531659141344cd1fd0a4f28419497f9722a3daafe3b4186f6b6457e060405160405180910390a350600073ffffffffffffffffffffffffffffffffffffffff168273ffffffffffffffffffffffffffffffffffffffff16141561011a57600080fd5b600073ffffffffffffffffffffffffffffffffffffffff168173ffffffffffffffffffffffffffffffffffffffff16141561015457600080fd5b81600160006101000a81548173ffffffffffffffffffffffffffffffffffffffff021916908373ffffffffffffffffffffffffffffffffffffffff16021790555080600260006101000a81548173ffffffffffffffffffffffffffffffffffffffff021916908373ffffffffffffffffffffffffffffffffffffffff160217905550505061027f565b600033905090565b6000815190506101f481610268565b92915050565b6000806040838503121561020d57600080fd5b600061021b858286016101e5565b925050602061022c858286016101e5565b9150509250929050565b600061024182610248565b9050919050565b600073ffffffffffffffffffffffffffffffffffffffff82169050919050565b61027181610236565b811461027c57600080fd5b50565b610b698061028e6000396000f3fe608060405234801561001057600080fd5b50600436106100885760003560e01c8063abc8c7af1161005b578063abc8c7af146100dd578063ccca123b146100fb578063eec7faa114610119578063f2fde38b1461013757610088565b8063359cf2b71461008d578063658030b314610097578063715018a6146100b55780638da5cb5b146100bf575b600080fd5b610095610153565b005b61009f61035f565b6040516100ac91906108cc565b60405180910390f35b6100bd610385565b005b6100c76104bf565b6040516100d49190610888565b60405180910390f35b6100e56104e8565b6040516100f29190610888565b60405180910390f35b61010361050e565b6040516101109190610947565b60405180910390f35b610121610514565b60405161012e9190610947565b60405180910390f35b610151600480360381019061014c91906107a0565b61051a565b005b61015b6106c3565b73ffffffffffffffffffffffffffffffffffffffff166101796104bf565b73ffffffffffffffffffffffffffffffffffffffff16146101cf576040517f08c379a00000000000000000000000000000000000000000000000000000000081526004016101c690610907565b60405180910390fd5b6101d8336106cb565b610217576040517f08c379a000000000000000000000000000000000000000000000000000000000815260040161020e90610927565b60405180910390fd5b600160009054906101000a900473ffffffffffffffffffffffffffffffffffffffff1673ffffffffffffffffffffffffffffffffffffffff1663a9059cbb336127106040518363ffffffff1660e01b81526004016102769291906108a3565b602060405180830381600087803b15801561029057600080fd5b505af11580156102a4573d6000803e3d6000fd5b505050506040513d601f19601f820116820180604052508101906102c891906107c9565b50610708426102d79190610973565b600360003373ffffffffffffffffffffffffffffffffffffffff1673ffffffffffffffffffffffffffffffffffffffff168152602001908152602001600020819055503373ffffffffffffffffffffffffffffffffffffffff167fe19ed71156e31b3c9e18ac7ad8d1b79f0a0feb3be18d23dae612e52040aada4b60405160405180910390a2565b600160009054906101000a900473ffffffffffffffffffffffffffffffffffffffff1681565b61038d6106c3565b73ffffffffffffffffffffffffffffffffffffffff166103ab6104bf565b73ffffffffffffffffffffffffffffffffffffffff1614610401576040517f08c379a00000000000000000000000000000000000000000000000000000000081526004016103f890610907565b60405180910390fd5b600073ffffffffffffffffffffffffffffffffffffffff1660008054906101000a900473ffffffffffffffffffffffffffffffffffffffff1673ffffffffffffffffffffffffffffffffffffffff167f8be0079c531659141344cd1fd0a4f28419497f9722a3daafe3b4186f6b6457e060405160405180910390a360008060006101000a81548173ffffffffffffffffffffffffffffffffffffffff021916908373ffffffffffffffffffffffffffffffffffffffff160217905550565b60008060009054906101000a900473ffffffffffffffffffffffffffffffffffffffff16905090565b600260009054906101000a900473ffffffffffffffffffffffffffffffffffffffff1681565b61070881565b61271081565b6105226106c3565b73ffffffffffffffffffffffffffffffffffffffff166105406104bf565b73ffffffffffffffffffffffffffffffffffffffff1614610596576040517f08c379a000000000000000000000000000000000000000000000000000000000815260040161058d90610907565b60405180910390fd5b600073ffffffffffffffffffffffffffffffffffffffff168173ffffffffffffffffffffffffffffffffffffffff161415610606576040517f08c379a00000000000000000000000000000000000000000000000000000000081526004016105fd906108e7565b60405180910390fd5b8073ffffffffffffffffffffffffffffffffffffffff1660008054906101000a900473ffffffffffffffffffffffffffffffffffffffff1673ffffffffffffffffffffffffffffffffffffffff167f8be0079c531659141344cd1fd0a4f28419497f9722a3daafe3b4186f6b6457e060405160405180910390a3806000806101000a81548173ffffffffffffffffffffffffffffffffffffffff021916908373ffffffffffffffffffffffffffffffffffffffff16021790555050565b600033905090565b600080600360008473ffffffffffffffffffffffffffffffffffffffff1673ffffffffffffffffffffffffffffffffffffffff16815260200190815260200160002054141561071d5760019050610771565b600360008373ffffffffffffffffffffffffffffffffffffffff1673ffffffffffffffffffffffffffffffffffffffff16815260200190815260200160002054421061076c5760019050610771565b600090505b919050565b60008135905061078581610b05565b92915050565b60008151905061079a81610b1c565b92915050565b6000602082840312156107b257600080fd5b60006107c084828501610776565b91505092915050565b6000602082840312156107db57600080fd5b60006107e98482850161078b565b91505092915050565b6107fb816109c9565b82525050565b61080a81610a11565b82525050565b600061081d602683610962565b915061082882610a64565b604082019050919050565b6000610840602083610962565b915061084b82610ab3565b602082019050919050565b6000610863601c83610962565b915061086e82610adc565b602082019050919050565b61088281610a07565b82525050565b600060208201905061089d60008301846107f2565b92915050565b60006040820190506108b860008301856107f2565b6108c56020830184610879565b9392505050565b60006020820190506108e16000830184610801565b92915050565b6000602082019050818103600083015261090081610810565b9050919050565b6000602082019050818103600083015261092081610833565b9050919050565b6000602082019050818103600083015261094081610856565b9050919050565b600060208201905061095c6000830184610879565b92915050565b600082825260208201905092915050565b600061097e82610a07565b915061098983610a07565b9250827fffffffffffffffffffffffffffffffffffffffffffffffffffffffffffffffff038211156109be576109bd610a35565b5b828201905092915050565b60006109d4826109e7565b9050919050565b60008115159050919050565b600073ffffffffffffffffffffffffffffffffffffffff82169050919050565b6000819050919050565b6000610a1c82610a23565b9050919050565b6000610a2e826109e7565b9050919050565b7f4e487b7100000000000000000000000000000000000000000000000000000000600052601160045260246000fd5b7f4f776e61626c653a206e6577206f776e657220697320746865207a65726f206160008201527f6464726573730000000000000000000000000000000000000000000000000000602082015250565b7f4f776e61626c653a2063616c6c6572206973206e6f7420746865206f776e6572600082015250565b7f596f75206861766520746f2077616974203330206d696e757465732100000000600082015250565b610b0e816109c9565b8114610b1957600080fd5b50565b610b25816109db565b8114610b3057600080fd5b5056fea2646970667358221220bd1a04bcded8f303aa630bcba6125c98b2ef287cec904b3f9c1dbf7156c42cb864736f6c63430008030033",
  "immutableReferences": {},
  "source": "// SPDX-License-Identifier: MIT\r\npragma solidity 0.8.3;\r\n\r\nimport \"@openzeppelin/contracts/token/ERC20/utils/SafeERC20.sol\";\r\nimport '@openzeppelin/contracts/access/Ownable.sol';\r\n\r\ncontract Faucet is Ownable {\r\n    uint256 constant public tokenAmount = 10000;\r\n    uint256 constant public waitTime = 30 minutes;\r\n\r\n    IERC20 public tokenInstance;\r\n    address public marketplace;\r\n    \r\n    mapping(address => uint256) lastAccessTime;\r\n\r\n    event Withdrawal(address indexed to);\r\n\r\n    constructor(address _tokenInstance, address _marketplace) public {\r\n        require(_tokenInstance != address(0));\r\n        require(_marketplace != address(0));\r\n        tokenInstance = IERC20(_tokenInstance);\r\n        marketplace = _marketplace;\r\n    }\r\n    \r\n    modifier onlyMarketplace() {\r\n        require(msg.sender == marketplace, \"Caller should be Marketplace\");\r\n        _;\r\n    }\r\n\r\n    function requestTokens() public onlyOwner {\r\n        require(allowedToWithdraw(msg.sender), \"You have to wait 30 minutes!\");\r\n        tokenInstance.transfer(msg.sender, tokenAmount);\r\n        lastAccessTime[msg.sender] = block.timestamp + waitTime;\r\n        emit Withdrawal(msg.sender);\r\n    }\r\n\r\n    function allowedToWithdraw(address _address) internal view returns (bool) {\r\n        if(lastAccessTime[_address] == 0) {\r\n            return true;\r\n        } else if(block.timestamp >= lastAccessTime[_address]) {\r\n            return true;\r\n        }\r\n        return false;\r\n    }\r\n}",
  "sourcePath": "C:/work_store/blockchain_work/tatakai/contracts/Faucet.sol",
  "compiler": {
    "name": "solc",
    "version": "0.8.3+commit.8d00100c.Emscripten.clang"
  },
  "schemaVersion": "3.3.4",
  "updatedAt": "2021-04-23T07:47:52.502Z",
  "networkType": "ethereum",
  "devdoc": {
    "kind": "dev",
    "methods": {
      "owner()": {
        "details": "Returns the address of the current owner."
      },
      "renounceOwnership()": {
        "details": "Leaves the contract without owner. It will not be possible to call `onlyOwner` functions anymore. Can only be called by the current owner. NOTE: Renouncing ownership will leave the contract without an owner, thereby removing any functionality that is only available to the owner."
      },
      "transferOwnership(address)": {
        "details": "Transfers ownership of the contract to a new account (`newOwner`). Can only be called by the current owner."
      }
    },
    "version": 1
  },
  "userdoc": {
    "kind": "user",
    "methods": {},
    "version": 1
  }
}