{
  "contractName": "Marketplace",
  "abi": [
    {
      "inputs": [
        {
          "internalType": "address",
          "name": "_acceptedToken",
          "type": "address"
        }
      ],
      "stateMutability": "payable",
      "type": "constructor",
      "payable": true
    },
    {
      "anonymous": false,
      "inputs": [
        {
          "indexed": true,
          "internalType": "address",
          "name": "previousOwner",
          "type": "address"
        },
        {
          "indexed": true,
          "internalType": "address",
          "name": "newOwner",
          "type": "address"
        }
      ],
      "name": "OwnershipTransferred",
      "type": "event"
    },
    {
      "inputs": [
        {
          "internalType": "address",
          "name": "",
          "type": "address"
        },
        {
          "internalType": "address",
          "name": "",
          "type": "address"
        },
        {
          "internalType": "uint256",
          "name": "",
          "type": "uint256"
        },
        {
          "internalType": "bytes",
          "name": "",
          "type": "bytes"
        }
      ],
      "name": "onERC721Received",
      "outputs": [
        {
          "internalType": "bytes4",
          "name": "",
          "type": "bytes4"
        }
      ],
      "stateMutability": "nonpayable",
      "type": "function"
    },
    {
      "inputs": [],
      "name": "owner",
      "outputs": [
        {
          "internalType": "address",
          "name": "",
          "type": "address"
        }
      ],
      "stateMutability": "view",
      "type": "function",
      "constant": true
    },
    {
      "inputs": [],
      "name": "renounceOwnership",
      "outputs": [],
      "stateMutability": "nonpayable",
      "type": "function"
    },
    {
      "inputs": [
        {
          "internalType": "address",
          "name": "newOwner",
          "type": "address"
        }
      ],
      "name": "transferOwnership",
      "outputs": [],
      "stateMutability": "nonpayable",
      "type": "function"
    },
    {
      "inputs": [
        {
          "internalType": "address",
          "name": "_nftAddress",
          "type": "address"
        },
        {
          "internalType": "address",
          "name": "_buyer",
          "type": "address"
        },
        {
          "internalType": "uint256",
          "name": "_assetId",
          "type": "uint256"
        },
        {
          "internalType": "uint256",
          "name": "_priceInWei",
          "type": "uint256"
        }
      ],
      "name": "buy",
      "outputs": [
        {
          "internalType": "uint256",
          "name": "",
          "type": "uint256"
        }
      ],
      "stateMutability": "payable",
      "type": "function",
      "payable": true
    }
  ],
  "bytecode": "0x6080604052604051610c92380380610c9283398181016040528101906100259190610137565b600061003561011a60201b60201c565b9050806000806101000a81548173ffffffffffffffffffffffffffffffffffffffff021916908373ffffffffffffffffffffffffffffffffffffffff1602179055508073ffffffffffffffffffffffffffffffffffffffff16600073ffffffffffffffffffffffffffffffffffffffff167f8be0079c531659141344cd1fd0a4f28419497f9722a3daafe3b4186f6b6457e060405160405180910390a35080600160006101000a81548173ffffffffffffffffffffffffffffffffffffffff021916908373ffffffffffffffffffffffffffffffffffffffff160217905550506101a9565b600033905090565b60008151905061013181610192565b92915050565b60006020828403121561014957600080fd5b600061015784828501610122565b91505092915050565b600061016b82610172565b9050919050565b600073ffffffffffffffffffffffffffffffffffffffff82169050919050565b61019b81610160565b81146101a657600080fd5b50565b610ada806101b86000396000f3fe60806040526004361061004a5760003560e01c8063150b7a021461004f578063715018a61461008c5780638da5cb5b146100a3578063a9d424e2146100ce578063f2fde38b146100fe575b600080fd5b34801561005b57600080fd5b506100766004803603810190610071919061064a565b610127565b6040516100839190610816565b60405180910390f35b34801561009857600080fd5b506100a161013b565b005b3480156100af57600080fd5b506100b8610275565b6040516100c591906107c4565b60405180910390f35b6100e860048036038101906100e391906106c5565b61029e565b6040516100f59190610871565b60405180910390f35b34801561010a57600080fd5b5061012560048036038101906101209190610621565b6103c9565b005b600063150b7a0260e01b9050949350505050565b610143610572565b73ffffffffffffffffffffffffffffffffffffffff16610161610275565b73ffffffffffffffffffffffffffffffffffffffff16146101b7576040517f08c379a00000000000000000000000000000000000000000000000000000000081526004016101ae90610851565b60405180910390fd5b600073ffffffffffffffffffffffffffffffffffffffff1660008054906101000a900473ffffffffffffffffffffffffffffffffffffffff1673ffffffffffffffffffffffffffffffffffffffff167f8be0079c531659141344cd1fd0a4f28419497f9722a3daafe3b4186f6b6457e060405160405180910390a360008060006101000a81548173ffffffffffffffffffffffffffffffffffffffff021916908373ffffffffffffffffffffffffffffffffffffffff160217905550565b60008060009054906101000a900473ffffffffffffffffffffffffffffffffffffffff16905090565b6000600160009054906101000a900473ffffffffffffffffffffffffffffffffffffffff1673ffffffffffffffffffffffffffffffffffffffff166323b872dd3330856040518463ffffffff1660e01b81526004016102ff939291906107df565b602060405180830381600087803b15801561031957600080fd5b505af115801561032d573d6000803e3d6000fd5b505050506040513d601f19601f820116820180604052508101906103519190610728565b508473ffffffffffffffffffffffffffffffffffffffff166323b872dd3086866040518463ffffffff1660e01b815260040161038f939291906107df565b600060405180830381600087803b1580156103a957600080fd5b505af11580156103bd573d6000803e3d6000fd5b50505050949350505050565b6103d1610572565b73ffffffffffffffffffffffffffffffffffffffff166103ef610275565b73ffffffffffffffffffffffffffffffffffffffff1614610445576040517f08c379a000000000000000000000000000000000000000000000000000000000815260040161043c90610851565b60405180910390fd5b600073ffffffffffffffffffffffffffffffffffffffff168173ffffffffffffffffffffffffffffffffffffffff1614156104b5576040517f08c379a00000000000000000000000000000000000000000000000000000000081526004016104ac90610831565b60405180910390fd5b8073ffffffffffffffffffffffffffffffffffffffff1660008054906101000a900473ffffffffffffffffffffffffffffffffffffffff1673ffffffffffffffffffffffffffffffffffffffff167f8be0079c531659141344cd1fd0a4f28419497f9722a3daafe3b4186f6b6457e060405160405180910390a3806000806101000a81548173ffffffffffffffffffffffffffffffffffffffff021916908373ffffffffffffffffffffffffffffffffffffffff16021790555050565b600033905090565b600061058d610588846108b1565b61088c565b9050828152602081018484840111156105a557600080fd5b6105b0848285610967565b509392505050565b6000813590506105c781610a5f565b92915050565b6000815190506105dc81610a76565b92915050565b600082601f8301126105f357600080fd5b813561060384826020860161057a565b91505092915050565b60008135905061061b81610a8d565b92915050565b60006020828403121561063357600080fd5b6000610641848285016105b8565b91505092915050565b6000806000806080858703121561066057600080fd5b600061066e878288016105b8565b945050602061067f878288016105b8565b93505060406106908782880161060c565b925050606085013567ffffffffffffffff8111156106ad57600080fd5b6106b9878288016105e2565b91505092959194509250565b600080600080608085870312156106db57600080fd5b60006106e9878288016105b8565b94505060206106fa878288016105b8565b935050604061070b8782880161060c565b925050606061071c8782880161060c565b91505092959194509250565b60006020828403121561073a57600080fd5b6000610748848285016105cd565b91505092915050565b61075a816108f3565b82525050565b61076981610911565b82525050565b600061077c6026836108e2565b9150610787826109e7565b604082019050919050565b600061079f6020836108e2565b91506107aa82610a36565b602082019050919050565b6107be8161095d565b82525050565b60006020820190506107d96000830184610751565b92915050565b60006060820190506107f46000830186610751565b6108016020830185610751565b61080e60408301846107b5565b949350505050565b600060208201905061082b6000830184610760565b92915050565b6000602082019050818103600083015261084a8161076f565b9050919050565b6000602082019050818103600083015261086a81610792565b9050919050565b600060208201905061088660008301846107b5565b92915050565b60006108966108a7565b90506108a28282610976565b919050565b6000604051905090565b600067ffffffffffffffff8211156108cc576108cb6109a7565b5b6108d5826109d6565b9050602081019050919050565b600082825260208201905092915050565b60006108fe8261093d565b9050919050565b60008115159050919050565b60007fffffffff0000000000000000000000000000000000000000000000000000000082169050919050565b600073ffffffffffffffffffffffffffffffffffffffff82169050919050565b6000819050919050565b82818337600083830152505050565b61097f826109d6565b810181811067ffffffffffffffff8211171561099e5761099d6109a7565b5b80604052505050565b7f4e487b7100000000000000000000000000000000000000000000000000000000600052604160045260246000fd5b6000601f19601f8301169050919050565b7f4f776e61626c653a206e6577206f776e657220697320746865207a65726f206160008201527f6464726573730000000000000000000000000000000000000000000000000000602082015250565b7f4f776e61626c653a2063616c6c6572206973206e6f7420746865206f776e6572600082015250565b610a68816108f3565b8114610a7357600080fd5b50565b610a7f81610905565b8114610a8a57600080fd5b50565b610a968161095d565b8114610aa157600080fd5b5056fea2646970667358221220e0f568c4a7a445ade2e91c4795c0d2c090e96fd993feabcb944a9fbd0c6a036364736f6c63430008030033",
  "immutableReferences": {},
  "source": "// SPDX-License-Identifier: MIT\r\npragma solidity 0.8.3;\r\n\r\nimport \"@openzeppelin/contracts/token/ERC721/extensions/ERC721URIStorage.sol\";\r\nimport \"@openzeppelin/contracts/token/ERC721/utils/ERC721Holder.sol\";\r\nimport \"@openzeppelin/contracts/token/ERC20/utils/SafeERC20.sol\";\r\nimport \"@openzeppelin/contracts/utils/Counters.sol\";\r\nimport '@openzeppelin/contracts/access/Ownable.sol';\r\n\r\n\r\ncontract Marketplace is ERC721Holder, Ownable {\r\n\r\n    IERC20 private acceptedToken;\r\n\r\n    constructor(address _acceptedToken) public payable {\r\n        acceptedToken = IERC20(_acceptedToken);\r\n    }\r\n    \r\n    /** \r\n     * @dev Buy a NFT  \r\n     * @param _nftAddress - NFT contract address\r\n     * @param _buyer - Buyer address\r\n     * @param _assetId - NFT id\r\n     * @param _priceInWei - NFT price\r\n     */\r\n    function buy(address _nftAddress, address _buyer, uint256 _assetId, uint256 _priceInWei) public payable returns(uint256) {\r\n        \r\n        acceptedToken.transferFrom(\r\n            msg.sender,\r\n            address(this),\r\n            _priceInWei\r\n        );\r\n        \r\n        IERC721(_nftAddress).transferFrom(\r\n            address(this),\r\n            _buyer,\r\n            _assetId\r\n        );\r\n        \r\n    }\r\n    \r\n}",
  "sourcePath": "C:/work_store/blockchain_work/tatakai/contracts/Marketplace.sol",
  "compiler": {
    "name": "solc",
    "version": "0.8.3+commit.8d00100c.Emscripten.clang"
  },
  "schemaVersion": "3.3.4",
  "updatedAt": "2021-04-10T11:18:20.932Z",
  "networkType": "ethereum",
  "devdoc": {
    "kind": "dev",
    "methods": {
      "buy(address,address,uint256,uint256)": {
        "details": "Buy a NFT  ",
        "params": {
          "_assetId": "- NFT id",
          "_buyer": "- Buyer address",
          "_nftAddress": "- NFT contract address",
          "_priceInWei": "- NFT price"
        }
      },
      "onERC721Received(address,address,uint256,bytes)": {
        "details": "See {IERC721Receiver-onERC721Received}. Always returns `IERC721Receiver.onERC721Received.selector`."
      },
      "owner()": {
        "details": "Returns the address of the current owner."
      },
      "renounceOwnership()": {
        "details": "Leaves the contract without owner. It will not be possible to call `onlyOwner` functions anymore. Can only be called by the current owner. NOTE: Renouncing ownership will leave the contract without an owner, thereby removing any functionality that is only available to the owner."
      },
      "transferOwnership(address)": {
        "details": "Transfers ownership of the contract to a new account (`newOwner`). Can only be called by the current owner."
      }
    },
    "version": 1
  },
  "userdoc": {
    "kind": "user",
    "methods": {},
    "version": 1
  }
}