{
  "contractName": "Marketplace",
  "abi": [
    {
      "inputs": [
        {
          "internalType": "address",
          "name": "_acceptedToken",
          "type": "address"
        }
      ],
      "stateMutability": "payable",
      "type": "constructor",
      "payable": true
    },
    {
      "anonymous": false,
      "inputs": [
        {
          "indexed": true,
          "internalType": "address",
          "name": "previousOwner",
          "type": "address"
        },
        {
          "indexed": true,
          "internalType": "address",
          "name": "newOwner",
          "type": "address"
        }
      ],
      "name": "OwnershipTransferred",
      "type": "event"
    },
    {
      "inputs": [],
      "name": "acceptedToken",
      "outputs": [
        {
          "internalType": "contract IERC20",
          "name": "",
          "type": "address"
        }
      ],
      "stateMutability": "view",
      "type": "function",
      "constant": true
    },
    {
      "inputs": [
        {
          "internalType": "address",
          "name": "",
          "type": "address"
        },
        {
          "internalType": "address",
          "name": "",
          "type": "address"
        },
        {
          "internalType": "uint256",
          "name": "",
          "type": "uint256"
        },
        {
          "internalType": "bytes",
          "name": "",
          "type": "bytes"
        }
      ],
      "name": "onERC721Received",
      "outputs": [
        {
          "internalType": "bytes4",
          "name": "",
          "type": "bytes4"
        }
      ],
      "stateMutability": "nonpayable",
      "type": "function"
    },
    {
      "inputs": [],
      "name": "owner",
      "outputs": [
        {
          "internalType": "address",
          "name": "",
          "type": "address"
        }
      ],
      "stateMutability": "view",
      "type": "function",
      "constant": true
    },
    {
      "inputs": [],
      "name": "renounceOwnership",
      "outputs": [],
      "stateMutability": "nonpayable",
      "type": "function"
    },
    {
      "inputs": [
        {
          "internalType": "address",
          "name": "newOwner",
          "type": "address"
        }
      ],
      "name": "transferOwnership",
      "outputs": [],
      "stateMutability": "nonpayable",
      "type": "function"
    },
    {
      "inputs": [
        {
          "internalType": "address",
          "name": "_nftAddress",
          "type": "address"
        },
        {
          "internalType": "address",
          "name": "_buyer",
          "type": "address"
        },
        {
          "internalType": "uint256",
          "name": "_assetId",
          "type": "uint256"
        },
        {
          "internalType": "uint256",
          "name": "_priceInWei",
          "type": "uint256"
        }
      ],
      "name": "buy",
      "outputs": [
        {
          "internalType": "uint256",
          "name": "",
          "type": "uint256"
        }
      ],
      "stateMutability": "payable",
      "type": "function",
      "payable": true
    }
  ],
  "bytecode": "0x608060405260405162000f4f38038062000f4f833981810160405281019062000029919062000339565b60006200003b6200013260201b60201c565b9050806000806101000a81548173ffffffffffffffffffffffffffffffffffffffff021916908373ffffffffffffffffffffffffffffffffffffffff1602179055508073ffffffffffffffffffffffffffffffffffffffff16600073ffffffffffffffffffffffffffffffffffffffff167f8be0079c531659141344cd1fd0a4f28419497f9722a3daafe3b4186f6b6457e060405160405180910390a35080600160006101000a81548173ffffffffffffffffffffffffffffffffffffffff021916908373ffffffffffffffffffffffffffffffffffffffff1602179055506200012b306200013a60201b60201c565b50620004ce565b600033905090565b6200014a6200013260201b60201c565b73ffffffffffffffffffffffffffffffffffffffff1662000170620002f960201b60201c565b73ffffffffffffffffffffffffffffffffffffffff1614620001c9576040517f08c379a0000000000000000000000000000000000000000000000000000000008152600401620001c090620003d5565b60405180910390fd5b600073ffffffffffffffffffffffffffffffffffffffff168173ffffffffffffffffffffffffffffffffffffffff1614156200023c576040517f08c379a00000000000000000000000000000000000000000000000000000000081526004016200023390620003b3565b60405180910390fd5b8073ffffffffffffffffffffffffffffffffffffffff1660008054906101000a900473ffffffffffffffffffffffffffffffffffffffff1673ffffffffffffffffffffffffffffffffffffffff167f8be0079c531659141344cd1fd0a4f28419497f9722a3daafe3b4186f6b6457e060405160405180910390a3806000806101000a81548173ffffffffffffffffffffffffffffffffffffffff021916908373ffffffffffffffffffffffffffffffffffffffff16021790555050565b60008060009054906101000a900473ffffffffffffffffffffffffffffffffffffffff16905090565b6000815190506200033381620004b4565b92915050565b6000602082840312156200034c57600080fd5b60006200035c8482850162000322565b91505092915050565b600062000374602683620003f7565b915062000381826200043c565b604082019050919050565b60006200039b602083620003f7565b9150620003a8826200048b565b602082019050919050565b60006020820190508181036000830152620003ce8162000365565b9050919050565b60006020820190508181036000830152620003f0816200038c565b9050919050565b600082825260208201905092915050565b600062000415826200041c565b9050919050565b600073ffffffffffffffffffffffffffffffffffffffff82169050919050565b7f4f776e61626c653a206e6577206f776e657220697320746865207a65726f206160008201527f6464726573730000000000000000000000000000000000000000000000000000602082015250565b7f4f776e61626c653a2063616c6c6572206973206e6f7420746865206f776e6572600082015250565b620004bf8162000408565b8114620004cb57600080fd5b50565b610a7180620004de6000396000f3fe6080604052600436106100555760003560e01c8063150b7a021461005a578063451c3d8014610097578063715018a6146100c25780638da5cb5b146100d9578063a9d424e214610104578063f2fde38b14610134575b600080fd5b34801561006657600080fd5b50610081600480360381019061007c91906105df565b61015d565b60405161008e9190610791565b60405180910390f35b3480156100a357600080fd5b506100ac610171565b6040516100b991906107ac565b60405180910390f35b3480156100ce57600080fd5b506100d7610197565b005b3480156100e557600080fd5b506100ee6102d1565b6040516100fb919061073f565b60405180910390f35b61011e6004803603810190610119919061065a565b6102fa565b60405161012b9190610807565b60405180910390f35b34801561014057600080fd5b5061015b600480360381019061015691906105b6565b610373565b005b600063150b7a0260e01b9050949350505050565b600160009054906101000a900473ffffffffffffffffffffffffffffffffffffffff1681565b61019f61051c565b73ffffffffffffffffffffffffffffffffffffffff166101bd6102d1565b73ffffffffffffffffffffffffffffffffffffffff1614610213576040517f08c379a000000000000000000000000000000000000000000000000000000000815260040161020a906107e7565b60405180910390fd5b600073ffffffffffffffffffffffffffffffffffffffff1660008054906101000a900473ffffffffffffffffffffffffffffffffffffffff1673ffffffffffffffffffffffffffffffffffffffff167f8be0079c531659141344cd1fd0a4f28419497f9722a3daafe3b4186f6b6457e060405160405180910390a360008060006101000a81548173ffffffffffffffffffffffffffffffffffffffff021916908373ffffffffffffffffffffffffffffffffffffffff160217905550565b60008060009054906101000a900473ffffffffffffffffffffffffffffffffffffffff16905090565b60008473ffffffffffffffffffffffffffffffffffffffff166342842e0e3086866040518463ffffffff1660e01b81526004016103399392919061075a565b600060405180830381600087803b15801561035357600080fd5b505af1158015610367573d6000803e3d6000fd5b50505050949350505050565b61037b61051c565b73ffffffffffffffffffffffffffffffffffffffff166103996102d1565b73ffffffffffffffffffffffffffffffffffffffff16146103ef576040517f08c379a00000000000000000000000000000000000000000000000000000000081526004016103e6906107e7565b60405180910390fd5b600073ffffffffffffffffffffffffffffffffffffffff168173ffffffffffffffffffffffffffffffffffffffff16141561045f576040517f08c379a0000000000000000000000000000000000000000000000000000000008152600401610456906107c7565b60405180910390fd5b8073ffffffffffffffffffffffffffffffffffffffff1660008054906101000a900473ffffffffffffffffffffffffffffffffffffffff1673ffffffffffffffffffffffffffffffffffffffff167f8be0079c531659141344cd1fd0a4f28419497f9722a3daafe3b4186f6b6457e060405160405180910390a3806000806101000a81548173ffffffffffffffffffffffffffffffffffffffff021916908373ffffffffffffffffffffffffffffffffffffffff16021790555050565b600033905090565b600061053761053284610847565b610822565b90508281526020810184848401111561054f57600080fd5b61055a848285610915565b509392505050565b60008135905061057181610a0d565b92915050565b600082601f83011261058857600080fd5b8135610598848260208601610524565b91505092915050565b6000813590506105b081610a24565b92915050565b6000602082840312156105c857600080fd5b60006105d684828501610562565b91505092915050565b600080600080608085870312156105f557600080fd5b600061060387828801610562565b945050602061061487828801610562565b9350506040610625878288016105a1565b925050606085013567ffffffffffffffff81111561064257600080fd5b61064e87828801610577565b91505092959194509250565b6000806000806080858703121561067057600080fd5b600061067e87828801610562565b945050602061068f87828801610562565b93505060406106a0878288016105a1565b92505060606106b1878288016105a1565b91505092959194509250565b6106c681610889565b82525050565b6106d58161089b565b82525050565b6106e4816108f1565b82525050565b60006106f7602683610878565b915061070282610995565b604082019050919050565b600061071a602083610878565b9150610725826109e4565b602082019050919050565b610739816108e7565b82525050565b600060208201905061075460008301846106bd565b92915050565b600060608201905061076f60008301866106bd565b61077c60208301856106bd565b6107896040830184610730565b949350505050565b60006020820190506107a660008301846106cc565b92915050565b60006020820190506107c160008301846106db565b92915050565b600060208201905081810360008301526107e0816106ea565b9050919050565b600060208201905081810360008301526108008161070d565b9050919050565b600060208201905061081c6000830184610730565b92915050565b600061082c61083d565b90506108388282610924565b919050565b6000604051905090565b600067ffffffffffffffff82111561086257610861610955565b5b61086b82610984565b9050602081019050919050565b600082825260208201905092915050565b6000610894826108c7565b9050919050565b60007fffffffff0000000000000000000000000000000000000000000000000000000082169050919050565b600073ffffffffffffffffffffffffffffffffffffffff82169050919050565b6000819050919050565b60006108fc82610903565b9050919050565b600061090e826108c7565b9050919050565b82818337600083830152505050565b61092d82610984565b810181811067ffffffffffffffff8211171561094c5761094b610955565b5b80604052505050565b7f4e487b7100000000000000000000000000000000000000000000000000000000600052604160045260246000fd5b6000601f19601f8301169050919050565b7f4f776e61626c653a206e6577206f776e657220697320746865207a65726f206160008201527f6464726573730000000000000000000000000000000000000000000000000000602082015250565b7f4f776e61626c653a2063616c6c6572206973206e6f7420746865206f776e6572600082015250565b610a1681610889565b8114610a2157600080fd5b50565b610a2d816108e7565b8114610a3857600080fd5b5056fea26469706673582212207b923a503207036e9a03517be9a88e9e32453d286c3ed9499742bf9c9a9579a664736f6c63430008030033",
  "immutableReferences": {},
  "source": "// SPDX-License-Identifier: MIT\r\npragma solidity 0.8.3;\r\n\r\nimport \"@openzeppelin/contracts/token/ERC721/extensions/ERC721URIStorage.sol\";\r\nimport \"@openzeppelin/contracts/token/ERC721/utils/ERC721Holder.sol\";\r\nimport \"@openzeppelin/contracts/token/ERC20/utils/SafeERC20.sol\";\r\nimport \"@openzeppelin/contracts/utils/Counters.sol\";\r\nimport '@openzeppelin/contracts/access/Ownable.sol';\r\n\r\n\r\ncontract Marketplace is ERC721Holder, Ownable {\r\n\r\n    using SafeERC20 for IERC20;\r\n    IERC20 public acceptedToken;\r\n\r\n    constructor(address _acceptedToken) public payable {\r\n        acceptedToken = IERC20(_acceptedToken);\r\n        transferOwnership(address(this));\r\n    }\r\n    \r\n    /** \r\n     * @dev Buy a NFT  \r\n     * @param _nftAddress - NFT contract address\r\n     * @param _buyer - Buyer address\r\n     * @param _assetId - NFT id\r\n     * @param _priceInWei - NFT price\r\n     */\r\n    function buy(address _nftAddress, address _buyer, uint256 _assetId, uint256 _priceInWei) public payable returns(uint256) {\r\n        /*acceptedToken.safeApprove(address(this), _priceInWei);\r\n        \r\n        acceptedToken.safeTransferFrom(\r\n            msg.sender,\r\n            owner(),\r\n            _priceInWei\r\n        );*/\r\n        \r\n        IERC721(_nftAddress).safeTransferFrom(\r\n            address(this),\r\n            _buyer,\r\n            _assetId\r\n        );\r\n    }\r\n    \r\n}",
  "sourcePath": "C:/work_store/blockchain_work/tatakai/contracts/Marketplace.sol",
  "compiler": {
    "name": "solc",
    "version": "0.8.3+commit.8d00100c.Emscripten.clang"
  },
  "schemaVersion": "3.3.4",
  "updatedAt": "2021-04-07T12:23:00.200Z",
  "networkType": "ethereum",
  "devdoc": {
    "kind": "dev",
    "methods": {
      "buy(address,address,uint256,uint256)": {
        "details": "Buy a NFT  ",
        "params": {
          "_assetId": "- NFT id",
          "_buyer": "- Buyer address",
          "_nftAddress": "- NFT contract address",
          "_priceInWei": "- NFT price"
        }
      },
      "onERC721Received(address,address,uint256,bytes)": {
        "details": "See {IERC721Receiver-onERC721Received}. Always returns `IERC721Receiver.onERC721Received.selector`."
      },
      "owner()": {
        "details": "Returns the address of the current owner."
      },
      "renounceOwnership()": {
        "details": "Leaves the contract without owner. It will not be possible to call `onlyOwner` functions anymore. Can only be called by the current owner. NOTE: Renouncing ownership will leave the contract without an owner, thereby removing any functionality that is only available to the owner."
      },
      "transferOwnership(address)": {
        "details": "Transfers ownership of the contract to a new account (`newOwner`). Can only be called by the current owner."
      }
    },
    "version": 1
  },
  "userdoc": {
    "kind": "user",
    "methods": {},
    "version": 1
  }
}