{
  "contractName": "Marketplace",
  "abi": [
    {
      "inputs": [
        {
          "internalType": "address",
          "name": "_acceptedToken",
          "type": "address"
        }
      ],
      "stateMutability": "payable",
      "type": "constructor",
      "payable": true
    },
    {
      "anonymous": false,
      "inputs": [
        {
          "indexed": false,
          "internalType": "address",
          "name": "oldOwner",
          "type": "address"
        },
        {
          "indexed": false,
          "internalType": "address",
          "name": "newOwner",
          "type": "address"
        },
        {
          "indexed": false,
          "internalType": "uint256",
          "name": "price",
          "type": "uint256"
        }
      ],
      "name": "BuyTransaction",
      "type": "event"
    },
    {
      "anonymous": false,
      "inputs": [
        {
          "indexed": true,
          "internalType": "address",
          "name": "previousOwner",
          "type": "address"
        },
        {
          "indexed": true,
          "internalType": "address",
          "name": "newOwner",
          "type": "address"
        }
      ],
      "name": "OwnershipTransferred",
      "type": "event"
    },
    {
      "inputs": [
        {
          "internalType": "address",
          "name": "",
          "type": "address"
        },
        {
          "internalType": "address",
          "name": "",
          "type": "address"
        },
        {
          "internalType": "uint256",
          "name": "",
          "type": "uint256"
        },
        {
          "internalType": "bytes",
          "name": "",
          "type": "bytes"
        }
      ],
      "name": "onERC721Received",
      "outputs": [
        {
          "internalType": "bytes4",
          "name": "",
          "type": "bytes4"
        }
      ],
      "stateMutability": "nonpayable",
      "type": "function"
    },
    {
      "inputs": [],
      "name": "owner",
      "outputs": [
        {
          "internalType": "address",
          "name": "",
          "type": "address"
        }
      ],
      "stateMutability": "view",
      "type": "function",
      "constant": true
    },
    {
      "inputs": [],
      "name": "renounceOwnership",
      "outputs": [],
      "stateMutability": "nonpayable",
      "type": "function"
    },
    {
      "inputs": [
        {
          "internalType": "address",
          "name": "newOwner",
          "type": "address"
        }
      ],
      "name": "transferOwnership",
      "outputs": [],
      "stateMutability": "nonpayable",
      "type": "function"
    },
    {
      "stateMutability": "payable",
      "type": "receive",
      "payable": true
    },
    {
      "inputs": [
        {
          "internalType": "address",
          "name": "_nftAddress",
          "type": "address"
        },
        {
          "internalType": "uint256",
          "name": "_assetId",
          "type": "uint256"
        },
        {
          "internalType": "uint256",
          "name": "_priceInWei",
          "type": "uint256"
        }
      ],
      "name": "buy",
      "outputs": [
        {
          "internalType": "uint256",
          "name": "",
          "type": "uint256"
        }
      ],
      "stateMutability": "payable",
      "type": "function",
      "payable": true
    }
  ],
  "bytecode": "0x6080604052604051620010e9380380620010e983398181016040528101906100279190610173565b600061003761015660201b60201c565b9050806000806101000a81548173ffffffffffffffffffffffffffffffffffffffff021916908373ffffffffffffffffffffffffffffffffffffffff1602179055508073ffffffffffffffffffffffffffffffffffffffff16600073ffffffffffffffffffffffffffffffffffffffff167f8be0079c531659141344cd1fd0a4f28419497f9722a3daafe3b4186f6b6457e060405160405180910390a350600073ffffffffffffffffffffffffffffffffffffffff168173ffffffffffffffffffffffffffffffffffffffff16141561010f57600080fd5b80600160006101000a81548173ffffffffffffffffffffffffffffffffffffffff021916908373ffffffffffffffffffffffffffffffffffffffff160217905550506101e5565b600033905090565b60008151905061016d816101ce565b92915050565b60006020828403121561018557600080fd5b60006101938482850161015e565b91505092915050565b60006101a7826101ae565b9050919050565b600073ffffffffffffffffffffffffffffffffffffffff82169050919050565b6101d78161019c565b81146101e257600080fd5b50565b610ef480620001f56000396000f3fe60806040526004361061004e5760003560e01c8063150b7a0214610239578063715018a6146102765780638da5cb5b1461028d578063a59ac6dd146102b8578063f2fde38b146102e857610234565b366102345760643411610096576040517f08c379a000000000000000000000000000000000000000000000000000000000815260040161008d90610c19565b60405180910390fd5b600160009054906101000a900473ffffffffffffffffffffffffffffffffffffffff1673ffffffffffffffffffffffffffffffffffffffff166370a08231306040518263ffffffff1660e01b81526004016100f19190610b23565b60206040518083038186803b15801561010957600080fd5b505afa15801561011d573d6000803e3d6000fd5b505050506040513d601f19601f820116820180604052508101906101419190610a41565b3410610182576040517f08c379a000000000000000000000000000000000000000000000000000000000815260040161017990610bf9565b60405180910390fd5b600160009054906101000a900473ffffffffffffffffffffffffffffffffffffffff1673ffffffffffffffffffffffffffffffffffffffff1663a9059cbb33346040518363ffffffff1660e01b81526004016101df929190610b75565b602060405180830381600087803b1580156101f957600080fd5b505af115801561020d573d6000803e3d6000fd5b505050506040513d601f19601f820116820180604052508101906102319190610a18565b50005b600080fd5b34801561024557600080fd5b50610260600480360381019061025b919061094e565b610311565b60405161026d9190610b9e565b60405180910390f35b34801561028257600080fd5b5061028b610325565b005b34801561029957600080fd5b506102a261045f565b6040516102af9190610b23565b60405180910390f35b6102d260048036038101906102cd91906109c9565b610488565b6040516102df9190610c39565b60405180910390f35b3480156102f457600080fd5b5061030f600480360381019061030a91906108fc565b61067a565b005b600063150b7a0260e01b9050949350505050565b61032d610823565b73ffffffffffffffffffffffffffffffffffffffff1661034b61045f565b73ffffffffffffffffffffffffffffffffffffffff16146103a1576040517f08c379a000000000000000000000000000000000000000000000000000000000815260040161039890610bd9565b60405180910390fd5b600073ffffffffffffffffffffffffffffffffffffffff1660008054906101000a900473ffffffffffffffffffffffffffffffffffffffff1673ffffffffffffffffffffffffffffffffffffffff167f8be0079c531659141344cd1fd0a4f28419497f9722a3daafe3b4186f6b6457e060405160405180910390a360008060006101000a81548173ffffffffffffffffffffffffffffffffffffffff021916908373ffffffffffffffffffffffffffffffffffffffff160217905550565b60008060009054906101000a900473ffffffffffffffffffffffffffffffffffffffff16905090565b6000808473ffffffffffffffffffffffffffffffffffffffff16636352211e856040518263ffffffff1660e01b81526004016104c49190610c39565b60206040518083038186803b1580156104dc57600080fd5b505afa1580156104f0573d6000803e3d6000fd5b505050506040513d601f19601f820116820180604052508101906105149190610925565b9050600160009054906101000a900473ffffffffffffffffffffffffffffffffffffffff1673ffffffffffffffffffffffffffffffffffffffff166323b872dd3383866040518463ffffffff1660e01b815260040161057593929190610b3e565b602060405180830381600087803b15801561058f57600080fd5b505af11580156105a3573d6000803e3d6000fd5b505050506040513d601f19601f820116820180604052508101906105c79190610a18565b508473ffffffffffffffffffffffffffffffffffffffff166323b872dd8233876040518463ffffffff1660e01b815260040161060593929190610b3e565b600060405180830381600087803b15801561061f57600080fd5b505af1158015610633573d6000803e3d6000fd5b505050507f1a2838a08dc8c7bf163334b05f86f7aba9de18c729cc7ee8d6df7f6f6cf46bf681338560405161066a93929190610b3e565b60405180910390a1509392505050565b610682610823565b73ffffffffffffffffffffffffffffffffffffffff166106a061045f565b73ffffffffffffffffffffffffffffffffffffffff16146106f6576040517f08c379a00000000000000000000000000000000000000000000000000000000081526004016106ed90610bd9565b60405180910390fd5b600073ffffffffffffffffffffffffffffffffffffffff168173ffffffffffffffffffffffffffffffffffffffff161415610766576040517f08c379a000000000000000000000000000000000000000000000000000000000815260040161075d90610bb9565b60405180910390fd5b8073ffffffffffffffffffffffffffffffffffffffff1660008054906101000a900473ffffffffffffffffffffffffffffffffffffffff1673ffffffffffffffffffffffffffffffffffffffff167f8be0079c531659141344cd1fd0a4f28419497f9722a3daafe3b4186f6b6457e060405160405180910390a3806000806101000a81548173ffffffffffffffffffffffffffffffffffffffff021916908373ffffffffffffffffffffffffffffffffffffffff16021790555050565b600033905090565b600061083e61083984610c79565b610c54565b90508281526020810184848401111561085657600080fd5b610861848285610d2f565b509392505050565b60008135905061087881610e79565b92915050565b60008151905061088d81610e79565b92915050565b6000815190506108a281610e90565b92915050565b600082601f8301126108b957600080fd5b81356108c984826020860161082b565b91505092915050565b6000813590506108e181610ea7565b92915050565b6000815190506108f681610ea7565b92915050565b60006020828403121561090e57600080fd5b600061091c84828501610869565b91505092915050565b60006020828403121561093757600080fd5b60006109458482850161087e565b91505092915050565b6000806000806080858703121561096457600080fd5b600061097287828801610869565b945050602061098387828801610869565b9350506040610994878288016108d2565b925050606085013567ffffffffffffffff8111156109b157600080fd5b6109bd878288016108a8565b91505092959194509250565b6000806000606084860312156109de57600080fd5b60006109ec86828701610869565b93505060206109fd868287016108d2565b9250506040610a0e868287016108d2565b9150509250925092565b600060208284031215610a2a57600080fd5b6000610a3884828501610893565b91505092915050565b600060208284031215610a5357600080fd5b6000610a61848285016108e7565b91505092915050565b610a7381610cbb565b82525050565b610a8281610cd9565b82525050565b6000610a95602683610caa565b9150610aa082610daf565b604082019050919050565b6000610ab8602083610caa565b9150610ac382610dfe565b602082019050919050565b6000610adb600e83610caa565b9150610ae682610e27565b602082019050919050565b6000610afe601d83610caa565b9150610b0982610e50565b602082019050919050565b610b1d81610d25565b82525050565b6000602082019050610b386000830184610a6a565b92915050565b6000606082019050610b536000830186610a6a565b610b606020830185610a6a565b610b6d6040830184610b14565b949350505050565b6000604082019050610b8a6000830185610a6a565b610b976020830184610b14565b9392505050565b6000602082019050610bb36000830184610a79565b92915050565b60006020820190508181036000830152610bd281610a88565b9050919050565b60006020820190508181036000830152610bf281610aab565b9050919050565b60006020820190508181036000830152610c1281610ace565b9050919050565b60006020820190508181036000830152610c3281610af1565b9050919050565b6000602082019050610c4e6000830184610b14565b92915050565b6000610c5e610c6f565b9050610c6a8282610d3e565b919050565b6000604051905090565b600067ffffffffffffffff821115610c9457610c93610d6f565b5b610c9d82610d9e565b9050602081019050919050565b600082825260208201905092915050565b6000610cc682610d05565b9050919050565b60008115159050919050565b60007fffffffff0000000000000000000000000000000000000000000000000000000082169050919050565b600073ffffffffffffffffffffffffffffffffffffffff82169050919050565b6000819050919050565b82818337600083830152505050565b610d4782610d9e565b810181811067ffffffffffffffff82111715610d6657610d65610d6f565b5b80604052505050565b7f4e487b7100000000000000000000000000000000000000000000000000000000600052604160045260246000fd5b6000601f19601f8301169050919050565b7f4f776e61626c653a206e6577206f776e657220697320746865207a65726f206160008201527f6464726573730000000000000000000000000000000000000000000000000000602082015250565b7f4f776e61626c653a2063616c6c6572206973206e6f7420746865206f776e6572600082015250565b7f4578636565642062616c616e6365000000000000000000000000000000000000600082015250565b7f596f75206d7573742073656e642031303020776569206d696e696d756d000000600082015250565b610e8281610cbb565b8114610e8d57600080fd5b50565b610e9981610ccd565b8114610ea457600080fd5b50565b610eb081610d25565b8114610ebb57600080fd5b5056fea264697066735822122032cb85242c6e5562fba8df72bfe0805efa124659bc833b541e333d5f6cc8c7d364736f6c63430008030033",
  "immutableReferences": {},
  "source": "// SPDX-License-Identifier: MIT\r\npragma solidity 0.8.3;\r\n\r\nimport \"@openzeppelin/contracts/token/ERC721/extensions/ERC721URIStorage.sol\";\r\nimport \"@openzeppelin/contracts/token/ERC721/utils/ERC721Holder.sol\";\r\nimport \"@openzeppelin/contracts/token/ERC20/utils/SafeERC20.sol\";\r\nimport \"@openzeppelin/contracts/utils/Counters.sol\";\r\nimport '@openzeppelin/contracts/access/Ownable.sol';\r\n\r\n\r\ncontract Marketplace is ERC721Holder, Ownable {\r\n\r\n    IERC20 private acceptedToken;\r\n    \r\n    event BuyTransaction(\r\n        address oldOwner,\r\n        address newOwner,\r\n        uint price\r\n    );\r\n\r\n    constructor(address _acceptedToken) public payable {\r\n        require(_acceptedToken != address(0));\r\n        acceptedToken = IERC20(_acceptedToken);\r\n    }\r\n\r\n    receive() external payable {\r\n        require(msg.value > 100, \"You must send 100 wei minimum\");\r\n        require(msg.value < acceptedToken.balanceOf(address(this)), \"Exceed balance\");\r\n        acceptedToken.transfer(msg.sender, msg.value);\r\n    }\r\n    \r\n    /**\r\n     * @dev Buy a NFT  \r\n     * @param _nftAddress - NFT contract address\r\n     * @param _assetId - NFT id\r\n     * @param _priceInWei - NFT price\r\n     */\r\n    function buy(address _nftAddress, uint256 _assetId, uint256 _priceInWei) public payable returns(uint256) {\r\n        address nftOwner = IERC721(_nftAddress).ownerOf(_assetId);\r\n        \r\n        acceptedToken.transferFrom(\r\n            msg.sender, \r\n            nftOwner,\r\n            _priceInWei\r\n        );\r\n        \r\n        IERC721(_nftAddress).transferFrom(\r\n            nftOwner,\r\n            msg.sender,\r\n            _assetId\r\n        );\r\n\r\n        emit BuyTransaction(nftOwner, msg.sender, _priceInWei);\r\n    }\r\n    \r\n}",
  "sourcePath": "C:/work_store/blockchain_work/tatakai/contracts/Marketplace.sol",
  "compiler": {
    "name": "solc",
    "version": "0.8.3+commit.8d00100c.Emscripten.clang"
  },
  "schemaVersion": "3.3.4",
  "updatedAt": "2021-04-20T07:40:10.061Z",
  "networkType": "ethereum",
  "devdoc": {
    "kind": "dev",
    "methods": {
      "buy(address,uint256,uint256)": {
        "details": "Buy a NFT  ",
        "params": {
          "_assetId": "- NFT id",
          "_nftAddress": "- NFT contract address",
          "_priceInWei": "- NFT price"
        }
      },
      "onERC721Received(address,address,uint256,bytes)": {
        "details": "See {IERC721Receiver-onERC721Received}. Always returns `IERC721Receiver.onERC721Received.selector`."
      },
      "owner()": {
        "details": "Returns the address of the current owner."
      },
      "renounceOwnership()": {
        "details": "Leaves the contract without owner. It will not be possible to call `onlyOwner` functions anymore. Can only be called by the current owner. NOTE: Renouncing ownership will leave the contract without an owner, thereby removing any functionality that is only available to the owner."
      },
      "transferOwnership(address)": {
        "details": "Transfers ownership of the contract to a new account (`newOwner`). Can only be called by the current owner."
      }
    },
    "version": 1
  },
  "userdoc": {
    "kind": "user",
    "methods": {},
    "version": 1
  }
}