{
  "contractName": "Marketplace",
  "abi": [
    {
      "inputs": [
        {
          "internalType": "address",
          "name": "_acceptedToken",
          "type": "address"
        }
      ],
      "stateMutability": "nonpayable",
      "type": "constructor"
    },
    {
      "anonymous": false,
      "inputs": [
        {
          "indexed": false,
          "internalType": "uint256",
          "name": "assetId",
          "type": "uint256"
        },
        {
          "indexed": false,
          "internalType": "address",
          "name": "oldOwner",
          "type": "address"
        },
        {
          "indexed": false,
          "internalType": "address",
          "name": "newOwner",
          "type": "address"
        },
        {
          "indexed": false,
          "internalType": "uint256",
          "name": "price",
          "type": "uint256"
        }
      ],
      "name": "BuyTransaction",
      "type": "event"
    },
    {
      "anonymous": false,
      "inputs": [
        {
          "indexed": true,
          "internalType": "address",
          "name": "previousOwner",
          "type": "address"
        },
        {
          "indexed": true,
          "internalType": "address",
          "name": "newOwner",
          "type": "address"
        }
      ],
      "name": "OwnershipTransferred",
      "type": "event"
    },
    {
      "anonymous": false,
      "inputs": [
        {
          "indexed": false,
          "internalType": "address",
          "name": "account",
          "type": "address"
        }
      ],
      "name": "Paused",
      "type": "event"
    },
    {
      "anonymous": false,
      "inputs": [
        {
          "indexed": false,
          "internalType": "address",
          "name": "account",
          "type": "address"
        }
      ],
      "name": "Unpaused",
      "type": "event"
    },
    {
      "inputs": [
        {
          "internalType": "address",
          "name": "",
          "type": "address"
        },
        {
          "internalType": "address",
          "name": "",
          "type": "address"
        },
        {
          "internalType": "uint256",
          "name": "",
          "type": "uint256"
        },
        {
          "internalType": "bytes",
          "name": "",
          "type": "bytes"
        }
      ],
      "name": "onERC721Received",
      "outputs": [
        {
          "internalType": "bytes4",
          "name": "",
          "type": "bytes4"
        }
      ],
      "stateMutability": "nonpayable",
      "type": "function"
    },
    {
      "inputs": [],
      "name": "owner",
      "outputs": [
        {
          "internalType": "address",
          "name": "",
          "type": "address"
        }
      ],
      "stateMutability": "view",
      "type": "function",
      "constant": true
    },
    {
      "inputs": [],
      "name": "paused",
      "outputs": [
        {
          "internalType": "bool",
          "name": "",
          "type": "bool"
        }
      ],
      "stateMutability": "view",
      "type": "function",
      "constant": true
    },
    {
      "inputs": [],
      "name": "renounceOwnership",
      "outputs": [],
      "stateMutability": "nonpayable",
      "type": "function"
    },
    {
      "inputs": [
        {
          "internalType": "address",
          "name": "newOwner",
          "type": "address"
        }
      ],
      "name": "transferOwnership",
      "outputs": [],
      "stateMutability": "nonpayable",
      "type": "function"
    },
    {
      "stateMutability": "payable",
      "type": "receive",
      "payable": true
    },
    {
      "inputs": [
        {
          "internalType": "address",
          "name": "_nftAddress",
          "type": "address"
        },
        {
          "internalType": "uint256",
          "name": "_assetId",
          "type": "uint256"
        }
      ],
      "name": "buy",
      "outputs": [],
      "stateMutability": "payable",
      "type": "function",
      "payable": true
    },
    {
      "inputs": [
        {
          "internalType": "address",
          "name": "_nftAddress",
          "type": "address"
        },
        {
          "internalType": "uint256",
          "name": "_assetId",
          "type": "uint256"
        },
        {
          "internalType": "uint256",
          "name": "_amount",
          "type": "uint256"
        }
      ],
      "name": "putOnSale",
      "outputs": [],
      "stateMutability": "nonpayable",
      "type": "function"
    },
    {
      "inputs": [
        {
          "internalType": "address",
          "name": "_nftAddress",
          "type": "address"
        },
        {
          "internalType": "uint256",
          "name": "_assetId",
          "type": "uint256"
        }
      ],
      "name": "removeOnSale",
      "outputs": [],
      "stateMutability": "nonpayable",
      "type": "function"
    }
  ],
  "bytecode": "0x60806040523480156200001157600080fd5b5060405162001afb38038062001afb8339818101604052810190620000379190620001a3565b6000620000496200018460201b60201c565b9050806000806101000a81548173ffffffffffffffffffffffffffffffffffffffff021916908373ffffffffffffffffffffffffffffffffffffffff1602179055508073ffffffffffffffffffffffffffffffffffffffff16600073ffffffffffffffffffffffffffffffffffffffff167f8be0079c531659141344cd1fd0a4f28419497f9722a3daafe3b4186f6b6457e060405160405180910390a35060008060146101000a81548160ff021916908315150217905550600073ffffffffffffffffffffffffffffffffffffffff168173ffffffffffffffffffffffffffffffffffffffff1614156200013c57600080fd5b80600160006101000a81548173ffffffffffffffffffffffffffffffffffffffff021916908373ffffffffffffffffffffffffffffffffffffffff160217905550506200021d565b600033905090565b6000815190506200019d8162000203565b92915050565b600060208284031215620001b657600080fd5b6000620001c6848285016200018c565b91505092915050565b6000620001dc82620001e3565b9050919050565b600073ffffffffffffffffffffffffffffffffffffffff82169050919050565b6200020e81620001cf565b81146200021a57600080fd5b50565b6118ce806200022d6000396000f3fe60806040526004361061007f5760003560e01c8063715018a61161004e578063715018a6146103245780638da5cb5b1461033b578063cce7ec1314610366578063f2fde38b1461038257610265565b8063150b7a021461026a5780631ab583e9146102a75780633ac0374a146102d05780635c975abb146102f957610265565b3661026557606434116100c7576040517f08c379a00000000000000000000000000000000000000000000000000000000081526004016100be906114c1565b60405180910390fd5b600160009054906101000a900473ffffffffffffffffffffffffffffffffffffffff1673ffffffffffffffffffffffffffffffffffffffff166370a08231306040518263ffffffff1660e01b81526004016101229190611370565b60206040518083038186803b15801561013a57600080fd5b505afa15801561014e573d6000803e3d6000fd5b505050506040513d601f19601f820116820180604052508101906101729190611216565b34106101b3576040517f08c379a00000000000000000000000000000000000000000000000000000000081526004016101aa906114a1565b60405180910390fd5b600160009054906101000a900473ffffffffffffffffffffffffffffffffffffffff1673ffffffffffffffffffffffffffffffffffffffff1663a9059cbb33346040518363ffffffff1660e01b81526004016102109291906113c2565b602060405180830381600087803b15801561022a57600080fd5b505af115801561023e573d6000803e3d6000fd5b505050506040513d601f19601f8201168201806040525081019061026291906111ed565b50005b600080fd5b34801561027657600080fd5b50610291600480360381019061028c91906110e7565b6103ab565b60405161029e9190611406565b60405180910390f35b3480156102b357600080fd5b506102ce60048036038101906102c99190611162565b6103bf565b005b3480156102dc57600080fd5b506102f760048036038101906102f2919061119e565b6105ad565b005b34801561030557600080fd5b5061030e610897565b60405161031b91906113eb565b60405180910390f35b34801561033057600080fd5b506103396108ad565b005b34801561034757600080fd5b506103506109e7565b60405161035d9190611370565b60405180910390f35b610380600480360381019061037b9190611162565b610a10565b005b34801561038e57600080fd5b506103a960048036038101906103a49190611095565b610e13565b005b600063150b7a0260e01b9050949350505050565b6103c7610897565b15610407576040517f08c379a00000000000000000000000000000000000000000000000000000000081526004016103fe90611441565b60405180910390fd5b8181600073ffffffffffffffffffffffffffffffffffffffff168273ffffffffffffffffffffffffffffffffffffffff16141561044357600080fd5b8173ffffffffffffffffffffffffffffffffffffffff16636352211e826040518263ffffffff1660e01b815260040161047c9190611501565b60206040518083038186803b15801561049457600080fd5b505afa1580156104a8573d6000803e3d6000fd5b505050506040513d601f19601f820116820180604052508101906104cc91906110be565b73ffffffffffffffffffffffffffffffffffffffff163373ffffffffffffffffffffffffffffffffffffffff1614610539576040517f08c379a000000000000000000000000000000000000000000000000000000000815260040161053090611481565b60405180910390fd5b8373ffffffffffffffffffffffffffffffffffffffff166343d5bef78460006040518363ffffffff1660e01b8152600401610575929190611561565b600060405180830381600087803b15801561058f57600080fd5b505af11580156105a3573d6000803e3d6000fd5b5050505050505050565b6105b5610897565b156105f5576040517f08c379a00000000000000000000000000000000000000000000000000000000081526004016105ec90611441565b60405180910390fd5b8282600073ffffffffffffffffffffffffffffffffffffffff168273ffffffffffffffffffffffffffffffffffffffff16141561063157600080fd5b8173ffffffffffffffffffffffffffffffffffffffff16636352211e826040518263ffffffff1660e01b815260040161066a9190611501565b60206040518083038186803b15801561068257600080fd5b505afa158015610696573d6000803e3d6000fd5b505050506040513d601f19601f820116820180604052508101906106ba91906110be565b73ffffffffffffffffffffffffffffffffffffffff163373ffffffffffffffffffffffffffffffffffffffff1614610727576040517f08c379a000000000000000000000000000000000000000000000000000000000815260040161071e90611481565b60405180910390fd5b8473ffffffffffffffffffffffffffffffffffffffff1663f7d9757785856040518363ffffffff1660e01b815260040161076292919061158a565b600060405180830381600087803b15801561077c57600080fd5b505af1158015610790573d6000803e3d6000fd5b505050508473ffffffffffffffffffffffffffffffffffffffff1663b9e61c20856040518263ffffffff1660e01b81526004016107cd9190611501565b60206040518083038186803b1580156107e557600080fd5b505afa1580156107f9573d6000803e3d6000fd5b505050506040513d601f19601f8201168201806040525081019061081d91906111ed565b610890578473ffffffffffffffffffffffffffffffffffffffff166343d5bef78560016040518363ffffffff1660e01b815260040161085d929190611561565b600060405180830381600087803b15801561087757600080fd5b505af115801561088b573d6000803e3d6000fd5b505050505b5050505050565b60008060149054906101000a900460ff16905090565b6108b5610fbc565b73ffffffffffffffffffffffffffffffffffffffff166108d36109e7565b73ffffffffffffffffffffffffffffffffffffffff1614610929576040517f08c379a000000000000000000000000000000000000000000000000000000000815260040161092090611461565b60405180910390fd5b600073ffffffffffffffffffffffffffffffffffffffff1660008054906101000a900473ffffffffffffffffffffffffffffffffffffffff1673ffffffffffffffffffffffffffffffffffffffff167f8be0079c531659141344cd1fd0a4f28419497f9722a3daafe3b4186f6b6457e060405160405180910390a360008060006101000a81548173ffffffffffffffffffffffffffffffffffffffff021916908373ffffffffffffffffffffffffffffffffffffffff160217905550565b60008060009054906101000a900473ffffffffffffffffffffffffffffffffffffffff16905090565b610a18610897565b15610a58576040517f08c379a0000000000000000000000000000000000000000000000000000000008152600401610a4f90611441565b60405180910390fd5b600115158273ffffffffffffffffffffffffffffffffffffffff1663b9e61c20836040518263ffffffff1660e01b8152600401610a959190611501565b60206040518083038186803b158015610aad57600080fd5b505afa158015610ac1573d6000803e3d6000fd5b505050506040513d601f19601f82011682018060405250810190610ae591906111ed565b151514610b27576040517f08c379a0000000000000000000000000000000000000000000000000000000008152600401610b1e906114e1565b60405180910390fd5b60008273ffffffffffffffffffffffffffffffffffffffff16636352211e836040518263ffffffff1660e01b8152600401610b629190611501565b60206040518083038186803b158015610b7a57600080fd5b505afa158015610b8e573d6000803e3d6000fd5b505050506040513d601f19601f82011682018060405250810190610bb291906110be565b905060008373ffffffffffffffffffffffffffffffffffffffff1663e7572230846040518263ffffffff1660e01b8152600401610bef9190611501565b60206040518083038186803b158015610c0757600080fd5b505afa158015610c1b573d6000803e3d6000fd5b505050506040513d601f19601f82011682018060405250810190610c3f9190611216565b9050600160009054906101000a900473ffffffffffffffffffffffffffffffffffffffff1673ffffffffffffffffffffffffffffffffffffffff166323b872dd3384846040518463ffffffff1660e01b8152600401610ca09392919061138b565b602060405180830381600087803b158015610cba57600080fd5b505af1158015610cce573d6000803e3d6000fd5b505050506040513d601f19601f82011682018060405250810190610cf291906111ed565b508373ffffffffffffffffffffffffffffffffffffffff166323b872dd8333866040518463ffffffff1660e01b8152600401610d309392919061138b565b600060405180830381600087803b158015610d4a57600080fd5b505af1158015610d5e573d6000803e3d6000fd5b505050508373ffffffffffffffffffffffffffffffffffffffff166343d5bef78460006040518363ffffffff1660e01b8152600401610d9e929190611561565b600060405180830381600087803b158015610db857600080fd5b505af1158015610dcc573d6000803e3d6000fd5b505050507f1a24baba93c74f6f72ec9093e6a2fe1806a1c75bd35f337e2ba043b226b3683383833384604051610e05949392919061151c565b60405180910390a150505050565b610e1b610fbc565b73ffffffffffffffffffffffffffffffffffffffff16610e396109e7565b73ffffffffffffffffffffffffffffffffffffffff1614610e8f576040517f08c379a0000000000000000000000000000000000000000000000000000000008152600401610e8690611461565b60405180910390fd5b600073ffffffffffffffffffffffffffffffffffffffff168173ffffffffffffffffffffffffffffffffffffffff161415610eff576040517f08c379a0000000000000000000000000000000000000000000000000000000008152600401610ef690611421565b60405180910390fd5b8073ffffffffffffffffffffffffffffffffffffffff1660008054906101000a900473ffffffffffffffffffffffffffffffffffffffff1673ffffffffffffffffffffffffffffffffffffffff167f8be0079c531659141344cd1fd0a4f28419497f9722a3daafe3b4186f6b6457e060405160405180910390a3806000806101000a81548173ffffffffffffffffffffffffffffffffffffffff021916908373ffffffffffffffffffffffffffffffffffffffff16021790555050565b600033905090565b6000610fd7610fd2846115d8565b6115b3565b905082815260208101848484011115610fef57600080fd5b610ffa84828561168e565b509392505050565b60008135905061101181611853565b92915050565b60008151905061102681611853565b92915050565b60008151905061103b8161186a565b92915050565b600082601f83011261105257600080fd5b8135611062848260208601610fc4565b91505092915050565b60008135905061107a81611881565b92915050565b60008151905061108f81611881565b92915050565b6000602082840312156110a757600080fd5b60006110b584828501611002565b91505092915050565b6000602082840312156110d057600080fd5b60006110de84828501611017565b91505092915050565b600080600080608085870312156110fd57600080fd5b600061110b87828801611002565b945050602061111c87828801611002565b935050604061112d8782880161106b565b925050606085013567ffffffffffffffff81111561114a57600080fd5b61115687828801611041565b91505092959194509250565b6000806040838503121561117557600080fd5b600061118385828601611002565b92505060206111948582860161106b565b9150509250929050565b6000806000606084860312156111b357600080fd5b60006111c186828701611002565b93505060206111d28682870161106b565b92505060406111e38682870161106b565b9150509250925092565b6000602082840312156111ff57600080fd5b600061120d8482850161102c565b91505092915050565b60006020828403121561122857600080fd5b600061123684828501611080565b91505092915050565b6112488161161a565b82525050565b6112578161162c565b82525050565b61126681611638565b82525050565b6000611279602683611609565b91506112848261170e565b604082019050919050565b600061129c601083611609565b91506112a78261175d565b602082019050919050565b60006112bf602083611609565b91506112ca82611786565b602082019050919050565b60006112e2601783611609565b91506112ed826117af565b602082019050919050565b6000611305600e83611609565b9150611310826117d8565b602082019050919050565b6000611328601d83611609565b915061133382611801565b602082019050919050565b600061134b601483611609565b91506113568261182a565b602082019050919050565b61136a81611684565b82525050565b6000602082019050611385600083018461123f565b92915050565b60006060820190506113a0600083018661123f565b6113ad602083018561123f565b6113ba6040830184611361565b949350505050565b60006040820190506113d7600083018561123f565b6113e46020830184611361565b9392505050565b6000602082019050611400600083018461124e565b92915050565b600060208201905061141b600083018461125d565b92915050565b6000602082019050818103600083015261143a8161126c565b9050919050565b6000602082019050818103600083015261145a8161128f565b9050919050565b6000602082019050818103600083015261147a816112b2565b9050919050565b6000602082019050818103600083015261149a816112d5565b9050919050565b600060208201905081810360008301526114ba816112f8565b9050919050565b600060208201905081810360008301526114da8161131b565b9050919050565b600060208201905081810360008301526114fa8161133e565b9050919050565b60006020820190506115166000830184611361565b92915050565b60006080820190506115316000830187611361565b61153e602083018661123f565b61154b604083018561123f565b6115586060830184611361565b95945050505050565b60006040820190506115766000830185611361565b611583602083018461124e565b9392505050565b600060408201905061159f6000830185611361565b6115ac6020830184611361565b9392505050565b60006115bd6115ce565b90506115c9828261169d565b919050565b6000604051905090565b600067ffffffffffffffff8211156115f3576115f26116ce565b5b6115fc826116fd565b9050602081019050919050565b600082825260208201905092915050565b600061162582611664565b9050919050565b60008115159050919050565b60007fffffffff0000000000000000000000000000000000000000000000000000000082169050919050565b600073ffffffffffffffffffffffffffffffffffffffff82169050919050565b6000819050919050565b82818337600083830152505050565b6116a6826116fd565b810181811067ffffffffffffffff821117156116c5576116c46116ce565b5b80604052505050565b7f4e487b7100000000000000000000000000000000000000000000000000000000600052604160045260246000fd5b6000601f19601f8301169050919050565b7f4f776e61626c653a206e6577206f776e657220697320746865207a65726f206160008201527f6464726573730000000000000000000000000000000000000000000000000000602082015250565b7f5061757361626c653a2070617573656400000000000000000000000000000000600082015250565b7f4f776e61626c653a2063616c6c6572206973206e6f7420746865206f776e6572600082015250565b7f43616c6c6572206973206e6f74206e6674206f776e6572000000000000000000600082015250565b7f4578636565642062616c616e6365000000000000000000000000000000000000600082015250565b7f596f75206d7573742073656e642031303020776569206d696e696d756d000000600082015250565b7f43617264206973206e6f7420666f722073616c65000000000000000000000000600082015250565b61185c8161161a565b811461186757600080fd5b50565b6118738161162c565b811461187e57600080fd5b50565b61188a81611684565b811461189557600080fd5b5056fea26469706673582212209d08fb1431004517df76d0e189cf88f8dc9cc046f8e14bef876e01ca4ec1865364736f6c63430008030033",
  "immutableReferences": {},
  "source": "// SPDX-License-Identifier: MIT\r\npragma solidity 0.8.3;\r\n\r\nimport \"@openzeppelin/contracts/token/ERC721/extensions/ERC721URIStorage.sol\";\r\nimport \"@openzeppelin/contracts/token/ERC721/utils/ERC721Holder.sol\";\r\nimport \"@openzeppelin/contracts/token/ERC20/utils/SafeERC20.sol\";\r\nimport \"@openzeppelin/contracts/utils/Counters.sol\";\r\nimport \"@openzeppelin/contracts/utils/math/SafeMath.sol\";\r\nimport '@openzeppelin/contracts/access/Ownable.sol';\r\nimport '@openzeppelin/contracts/security/Pausable.sol';\r\nimport \"./CardItem.sol\";\r\n\r\n/// @title Markeplace Contract\r\n/// @dev This contract manages everything related to the purchase/sell and price of NFT\r\ncontract Marketplace is ERC721Holder, Ownable, Pausable {\r\n    using SafeMath for uint256;\r\n\r\n    IERC20 private acceptedToken;\r\n    CardItem private nft;\r\n        \r\n    /**\r\n     * @dev Emitted when NFT is buyed.\r\n     */\r\n    event BuyTransaction(\r\n        uint256 assetId,\r\n        address oldOwner,\r\n        address newOwner,\r\n        uint256 price\r\n    );\r\n         \r\n    /** \r\n     * @dev Throws if called by any account other than the NFT owner.\r\n     * @param _nftAddress - NFT collection address\r\n     * @param _assetId - NFT id.\r\n     */\r\n    modifier onlyNFTOwner(address _nftAddress, uint256 _assetId) {\r\n        require(_nftAddress != address(0));\r\n        require(msg.sender == IERC721(_nftAddress).ownerOf(_assetId), \"Caller is not nft owner\");\r\n        _;\r\n    }\r\n   \r\n    /** \r\n     * @dev Initializes the contract by setting a ERC20 token instance.\r\n     * @param _acceptedToken - ERC20 token instance.\r\n     */\r\n    constructor(address _acceptedToken) {\r\n        require(_acceptedToken != address(0));\r\n        acceptedToken = IERC20(_acceptedToken);\r\n    }\r\n    \r\n    /** \r\n     * @dev Swap ETH to ERC20 token.\r\n     */\r\n    receive() external payable {\r\n        require(msg.value > 100, \"You must send 100 wei minimum\");\r\n        require(msg.value < acceptedToken.balanceOf(address(this)), \"Exceed balance\");\r\n        acceptedToken.transfer(msg.sender, msg.value);\r\n    }\r\n    \r\n\r\n    /**\r\n     * @dev Buy a NFT  \r\n     * @param _nftAddress - NFT contract address\r\n     * @param _assetId - NFT id\r\n     */\r\n    function buy(address _nftAddress, uint256 _assetId) public payable whenNotPaused {\r\n        require(CardItem(_nftAddress).getOnSale(_assetId) == true, \"Card is not for sale\");\r\n        address nftOwner = IERC721(_nftAddress).ownerOf(_assetId);\r\n        uint256 priceInWei = CardItem(_nftAddress).getPrice(_assetId);\r\n\r\n        acceptedToken.transferFrom(\r\n            msg.sender, \r\n            nftOwner,\r\n            priceInWei\r\n        );\r\n        \r\n        IERC721(_nftAddress).transferFrom(\r\n            nftOwner,\r\n            msg.sender,\r\n            _assetId\r\n        );\r\n        \r\n        CardItem(_nftAddress).updateOnSale(_assetId, false);\r\n\r\n        emit BuyTransaction(_assetId, nftOwner, msg.sender, priceInWei);\r\n    }\r\n    \r\n    /** \r\n     * @dev Set a NFT price \r\n     * @param _assetId - NFT id\r\n     * @param _amount - NFT price\r\n     */\r\n    function putOnSale(address _nftAddress, uint256 _assetId, uint256 _amount) public whenNotPaused onlyNFTOwner(_nftAddress, _assetId) {\r\n        CardItem(_nftAddress).setPrice(_assetId, _amount);\r\n        \r\n        if(!CardItem(_nftAddress).getOnSale(_assetId)) {\r\n            CardItem(_nftAddress).updateOnSale(_assetId, true);\r\n        }\r\n    }\r\n\r\n    /** \r\n     * @dev remove NFT on sale\r\n     * @param _assetId - NFT id\r\n     */\r\n    function removeOnSale(address _nftAddress, uint256 _assetId) public whenNotPaused onlyNFTOwner(_nftAddress, _assetId){\r\n        CardItem(_nftAddress).updateOnSale(_assetId, false);\r\n    }\r\n}",
  "sourcePath": "C:/work_store/blockchain_work/tatakai/contracts/Marketplace.sol",
  "compiler": {
    "name": "solc",
    "version": "0.8.3+commit.8d00100c.Emscripten.clang"
  },
  "schemaVersion": "3.3.4",
  "updatedAt": "2021-04-26T22:57:37.658Z",
  "networkType": "ethereum",
  "devdoc": {
    "details": "This contract manages everything related to the purchase/sell and price of NFT",
    "events": {
      "BuyTransaction(uint256,address,address,uint256)": {
        "details": "Emitted when NFT is buyed."
      }
    },
    "kind": "dev",
    "methods": {
      "buy(address,uint256)": {
        "details": "Buy a NFT  ",
        "params": {
          "_assetId": "- NFT id",
          "_nftAddress": "- NFT contract address"
        }
      },
      "constructor": {
        "details": "Initializes the contract by setting a ERC20 token instance.",
        "params": {
          "_acceptedToken": "- ERC20 token instance."
        }
      },
      "onERC721Received(address,address,uint256,bytes)": {
        "details": "See {IERC721Receiver-onERC721Received}. Always returns `IERC721Receiver.onERC721Received.selector`."
      },
      "owner()": {
        "details": "Returns the address of the current owner."
      },
      "paused()": {
        "details": "Returns true if the contract is paused, and false otherwise."
      },
      "putOnSale(address,uint256,uint256)": {
        "details": "Set a NFT price ",
        "params": {
          "_amount": "- NFT price",
          "_assetId": "- NFT id"
        }
      },
      "removeOnSale(address,uint256)": {
        "details": "remove NFT on sale",
        "params": {
          "_assetId": "- NFT id"
        }
      },
      "renounceOwnership()": {
        "details": "Leaves the contract without owner. It will not be possible to call `onlyOwner` functions anymore. Can only be called by the current owner. NOTE: Renouncing ownership will leave the contract without an owner, thereby removing any functionality that is only available to the owner."
      },
      "transferOwnership(address)": {
        "details": "Transfers ownership of the contract to a new account (`newOwner`). Can only be called by the current owner."
      }
    },
    "title": "Markeplace Contract",
    "version": 1
  },
  "userdoc": {
    "kind": "user",
    "methods": {},
    "version": 1
  }
}