{
  "contractName": "Marketplace",
  "abi": [
    {
      "inputs": [
        {
          "internalType": "address",
          "name": "_acceptedToken",
          "type": "address"
        }
      ],
      "stateMutability": "nonpayable",
      "type": "constructor"
    },
    {
      "anonymous": false,
      "inputs": [
        {
          "indexed": true,
          "internalType": "address",
          "name": "previousOwner",
          "type": "address"
        },
        {
          "indexed": true,
          "internalType": "address",
          "name": "newOwner",
          "type": "address"
        }
      ],
      "name": "OwnershipTransferred",
      "type": "event"
    },
    {
      "inputs": [],
      "name": "acceptedToken",
      "outputs": [
        {
          "internalType": "contract IERC20",
          "name": "",
          "type": "address"
        }
      ],
      "stateMutability": "view",
      "type": "function"
    },
    {
      "inputs": [
        {
          "internalType": "address",
          "name": "",
          "type": "address"
        },
        {
          "internalType": "address",
          "name": "",
          "type": "address"
        },
        {
          "internalType": "uint256",
          "name": "",
          "type": "uint256"
        },
        {
          "internalType": "bytes",
          "name": "",
          "type": "bytes"
        }
      ],
      "name": "onERC721Received",
      "outputs": [
        {
          "internalType": "bytes4",
          "name": "",
          "type": "bytes4"
        }
      ],
      "stateMutability": "nonpayable",
      "type": "function"
    },
    {
      "inputs": [],
      "name": "owner",
      "outputs": [
        {
          "internalType": "address",
          "name": "",
          "type": "address"
        }
      ],
      "stateMutability": "view",
      "type": "function"
    },
    {
      "inputs": [],
      "name": "renounceOwnership",
      "outputs": [],
      "stateMutability": "nonpayable",
      "type": "function"
    },
    {
      "inputs": [
        {
          "internalType": "address",
          "name": "newOwner",
          "type": "address"
        }
      ],
      "name": "transferOwnership",
      "outputs": [],
      "stateMutability": "nonpayable",
      "type": "function"
    },
    {
      "inputs": [
        {
          "internalType": "address",
          "name": "_nftAddress",
          "type": "address"
        },
        {
          "internalType": "address",
          "name": "_buyer",
          "type": "address"
        },
        {
          "internalType": "uint256",
          "name": "_assetId",
          "type": "uint256"
        },
        {
          "internalType": "uint256",
          "name": "_priceInWei",
          "type": "uint256"
        }
      ],
      "name": "buy",
      "outputs": [
        {
          "internalType": "uint256",
          "name": "",
          "type": "uint256"
        }
      ],
      "stateMutability": "nonpayable",
      "type": "function"
    }
  ],
  "bytecode": "0x608060405234801561001057600080fd5b50604051610d1c380380610d1c83398181016040528101906100329190610144565b600061004261012760201b60201c565b9050806000806101000a81548173ffffffffffffffffffffffffffffffffffffffff021916908373ffffffffffffffffffffffffffffffffffffffff1602179055508073ffffffffffffffffffffffffffffffffffffffff16600073ffffffffffffffffffffffffffffffffffffffff167f8be0079c531659141344cd1fd0a4f28419497f9722a3daafe3b4186f6b6457e060405160405180910390a35080600160006101000a81548173ffffffffffffffffffffffffffffffffffffffff021916908373ffffffffffffffffffffffffffffffffffffffff160217905550506101b6565b600033905090565b60008151905061013e8161019f565b92915050565b60006020828403121561015657600080fd5b60006101648482850161012f565b91505092915050565b60006101788261017f565b9050919050565b600073ffffffffffffffffffffffffffffffffffffffff82169050919050565b6101a88161016d565b81146101b357600080fd5b50565b610b57806101c56000396000f3fe608060405234801561001057600080fd5b50600436106100625760003560e01c8063150b7a0214610067578063451c3d8014610097578063715018a6146100b55780638da5cb5b146100bf578063a9d424e2146100dd578063f2fde38b1461010d575b600080fd5b610081600480360381019061007c9190610679565b610129565b60405161008e9190610854565b60405180910390f35b61009f61013d565b6040516100ac919061086f565b60405180910390f35b6100bd610163565b005b6100c761029d565b6040516100d49190610802565b60405180910390f35b6100f760048036038101906100f291906106f4565b6102c6565b60405161010491906108ca565b60405180910390f35b61012760048036038101906101229190610650565b6103f8565b005b600063150b7a0260e01b9050949350505050565b600160009054906101000a900473ffffffffffffffffffffffffffffffffffffffff1681565b61016b6105a1565b73ffffffffffffffffffffffffffffffffffffffff1661018961029d565b73ffffffffffffffffffffffffffffffffffffffff16146101df576040517f08c379a00000000000000000000000000000000000000000000000000000000081526004016101d6906108aa565b60405180910390fd5b600073ffffffffffffffffffffffffffffffffffffffff1660008054906101000a900473ffffffffffffffffffffffffffffffffffffffff1673ffffffffffffffffffffffffffffffffffffffff167f8be0079c531659141344cd1fd0a4f28419497f9722a3daafe3b4186f6b6457e060405160405180910390a360008060006101000a81548173ffffffffffffffffffffffffffffffffffffffff021916908373ffffffffffffffffffffffffffffffffffffffff160217905550565b60008060009054906101000a900473ffffffffffffffffffffffffffffffffffffffff16905090565b6000600160009054906101000a900473ffffffffffffffffffffffffffffffffffffffff1673ffffffffffffffffffffffffffffffffffffffff166323b872dd3361030f61029d565b856040518463ffffffff1660e01b815260040161032e9392919061081d565b602060405180830381600087803b15801561034857600080fd5b505af115801561035c573d6000803e3d6000fd5b505050506040513d601f19601f820116820180604052508101906103809190610757565b508473ffffffffffffffffffffffffffffffffffffffff166342842e0e3086866040518463ffffffff1660e01b81526004016103be9392919061081d565b600060405180830381600087803b1580156103d857600080fd5b505af11580156103ec573d6000803e3d6000fd5b50505050949350505050565b6104006105a1565b73ffffffffffffffffffffffffffffffffffffffff1661041e61029d565b73ffffffffffffffffffffffffffffffffffffffff1614610474576040517f08c379a000000000000000000000000000000000000000000000000000000000815260040161046b906108aa565b60405180910390fd5b600073ffffffffffffffffffffffffffffffffffffffff168173ffffffffffffffffffffffffffffffffffffffff1614156104e4576040517f08c379a00000000000000000000000000000000000000000000000000000000081526004016104db9061088a565b60405180910390fd5b8073ffffffffffffffffffffffffffffffffffffffff1660008054906101000a900473ffffffffffffffffffffffffffffffffffffffff1673ffffffffffffffffffffffffffffffffffffffff167f8be0079c531659141344cd1fd0a4f28419497f9722a3daafe3b4186f6b6457e060405160405180910390a3806000806101000a81548173ffffffffffffffffffffffffffffffffffffffff021916908373ffffffffffffffffffffffffffffffffffffffff16021790555050565b600033905090565b60006105bc6105b78461090a565b6108e5565b9050828152602081018484840111156105d457600080fd5b6105df8482856109e4565b509392505050565b6000813590506105f681610adc565b92915050565b60008151905061060b81610af3565b92915050565b600082601f83011261062257600080fd5b81356106328482602086016105a9565b91505092915050565b60008135905061064a81610b0a565b92915050565b60006020828403121561066257600080fd5b6000610670848285016105e7565b91505092915050565b6000806000806080858703121561068f57600080fd5b600061069d878288016105e7565b94505060206106ae878288016105e7565b93505060406106bf8782880161063b565b925050606085013567ffffffffffffffff8111156106dc57600080fd5b6106e887828801610611565b91505092959194509250565b6000806000806080858703121561070a57600080fd5b6000610718878288016105e7565b9450506020610729878288016105e7565b935050604061073a8782880161063b565b925050606061074b8782880161063b565b91505092959194509250565b60006020828403121561076957600080fd5b6000610777848285016105fc565b91505092915050565b6107898161094c565b82525050565b6107988161096a565b82525050565b6107a7816109c0565b82525050565b60006107ba60268361093b565b91506107c582610a64565b604082019050919050565b60006107dd60208361093b565b91506107e882610ab3565b602082019050919050565b6107fc816109b6565b82525050565b60006020820190506108176000830184610780565b92915050565b60006060820190506108326000830186610780565b61083f6020830185610780565b61084c60408301846107f3565b949350505050565b6000602082019050610869600083018461078f565b92915050565b6000602082019050610884600083018461079e565b92915050565b600060208201905081810360008301526108a3816107ad565b9050919050565b600060208201905081810360008301526108c3816107d0565b9050919050565b60006020820190506108df60008301846107f3565b92915050565b60006108ef610900565b90506108fb82826109f3565b919050565b6000604051905090565b600067ffffffffffffffff82111561092557610924610a24565b5b61092e82610a53565b9050602081019050919050565b600082825260208201905092915050565b600061095782610996565b9050919050565b60008115159050919050565b60007fffffffff0000000000000000000000000000000000000000000000000000000082169050919050565b600073ffffffffffffffffffffffffffffffffffffffff82169050919050565b6000819050919050565b60006109cb826109d2565b9050919050565b60006109dd82610996565b9050919050565b82818337600083830152505050565b6109fc82610a53565b810181811067ffffffffffffffff82111715610a1b57610a1a610a24565b5b80604052505050565b7f4e487b7100000000000000000000000000000000000000000000000000000000600052604160045260246000fd5b6000601f19601f8301169050919050565b7f4f776e61626c653a206e6577206f776e657220697320746865207a65726f206160008201527f6464726573730000000000000000000000000000000000000000000000000000602082015250565b7f4f776e61626c653a2063616c6c6572206973206e6f7420746865206f776e6572600082015250565b610ae58161094c565b8114610af057600080fd5b50565b610afc8161095e565b8114610b0757600080fd5b50565b610b13816109b6565b8114610b1e57600080fd5b5056fea26469706673582212202a0745eb697cb9f5d914bf4827070f134c56dd0c2ad538c17ccd2802fe8bda3b64736f6c63430008030033",
  "immutableReferences": {},
  "source": "// SPDX-License-Identifier: MIT\r\npragma solidity 0.8.3;\r\n\r\nimport \"@openzeppelin/contracts/token/ERC721/extensions/ERC721URIStorage.sol\";\r\nimport \"@openzeppelin/contracts/token/ERC721/utils/ERC721Holder.sol\";\r\nimport \"@openzeppelin/contracts/token/ERC20/utils/SafeERC20.sol\";\r\nimport \"@openzeppelin/contracts/utils/Counters.sol\";\r\nimport '@openzeppelin/contracts/access/Ownable.sol';\r\n\r\n\r\ncontract Marketplace is ERC721Holder, Ownable {\r\n\r\n    using SafeERC20 for IERC20;\r\n    IERC20 public acceptedToken;\r\n\r\n    constructor(address _acceptedToken) public {\r\n        acceptedToken = IERC20(_acceptedToken);\r\n    }\r\n    \r\n    /** \r\n     * @dev Buy a NFT  \r\n     * @param _nftAddress - NFT contract address\r\n     * @param _buyer - Buyer address\r\n     * @param _assetId - NFT id\r\n     * @param _priceInWei - NFT price\r\n     */\r\n    function buy(address _nftAddress, address _buyer, uint256 _assetId, uint256 _priceInWei) public returns(uint256) {\r\n        acceptedToken.transferFrom(\r\n                msg.sender,\r\n                owner(),\r\n                _priceInWei\r\n        );\r\n        \r\n        IERC721(_nftAddress).safeTransferFrom(\r\n            address(this),\r\n            _buyer,\r\n            _assetId\r\n        );\r\n    }\r\n    \r\n}",
  "sourcePath": "C:/work_store/blockchain_work/tatakai/contracts/Marketplace.sol",
  "compiler": {
    "name": "solc",
    "version": "0.8.3+commit.8d00100c.Emscripten.clang"
  },
  "schemaVersion": "3.3.4",
  "updatedAt": "2021-04-06T08:02:03.536Z",
  "devdoc": {
    "kind": "dev",
    "methods": {
      "buy(address,address,uint256,uint256)": {
        "details": "Buy a NFT  ",
        "params": {
          "_assetId": "- NFT id",
          "_buyer": "- Buyer address",
          "_nftAddress": "- NFT contract address",
          "_priceInWei": "- NFT price"
        }
      },
      "onERC721Received(address,address,uint256,bytes)": {
        "details": "See {IERC721Receiver-onERC721Received}. Always returns `IERC721Receiver.onERC721Received.selector`."
      },
      "owner()": {
        "details": "Returns the address of the current owner."
      },
      "renounceOwnership()": {
        "details": "Leaves the contract without owner. It will not be possible to call `onlyOwner` functions anymore. Can only be called by the current owner. NOTE: Renouncing ownership will leave the contract without an owner, thereby removing any functionality that is only available to the owner."
      },
      "transferOwnership(address)": {
        "details": "Transfers ownership of the contract to a new account (`newOwner`). Can only be called by the current owner."
      }
    },
    "version": 1
  },
  "userdoc": {
    "kind": "user",
    "methods": {},
    "version": 1
  }
}